:100000000C94CA0D0C94E70D0C94E70D0C94E70DBD
:100010000C94E70D0C94E70D0C94E70D0C94E70D90
:100020000C94E70D0C94E70D0C944D190C94641E80
:100030000C94B0280C94E70D0C94E70D0C94E70D8C
:100040000C94E70D0C94E70D0C94E70D0C94E70D60
:100050000C94E70D0C94261A0C94E70D0C94E70D04
:100060000C94E70D0C94E70D0C94E70D0C94E70D40
:100070000C94E70D0C94E70D0C94E70D0C94E70D30
:100080000C94E70D0C94E70D0C94E70D0C94E70D20
:100090000C94E70D0C94E70D0C94E70D0C94E70D10
:1000A0000C94E70D0C94E70D0C94E70D0501098005
:1000B000A101850319012AB700150126B700950192
:1000C00075108100C0050C0901A101850419012AE0
:1000D000A002150126A002950175108100C00660DE
:1000E000FF0961A1010962150026FF00952075082E
:1000F00081020963150026FF00952075089102C052
:1001000005010906A101050719E029E715002501E8
:10011000950875018102950175088101050719008F
:1001200029FF150026FF00950675088100050819AE
:1001300001290515002501950575019102950175A7
:10014000039101C00000000000000000000000005A
:10015000000000000000000000000000000000009F
:10016000000000000000000000000000000000008F
:1001700000000000000000808000000000008040BF
:100180004020202020101010100804020101020C51
:1001900030408000000000000000F8F8F8F800008F
:1001A000000000808000000000000000000000004F
:1001B000000000000000000000000000000000003F
:1001C00000808080000000000000000000000000AF
:1001D000000000000000000000000000000000001F
:1001E000000000000000000000000000000000000F
:1001F00000000000001EE100000101020281808079
:10020000000080800000000000000000008000303E
:10021000300000010102040810204387070100B8E4
:10022000BCBE9F5F5F4F4C20202020101010100894
:10023000080808080404040404020202020101017F
:1002400001000000000000000000000000000000AD
:10025000000000000000000000000000000000009E
:10026000000000000000000000000000000000008E
:100270000000000080700C030000180605989984A7
:10028000437C4141404020212212111111090808EC
:100290000808040408081010101010110F013D7C0C
:1002A000FCFCFCFCFC3C0C0000000000000000001A
:1002B000000000000000000000000000000000003E
:1002C000000000000000000000000000000000002E
:1002D000000000000080808080804040404040203E
:1002E000202020201010101010080808080804040E
:1002F00004040402030202010101010101000000E3
:1003000000000000000000000000000000000000ED
:1003100000000000000000000000000000000000DD
:1003200000010303000000000000000000000000C6
:1003300000000000000000000000000000000000BD
:1003400000000000000000000000000000000000AD
:10035000000000000000000000000000000000009D
:10036000000000000000000000000000000000008D
:1003700000000000000000808000000000008040BD
:100380004020202020101010100804020101020C4F
:10039000304080000000000000000000000000006D
:1003A000000000000000000000000000000000004D
:1003B000000000000000000000000000000000003D
:1003C00000808080000000000000000000000000AD
:1003D000000000000000000000000000000000001D
:1003E000000000000000000000000000000000000D
:1003F00000000000001EE1000001010202010000F7
:10040000000080800000000000000000008000303C
:1004100030000001E11A06093135018A7C000080B4
:100420008080804040404020202020101010100884
:10043000080808080404040404020202020101017D
:1004400001000000000000000000000000000000AB
:10045000000000000000000000000000000000009C
:10046000000000000000000000000000000000008C
:100470000000000080700C0300000000000000007D
:10048000000001010040A0212212111111090808E9
:10049000080804040404040402020201010101002A
:1004A000000000000000000000000000000000004C
:1004B000000000000000000000000000000000003C
:1004C000000000000000000000000000000000002C
:1004D000000000000080808080804040404040203C
:1004E000202020201010101010080808080804040C
:1004F00004040402037A7A797979793931020204A1
:1005000004080808888887800000000000000000B8
:1005100000000000000000000000000000000000DB
:1005200000000000000000000000000000000000CB
:1005300000000000000000000000000000000000BB
:1005400000000000000000000000000000000000AB
:10055000000000000000000000000000000000009B
:10056000000000000000000000000000000000008B
:1005700000000000000000808000000000008040BB
:100580004020202020101010100804020101020C4D
:10059000304080000000000000000000000000006B
:1005A000000000000000000000000000000000004B
:1005B000000000000000000000000000000000003B
:1005C00000808080000000000000000000000000AB
:1005D000000000000000000000000000000000001B
:1005E000000000000000000000000000000000000B
:1005F00000000000001EE100000101020281808075
:10060000000080800000000000000000008000303A
:1006100030000001E11A06093135018A7C000080B2
:100620008080804040404020202020101010100882
:10063000080808080404040404020202020101017B
:1006400001000000000000000000000000000000A9
:10065000000000000000000000000000000000009A
:10066000000000000000000000000000000000008A
:100670000000000080700C030000180605989984A3
:10068000C37C414140402021221211111109080868
:100690000808040404040404020202010101010028
:1006A000000000000000000000000000000000004A
:1006B000000000000000000000000000000000003A
:1006C000000000000000000000000000000000002A
:1006D000000000000080808080804040404040203A
:1006E000202020201010101010080808080804040A
:1006F00004040402030202010101010101000000DF
:1007000000000000000000000000000000000000E9
:1007100000000000000000000000000000000000D9
:1007200000000000000000000000000000000000C9
:1007300000000000000000000000000000000000B9
:1007400000000000000000000000000000000000A9
:100750000000000000000000000000000000000099
:100760000000000000000000000000000000000089
:1007700000000000000000000000000000008040B9
:100780004020202020101010101008080404040835
:100790003040800000000000000000000000000069
:1007A0000000000000000000000000000000000049
:1007B0000000000000000000000000000000000039
:1007C00000808080000000000000000000000000A9
:1007D0000000000000000000000000000000000019
:1007E0000000000000000000000000000000000009
:1007F00000000000001864820202020202010000F0
:100800000000808000000000000000000080003038
:100810003000C0C1C1C20408102040800000008028
:100820008080804040404020202020101010100880
:100830000808080804040404040202020201010179
:1008400001000000000000000000000000000000A7
:100850000000000000000000000000000000000098
:100860000000000000000000000000000000000088
:1008700000000000C0380403000000000000000C6D
:100880000C0C0D010040A0212212111111090808C1
:100890000808040408081010101010110F010100BE
:1008A0000000000000000000000000000000000048
:1008B0000000000000000000000000000000000038
:1008C0000000000000000000000000000000000028
:1008D0000000000000808080808040404040402038
:1008E0002020202010101010100808080808040408
:1008F00004040402030202010101010101020204D5
:1009000004080808080807000000000000000000B4
:1009100000000000000000000000000000000000D7
:1009200000000000000000000000000000000000C7
:1009300000000000000000000000000000000000B7
:1009400000000000000000000000000000000000A7
:100950000000000000000000000000000000000097
:100960000000000000000000000000000000000087
:1009700000000000000000000000000000008040B7
:100980004020202020101010101008080404040833
:100990003040800000000000000000000000000067
:1009A0000000000000000000000000000000000047
:1009B0000000000000000000000000000000000037
:1009C00000808080000000000000000000000000A7
:1009D0000000000000000000000000000000000017
:1009E0000000000000000000000000000000000007
:1009F00000000000001864820202020202010000EE
:100A00000000808000000000000000000080003036
:100A10003000C0C1C1C20408102040800000008026
:100A2000808080404040402020202010101010087E
:100A30000808080804040404040202020201010177
:100A400001000000000000000000000000000000A5
:100A50000000000000000000000000000000000096
:100A60000000000000000000000000000000000086
:100A700000000000C0380403000000000000000C6B
:100A80000C0C0D010040A0212212111111090808BF
:100A90000808040408081010101010110F010100BC
:100AA0000000000000000000000000000000000046
:100AB0000000000000000000000000000000000036
:100AC0000000000000000000000000000000000026
:100AD0000000000000808080808040404040402036
:100AE0002020202010101010100808080808040406
:100AF00004040402030202010101010101020204D3
:100B000004080808080807000000000000000000B2
:100B100000000000000000000000000000000000D5
:100B200000000000000000000000000000000000C5
:100B300000000000000000000000000000000000B5
:100B400000000000000000000000000000000000A5
:100B50000000000000000000000000000000000095
:100B60000000000000000000000000000000000085
:100B700000000000000000000000000000000080F5
:100B80008040404040202020201008040202041829
:100B90006080000000000000000000000000000075
:100BA0000000000000000000000000000000000045
:100BB0000000000000000000000000000000000035
:100BC00000808080000000000000000000000000A5
:100BD0000000000000000000000000000000000015
:100BE0000000000000000000000000000000000005
:100BF00000000000003CC2010102020404020100E6
:100C00000000000000000000000000000000006084
:100C100060008182828408102040800000000080F3
:100C2000808080404040402020202010101010087C
:100C30000808080804040404040202020201010175
:100C400001000000000000000000000000000000A3
:100C50000000000000000000000000000000000094
:100C60000000000000000000000000000000000084
:100C7000000000008070190600000000000000184D
:100C800018181B030040A02224141212120B08088B
:100C90000808050509091010101010110F010100B6
:100CA0000000000000000000000000000000000044
:100CB0000000000000000000000000000000000034
:100CC0000000000000000000000000000000000024
:100CD0000000000000808080808040404040402034
:100CE0002020202010101010100808080808040404
:100CF00004040402030202010101010101020204D1
:100D000004080808080807000000000000000000B0
:100D100000000000000000000000000000000000D3
:100D200000000000000000000000000000000000C3
:100D300000000000000000000000000000000000B3
:100D400000000000000000000000000000000000A3
:100D50000000000000000000000000000000000093
:100D60000000000000000000000000000000000083
:100D700000000000000000808000000000008040B3
:100D80004020202020101010100804020101020C45
:100D90003040800000000000000000000000000063
:100DA0000000000000000000000000000000000043
:100DB0000000000000000000000000000000000033
:100DC00000808080000000000000000000000000A3
:100DD0000000000000000000000000000000000013
:100DE0000000000000000000000000000000000003
:100DF00000000000001EE1000001010202010000ED
:100E00000000808000000000000000000080003032
:100E10003000C0C1C1C20408102040800000008022
:100E2000808080404040402020202010101010087A
:100E30000808080804040404040202020201010173
:100E400001000000000000000000000000000000A1
:100E50000000000000000000000000000000000092
:100E60000000000000000000000000000000000082
:100E70000000000080700C03000000000000000C67
:100E80000C0C0D010040A0212212111111090808BB
:100E90000808040408081010101010110F010100B8
:100EA0000000000000000000000000000000000042
:100EB0000000000000000000000000000000000032
:100EC0000000000000000000000000000000000022
:100ED0000000000000808080808040404040402032
:100EE0002020202010101010100808080808040402
:100EF00004040402030202010101010101020204CF
:100F000004080808080807000000000000000000AE
:100F100000000000000000000000000000000000D1
:100F200000000000000000000000000000000000C1
:100F300000000000000000000000000000000000B1
:100F400000000000000000000000000000000000A1
:100F50000000000000000000000000000000000091
:100F60000000000000000000000000000000000081
:100F700000000000000000000000000000008040B1
:100F80004020202020101010100808040202020443
:100F90003840800000000000000000000000000059
:100FA0000000000000000000000000000000000041
:100FB0000000000000000000000000000000000031
:100FC00000808080000000000000000000000000A1
:100FD0000000000000000000000000000000000011
:100FE0000000000000000000000000000000000001
:100FF00000000000001CE2010102020202010000E8
:101000000000808000000000000000000080003030
:101010003000C0C1C1C20408102040800000008020
:101020008080804040404020202020101010100878
:101030000808080804040404040202020201010171
:10104000010000000000000000000000000000009F
:101050000000000000000000000000000000000090
:101060000000000000000000000000000000000080
:101070000000000080700C03000000000000000C65
:101080000C0C0D010040A0212212111111090808B9
:101090000808040408081010101010110F010100B6
:1010A0000000000000000000000000000000000040
:1010B0000000000000000000000000000000000030
:1010C0000000000000000000000000000000000020
:1010D0000000000000808080808040404040402030
:1010E0002020202010101010100808080808040400
:1010F00004040402030202010101010101020204CD
:1011000004080808080807000000000000000000AC
:1011100000000000000000000000000000000000CF
:1011200000000000000000000000000000000000BF
:1011300000000000000000000000000000000000AF
:101140000000000000DA0281FFD9F1DB20A4A62E06
:10115000AF00A0C0D30000A1C8D30000AED580A8C6
:101160001F408D142000FD377A585A000004E6D63F
:10117000B4460200210116000000742FE5A3E0062A
:101180006301F55D003D8889C65436C3174FE4F509
:101190005C267DB380F3B5C66371860F1B80DDAB23
:1011A00003511C299A66DF75DCD66C18E389AD38CB
:1011B0008BD093C420493538BA06A9FDD35E392EA9
:1011C0005D9E0973AE08EDFCD5214987AB94A976E5
:1011D0008F6B49B357AA9E5706559105D54FB24319
:1011E000C5936BCB96F6DF062629D54CD6CAFE4CA6
:1011F0007B827882A9A9034B9910B8547BC64CB165
:10120000D5AF75866369E9601B02F58D1D31C90292
:10121000905A5E6FDFF0CC714951A18D89FBD45F8C
:10122000034EBBD9D056E9713D8819A9D0333B8A0A
:101230004FF8052A8C6B87B6A991DE2B5DB7DA468D
:101240008AB1B0B24271BB122D24CA4E4654ECAEE4
:10125000031B249B1E31C2C45AC0CD67C1A295C6D0
:10126000422BC2B2A095064C01BECB2E9440999F52
:10127000DDA11FDB0EBF564467C88B448AF64C3C89
:10128000A30F845B39080C4B03EDCE74AB711FEDDB
:10129000DD0EB1DB68C01D4A9A05D979987C5B9454
:1012A00094E0FA180B8F561F8A910849C480C42A0B
:1012B000A6A4A9DE51CBB6A39B0CD30B9DAF037C98
:1012C0001DF046440EBF91B9003508D150429A3105
:1012D0002368BF4368C9E1E7DC2D311F322860274E
:1012E00017EC1B532B4D2744A24563A098E55AF7F2
:1012F00081727C81B81C3E5AF524A7C7C2E1EC4834
:1013000087FE1E9F603126088403025371B145DCBD
:101310003E62EBFF635D9796CCB84D2B50445283F1
:1013200050BF907315E8A0E31C0A270EAFE234D03B
:10133000CB2AF12ACAE729D5C11B898F0299EB3242
:10134000F882282AE9A0662B7A2AAA3934DC00D34D
:101350009CAD9663031426000B76E680557CA98D20
:101360004F4537F8631FFC3D717B5463593C571C54
:1013700083629885FE1C1072D200000000004F1F8F
:101380004736CAA942E800019104E40C0000F09835
:10139000E8B0B1C467FB020000000004595A00AF76
:1013A00000AE29001E001F002000210022002300A3
:1013B00024002500260027002D002E0000002A0012
:1013C0004A002B0014001A000800150017001C002A
:1013D00018000C00120013002F00300031004D00E7
:1013E000AE00390004001600070009000A000B00D7
:1013F0000D000E000F0033003400000028004B00E9
:10140000A800352200001D001B0006001900050081
:1014100011001000360037003800E50052004E0081
:101420000000E000E300E2000000000000002C00EB
:10143000000000000000E6002152500051004F0063
:10144000000001003A003B003C003D003E003F0030
:1014500040004100420043004400450000004C00B1
:101460004A0001000100010001000100010001002B
:101470000100010001000100010001000100010064
:101480000100010001000100010001000100010054
:101490000100010001000100010000000100010045
:1014A000A80001000000010001000100010001008E
:1014B00001000100010001000100010052000100D3
:1014C0000000E000E300E2000000000000002C004B
:1014D000000000000000E600E400500051004F0052
:1014E0000000AB00AC00A900AA00AB00AC00A90052
:1014F000AA0009025B00030100A0FA090400000130
:1015000003010100092111010001224400070581A6
:101510000308000109040100020300000009211171
:1015200001000122220007058203200001070503B4
:101530000320000109040200010300000009211139
:10154000010001223200070584032000011201007E
:101550000200000008868056560001010203011CAB
:10156000037600690061006C003A006600360034C2
:10157000006300320062003300630000000C036C63
:1015800000610067006F006D0000001203530054FB
:101590000048004C004D0020006B00620000000479
:1015A000030904000000000000000000000000002B
:1015B000000000000000000000000000000000002B
:1015C000000000000000007E0F00D4FFFFFFC700F6
:1015D00000007800000000000000002A2B28000016
:1015E00000000000000000000000000000002900D2
:1015F0000000002C1E3420212224342627252E36DC
:101600002D3738271E1F2021222324252633333649
:101610002E37381F0405060708090A0B0C0D0E0F9C
:10162000101112131415161718191A1B1C1D2F311F
:1016300030232D350405060708090A0B0C0D0E0F83
:10164000101112131415161718191A1B1C1D2F31FF
:1016500030354C07087F0807003E5B4F5B3E003E7D
:101660006B4F6B3E001C3E7C3E1C00183C7E3C18C1
:10167000001C577D571C001C5E7F5E1C0000183C40
:10168000180000FFE7C3E7FF00001824180000FF60
:10169000E7DBE7FF0030483A060E002629792926C5
:1016A00000407F05050700407F05253F005A3CE7C5
:1016B0003C5A007F3E1C1C0800081C1C3E7F001486
:1016C000227F2214005F5F005F5F0006097F017FB9
:1016D00000006689956A0060606060600094A2FF07
:1016E000A2940008047E04080010207E2010000848
:1016F000082A1C0800081C2A0808001E10101010D8
:10170000000C1E0C1E0C0030383E383000060E3E19
:101710000E060000000000000000005F0000000056
:101720000700070000147F147F1400242A7F2A1268
:101730000023130864620036495620500000080751
:10174000030000001C224100000041221C00002A6E
:101750001C7F1C2A0008083E08080000807030002A
:101760000008080808080000006060000020100859
:101770000402003E5149453E0000427F4000007295
:1017800049494946002141494D33001814127F1040
:10179000002745454539003C4A494931004121115E
:1017A000090700364949493600464949291E0000C3
:1017B0000014000000004034000000000814224122
:1017C00000141414141400004122140800020159DA
:1017D0000906003E415D594E007C1211127C007FCB
:1017E00049494936003E41414122007F4141413E45
:1017F000007F49494941007F09090901003E4141F3
:101800005173007F0808087F0000417F41000020DD
:1018100040413F01007F08142241007F404040408A
:10182000007F021C027F007F0408107F003E4141C0
:10183000413E007F09090906003E4151215E007FBB
:10184000091929460026494949320003017F01034D
:10185000003F4040403F001F2040201F003F4038D5
:10186000403F00631408146300030478040300611C
:1018700059494D4300007F414141000204081020B6
:1018800000004141417F0004020102040040404049
:101890004040000003070800002054547840007FB7
:1018A0002844443800384444442800384444287FBD
:1018B0000038545454180000087E09020018A4A4EB
:1018C0009C78007F080404780000447D40000020DC
:1018D00040403D00007F102844000000417F400050
:1018E000007C04780478007C0804047800384444C0
:1018F000443800FC182424180018242418FC007C08
:10190000080404080048545454240004043F4424A8
:10191000003C4040207C001C2040201C003C40300B
:10192000403C004428102844004C9090907C004497
:1019300064544C4400000836410000000077000069
:10194000000041360800000201020402003C262388
:10195000263C00000000000000404040F0F8F8FF86
:1019600038FFF8F83FF8F8FF38FFF8F8F04040404B
:1019700000000000000080C0C0C0800000C0C08027
:1019800000000080C0C000C0C0000080C0C00000D7
:10199000000000C0C0C0C0C000C0C0000000000007
:1019A0000000000000000000000000000000000037
:1019B0000000000000000000000000000000000027
:1019C0000000000000000000000000000000000017
:1019D0000000C0F0F8FC3E1E06010000007F4141FF
:1019E000417F007F4141417F000080C0E07E5B4F2E
:1019F0005BFEC00000C000DCD7DEDEDED7DC00C04E
:101A000000000000000000000000000000000000D6
:101A1000000000000000000000494949FFFFFFFFEF
:101A2000E0DFBFBF00BFBFDFE0FFFFFFFF49494965
:101A300000000000001F3F6060E0BF1F007F7F07C5
:101A40001E381E077F7F007F7F0E1F3B71600000E6
:101A50000000007F7F0C0C0C007E7E007F7E030365
:101A6000007F7E03037E7E03037F7E000F3E703C7B
:101A7000063C703E0F00327B49493F7E007F7E036B
:101A800003001E3F69696F2600000000000000008F
:101A90000000030F1F3F3C7870600000007F414151
:101AA000417F007F4141417F00307B7F78302020A3
:101AB00030787F3B0003000F7F0F0F0F7F0F000375
:101AC0000000000000000000000000000000000016
:101AD000000000000000000000010101070F0F7F5F
:101AE0000F7F0F0F7E0F0F7F0F7F0F0F0701010179
:101AF00000000000000000000000010100000000E4
:101B000000000000000000000000000000000000D5
:101B100000000000000000000000000000000000C5
:101B200000000000000000000000000000000000B5
:101B300000000000000000000000000000000000A5
:101B40000000000000000000000000000000000095
:101B50000000000000000000000000000000000085
:101B60000000000000000000000000000000000075
:101B70000000000000000000000000000000000065
:101B80000000000000000000000000000000000055
:101B90000000000011241FBECFEFDAE0DEBFCDBF92
:101BA00011E0A0E0B1E0ECEFFBE602C005900D9281
:101BB000A239B107D9F724E0A2E9B1E001C01D9232
:101BC000A43FB207E1F70E94D7280C94AF350C94DC
:101BD0000000CF93DF934091F2045091F304425FF1
:101BE00052409A013E5F21303240C0F020E032E0A6
:101BF000241B350B6091F0027091F102FC01CA01C7
:101C0000240F351FC1E0D0E08217930750F0709386
:101C1000F1026093F002DF91CF91089520E032E06D
:101C2000E9CF4491DC01AE50BD4F5C91451781F086
:101C30004C93AC01A5E056954795AA95E1F7DE01D6
:101C400002C0AA0FBB1F4A95E2F7AD016A2B752BA4
:101C500001963196D9CF482F2091E5029091AC02A0
:101C600057E0291302C080E0089530E0529FF00150
:101C7000539FF00D1124E355FD4F8181681306C079
:101C80008081481303C085818111EECF2F5F3F4FC4
:101C90002770E7CFE8EDF0E080818E7F808310929F
:101CA000E2001092DA001092E100A0EEB0E08C9118
:101CB00081608C9380818F77808319BCA7EDB0E021
:101CC0008C918E7F8C9380818F7E80831092950281
:101CD00008952091E4003091E50095E6A901209156
:101CE000EC00822F817020FF06C08091E80080FF09
:101CF00006C080E008952091E80022FD1AC080917E
:101D0000A202882389F0853089F08091EB0085FD5F
:101D10000FC02091E4003091E50042175307F9F21B
:101D20009150E1F684E0089582E0089583E00895FB
:101D300081E008958091A40287FF13C08091E8009C
:101D400082FF06C08091E8008B778093E80004C092
:101D50008091A2028111F2CF08958091A20288237E
:101D6000D9F38091E80080FFF8CF8091E8008E776A
:101D7000ECCF982F9093E900242F762F50E089170D
:101D800031F07091EC002091ED005091F00021FDB8
:101D900007C09F5F973071F78093E90081E0089555
:101DA0003091EB003E7F3093EB003091ED003D7FB2
:101DB0003093ED003091EB0031603093EB00709385
:101DC000EC002093ED005093F0002091EE0027FDF1
:101DD000E0CF80E00895B0E0A0E0E1EFFEE00C94F9
:101DE000F131C8EDD0E088818F7E8883E7EDF0E0A7
:101DF00080818160808384E082BF81E0809395024E
:101E000088818E7F888302EE10E0F80110821092A4
:101E1000DA0081EEC82ED12CF601108288818F77EE
:101E2000888388818068888388818F7D888319BCB6
:101E30001092A2021092A3021092A1021092A0028C
:101E400090EEE92EF12CF70180818B7F80838881D1
:101E50008160888342E060E080E00E94B90EF60174
:101E600080818E7F8083F801808181608083808182
:101E700088608083F70180818E7F80838881806184
:101E80008883CDB7DEB7E8E00C940D32FC01809179
:101E9000AA029091AB0286179707A0F06115710511
:101EA00029F49091E8009E779093E80090E0611506
:101EB000710551F4911108C08091E80082FF34C08F
:101EC00080E00895BC01F2CF8091A2028823C1F185
:101ED0008530C1F18091E80083FD30C08091E80039
:101EE00082FDEACF8091E80080FFE1CF8091F3008E
:101EF0002091F200382F6115710519F02830310555
:101F000058F091E02830310509F090E02091E80088
:101F10002E772093E800CBCF81918093F100615020
:101F200071092F5F3F4FE7CF8091A202882341F0D4
:101F3000853041F08091E80083FFBECF81E00895B5
:101F400082E0089583E008950895089580919702AE
:101F5000089587E797E7909301088093000888E148
:101F60009AE00FB6F894A895809360000FBE909306
:101F70006000FFCF2FB7F8946091910270919202A8
:101F800080919302909194022FBF08959C01FC01CF
:101F900032969FEF80E04191461751F09F3F19F430
:101FA000411101C0982F8F5F8630A9F79F3F09F438
:101FB0000895290F311D97FD3A95F901628308951F
:101FC000A3E0B0E0E6EEFFE00C94F73120918E0242
:101FD00030918F0228173907A1F090938F028093D8
:101FE0008E02E0918C02F0918D02309751F024E046
:101FF00029839B838A830084F185E02DCE0101969D
:1020000009952396E2E00C941332A3E0B0E0EBE0F4
:10201000F0E10C94F73120918A0230918B0228175D
:102020003907A1F090938B0280938A02E0918C0291
:10203000F0918D02309751F023E029839B838A83AE
:102040000084F185E02DCE01019609952396E2E00A
:102050000C941332E0918C02F0918D02309729F0AC
:102060000190F081E02D0995089580E0089580E0C9
:1020700008959091E90192FF10C041E0282F24714A
:10208000243009F040E031E0282F2871283009F091
:1020900030E0431711F02CE0822793FF10C041E09D
:1020A000282F2471243109F040E031E0282F2871D5
:1020B000283109F030E0431711F02CE082273091ED
:1020C000EA0130FF10C051E0282F2171213009F0C2
:1020D00050E041E0282F2871283009F040E05417E3
:1020E00011F029E0822731FF10C041E0282F217133
:1020F000213109F040E031E0282F2871283109F022
:1021000030E0431711F029E0822794FD877E08957F
:1021100082389105B9F1B0F48133910509F47DC09D
:1021200048F48932910509F46DC08A32910509F4A9
:102130007BC008958533910509F45FC0893391050B
:1021400009F10895833E9105D9F138F4803E910557
:1021500029F1823E910579F10895863E9105D9F1E4
:10216000873E910509F43EC0843E910541F52091DA
:10217000EA0121FF24C08091E90184FD19C087EEA6
:1021800090E008952091E901237009F05AC0209150
:10219000EA0123FF14C089E290E008952091E9014B
:1021A00020FD38C03091EA0130FF09C024FF43C050
:1021B00090E080E008952091E90122FDF7CF089595
:1021C0002091E90122FD3AC03091EA0130FD39C089
:1021D00024FFF5CFEDCF2091E90123FFF0CF24FDBF
:1021E000E7CFCDCF2091E90123FD2EC03091EA0148
:1021F00031FFEECF84EE90E008952091E90125FFB4
:10220000DECFC9CF2091E90125FD21C02091EA014F
:1022100023FFD5CF89E390E0D2CF2091E90126FFBB
:10222000CECF8AE290E008952091E90126FFC7CF42
:1022300081E390E0089583EE90E0089582EE90E0CF
:10224000089580EE90E0089586EE90E0089585E38D
:1022500090E008951F93CF93DF930E948810EC01C4
:10226000C11580E5D807F0F5C11580E4D80708F05E
:102270009CC0C03ED10520F5CD3CD10508F082C000
:10228000C83AD10578F4C53AD10508F073C0C13019
:10229000D10519F1209709F1C430D105F0F4D0E04F
:1022A000C0E01BC0C33CD105D0F7C85AD0E0CC0F6A
:1022B000DD1FC85DDE4F0990D881C02DD4640DC0EC
:1022C000C11580E2D80708F0D1C0C11581E0D80758
:1022D00008F05AC0C83ED10510F7CE01DF91CF916A
:1022E0001F910895C03682E5D80718F5C03482E5FD
:1022F000D80708F06BC0C03282E5D80708F05FC08D
:10230000C11582E5D80708F497C02C2F269526958D
:1023100080E2289F900111248C2F8370C1E0D0E0CF
:1023200002C0CC0FDD1F8A95E2F7C22BD32BDD68EC
:10233000D4CFC03A82E5D80760F4C03882E5D80728
:1023400008F459C0CF71D0E0DC2FCC27C46FD06A1D
:10235000C4CFC03C82E5D80708F462C0C03E82E525
:10236000D80708F09CCFDC2FCC27CC27DF71C06FBB
:10237000D06AB3CFC55AD0E0CB5DDE4FC881D0E084
:10238000D064ABCFD065A9CF8D2F0E943910182F04
:10239000CE0199270E948810C12FD0E0DC2FCC27D6
:1023A000CC27DF71C82BD92B98CFCE0199270E945B
:1023B0008810CC27DF70C82BD92BD06A8ECFCF7175
:1023C000D0E0DC2FCC27C16FD06A87CF2C2F269589
:1023D0002695277080E2289F900111248C2F83700E
:1023E000C1E0D0E002C0CC0FDD1F8A95E2F7C22B1E
:1023F000D32BDC6872CF2C2F26952695277080E290
:10240000289F900111248C2F8370C1E0D0E002C07E
:10241000CC0FDD1F8A95E2F7C22BD32BDA685DCF94
:102420008C2F8F710E943910C82FD0E0DC2FCC2761
:10243000CC27DF71D06251CF8C2F8F710E94391061
:1024400055E0D695C7955A95E1F7CF70D0E0DC2FCF
:10245000CC27282F30E084FF05C044E0220F331F33
:102460004A95E1F7C22BD32BD06937CF8D2F8F71CF
:102470000E943910182FCE0199270E948810C12F71
:10248000D0E0DC2FCC27CC27DF71C82BD92BD2CFC3
:102490008091D701882331F01092D7011092D60194
:1024A0001092D501089580959091D401982390932E
:1024B000D40108951092CA011092C9011092C80166
:1024C00008959091C701292F282321F08095892311
:1024D0008093C70108958091E5029091AC02981312
:1024E00001C008958F5F8770FACFA82FA77023E0EF
:1024F000969587952A95E1F7FC01EE0FFF1FE80FEF
:10250000F91FE60FF71F50E040E080E0219130E036
:102510000A2E02C0369527950A94E2F721703327D8
:10252000042E01C0220F0A94EAF7822B4F5F5F4FFF
:102530004330510559F70895903FB9F0953070F444
:10254000803198F440E1949F9001112462EA71E097
:10255000820F932F911D0E94751208959C5F9230F7
:1025600020F46FE971E090E0F6CF80E00895262F27
:10257000277091E001C0990F2A95EAF723E076953C
:1025800067952A95E1F7FB01EE0FFF1FE60FF71F96
:10259000E40FF51F50E040E0682F70E08191DF010B
:1025A00011979B01042E02C0369527950A94E2F7F5
:1025B000217021952827292328272C934F5F5F4FCF
:1025C0004330510559F70895282F862F903F71F019
:1025D000953068F4203150F430E1939FB00111241C
:1025E000620F711D42EA51E00E94B71208959C5F8C
:1025F0009230E0F7622F70E04FE951E0F5CF809321
:10260000E80108959091E80121E030E0F90101C06E
:10261000EE0F8A95EAF7D90102C0AA0FBB1F6A958F
:10262000E2F7EA2B01C0220F4A95EAF7892F8E23A1
:10263000E81305C0292B822F0E94FF1208952095D0
:102640002923F9CF21E030E001C0220F8A95EAF773
:1026500020958091E80182230E94FF1208959091B5
:10266000CA01809589238093CA01282F277069F4B5
:10267000891759F09091EA0192FF07C086958695D7
:1026800086950E9422130E945A12089521E030E09C
:1026900001C0220F8A95EAF78091E801822B0E94FF
:1026A000FF1208958093E70108959C013A95211542
:1026B0003F4150F5FC01EE27F170BC0166277270B6
:1026C000AC01442754709C012227387094FF0EC03F
:1026D00080E1EF2B09F480E0672B09F08062452B45
:1026E00009F08064232B89F08068089581E0EF2B46
:1026F00009F480E0672B09F08260452B09F08460C3
:10270000232B19F08860089580E008958091550288
:102710008F31D8F480919D0190E0019665E070E0E2
:102720000E942A3280939D0124E030E0A901481BD9
:10273000590BCA01982F8827990F8C5B984F0E94DC
:10274000E90D089584E495E0FACF8832D8F320911A
:102750009C0130E02F5F3F4F2170332720939C0175
:1027600081E090E0821B930B982F8827990F8C5B58
:102770009E4FE5CFCF93DF93C091F204D091F30445
:102780008A30C1F42091E902CE01825F9240622F2B
:1027900070E00E94D331281B822F66E00E941E3217
:1027A000C82FC15018F4DF91CF91089580E20E94A4
:1027B000BA13F7CF8D30E9F4C25FD2402091E9021D
:1027C000622F70E0CE010E94D331281B822F9E0120
:1027D000280F311D2115324018F080E0D0E0C0E014
:1027E000C80FD11DCE50DD4FD093F304C093F20437
:1027F000DACF96E0FE01AAEEB2E001900D929A9532
:10280000E1F7803E08F458C086E0FE0111928A95F7
:10281000E9F7C091F204D091F30446E050E0BE0124
:102820008AEE92E00E94B7329E01225F3240892BED
:1028300041F1C90145E0969587954A95E1F741E058
:1028400050E0BA0102C0660F771F8A95E2F7CB010C
:102850006091F0027091F102862B972BB9016B5FAA
:102860007F4FE5E076956795EA95E1F702C0440F62
:10287000551F6A95E2F7842B952B9093F102809374
:10288000F0022A5F3F4F4091E902642F70E0C901D6
:102890000E94D331481B463010F4240F311D2115FE
:1028A00072E0370710F030E020E02E503D4F3093BB
:1028B000F3042093F20477CFF6E08F9FB001112448
:1028C0006D5A794E46E050E0CE010E94AE32A1CF63
:1028D0000F931F93CF93DF938B01EA019091A20294
:1028E000943061F58093E9008FEF9091E80081507A
:1028F00095FD06C095ED9A95F1F700008111F5CF91
:102900008091E80085FF1AC00E94690E811111C0F4
:102910008091E80085FD06C08091E8008E77809365
:10292000E800F2CFF80181918F018093F1002197A7
:1029300079F78091E8008E778093E800DF91CF915E
:102940001F910F91089543E050E0BC0184E00E9484
:1029500068140895CF93DF93EC0148E050E0BC0188
:1029600081E00E94681488E0FE01A8E9B2E00190CD
:102970000D928A95E1F7DF91CF910895CF93C82FFB
:102980006FEF81116AE585E290E00E947B356FEF81
:10299000C11161EA86E290E00E947B356FEFC111C0
:1029A00068E987E290E00E947B35CF910895CF934C
:1029B000DF93C9E7D1E060E0CE010E947B3521962C
:1029C000C11584E0D807B9F7DF91CF9108950F932F
:1029D0001F93CF93DF93142F022F823020F56230A4
:1029E00010F598E0899FE001112484E0689FB00110
:1029F0001124C60FD71FC759DE4F82E090E0442351
:102A000011F090E080E0632F8C0F9D1F0E947B35BA
:102A100083E090E0112311F081E090E0602F8C0FB3
:102A20009D1F0E947B35DF91CF911F910F910895DB
:102A30001F93CF93DF93122F8230E0F46530D0F4F0
:102A40004031C0F490E2699FE001112450E0440F4E
:102A5000551FC40FD51F90EA899FC00DD11D1124A9
:102A6000632FCE0189960E947B35612FCE018A9615
:102A70000E947B35DF91CF911F910895B0E0A0E0D7
:102A8000E4E4F5E10C94EC31C0908802D090890226
:102A900081E090E0909389028093880202EE14E135
:102AA00082EAE82E83E1F82EC0E05701D0E015C09D
:102AB000F40125913491472D6D2F8C2F0E9418150C
:102AC00082E0880E911C739480E17812F1CF80E24D
:102AD000A80EB11CDF5FD53019F04501712CE8CF8D
:102AE000F8012591349141E060E08C2F0E94E714B9
:102AF000F80132962591349140E060E08C2F0E94DD
:102B0000E714F80134962591349141E061E08C2F6F
:102B10000E94E714F80136962591349140E061E077
:102B20008C2F0E94E714085F1F4F80EAE80EF11C0B
:102B3000C13011F0C1E0B9CFD0928902C0928802B1
:102B4000CDB7DEB7EDE00C94083280E00E94BE14F1
:102B500060E088E290E00E947B350E943E150E9472
:102B6000D71481E00E94BE14089585E290E00E948F
:102B70005D358A3589F486E290E00E945D35813AC0
:102B800059F487E290E00E945D3591E0883909F0C0
:102B900090E0892F8170089580E0FCCFFF920F9321
:102BA0001F93CF93DF93F42E823070F5623060F57F
:102BB00028E0829F8001112434E0639FB00111243A
:102BC000060F171F07591E4F82E090E0442311F0B3
:102BD00090E080E0800F911F0E945D35C82FD0E00B
:102BE000DC2FCC2783E090E0FF2011F081E090E023
:102BF000800F911F0E945D359E01282BC901CDB722
:102C0000DEB7E5E00C94103290E080E0F8CF0F934F
:102C10001F93CF93DF93823030F5653020F540313C
:102C200010F520E2629F8001112450E0440F551FEF
:102C3000040F151F30EA839F000D111D1124C801D8
:102C400089960E945D35C82FD0E0DC2FCC27C801C3
:102C50008A960E945D359E01282BC901DF91CF9194
:102C60001F910F91089590E080E0F8CF20914902E4
:102C700030914A02232BD9F4703F39F4603FB9F404
:102C800080914B0290914C020895753048F4603168
:102C900070F4823060F4462F672F0E940716089563
:102CA0007D3F41F4623018F441E0823050F090E012
:102CB00080E008957C3FD9F76230C8F78230B8F7DA
:102CC00040E00E94CE150895CF92DF92FF920F93BD
:102CD0001F93CF93DF936C010091E8018091E7018E
:102CE000082BC1E0D0E010E0FC2EC8010C2E02C081
:102CF000959587950A94E2F780FD0FC0CD2B51F48E
:102D0000F12C8F2DDF91CF911F910F91FF90DF90CC
:102D1000CF900895D0E0C0E0E7CFB6018C2F0E949D
:102D200036160E942A11019749F3EBCFCF93DF9318
:102D3000EC010E946416BE010E9436160E942A1100
:102D4000DF91CF910895FC0124812223C1F080817D
:102D500091810E94961692959F70963091F058F44A
:102D6000925F9F70923058F4803F19F030F4883EA3
:102D700030F481E008959A5FF4CF843FD1F380E08E
:102D80000895883EB0F3813FD1F7F3CFA6E0B0E0DD
:102D9000ECECF6E10C94F63149835A8349815A816F
:102DA0009923A1F0222391F0CA010E946416182FE2
:102DB000682F89819A810E94E41269817A81812F2A
:102DC0000E9436162696E3E00C941232CA010E9445
:102DD0009C12182FF2CFB0E0A0E0E1EFF6E10C94E6
:102DE000F1316C017B0164E670E088E70E94ED3010
:102DF0008C01E601EC0CFD1C17FD0BC0FE0184915B
:102E000064E670E00E9459318C012196CE15DF05F1
:102E100099F70E94CF3181E00115110509F080E09A
:102E2000CDB7DEB7E8E00C940D3280918602909128
:102E30008702911103C091E089270895882369F0E2
:102E400062E070E080EA93E10E94EB16811103C01A
:102E50008091860208951092860280918602EBCFBF
:102E6000CF93C0918602809187028823D1F00E947F
:102E7000BA0F605A75418F4F9F4F609382027093D3
:102E800083028093840290938502C11108C062E09E
:102E900070E08EE993E10E94EB16811105C0C091AC
:102EA00086028C2FCF91089581E080938602F7CF20
:102EB0002F923F925F926F927F928F929F92AF92EA
:102EC000BF92CF92DF92EF92FF920F931F93CF9317
:102ED000DF9380918702882309F48FC082EF92E00C
:102EE0009093F3048093F20480915502882309F4AF
:102EF00096C00E9430174091510250915202609149
:102F00005302709154022FB7F894809191029091DE
:102F10009202A0919302B09194022FBF841B950B53
:102F2000A60BB70B893C9105A105B10560F00E9485
:102F3000BA0F6093510270935202809353029093A0
:102F400054020E9486130E94BA0F60934D02709340
:102F50004E0280934F02909350028091E90264E008
:102F6000869FC00111248115A2E09A0714F090E019
:102F700080E08E509D4F9093F3048093F2048091F3
:102F800055021F928F938BE191E09F938F93C6E53B
:102F9000D2E0DF93CF930E94CB3209900020E9F773
:102FA00021970F900F900F900F900F900F9006E5C4
:102FB00012E00C171D0708F47BC08091F00290917D
:102FC000F102892B09F07AC0809186028823A9F04A
:102FD0000E94BA0F00918202109183022091840214
:102FE00030918502601B710B820B930B6F3F7F4FFB
:102FF0008F4F9F4710F40E941517DF91CF911F91BB
:103000000F91FF90EF90DF90CF90BF90AF909F9087
:103010008F907F906F905F903F902F900895409198
:103020004D0250914E0260914F02709150022FB7A5
:10303000F8948091910290919202A0919302B091A4
:1030400094022FBF841B950BA60BB70B813C9742B4
:10305000A940B10518F00E9415177FCF4091510289
:103060005091520260915302709154022FB7F8941C
:103070008091910290919202A0919302B09194025A
:103080002FBF841B950BA60BB70B893C9105A1059F
:10309000B10508F462CF0E94BA0F60935102709399
:1030A000520280935302909354020E94861355CF8C
:1030B000D8018D918D010E94BA137BCF8091870238
:1030C000882309F481CF8091810281117DCF0E94F4
:1030D00030172091F0023091F1022115310509F4E9
:1030E00073CF80E041E050E0082F10E01A01082E75
:1030F00002C0220C331C0A94E2F7B101622373234D
:10310000672B11F48F5FF0CF9091800290FF95C0F4
:10311000880F880F880F80930D0110921001895F2E
:1031200080930E0183E08093110124E630E047E0B4
:1031300050E06BE071E088E70E948731892B09F04D
:1031400043CFA80125E0440F551F2A95E1F7809150
:10315000800280FF84C0E0E6F2E080E2EF01199295
:103160008A95E9F7AFE7B1E00BE711E083E8C82EF5
:1031700081E0D82E97E0592E772473948D91F80131
:1031800021918F01240F352F311D2E503D4FE82FF7
:10319000F0E0E05AFD4F90E080E0652C681A872C43
:1031A000082E01C0880C0A94EAF77901A12CE701E6
:1031B000B9907E01B820662D6A196770962E062E8A
:1031C000000C770BDB2D01C0DD0F9A94EAF77195A7
:1031D000619571096770772701C0B6946A95EAF71F
:1031E000BD2A6081962E9B289082A39468E0A61247
:1031F000DECF019631968830910579F6CA16DB0646
:1032000009F0BCCF04E610E020E230E040E652E0F6
:1032100060E488E70E94A831892B09F0D5CEE1014E
:10322000C095D0958091F0029091F102C823D923E6
:10323000D093F102C093F002C7CE8295880F8076BA
:1032400080930D0198013695279536952795209303
:103250001001815E80930E012093110166CF4E50C4
:103260005D4F04E610E020E230E0D2CF9091EA0119
:1032700092FB222720F9281779F080FB92F990938E
:10328000EA016091E9017091EA0184E090E00E9416
:10329000993582E00E942F1308951F920F920FB666
:1032A0000F9211242F933F934F935F936F937F93CC
:1032B0008F939F93AF93BF93EF93FF938091E10020
:1032C00082FF09C08091E20082FF05C08091E10089
:1032D0008B7F8093E1008091DA0080FF24C0809191
:1032E000D80080FF20C08091DA008E7F8093DA00C2
:1032F0008091D90080FF9DC080E189BD82E189BDB8
:1033000009B400FEFDCF81E08093A2028091950276
:10331000811109C00E944A0E0E94EB0E8091E200CA
:1033200084608093E2008091E10080FF17C080916B
:10333000E20080FF13C08091E2008E7F8093E20064
:103340008091E20080618093E2008091D8008062E9
:103350008093D80019BC85E08093A2028091E1009F
:1033600084FF2BC08091E20084FF27C080E189BDEB
:1033700082E189BD89B5982F917080FFFBCF809144
:10338000D8008F7D8093D8008091E1008F7E80935C
:10339000E1008091E2008F7E8093E2008091E20064
:1033A00081608093E2008091A302882309F447C0E2
:1033B00084E08093A2028091A2028091E10083FFC9
:1033C00027C08091E20083FF23C08091E100877FC6
:1033D0008093E10082E08093A2021092A302809188
:1033E000E1008E7F8093E1008091E2008E7F8093E8
:1033F000E2008091E20080618093E20042E060E0C0
:1034000080E00E94B90E8091F00088608093F00007
:10341000FF91EF91BF91AF919F918F917F916F91AC
:103420005F914F913F912F910F900FBE0F901F9082
:10343000189519BC1092A2021092950274CF809137
:10344000E30087FD93E09093A202B5CF78941F929A
:103450001FB61F9211248F939F93AF93BF938091B8
:10346000910290919202A0919302B09194020196E0
:10347000A11DB11D8093910290939202A09393029B
:10348000B0939402BF91AF919F918F911F901FBEF7
:103490001F9018959C014FB7F894809191029091DC
:1034A0009202A0919302B09194024FBF821B930BA2
:1034B00008952FB7F8948091910290919202A09173
:1034C0009302B09194022FBF0895B0E0A0E0EBE624
:1034D000FAE10C94EA3190E080E0C0E001E010E015
:1034E000812C912C5401839467EE662E61E0762E38
:1034F000A3E6B1E050E040E02D91E22FE295EF70BD
:10350000F0E02F70B80102C0660F771F2A95E2F72E
:103510009B01B801042E02C0660F771F0A94E2F7E0
:1035200068237923042E02C0759567950A94E2F703
:1035300032A1662309F45EC0232B22A34F5F5F4FA5
:1035400044305105C9F67AE17A95F1F700C0B5012A
:10355000A401082E04C0440F551F661F771F0A944C
:10356000D2F76A019A0120953095EDEDF1E04EE534
:10357000E42E41E0F42ED0E041915191D7015D90CD
:103580007D01A52DA295AF70B0E090966C9170E092
:10359000A52DAF7002C075956795AA95E2F7DF017A
:1035A000129760FD2AC0BA016C297D2911967C937F
:1035B0006E936D917C914617570709F0D1E06E1616
:1035C0007F06D1F6CD2B01968031910509F090CF81
:1035D000CC23B9F081E08093DC010E94591A9093CA
:1035E000DB018093DA01C0E08C2FCDB7DEB7EFE0CE
:1035F0000C94063220952323A0CFBA0162237323B3
:10360000D5CFD091DC01DD2379F38091DA0190915F
:10361000DB010E944A1A059738F34AE050E06DED4D
:1036200071E08FE392E00E94B732892B51F08AE07B
:10363000EDEDF1E0AFE3B2E001900D928A95E1F794
:10364000CD2F1092DC01D0CF9091D701292F2823C4
:1036500061F0809589238093D701882339F00E94F7
:10366000591A9093D6018093D501089590E080E097
:10367000F8CFCF93C091D4018091CB01C82B80911A
:10368000D7018823F9F00E94591A2091D501309171
:10369000D601821B930B8838934110F00E94481288
:1036A0008091D701C82B20E086E991E0FC0131919F
:1036B000CF0131112F5FF1E08C399F07B9F721114C
:1036C0000E944812C093940148E050E06CEC71E015
:1036D00084E991E00E94B732892BA9F088E0E4E9FF
:1036E000F1E0ACECB1E001900D928A95E1F7E09148
:1036F0008C02F0918D02309731F00280F381E02D41
:1037000084E991E00995CF9108951092D401E6E9FA
:10371000F1E086E0DF011D928A95E9F790E080E014
:103720000E94051090E080E00E94E00F1092CB0113
:103730000E94391B0895AAE2B0E0E1EAFBE10C9493
:10374000F63184EA92E02091F100DC012D93CD0165
:10375000B2E08C3A9B07B9F78091A502833009F457
:1037600072C0B8F4813009F449C0823009F4B3C0A2
:103770008091E80083FF96C28091A4029091A502F7
:103780009A3008F08FC2E92FF0E0EF54FA4C0C9415
:103790007F328A3009F48EC08B3009F471C08930D1
:1037A00039F78091A402813219F78091A802909193
:1037B000A902009711F00297D9F68091E800877F5F
:1037C0008093E8008091E80082FF38C09091F30078
:1037D0008091F200029731F48091F100813011F074
:1037E000863021F48091F100809397028091E80067
:1037F0008B778093E8000E949A0EBACF8091A40242
:10380000813A09F0B5CF8091E800877F8093E80086
:103810008091A8029091A902892B61F468E088E95F
:1038200092E070E00E94460F8091E8008B778093D1
:10383000E8009ECF60E090E080E0F3CF8091A202AC
:103840008111C0CF95CF8091A402813A09F090CF29
:103850008091A8029091A902892B09F089CF8091CB
:10386000E800877F8093E8008091E80080FFFCCF2C
:10387000809112018093F1008091E8008E77B9CF9A
:103880008091A402813209F073CF8091A8029091B7
:10389000A902892B09F06CCF8091E800877F809383
:1038A000E8000E949A0E8091A602809312010E9465
:1038B000851B5ECF8091A402813209F059CF80919F
:1038C000E800877F8093E8000E949A0E8091A7020B
:1038D000809396024DCF8091A402813A09F048CF9F
:1038E0008091E800877F8093E8008091E80080FF66
:1038F000FCCF80919602BECF803899F0823809F0D3
:10390000D1C18091A8028F70873008F0CBC180931D
:10391000E9008091EB0085FB882780F91092E9008F
:1039200006C08091A0029091A102911182609091B5
:10393000E800977F9093E8008093F1001092F100E7
:103940008091E8008E77AAC1882309F498C182305B
:1039500009F0A8C18091A60281119BC18091A802A3
:103960008F702FEF280F263008F09CC18093E9005C
:103970002091EB0020FF8DC1933031F48091EB005A
:1039800080628093EB0085C19091EB0090619093F1
:10399000EB0021E030E001C0220F8A95EAF7209386
:1039A000EA001092EA008091EB008860EACF811172
:1039B00079C11091A6021F778091E3008078812B56
:1039C0008093E3008091E800877F8093E8000E9465
:1039D0009A0E8091E80080FFFCCF8091E300806820
:1039E0008093E30082E0111183E08093A2025AC128
:1039F0008058823008F056C12091A6023091A7026B
:103A00002C3DE3E03E07A1F583E08A838AE28983C7
:103A10004FB7F894DE01139620E03EE051E2E32F29
:103A2000F0E050935700E49120FF03C0E295EF705F
:103A30003F5FEF708E2F90E0EA30C0F0C7968D9315
:103A40009D932F5F243159F74FBF8091E800877F06
:103A50008093E8006AE270E0CE0101960E94460F72
:103A60008091E8008B778093E8001CC1C096E7CF77
:103A70008091A8029091A902432F55274330510508
:103A800009F44AC078F54130510509F485C08BE549
:103A900090E0E2EFF4E14230510509F003C12091DA
:103AA000E800277F2093E8002091AA023091AB0222
:103AB0008217930708F49C0140E02115310509F0B5
:103AC00070C041116EC08091E80082FDC9CF809125
:103AD000A202882329F2853019F28091E80083FF41
:103AE000F2CFBECF4132510509F447C042325105F1
:103AF00009F0D8C08330910508F0D4C0FC01EE0F66
:103B0000FF1FEA57FE4F0190F081E02D8D579E4F29
:103B1000DC018C9190E01DC0332721303105E9F0A4
:103B20002115310579F022303105F9F023303105C6
:103B300009F0B8C0EFE5F5E1E4918E2F90E0EFE5F4
:103B4000F5E107C0EFE9F5E1E4918E2F90E0EFE9B0
:103B5000F5E1009709F4A6C0A2CFEBE8F5E1E49106
:103B60008E2F90E0EBE8F5E1F4CFEDE7F5E1E4919D
:103B70008E2F90E0EDE7F5E1ECCF8330910508F072
:103B800091C0880F991FFC01E457FE4F0190F0810E
:103B9000E02D89E090E083CF82E190E0EDE4F5E173
:103BA0007ECF8091A202882309F45ACF853009F490
:103BB00057CF8091E80083FD53CF8091E80082FDCC
:103BC00082CF8091E80080FF78CF9091F3008091C0
:103BD000F2002115310519F08830910550F041E0CF
:103BE000089709F040E08091E8008E778093E80024
:103BF00064CF44914093F1003196215031090196F0
:103C0000E8CF803809F04EC08091E800877F80932C
:103C1000E8008091A3028093F10092CE811142C00E
:103C20001091A6021230F0F58091E800877F809312
:103C3000E8001093A3020E949A0E112311F084E071
:103C400005C08091E30087FDFACF81E08093A20256
:103C500042E061EC81E00E94B90E42E261EC84E056
:103C60000E94B90E42E261EC82E00E94B90E42E28B
:103C700060EC83E00E94B90E8091A20213C0809193
:103C8000A602813079F481E0933009F080E08093DE
:103C9000A1021092E9008091E800877F8093E800FC
:103CA0000E949A0E8091E80083FF0AC08091E8008C
:103CB000877F8093E8008091EB0080628093EB0027
:103CC000AA96E3E00C9412321F920F920FB60F9255
:103CD00011242F933F934F935F936F937F938F9311
:103CE0009F93AF93BF93CF93DF93EF93FF93D091C5
:103CF000E900DF708091EC00C82FC17080FDC0E842
:103D00001092E9008091F000877F8093F000789412
:103D10000E949B1B1092E9008091F00088608093C4
:103D2000F000CD2BCF70C093E900FF91EF91DF91B0
:103D3000CF91BF91AF919F918F917F916F915F9143
:103D40004F913F912F910F900FBE0F901F9018959C
:103D50000E94851B2FEF84E39CE02150804090401F
:103D6000E1F700C0000088E19AE00FB6F894A8954A
:103D7000809360000FBE90936000FFCF882341F0D6
:103D800080959091CB0189238093CB010E94391BB0
:103D90000895882339F09091CB01982B9093CB0113
:103DA0000E94391B0895882321F00E9453120E941B
:103DB000391B0895882339F09091D401982B909362
:103DC000D4010E94391B0895882391F19CEF980F2C
:103DD000913A80F4E6E9F1E02CE931E09191891320
:103DE00003C0DF0111971C922E173F07B9F70E94FD
:103DF000391B089590E2980F983050F4877091E045
:103E000001C0990F8A95EAF7892F0E945312EFCFCC
:103E10009BE5980F933028F490E080E00E94051015
:103E20000895885A8B3120F490E080E00E94E00FE2
:103E30000895CF93C82F8823B1F08CEF8C0F813A6F
:103E400000F5E6E9F1E08CE991E0DF012D91C21780
:103E500061F08A179B07D1F76C2F84E991E00E94EB
:103E6000C60F0E94391BCF9108952191C21303C040
:103E7000DF0111971C928E179F07B9F70E94391B1B
:103E8000EBCF80E28C0F883068F4C77021E030E01F
:103E900001C0220FCA95EAF78091D401822B80934A
:103EA000D401DFCFEBE5EC0FE33040F4F0E0EB5D65
:103EB000FE4F808190E00E940510D5CFC85ACB31CB
:103EC00090F6EC2FF0E0EE0FFF1FE85DFE4F8081D3
:103ED00091810E94E00FC7CF1F93CF93DF93182FDC
:103EE000D0E0C0E0893311F4C0E5D0E0812F0E941A
:103EF000191F209739F4812F0E94E41EDF91CF9182
:103F00001F9108958FE99FE00197F1F700C000002D
:103F10002197EFCF0F931F93CF93DF93C62FD42F0B
:103F2000022FFC0185818823A9F06093E8020E949A
:103F3000591A9093E7028093E602C77081E001C0AE
:103F4000880FCA95EAF70E94DA1EDF91CF911F9180
:103F50000F9108958091E802681332C08091E602C3
:103F60009091E7020E944A1A883C910548F510E2B8
:103F70001D0FCD17B9F080E28C0F883040F4C77068
:103F800081E001C0880FCA95EAF70E94D31E18305D
:103F900048F481E09D2F977001C0880F9A95EAF749
:103FA0000E94DA1E802F0E946C1F183070F6D770A6
:103FB00081E001C0880FDA95EAF70E94D31EC5CFD1
:103FC000C77081E001C0880FCA95EAF7F6CFB0E06C
:103FD000A0E0EDEEFFE10C94EF31EC018AE0A82EB9
:103FE0002881222309F48FC02130C9F599818A8163
:103FF000913021F422960E946C1F05C0923029F462
:1040000022960E94191F2196EBCF933021F422961D
:104010000E94E41EF8CF943011F02196F4CF22963E
:1040200030E020E0AE014F5F5F4F8053990B8A3044
:10403000910550F02150310930F38FE99FE001974D
:10404000F1F700C00000F6CFA29EB001A39E700D54
:1040500011249C01260F371F8981EA01E3CFE22F4B
:10406000F0E0ED52FA4EB490822F869586958695B3
:1040700090E0FC01ED53FA4EE4902770F12C022EF3
:1040800002C0F594E7940A94E2F731E0E322FF24BA
:10409000FC01ED54FA4EC490D12C022E02C0D594EE
:1040A000C7940A94E2F731E0C322DD24FC01ED5508
:1040B000FA4E049110E002C0159507952A95E2F793
:1040C00001701127E114F10419F081EE0E94191F0B
:1040D000C114D10419F086EE0E94191F8B2D0E9485
:1040E0006C1FC114D10419F086EE0E94E41EE11485
:1040F000F10419F081EE0E94E41E0115110509F486
:1041000082CF8CE278CFCDB7DEB7EAE00C940B32E9
:104110009091EA0192FF10C098E0899F90011124CC
:10412000622B6093CA010E9446130E94591A909311
:10413000C9018093C80108950E9446130895ABE118
:10414000B0E0E5EAF0E20C94F5314E8B5F8B688FBE
:10415000798F8A8F9B8F092F91111092CB011D8A25
:1041600086E0FE017696DE011F9601900D928A95FB
:10417000E1F71A8D8091EA0182FF1CC00E94591A52
:104180002091C8013091C901821B930B883893415B
:1041900020F08091CA0182FF7FC00E94591A2091AD
:1041A000D5013091D601821B930B8838934110F0D2
:1041B0000E944812112349F021E04F8558896989EE
:1041C0007A89812F902F0E94C6161B8B0C8B87E05B
:1041D000FE013F96DE01189601900D928A95E1F757
:1041E000CE0108960E94252781110CC087E0FE01B0
:1041F0003896DE01119601900D928A95E1F78C8533
:1042000081110BC017E08091E5029091AC028913F7
:1042100031C06B96E4E00C9411322091AC0230E096
:10422000C9010196877099274091E5024817190640
:1042300099F097E0929FD001939FB00D1124A35560
:10424000BD4FFE01319601900D929A95E1F7809352
:10425000AC020E946B12D6CF0E94851B1092AC025A
:104260001092E50287E0E0ECF1E0DF011D928A9513
:10427000E9F7C8CF819FC001112483559D4F0E944B
:104280002527882331F28091E50290E0019687701E
:1042900099278093E502B7CF82E00E942F137DCF4C
:1042A000A6E0B0E0E6E5F1E20C94F5318C019093E4
:1042B0004C0280934B02011580E21807C0F4802F56
:1042C0000E94E41EC8010E9455139801205E310926
:1042D0002830310518F00115110531F40E94D31E64
:1042E0002696E4E00C9411320E94BE1EF9CF80EFB6
:1042F00089838A830E94591A8160682F9C838B83EB
:1043000049815A817C8181E090E00E949F20E8CF22
:10431000A6E0B0E0EEE8F1E20C94F5318C01909368
:104320004C0280934B02011580E21807C0F4C801CB
:104330000E9455139801205E31092830310518F08C
:104340000115110549F40E94DA1E802F0E94191FE1
:104350002696E4E00C9411320E94C91EF6CF80EF3D
:1043600089838A830E94591A8160682F9C838B837A
:1043700049815A817C8181E091E00E949F20E8CFB1
:10438000A4E0B0E0E6ECF1E20C94ED317C01FC013C
:104390008481882309F408C121E040815181628130
:1043A000738195810E94C6168C01F7012581222315
:1043B00009F4DAC09A9581159F4408F066C0C801D7
:1043C0009927AC01445051094432510518F08B979C
:1043D0000E9780F4E091FC01F0E0EE0FFF1FEF5F1D
:1043E000FD4F808191818F3F3FE7930719F0019640
:1043F00091838083C80197578038910508F09FC446
:10440000D02E4FE0401708F4C0C08FEF93E00E9419
:104410005D358111BAC009E711E0D1103FC01982A2
:104420001A821B821C8299249A9468018FEFC81A01
:10443000D80AC8010E945D3589831A82882309F44D
:10444000A4C0813009F08AC0580192E0A90EB11CC5
:10445000C6010E945D35C82E8A83882309F495C061
:10446000C5010E945D35D82E8FEF8C0D833020F56D
:104470005801E3E0AE0EB11CDB82DD2021F0CE015D
:1044800001960E94E71F8501D0CF90E080E00F3FAA
:10449000110511F008F095CFC80193CF011554E034
:1044A000150709F472C0C8010E945D35811101C071
:1044B000DA940F5F1F4FB1CF8BEF8C0D833040F537
:1044C000C8010396DB825C01DD20E9F25801F4E0CB
:1044D000AF0EB11C0E945D358C838823A1F20B8145
:1044E0001C8101302FEF120710F0102F002736E04B
:1044F000C31651F047E0C41619F0C8010E94882184
:10450000C8010E945021BFCFC8010E948821BBCFA3
:1045100054E0C512B8CF580184E0A80EB11CC80100
:1045200003960E945D35DD2081F1882371F1815071
:10453000990B989E9001999E300D1124ED2DE1501C
:10454000FF0BCF01820F931F019708F49CCFEFE977
:10455000FFE03197F1F700C00000F6CFCE010196E1
:104560000E94E71F56018FCFFC01E851FC47E7305E
:10457000F10508F0CDC3E554FA4C0C947F3226E2E5
:1045800041EE61EEC7010E948A1F8091CA018770C7
:1045900059F0F7018581882339F08091EA0182FF83
:1045A00003C082E00E942F132496ECE00C940932A1
:1045B00027E245EE65EEE6CF26E241EE60EEE2CF81
:1045C00027E245EE64EEDECF26E241EE62EEDACF80
:1045D00027E245EE66EED6CF28E241E0EBCF8091B0
:1045E000E90181608093E90195C08091EA018860CA
:1045F0008093EA018FC08091E9018260F3CF8091BE
:10460000E9018460EFCF8091E9018860EBCF809170
:10461000EA018160EDCF8091EA018260E9CF80916B
:10462000E9018061DFCF8091E9018062DBCF809179
:10463000E9018064D7CF0E94851B8091E9018068E1
:10464000D1CF8091E9018C60CDCF8091EA01836068
:10465000CFCF8091E9018E7FC5CF8091EA01877F1E
:10466000C7CF8091E9018D7FBDCF8091E9018B7F1C
:10467000B9CF8091E901877FB5CF8091EA018E7F24
:10468000B7CF8091EA018D7FB3CF8091E9018F7E12
:10469000A9CF8091E9018F7DA5CF8091E9018F7B22
:1046A000A1CF0E94851B8091E9018F779BCF8091DC
:1046B000E901837F97CF8091EA018C7F99CF809128
:1046C000E90182FB992790F921E0922790FB82F97A
:1046D00090FB83F987CF8091EA01982F9095917094
:1046E0008E7F892B90FB81F983CF9091E901892FEF
:1046F0008F7B96FF806476CF0E94851B9091E901A5
:10470000892F97FB87F980586DCF61E08EE090E0AC
:104710000E947B356091E9017091EA0184E090E0AC
:104720000E9499350E94851B30CF60E0EFCF9091B9
:10473000E901892F8F7E94FF806154CF9091E90128
:10474000892F8E7F90FF81604DCF9091EA01892F54
:10475000877F93FF88604CCF85E3E3C207373CE750
:10476000130709F468C008374CE7140709F46AC056
:10477000222381F003305CE7150709F48AC008F0B2
:104780006DC001159CE7190709F476C001301C477C
:1047900009F485C0F701858100811181882309F41E
:1047A0008CC0C8010E946416D82E682FC8010E94D0
:1047B000E412B8018D2D0E9436160E942A118C0138
:1047C000882EF701C580B680B2943FE0B322809175
:1047D000CA01877009F1AC2CCC20F9F0812F807FC1
:1047E000803469F080E2800F8830B0F0812F807EC5
:1047F000803229F4F1E0F01778F4BB2069F0809161
:10480000EA0182FF09C082E00E942F138091CA0151
:104810008770AA24A3948111A12C912E92942FE049
:1048200092222BE0291508F4ADC0E92DF0E0EE53FB
:10483000FA4C0C947F3281E0211108C081E00E9483
:10484000221306C0222309F4A3C282E00E94461369
:1048500043E062E081E00E94021397CE0B35FCE753
:104860001F0749F10C352CE71207D9F00A351C4710
:1048700009F090CF81E01CC00E94851B4FEF54E3EC
:104880008CE0415050408040E1F700C000000E94A1
:10489000A90F6FEF7FEF90E080E00E9499350E94B2
:1048A000A81E8091EA0182FB882780F991E0892780
:1048B0000E9436196FCF80E0FBCFC8010E949C1286
:1048C000D82E77CF312F3F70D32E107F19F0D2948E
:1048D00090EFD922CC20B9F0DD2069F080E2800F82
:1048E000883010F0811009C08091D401D82AD0926C
:1048F000D4010E94391B802F43C08091CB01D82A5C
:10490000D092CB01F6CF802F0E94E41EDD20D1F1A2
:10491000005E083010F0811004C08D2D0E945312EB
:1049200006C0D0948091CB01D822D092CB010E94B6
:10493000391B28C0412F4F70D42E107F103219F030
:10494000D29480EFD822882059F051E0851609F4DE
:104950008EC0CC2009F49AC0BB2009F447C0CBCF4D
:104960008091EA0182FD3EC0CC20B1F1DD2039F01A
:104970008091D401D82AD092D4010E94391B80E0C2
:104980000E94191F492D4850550B4430510510F411
:104990000E942A10AA20A9F08091CA0180FD11C0AE
:1049A000F70115828695869586950E944613C70164
:1049B0000E94C0218091CA018695869586950E94A5
:1049C000221320E0F701408151816281738184814B
:1049D00095810E94C616E8CD80E00E94E41EDD208D
:1049E00089F29BCFCC2071F1B11004C08D2D0E94B3
:1049F000DA1EC8CF81E0B81211C01091D7018D2DF9
:104A00008123D81609F4BECF0E94591A9093D6017B
:104A10008093D501D12AD092D701B4CF95E0B912B5
:104A2000B1CF8D2D0E94DA1E8D2D0E94241B809106
:104A3000C7019D2D9823D91609F4A4CFD82AD09266
:104A4000C701A0CFB1100AC08D2D0E94D31E8D2D9D
:104A50000E94241B8D2D0E94611294CFE1E0BE12B2
:104A600091CF8091D4018D2109F48CCFEDCFCC2052
:104A700029F0F5E0FB1508F485CFB8CF24E02B151D
:104A800008F480CF8D2D0E94D31E7CCFBB20D1F3A4
:104A900039E3831209C04FEF57EE83E04150504095
:104AA0008040E1F700C00000802F0E94E41E6ACF22
:104AB000812F86958695837061F0813009F062CFF1
:104AC000C8019370C11002C080E090E00E94E00F26
:104AD00059CFC8019370C11002C080E090E00E94DD
:104AE000051050CF812F837089F5C1104BCF402F17
:104AF000429546954770440F440F802F8F70042EC7
:104B000001C0880F0A94EAF7202F207104FF07C024
:104B10002FE030E001C0220F4A95EAF72095169564
:104B200016951370123069F050F43091E70111308E
:104B300029F0822B83230E94521324CF832B822BB4
:104B4000FACF282B8091E7018227F5CF8695CC20DC
:104B500011F0812F8170882309F414CF402F4295E2
:104B600046954770440F440F802F8F70042E01C06C
:104B7000880F0A94EAF7202F207104FF07C02FE066
:104B800030E001C0220F4A95EAF720951695169558
:104B90001370123069F050F43091E801113029F0AF
:104BA000822B83230E94FF12EDCE832B822BFACF20
:104BB000282B8091E8018227F5CF1F70CC2029F0A7
:104BC000812F0E944613802F12CF802F0E94D31E68
:104BD000812F0E942213D6CE802F92EF8916B1F139
:104BE000981570F0E0EF8E16D1F0F1EF8F1691F07E
:104BF000CC2009F466C0B1107ECE812F8F712AC0FF
:104C000023EF821651F134EF8312F2CF8091EA0143
:104C100082FD2FC0812F8F71CC20D9F21BC0CC20F8
:104C200081F044E04B1508F4ADCE1F7181E090E0B7
:104C3000012E01C0880F0A94EAF79091E8018927B4
:104C4000B1CF55E05B1508F49DCEEFCF812F8F716A
:104C5000C110BFCF0E94461395CE80E0CC2009F44E
:104C6000A1CF1F7181E0012E01C0880F0A94EAF7DD
:104C700099CFCC20C9F08091CA018770843041F46B
:104C80000E945A12812F8F710E942213A12C7ACE7A
:104C900084E08B15D8F31F71812F0E94461363E0C7
:104CA000812F0E948820F2CF94E09B1530F40E945F
:104CB0005A1264E0812F8F71F4CF81E00E942F138C
:104CC000E5CFBB2059F0893309F0EECEEFEFF7EED8
:104CD00023E0E150F0402040E1F7E4CE812F8F71D6
:104CE00078CF0631FCE71F0709F038CD8091D40159
:104CF0008A7A91E009F490E090939E0169E2811133
:104D000065E384E991E00E94C60F0E94391B3DCC07
:104D100086312CE7920799F580919E0181111CCD77
:104D200089E2E6E9F1E02CE931E09191891303C0D1
:104D3000DF0111971C922E173F07B9F7E6CFF80154
:104D4000E851FC47E730F10508F415CC1092E80271
:104D5000C8019057839728F684E090E00E9465355B
:104D60009093EA018093E901F801E150F047E232C3
:104D7000F10508F034CCE253FA4C0C947F328737BB
:104D80003CE7930709F45ACD88379C4709F002CDD8
:104D900082E055CDCF93DF938091C601807F09F0EB
:104DA0004DC08091C501882309F448C0E091E50217
:104DB0005091AC02C091C101D091C0016091C2017B
:104DC0007091C30147E05E17C9F18E2F90E0E49F18
:104DD000F0011124E355FD4F2481222391F1489FD6
:104DE000F001499FF00D1124DF01A355BD4F11962D
:104DF0002C9111972C1325C02C912D1322C01596A0
:104E00002C91159721111DC012962D913C91261BB6
:104E1000370B283C3105A8F48091C6018F70806162
:104E20008093C601ED54FD4F80818F708061808337
:104E300080EC91E00E94C0210E946B12DF91CF9123
:104E40000895FC013196E770BECFA4E1B0E0EBE23B
:104E5000F7E20C94ED318C0186E0F801DE011F963B
:104E600001900D928A95E1F7F8018481E58090EC3C
:104E7000A92E91E0B92E9091C401911128C08823E8
:104E800019F1EE20F1F0C8010E94A316F82E882334
:104E9000C1F087E0F801D50101900D928A95E1F704
:104EA0008091C401813031F48091C0019091C101A1
:104EB0000E9496160E94CA268F2D6496ECE00C94F0
:104EC0000932C8010E94C021FF24F394F5CFD0809D
:104ED000C18082809380F090C5012091C201309101
:104EE000C301A401421B530BFF2009F4D9C0483C65
:104EF000510508F092C08823F9F29091C101809188
:104F0000C601282F207F09F056C0C91214C0909105
:104F1000C001D91210C0E11048C08F708061809329
:104F2000C60180EC91E00E94C0218091C601F80189
:104F30008683F12CC1CFE11038C06C2D8D2D0E94DD
:104F40002B0E6C2D8D2D0E942B0EE82E8111F1CF92
:104F5000DF86C88A8F8598890E949616292F229508
:104F60002F70243058F49F70223088F0992399F0E4
:104F7000F8019681907F79F4FE2C9ECF2A5F2F70E6
:104F8000223068F0C8010E94C021EF2CF5CF992390
:104F900011F0882389F3805E883070F3F3CF803F6F
:104FA00058F3815F833070F7E7CF8091C60181604D
:104FB0008093C601BECFC91207C09091C001D9121B
:104FC00003C0EE2009F48DC0C8010E94A3168823F7
:104FD00009F477CFEE2009F474CF8091C6018032B6
:104FE00088F02091C0013091C101398728879B86C4
:104FF0008A869091C4019C871D868E87CE01089673
:105000000E94C02187E0F801A0ECB1E001900D9270
:105010008A95E1F70E94CA2657CF9091C601292FA1
:10502000207F51F480EC91E00E94C02187E0F501DF
:1050300011928A95E9F77DCF882309F43DCF8091BD
:10504000C1018C1110C08091C001D8120CC0E110B8
:105050000AC09683C8010E94C02187E0F501119221
:105060008A95E9F729CFC8010E94A316882309F47D
:1050700028CFEE2009F425CF8091C601803210F2AE
:105080002091C0013091C1013A8329839C828B8297
:105090009091C4019D831E828F83CE010196B0CF73
:1050A000483C5105D0F6882309F40ECFFE2CEE20A3
:1050B00009F407CF8091C1018C1120C08091C001FB
:1050C000D8121CC08091C60180FD0FC0982F907F20
:1050D00061F08683903F31F0982F907F905F8F70C2
:1050E000892B8683C8010E94C02187E0F801A0ECCB
:1050F000B1E001900D928A95E1F7DECEC8010E94E1
:10510000A31681117FCF8091C60181608093C60173
:10511000C8010E94C021D0CEA6E0B0E0E2E9F8E2EA
:105120000C94F5310E94591A8C018091D80190910C
:10513000D9018017910781F019821A820E94591AA9
:10514000682F49815A81792F80E090E00E949F204A
:105150001093D9010093D8012696E4E00C94113203
:105160001F921FB61F9211248F939F93AF93BF93EB
:1051700080919002811113C08091910290919202CE
:10518000A0919302B09194024196A11DB11D80930C
:10519000910290939202A0939302B0939402BF91D4
:1051A000AF919F918F911F901FBE1F901895CDB703
:1051B000DEB7C654D1090FB6F894DEBF0FBECDBF1F
:1051C00085B7806885BF85B7806885BF84B7877FCE
:1051D00084BF0FB6F894A895809160008861809391
:1051E0006000109260000FBE80E890E00FB6F89467
:1051F00080936100909361000FBE87E390E19093EC
:105200009301809392010E944A0E0E94EB0E8091BE
:10521000E20084608093E20078948091A202882367
:10522000A1F01091E9001F709091EC00892F81701E
:1052300090FD80E8182B1092E9008091E80083FD32
:105240000E949B1B1F701093E90082E084BD93E0D5
:1052500095BD9AEF97BD80936E000E94B5158111A0
:1052600002C00E94A51582E08093370249E751E011
:10527000E7E78E2EE1E09E2EFBE7EF2EF1E0FF2E1A
:1052800084019A0161E070E0D9018D919D01E82FC0
:10529000E295EF70F0E0B1A08F706B0101C0CC0C13
:1052A0008A95EAF79C2D90959B2191A382A18C2948
:1052B00082A3F80181918F01E82FE295EF70F0E071
:1052C000B1A08F706B0101C0CC0C8A95EAF79C2DC0
:1052D00090959B2191A382A18C2982A3EA16FB06BB
:1052E00099F68FE891E00197F1F700C00000109166
:1052F000370268E372E0FB018E2F861B811708F4EA
:1053000010C1A3E6B1E027E631E0AD0101E010E015
:10531000FA018191AF01E82FE295EF70F0E091A1E1
:105320008F70B80101C0660F8A95EAF7892F862B26
:1053300081A3F1E047365F0759F761E070E09D9186
:10534000E92FE295EF70F0E042A19F708B0102C05F
:10535000000F111F9A95E2F7C8018095842382A35C
:105360002A173B0761F7AEE5B1E043E651E061E0A3
:1053700070E08D91E82FE295EF70F0E011A18F7051
:105380009B0101C0220F8A95EAF7922F90959123F5
:1053900091A382A1822B82A34A175B0751F7109237
:1053A000DE011092DD011092400210923F02109235
:1053B000E0011092DF01109242021092410210921D
:1053C000E2011092E1011092440210924302109205
:1053D000E4011092E30110924602109245021092ED
:1053E000E6011092E501109248021092470290E007
:1053F00080E00E946535863E9E4F21F40E94B515DF
:10540000811168C066EE7EEF90E080E00E949935E1
:1054100060E082E090E00E947B3581E08093E701CC
:1054200061E083E090E00E947B3560E074E184E01D
:1054300090E00E94993560E086E090E00E947B3524
:105440006FEF87E090E00E947B3540E050E0BA01CA
:1054500088E090E00E948D3560E084E290E00E9458
:105460007B3560E087E190E00E947B3560E08CE076
:1054700090E00E947B3560E08DE090E00E947B35FB
:1054800019821A821B821C821D821E821F8218862C
:1054900048E050E068E170E0CE0101960E946B3573
:1054A00040E050E0BA0180E290E00E948D3580E05B
:1054B0000E94BE140E94A51540E050E0BA018FE0A2
:1054C00090E00E948D3540E050E0BA0183E190E029
:1054D0000E948D3582E090E00E945D358093EB0163
:1054E00084E090E00E9465359093EA018093E901A1
:1054F0000E94651A2FEF36E781E02150304080404E
:10550000E1F700C000000E94651A80913F0280FF11
:1055100031C06FEF7FEF90E080E00E9499350E94EC
:10552000A90FDA012D91AD01822F82958F7090E045
:10553000DC0190968C9190E02F7002C09595879534
:105540002A95E2F78170D4019D914D01292F229572
:105550002F7030E0D90190962C9130E09F7002C0FE
:10556000359527959A95E2F790E020FD92E0892BFA
:105570008193C2CE83E090E00E945D350E94521379
:1055800082E08093800280E88093E9020E94E73005
:105590006BE070E08BE591E10E94EB168823E9F166
:1055A0008091800265E070E081FDC5C086E591E1F3
:1055B0000E94EB16882389F16DE070E084E491E1AC
:1055C0000E94EB16882349F10E94BA0F605A754178
:1055D0008F4F9F4F60938202709383028093840267
:1055E00090938502E2EFF2E080E092E0DF018C012F
:1055F0001D9201501040E1F7F093F304E093F204A0
:105600008FEF9FEF9093F1028093F00281E08093FF
:105610008702809386021092810280E091E090934D
:105620008D0280938C0278E1272E312C8091A2028A
:10563000853089F440E4D42E09E412E050E1E52EEF
:1056400062E1F62E8091A202853009F477C00E94B3
:10565000851B0E942A100E94651A2CEEA22E21E0C2
:10566000B22E3FE3832E32E0932E46EF51E0D40179
:10567000F501219131918D919D914E175F0709F4AC
:1056800096C028173907A9F3712CD4010D911D91EB
:105690004D01F501C190D1905F01C016D10609F40A
:1056A00041C0C026D126612CEE24E394F12C552470
:1056B0005394C6018E219F21892B51F122966FAE02
:1056C000229723967FAE23970E94591A25969FAF63
:1056D0008EAF259726965FAE269791E098012E21F2
:1056E0003F21232B09F490E027969FAF279722961E
:1056F0004FAD229723965FAD239724966FAD2497E5
:1057000025967FAD259726968FAD26970E949F20E0
:105710006394EE0CFF1CF0E16F12CBCFF5013297D2
:1057200011830083739405E07012AFCF0E94BA0F0B
:105730009924939443C081E591E13ACF8091A202EC
:10574000843019F10E941517109290020FB6F89448
:10575000A895209260000FBED092600083B7817F31
:10576000846083BF83B7816083BF7894889583B753
:105770008E7F83BF0FB6F894A895809160008861F2
:1057800080936000109260000FBE8091A102882378
:1057900009F458CF0E94651AEFE3F2E081919191EC
:1057A000892B09F0EDC40E171F07C1F74BCF28173F
:1057B000390709F069CF0E948C28912CC090010212
:1057C000D09002020D2C000CEE08FF0880910A0117
:1057D00090E0E1E0F2E021E030E0329682179307BA
:1057E0000CF0D0C08091FD019091FE01A091FF01CD
:1057F000B09100026FB7F8944090910250909202DD
:1058000060909302709094026FBF481A590A6A0A16
:105810007B0A10910A0129EC4216510461047104BB
:1058200014F18091FC0190E0019669E170E00E9422
:105830002A328093FC01880F991FFC01EF5FFD4F16
:1058400011821082812F183108F087E18F5F8093D9
:105850000A010E94BA0F6093FD017093FE018093CC
:10586000FF019093000232E0C316D104E104F10479
:105870000CF495C0A0E6BAEEA70196010E948C3206
:105880006B017C0188EC189F90011124032E000C01
:10589000440B550B240D351D461D571DA5E0B0E0EA
:1058A0000E948C329B01AC01C701B6010E943E32BE
:1058B00029013A0191EF49165104610471042CF059
:1058C000B0EF4B2E512C612C712C8091F8019091EE
:1058D000F901A091FA01B091FB012FB7F894C090A3
:1058E0009102D0909202E0909302F09094022FBF28
:1058F000C81AD90AEA0AFB0AA5E6CA16D104E104C5
:10590000F10484F00E94BA0F6093F8017093F901DA
:105910008093FA019093FB01809155028093F701E7
:105920004092F6011091F701A091F601A11BBB0B6B
:10593000A70196010E94973224E630E040E050E053
:105940000E946032120F1093550210E000E062E0F6
:10595000862E74E0A72EB12CEDEF7E2E6624639484
:10596000FCEF5F2EA3E04A2E809137021817D8F083
:10597000002309F4C0C00E94BA0F0E9458170E9469
:105980003017BDC040815181052E000C660B770B8E
:10599000C40ED51EE61EF71E2F5F3F4F1ECF412CB3
:1059A000512C320192CFE12EF12CF701E758FE4F36
:1059B0008081E82FE295EF70F0E0E0A1F0E08F70D9
:1059C00002C0F595E7958A95E2F7E170D701A958ED
:1059D000BE4F2C91A22FA295AF70B0E090968C9103
:1059E00090E02F7002C0959587952A95E2F780FD8B
:1059F00080C080E08E2BD701A85CBD4FEC919E2F1C
:105A00009370891709F473C0EE0FEE0FE82BEC9337
:105A1000EF70F0E0E959FE4F97012B5C3D4F6901B3
:105A20008081D9019C91890F8C9320E084304CF1C6
:105A3000F701ED5CFD4F80818F5F80830E94591AD2
:105A40001DAB5EAA682F8FAB98AF49AE6AAE412FEF
:105A50005CEF792F83E091E00E949F200E94591A09
:105A60001BAF5CAE682F8DAF9EAF4FAE21961FAEC1
:105A70002197412F5CEF792F83E090E00E949F20D7
:105A800021E0F60180818D3F3CF5F701ED5CFD4F93
:105A90008081815080830E94591A19A77AA6682FA5
:105AA0008BA79CA78DA66EA6412F5DEF792F82E074
:105AB00091E00E949F200E94591A1FA778AA682F80
:105AC00089AB9AAB8BAA1CAA412F5DEF792F82E09C
:105AD00090E00E949F2021E0D6018C91082E000CBE
