:100000000C944E060C946B060C946B060C946B06C9
:100010000C946B060C946B060C946B060C946B069C
:100020000C946B060C946B060C94B6130C94211B69
:100030000C94FD250C946B060C946B060C946B06CB
:100040000C946B060C946B060C946B060C946B066C
:100050000C946B060C948F140C946B060C946B062A
:100060000C946B060C946B060C946B060C946B064C
:100070000C946B060C946B060C946B060C946B063C
:100080000C946B060C946B060C946B060C946B062C
:100090000C946B060C946B060C946B060C946B061C
:1000A0000C946B060C946B060C946B06050109808E
:1000B000A101850319012AB700150126B700950192
:1000C00075108100C0050C0901A101850419012AE0
:1000D000A002150126A002950175108100C00660DE
:1000E000FF0961A1010962150026FF00952075082E
:1000F00081020963150026FF00952075089102C052
:1001000005010906A101050719E029E715002501E8
:10011000950875018102950175088101050719008F
:1001200029FF150026FF00950675088100050819AE
:1001300001290515002501950575019102950175A7
:10014000039101C000DA0281FFD9F1DB20A4A62EC1
:10015000AF00A0C0D30000A1C8D30000AED580A8D6
:100160001F408D142000783C1EFD377A585A00003D
:1001700004E6D6B4460200210116000000742FE503
:10018000A3E0066301F55D003D8889C65436C317B8
:100190004FE4F55C267DB380F3B5C66371860F1B13
:1001A00080DDAB03511C299A66DF75DCD66C18E341
:1001B00089AD388BD093C420493538BA06A9FDD310
:1001C0005E392E5D9E0973AE08EDFCD5214987ABE3
:1001D00094A9768F6B49B357AA9E5706559105D5BA
:1001E0004FB243C5936BCB96F6DF062629D54CD686
:1001F000CAFE4C7B827882A9A9034B9910B8547B24
:10020000C64CB1D5AF75866369E9601B02F58D1DDB
:1002100031C902905A5E6FDFF0CC714951A18D89CE
:10022000FBD45F034EBBD9D056E9713D8819A9D0E4
:10023000333B8A4FF8052A8C6B87B6A991DE2B5D7C
:10024000B7DA468AB1B0B24271BB122D24CA4E460B
:1002500054ECAE031B249B1E31C2C45AC0CD67C1EF
:10026000A295C6422BC2B2A095064C01BECB2E94DD
:1002700040999FDDA11FDB0EBF564467C88B448A9F
:10028000F64C3CA30F845B39080C4B03EDCE74ABEA
:10029000711FEDDD0EB1DB68C01D4A9A05D9799852
:1002A0007C5B9494E0FA180B8F561F8A910849C41E
:1002B00080C42AA6A4A9DE51CBB6A39B0CD30B9D68
:1002C000AF037C1DF046440EBF91B9003508D150F4
:1002D000429A312368BF4368C9E1E7DC2D311F3200
:1002E00028602717EC1B532B4D2744A24563A09889
:1002F000E55AF781727C81B81C3E5AF524A7C7C223
:10030000E1EC4887FE1E9F6031260884030253718A
:10031000B145DC3E62EBFF635D9796CCB84D2B5048
:1003200044528350BF907315E8A0E31C0A270EAF18
:10033000E234D0CB2AF12ACAE729D5C11B898F0222
:1003400099EB32F882282AE9A0662B7A2AAA393456
:10035000DC00D39CAD9663031426000B76E6805533
:100360007CA98D4F4537F8631FFC3D717B54635961
:100370003C571C83629885FE1C1072D2000000005E
:10038000004F1F4736CAA942E800019104E40C005F
:1003900000F098E8B0B1C467FB0200000000045907
:1003A0005A000101010101010101010202020202E0
:1003B000020202020303030303030303040404040D
:1003C00004040405050505050606060606070707D5
:1003D000070708080808090909090A0A0A0B0B0B8C
:1003E0000C0C0C0D0D0D0E0E0E0F0F0F1010111129
:1003F00011121213131414151516161717181819AD
:10040000191A1A1B1B1C1D1D1E1E1F202021222213
:10041000232424252626272829292A2B2C2D2D2E56
:100420002F30313232333435363738393A3B3C3D70
:100430003E3F404142434445464748494A4C4D4E61
:100440004F50515354555658595A5B5D5E5F616227
:1004500064656668696B6C6D6F7072737577787AB6
:100460007B7D7E8082838587888A8C8E8F91939511
:1004700096989A9C9EA0A2A3A5A7A9ABADAFB1B335
:10048000B5B7BABCBEC0C2C4C6C9CBCDCFD1D4D615
:10049000D8DBDDDFE2E4E7E9EBEEF0F3F5F8FAFDB7
:1004A000FFFFAA7F554000AF00AE29001E001F00CD
:1004B0002000210022002300240025002600270020
:1004C0002D002E0000002A004A002B0014001A0004
:1004D0000800150017001C0018000C001200130083
:1004E0002F00300031004D00AE003900040016002E
:1004F000070009000A000B000D000E000F0033007A
:100500003400000028004B00A800352200001D0028
:100510001B0006001900050011001000360037000E
:100520003800E50052004E000000E000E300E20069
:100530000000000000002C00000000000000E600A9
:100540002152500051004F00000001003A003B00D2
:100550003C003D003E003F0040004100420043009F
:100560004400450000004C004A0001000100010069
:100570000100010001000100010001000100010073
:100580000100010001000100010001000100010063
:100590000100010001000100010001000100010053
:1005A0000100000001000100A8000100000001009E
:1005B0000100010001000100010001000100010033
:1005C00001000100520001000000E000E300E20031
:1005D0000000000000002C00000000000000E60009
:1005E000E400500051004F000000AB00AC00A90037
:1005F000AA00AB00AC00A900AA0009025B0003013D
:1006000000A0FA0904000001030101000921110101
:1006100000012244000705810308000109040100CC
:100620000203000000092111010001222200070538
:1006300082032000010705030320000109040200D2
:100640000103000000092111010001223200070509
:100650008403200001120100020000000886805679
:10066000560001010203011C037600690061006C61
:10067000003A006600360034006300320062003346
:1006800000630000000C036C00610067006F006DE8
:1006900000000012035300540048004C004D00209D
:1006A000006B006200000004030904000000000069
:1006B000000000000000000000000000000000003A
:1006C0000000000000000000000000000000007EAC
:1006D0000F00D4FFFFFFC7000000780000000000FB
:1006E0000000002A2B28000000000000000000008D
:1006F00000000000000029000000002C1E34202112
:100700002224342627252E362D3738271E1F202158
:1007100022232425263333362E37381F04050607B7
:1007200008090A0B0C0D0E0F1011121314151617D1
:1007300018191A1B1C1D2F3130232D3504050607EF
:1007400008090A0B0C0D0E0F1011121314151617B1
:1007500018191A1B1C1D2F3130354C07087F08074C
:10076000003E5B4F5B3E003E6B4F6B3E001C3E7C91
:100770003E1C00183C7E3C18001C577D571C001C7A
:100780005E7F5E1C0000183C180000FFE7C3E7FF17
:1007900000001824180000FFE7DBE7FF0030483AAC
:1007A000060E00262979292600407F05050700400E
:1007B0007F05253F005A3CE73C5A007F3E1C1C0841
:1007C00000081C1C3E7F0014227F2214005F5F0083
:1007D0005F5F0006097F017F00006689956A0060FF
:1007E000606060600094A2FFA2940008047E040888
:1007F0000010207E20100008082A1C0800081C2A6F
:100800000808001E10101010000C1E0C1E0C0030EA
:10081000383E383000060E3E0E0600000000000094
:100820000000005F000000000700070000147F14B4
:100830007F1400242A7F2A120023130864620036E2
:100840004956205000000807030000001C22410008
:10085000000041221C00002A1C7F1C2A0008083EC0
:100860000808000080703000000808080808000030
:1008700000606000002010080402003E5149453E1F
:100880000000427F40000072494949460021414929
:100890004D33001814127F10002745454539003CA0
:1008A0004A49493100412111090700364949493671
:1008B00000464949291E0000001400000000403491
:1008C0000000000008142241001414141414000045
:1008D00041221408000201590906003E415D594EAB
:1008E000007C1211127C007F49494936003E41418B
:1008F0004122007F4141413E007F49494941007FFB
:1009000009090901003E41415173007F0808087F31
:100910000000417F4100002040413F01007F08145A
:100920002241007F40404040007F021C027F007F48
:100930000408107F003E4141413E007F090909063D
:10094000003E4151215E007F091929460026494990
:1009500049320003017F0103003F4040403F001F38
:100960002040201F003F4038403F006314081463BC
:10097000000304780403006159494D4300007F419E
:10098000414100020408102000004141417F000461
:1009900002010204004040404040000003070800FC
:1009A000002054547840007F2844443800384444A0
:1009B000442800384444287F003854545418000018
:1009C000087E09020018A4A49C78007F080404781B
:1009D0000000447D4000002040403D00007F102882
:1009E00044000000417F4000007C04780478007CD3
:1009F0000804047800384444443800FC18242418BF
:100A00000018242418FC007C0804040800485454EE
:100A100054240004043F4424003C4040207C001C3B
:100A20002040201C003C4030403C0044281028441A
:100A3000004C9090907C004464544C440000083674
:100A4000410000000077000000004136080000026D
:100A500001020402003C2623263C000000000000A6
:100A600000404040F0F8F8FF38FFF8F83FF8F8FF92
:100A700038FFF8F8F040404000000000000080C05F
:100A8000C0C0800000C0C08000000080C0C000C0A6
:100A9000C0000080C0C00000000000C0C0C0C0C0D6
:100AA00000C0C000000000000000000000000000C6
:100AB0000000000000000000000000000000000036
:100AC0000000000000000000000000000000000026
:100AD00000000000000000000000C0F0F8FC3E1E16
:100AE00006010000007F4141417F007F4141417F7D
:100AF000000080C0E07E5B4F5BFEC00000C000DCF9
:100B0000D7DEDEDED7DC00C0000000000000000001
:100B100000000000000000000000000000000000D5
:100B200000494949FFFFFFFFE0DFBFBF00BFBFDF54
:100B3000E0FFFFFFFF49494900000000001F3F6040
:100B400060E0BF1F007F7F071E381E077F7F007F8A
:100B50007F0E1F3B716000000000007F7F0C0C0CBB
:100B6000007E7E007F7E0303007F7E03037E7E0384
:100B7000037F7E000F3E703C063C703E0F00327BD0
:100B800049493F7E007F7E0303001E3F69696F264F
:100B900000000000000000000000030F1F3F3C7831
:100BA00070600000007F4141417F007F4141417FF3
:100BB00000307B7F7830202030787F3B0003000FAF
:100BC0007F0F0F0F7F0F00030000000000000000E8
:100BD0000000000000000000000000000000000015
:100BE00000010101070F0F7F0F7F0F0F7E0F0F7F97
:100BF0000F7F0F0F0701010100000000000000003F
:100C000000000101000000000000000000000000E2
:100C100000000000000000000000000000000000D4
:100C200000000000000000000000000000000000C4
:100C300000000000000000000000000000000000B4
:100C400000000000000000000000000000000000A4
:100C50000000000000000000000000000000000094
:100C60000000000000000000000000000000000084
:100C70000000000000000000000000000000000074
:100C80000000000000000000000000000000000064
:100C900000000000000000000000000011241FBE42
:100CA000CFEFDAE0DEBFCDBF11E0A0E0B1E0E8E0D9
:100CB000F4E602C005900D92A83AB107D9F725E0F5
:100CC000A8EAB1E001C01D92A73CB207E1F70E947B
:100CD00024260C94A0310C940000482F2091B803D6
:100CE00090917F0357E0291302C080E0089530E01F
:100CF000529FF001539FF00D1124E058FC4F818169
:100D0000681306C08081481303C085818111EECF2E
:100D10002F5F3F4F2770E7CFE8EDF0E080818E7FB7
:100D200080831092E2001092DA001092E100A0EEAF
:100D3000B0E08C9181608C9380818F77808319BC27
:100D4000A7EDB0E08C918E7F8C9380818F7E808325
:100D50001092680308952091E4003091E50095E633
:100D6000A9012091EC00822F817020FF06C08091A4
:100D7000E80080FF06C080E008952091E80022FD91
:100D80001AC080917503882389F0853089F080919D
:100D9000EB0085FD0FC02091E4003091E500421783
:100DA0005307F9F29150E1F684E0089582E0089546
:100DB00083E0089581E008958091770387FF13C051
:100DC0008091E80082FF06C08091E8008B778093D5
:100DD000E80004C0809175038111F2CF08958091DD
:100DE00075038823D9F38091E80080FFF8CF8091C4
:100DF000E8008E77ECCF982F9093E900242F762F80
:100E000050E0891731F07091EC002091ED00509185
:100E1000F00021FD07C09F5F973071F78093E900D4
:100E200081E008953091EB003E7F3093EB003091EC
:100E3000ED003D7F3093ED003091EB003160309359
:100E4000EB007093EC002093ED005093F0002091A4
:100E5000EE0027FDE0CF80E00895B0E0A0E0E3E3FE
:100E6000F7E00C942B30C8EDD0E088818F7E88832A
:100E7000E7EDF0E080818160808384E082BF81E0E3
:100E80008093680388818E7F888302EE10E0F801EA
:100E900010821092DA0081EEC82ED12CF601108259
:100EA00088818F77888388818068888388818F7D17
:100EB000888319BC10927503109276031092740304
:100EC0001092730390EEE92EF12CF70180818B7F55
:100ED000808388818160888342E060E080E00E94B6
:100EE000FB06F60180818E7F8083F801808181601E
:100EF0008083808188608083F70180818E7F8083FA
:100F0000888180618883CDB7DEB7E8E00C944730F4
:100F1000FC0180917D0390917E0386179707A0F0D6
:100F20006115710529F49091E8009E779093E8008F
:100F300090E06115710551F4911108C08091E800AD
:100F400082FF34C080E00895BC01F2CF8091750328
:100F50008823C1F18530C1F18091E80083FD30C064
:100F60008091E80082FDEACF8091E80080FFE1CF28
:100F70008091F3002091F200382F6115710519F06E
:100F80002830310558F091E02830310509F090E023
:100F90002091E8002E772093E800CBCF81918093B9
:100FA000F100615071092F5F3F4FE7CF80917503CA
:100FB000882341F0853041F08091E80083FFBECF67
:100FC00081E0089582E0089583E0089508950895EA
:100FD000089580916A03089587E797E79093010841
:100FE0008093000888E19AE00FB6F894A895809362
:100FF00060000FBE90936000FFCF2FB7F894609110
:1010000064037091650380916603909167032FBF1D
:1010100008959C01FC0132969FEF80E041914617B4
:1010200051F09F3F19F4411101C0982F8F5F863016
:10103000A9F79F3F09F40895290F311D97FD3A95AF
:10104000F90162830895A3E0B0E0E9E2F8E00C94CE
:101050003130209161033091620328173907A1F0E4
:101060009093620380936103E0915F03F0916003CA
:10107000309751F024E029839B838A830084F18593
:10108000E02DCE01019609952396E2E00C944D30B7
:10109000A3E0B0E0EEE4F8E00C94313020915D0381
:1010A00030915E0328173907A1F090935E03809377
:1010B0005D03E0915F03F0916003309751F023E00E
:1010C00029839B838A830084F185E02DCE010196DC
:1010D00009952396E2E00C944D30E0915F03F09186
:1010E0006003309729F00190F081E02D0995089573
:1010F00080E008953091BC038317A0F590E0262F7F
:10110000269526952695239F800D911D11248115E6
:1011100022E092073CF5FC01E154FC4F50816770DE
:1011200021E030E001C0220F6A95EAF74423D9F0AC
:10113000252B2517B9F0208325E0969587952A95CC
:10114000E1F721E030E002C0220F331F8A95E2F779
:101150008091BD039091BE03822B932B9093BE038D
:101160008093BD03089520952523E3CFFA018111D3
:1011700001C0FB010995089580912003982F9C7F61
:1011800029F4837084608093200308958C33E8F3FE
:1011900083708863F8CFAF92BF92DF92EF92FF9295
:1011A0000F931F93CF93DF93082F162FE901E42F9E
:1011B000F0E0EF55FC4F611110C0E4915E2F4E2F0F
:1011C0004983E8835A83DF91CF911F910F91FF905C
:1011D000EF90DF90BF90AF900895E62EF12C4491F0
:1011E000D42EE42FF0E026E0829FC00111242FEFDF
:1011F00030E0B9010E940D30802F90E0880F991FD8
:1012000055E5569FD001579FB00D11248A1B9B0BAB
:10121000982F990F890F5901AE18BF08AE9ED001C3
:10122000AF9EB00DBE9EB00D11245B2F189F8001A4
:101230001124012F11275901A01AB10AAE9E800175
:10124000AF9E100DBE9E100D11245901A81AB108B1
:10125000AE9CC001AF9C900DBE9C900D1124892FB7
:101260009927281B390B2E9FC0012F9F900D3E9F61
:10127000900D1124E92F62307105A1F050F4611531
:10128000710509F49DCF6130710581F0EB2F512F6D
:1012900097CF6430710569F080F06630710509F40C
:1012A0008FCFF4CFE42F4B2F592F8ACFE42F412F2C
:1012B00087CFEB2F542F492F83CF4B2F5D2DE12F5D
:1012C0007FCF80E008959091920292FF10C041E09C
:1012D000282F2471243009F040E031E0282F2871B4
:1012E000283009F030E0431711F02CE0822793FFFB
:1012F00010C041E0282F2471243109F040E031E092
:10130000282F2871283109F030E0431711F02CE024
:1013100082273091930230FF10C051E0282F2171B5
:10132000213009F050E041E0282F2871283009F0E1
:1013300040E0541711F029E0822731FF10C041E04E
:10134000282F2171213109F040E031E0282F287148
:10135000283109F030E0431711F029E0822794FD8D
:10136000877E089582389105B9F1B0F481339105F3
:1013700009F47DC048F48932910509F46DC08A32C0
:10138000910509F47BC008958533910509F45FC088
:101390008933910509F10895833E9105D9F138F417
:1013A000803E910529F1823E910579F10895863EAE
:1013B0009105D9F1873E910509F43EC0843E91051F
:1013C00041F52091930221FF24C08091920284FD77
:1013D00019C087EE90E0089520919202237009F0E1
:1013E0005AC02091930223FF14C089E290E008952F
:1013F0002091920220FD38C03091930230FF09C045
:1014000024FF43C090E080E008952091920222FDE5
:10141000F7CF08952091920222FD3AC030919302B5
:1014200030FD39C024FFF5CFEDCF2091920223FF8C
:10143000F0CF24FDE7CFCDCF2091920223FD2EC027
:101440003091930231FFEECF84EE90E00895209129
:10145000920225FFDECFC9CF2091920225FD21C047
:101460002091930223FFD5CF89E390E0D2CF209142
:10147000920226FFCECF8AE290E008952091920258
:1014800026FFC7CF81E390E0089583EE90E00895B2
:1014900082EE90E0089580EE90E0089586EE90E070
:1014A000089585E390E008951F93CF93DF930E9402
:1014B000B209EC01C11580E5D807F0F5C11580E44B
:1014C000D80708F09CC0C03ED10520F5CD3CD10521
:1014D00008F082C0C83AD10578F4C53AD10508F0C1
:1014E00073C0C130D10519F1209709F1C430D1057D
:1014F000F0F4D0E0C0E01BC0C33CD105D0F7C85A1F
:10150000D0E0CC0FDD1FC25DDE4F0990D881C02D29
:10151000D4640DC0C11580E2D80708F0D1C0C11550
:1015200081E0D80708F05AC0C83ED10510F7CE01B7
:10153000DF91CF911F910895C03682E5D80718F545
:10154000C03482E5D80708F06BC0C03282E5D80706
:1015500008F05FC0C11582E5D80708F497C02C2FAA
:101560002695269580E2289F900111248C2F837068
:10157000C1E0D0E002C0CC0FDD1F8A95E2F7C22B9C
:10158000D32BDD68D4CFC03A82E5D80760F4C038E9
:1015900082E5D80708F459C0CF71D0E0DC2FCC2702
:1015A000C46FD06AC4CFC03C82E5D80708F462C0DB
:1015B000C03E82E5D80708F09CCFDC2FCC27CC2793
:1015C000DF71C06FD06AB3CFC55AD0E0C55DDE4FC2
:1015D000C881D0E0D064ABCFD065A9CF8D2F0E9459
:1015E0006309182FCE0199270E94B209C12FD0E0BC
:1015F000DC2FCC27CC27DF71C82BD92B98CFCE017D
:1016000099270E94B209CC27DF70C82BD92BD06A4A
:101610008ECFCF71D0E0DC2FCC27C16FD06A87CFBF
:101620002C2F26952695277080E2289F9001112463
:101630008C2F8370C1E0D0E002C0CC0FDD1F8A95F3
:10164000E2F7C22BD32BDC6872CF2C2F2695269580
:10165000277080E2289F900111248C2F8370C1E0B5
:10166000D0E002C0CC0FDD1F8A95E2F7C22BD32B4E
:10167000DA685DCF8C2F8F710E946309C82FD0E08C
:10168000DC2FCC27CC27DF71D06251CF8C2F8F710C
:101690000E94630955E0D695C7955A95E1F7CF703A
:1016A000D0E0DC2FCC27282F30E084FF05C044E0B9
:1016B000220F331F4A95E1F7C22BD32BD06937CFC6
:1016C0008D2F8F710E946309182FCE0199270E94D8
:1016D000B209C12FD0E0DC2FCC27CC27DF71C82B7B
:1016E000D92BD2CF80918002882331F010928002D2
:1016F00010927F0210927E020895809590917D0253
:10170000982390937D0208951092730210927202B2
:1017100010927102089590917002292F282321F0D0
:10172000809589238093700208958091B8039091E9
:101730007F03981301C008958F5F8770FACFA82F99
:10174000A77023E0969587952A95E1F7FC01EE0FA7
:10175000FF1FE80FF91FE60FF71F50E040E080E0A1
:10176000219130E00A2E02C0369527950A94E2F7BF
:1017700021703327042E01C0220F0A94EAF7822B2E
:101780004F5F5F4F4330510559F70895903FB9F0CF
:10179000953070F4803198F440E1949F90011124C9
:1017A0006BE472E0820F932F911D0E949F0B0895AE
:1017B0009C5F923020F468E472E090E0F6CF80E025
:1017C0000895262F277091E001C0990F2A95EAF716
:1017D00023E0769567952A95E1F7FB01EE0FFF1F51
:1017E000E60FF71FE40FF51F50E040E0682F70E0B0
:1017F0008191DF0111979B01042E02C03695279538
:101800000A94E2F7217021952827292328272C9371
:101810004F5F5F4F4330510559F70895282F862FAA
:10182000903F71F0953068F4203150F430E1939F8F
:10183000B0011124620F711D4BE452E00E94E10BD4
:1018400008959C5F9230E0F7622F70E048E452E028
:10185000F5CF8093910208959091910221E030E0BC
:10186000F90101C0EE0F8A95EAF7D90102C0AA0F6B
:10187000BB1F6A95E2F7EA2B01C0220F4A95EAF7EF
:10188000892F8E23E81305C0292B822F0E94290C53
:10189000089520952923F9CF21E030E001C0220FDF
:1018A0008A95EAF720958091910282230E94290C63
:1018B0000895909173028095892380937302282F55
:1018C000277069F4891759F09091930292FF07C02D
:1018D0008695869586950E944C0C0E94840B0895EF
:1018E00021E030E001C0220F8A95EAF78091910251
:1018F000822B0E94290C08958093810208959C01F7
:101900003A9521153F4150F5FC01EE27F170BC01DD
:1019100066277270AC01442754709C0122273870EE
:1019200094FF0EC080E1EF2B09F480E0672B09F0F3
:101930008062452B09F08064232B89F0806808952C
:1019400081E0EF2B09F480E0672B09F08260452BE2
:1019500009F08460232B19F08860089580E00895D1
:10196000EF92FF920F931F93CF93DF9380914502E5
:101970009091320391111FC09FE1F92EF81AC1E72F
:1019800005E010E031E7E32EDE2DDC1B07C06F2DF4
:101990006D1B41E08C2F0E947A08DF5FD017110683
:1019A000B4F301501109C150CE3671F7CDB7DEB78F
:1019B000E6E00C94493090914402282F291B12161E
:1019C000DCF4DFE1D91BD53088F3C0E021E7F22E4B
:1019D0001AE1191B0F2D0C1B6D2F6C1B40E0802F83
:1019E0000E947A08612F6C0F41E0802F0E947A08D4
:1019F000CF5FC33079F7DACF2223C1F2DFE1D81B02
:101A0000D530A0F2C0E091E7F92E1AE1181B0F2D96
:101A10000C1B612F6C0F40E0802F0E947A086D2F05
:101A20006C1B41E0802F0E947A08CF5FC33079F7AA
:101A3000BDCFB0E0A0E0EFE1FDE00C942A30D82F5C
:101A400080913203882309F442C082EBE82E81E0C2
:101A5000F82E0CEF11E0C2E29FE1C92EF801D1800F
:101A60008081BD2CB81AB7FE06C06C2D681B40E003
:101A70008C2F0E947A08F701818181937F01F80100
:101A8000D1928F01BB2031F06C2D6D1941E08C2F6C
:101A90000E947A08CF5FCB3609F78091FB01C09195
:101AA00045028D1710F5CF3100F5CF5FC093450289
:101AB000D093FB018091450290914402891781F0F7
:101AC0006FE1681B41E08BE60E947A0809C0C2E220
:101AD00041E06FE18C2F0E947A08CF5FCC36C1F7CE
:101AE000CDB7DEB7E9E00C944630D81710F0D1112D
:101AF000DFCFCC23E9F26FE16C1B40E08BE60E9464
:101B00007A08C150D3CFEF92FF920F931F93CF93D8
:101B1000DF938C0180913203811121C0C1E041E04B
:101B200064E18C2F0E947A0841E06FE18C2F0E94C3
:101B30007A08CF5FCF3199F7C5E141E06C2F80E0A3
:101B40000E947A0841E06C2F8FE10E947A08CF5FF3
:101B5000CF3199F7CDB7DEB7E6E00C944930F80104
:101B6000D181C081DD0FCC0F85E1F82EFD0EEE2472
:101B7000E394EC0E45816F2D8E2D0E947A08DA5E7B
:101B8000F80145816D2F8E2D0E947A08CE5FF801F5
:101B900045816F2D8C2F0E947A08F80145816D2FA9
:101BA0008C2F0E947A08D6CFCF93DF93C091C505C2
:101BB000D091C6058A30C1F42091BC03CE018F5B61
:101BC0009340622F70E00E940D30281B822F66E048
:101BD0000E945830C82FC15018F4DF91CF9108955A
:101BE00080E20E94D40DF7CF8D30E9F4CF5BD34073
:101BF0002091BC03622F70E0CE010E940D30281BA3
:101C0000822F9E01280F311D2115324018F080E0EF
:101C1000D0E0C0E0C80FD11DC154DC4FD093C60541
:101C2000C093C505DACF96E0FE01AFEBB5E00190B9
:101C30000D929A95E1F7803E08F458C086E0FE01C7
:101C400011928A95E9F7C091C505D091C60546E085
:101C500050E0BE018FEB95E00E9434319E012F5B76
:101C60003340892B41F1C90145E0969587954A9506
:101C7000E1F741E050E0BA0102C0660F771F8A9594
:101C8000E2F7CB016091BD037091BE03862B972BC9
:101C9000B9016B5F7F4FE5E076956795EA95E1F7CF
:101CA00002C0440F551F6A95E2F7842B952B909341
:101CB000BE038093BD032A5F3F4F4091BC03642F56
:101CC00070E0C9010E940D30481B463010F4240F0B
:101CD000311D211572E0370710F030E020E021546B
:101CE0003C4F3093C6052093C50577CFF6E08F9F14
:101CF000B0011124655A784F46E050E0CE010E94B1
:101D00001E31A1CF0F931F93CF93DF93EC01FC0102
:101D100001900020E9F78F0101501109C017D10788
:101D200028F0DF91CF911F910F91089589910E9422
:101D3000D40DF4CF0F931F93CF93DF938B01EA0160
:101D400090917503943061F58093E9008FEF909145
:101D5000E800815095FD06C095ED9A95F1F70000D9
:101D60008111F5CF8091E80085FF1AC00E94AB0673
:101D7000811111C08091E80085FD06C08091E800C6
:101D80008E778093E800F2CFF80181918F018093E4
:101D9000F100219779F78091E8008E778093E80031
:101DA000DF91CF911F910F91089543E050E0BC0166
:101DB00084E00E949A0E0895CF93DF93EC0148E0EF
:101DC00050E0BC0181E00E949A0E88E0FE01ABE683
:101DD000B3E001900D928A95E1F7DF91CF910895DC
:101DE0008091200380FD0AC0E7EFF2E011821082AB
:101DF0001282339653E0E831F507C1F7869A31B382
:101E00003F7B21B320644FB7F89487EF92E0FC0149
:101E10005191CF0168E021BB000000C057FF31BBEA
:101E2000550F000000C000C000C031BB00C06A9563
:101E300091F7F3E088319F0751F74FBF8FE594E0AA
:101E40000197F1F700C0000008959091200390FFE2
:101E50000CC0E7EFF2E0818360834283339693E026
:101E6000E831F907C1F70E94F00E0895A3E0B0E051
:101E7000ECE3FFE00C942F308C018091200380FF75
:101E800010C09E012F5F3F4F4091230360912203BA
:101E9000F80184810E94CB084B8169818A810E946C
:101EA000250FF80184818F5F84832396E4E00C94EE
:101EB0004B30CF93C82F6FEF811168EB85E290E034
:101EC0000E946C316FEFC1116EEC86E290E00E94CF
:101ED0006C316FEFC11165E387E290E00E946C31D5
:101EE000CF910895CF93DF93C9E7D1E060E0CE01B1
:101EF0000E946C312196C11584E0D807B9F7DF91B3
:101F0000CF9108950F931F93CF93DF93142F022F38
:101F1000823020F5623010F598E0899FE0011124AD
:101F200084E0689FB0011124C60FD71FC759DE4F48
:101F300082E090E0442311F090E080E0632F8C0F6A
:101F40009D1F0E946C3183E090E0112311F081E02D
:101F500090E0602F8C0F9D1F0E946C31DF91CF911C
:101F60001F910F9108951F93CF93DF93122F82300B
:101F7000E0F46530D0F44031C0F490E2699FE001B4
:101F8000112450E0440F551FC40FD51F90EA899FBC
:101F9000C00DD11D1124632FCE0189960E946C3192
:101FA000612FCE018A960E946C31DF91CF911F91F3
:101FB0000895B0E0A0E0EFEDFFE00C942630C09073
:101FC0005B03D0905C0381E090E090935C0380938E
:101FD0005B030AEE15E08AEAE82E84E0F82EC0E002
:101FE0005701D0E015C0F40125913491472D6D2F94
:101FF0008C2F0E94B30F82E0880E911C739480E1B5
:102000007812F1CF80E2A80EB11CDF5FD53019F055
:102010004501712CE8CFF8012591349141E060E051
:102020008C2F0E94820FF80132962591349140E066
:1020300060E08C2F0E94820FF80134962591349134
:1020400041E061E08C2F0E94820FF80136962591C5
:10205000349140E061E08C2F0E94820F085F1F4F97
:1020600080EAE80EF11CC13011F0C1E0B9CFD09286
:102070005C03C0925B03CDB7DEB7EDE00C94423059
:1020800080E00E94590F60E088E290E00E946C318D
:102090000E94D90F0E94720F81E00E94590F08958B
:1020A00085E290E00E944831883B89F486E290E026
:1020B0000E9448318E3C59F487E290E00E944831FA
:1020C00091E0853309F090E0892F8170089580E0D8
:1020D000FCCFFF920F931F93CF93DF93F42E8230A8
:1020E00070F5623060F528E0829F8001112434E0B1
:1020F000639FB0011124060F171F07591E4F82E07E
:1021000090E0442311F090E080E0800F911F0E9446
:102110004831C82FD0E0DC2FCC2783E090E0FF20AF
:1021200011F081E090E0800F911F0E9448319E01E4
:10213000282BC901CDB7DEB7E5E00C944A3090E01A
:1021400080E0F8CF0F931F93CF93DF93823030F569
:10215000653020F5403110F520E2629F80011124A6
:1021600050E0440F551F040F151F30EA839F000DE8
:10217000111D1124C80189960E944831C82FD0E052
:10218000DC2FCC27C8018A960E9448319E01282B5B
:10219000C901DF91CF911F910F91089590E080E0E8
:1021A000F8CF2091F5023091F602232BD9F4703F3D
:1021B00039F4603FB9F48091280390912903089580
:1021C000753048F4603170F4823060F4462F672F28
:1021D0000E94A21008957D3F41F4623018F441E05E
:1021E000823050F090E080E008957C3FD9F7623073
:1021F000C8F78230B8F740E00E9469100895CF9286
:10220000DF92FF920F931F93CF93DF936C010091A6
:10221000910280918102082BC1E0D0E010E0FC2EF9
:10222000C8010C2E02C0959587950A94E2F780FDAF
:102230000FC0CD2B51F4F12C8F2DDF91CF911F9139
:102240000F91FF90DF90CF900895D0E0C0E0E7CFEE
:10225000B6018C2F0E94D1100E94540A019749F3B5
:10226000EBCFCF93DF93EC010E94FF10BE010E94E1
:10227000D1100E94540ADF91CF910895FC0124816E
:102280002223C1F0808191810E94311192959F702B
:10229000963091F058F4925F9F70923058F4803FDE
:1022A00019F030F4883E30F481E008959A5FF4CF5D
:1022B000843FD1F380E00895883EB0F3813FD1F7A9
:1022C000F3CFA6E0B0E0E7E6F1E10C9430304983CB
:1022D0005A8349815A819923A1F0222391F0CA019E
:1022E0000E94FF10182F682F89819A810E940E0C7E
:1022F00069817A81812F0E94D1102696E3E00C94A7
:102300004C30CA010E94C60B182FF2CFB0E0A0E0FB
:10231000ECE8F1E10C942B306C017B0164E670E099
:1023200088E70E94272F8C01E601EC0CFD1C17FDAD
:102330000BC0FE01849164E670E00E94932F8C0133
:102340002196CE15DF0599F70E94093081E001152D
:10235000110509F080E0CDB7DEB7E8E00C94473016
:102360008091590390915A03911103C091E08927FC
:102370000895882369F062E070E088EA94E00E94A2
:102380008611811103C08091590308951092590359
:1023900080915903EBCFCF93C091590380915A0399
:1023A0008823D1F00E94FD07605A75418F4F9F4FDF
:1023B000609355037093560380935703909358038B
:1023C000C11108C062E070E086EA94E00E948611C4
:1023D000811105C0C09159038C2FCF91089581E0E0
:1023E00080935903F7CFB0E0A0E0E9EFF1E10C945E
:1023F000273049015A016B017C010E94BC0884010D
:10240000A4016A2D7B2D88E090E00E947E3194012A
:102410004A2D5B2DB601C70100E20E94F430622F05
:1024200084E290E00E946C31CDB7DEB7ECE00C9412
:102430004330A3E0B0E0EFE1F2E10C942430F82E59
:10244000762EE42E622E8091200380FF2FC0E82F8D
:10245000E695E695AE2FB0E0AF57BE4F9C919093B6
:102460001E038C7F843031F59E012F5F3F4F8F2DEF
:102470000E94CB084B8169818A810E94250FF092CE
:10248000210370922203E0922303662079F02091C9
:10249000200360912403709125033F2D472D5E2D6D
:1024A00080912603909127030E94F3112396EFE079
:1024B0000C944030923019F4F0902103E0CF953025
:1024C000F1F6E5508E2F8170582EE695F0E0EF552D
:1024D000FB4FE4910E2F10E087EFC82E82E0D82E3C
:1024E000B12CA12C9BE0892E912CC501B4010E9436
:1024F0000D308F2D511013C0860F96014E2D672D74
:102500000E94CB08A00EB11E83E0C80ED11C88E14A
:10251000C81683E0D80649F70E94F00EB0CF861B9C
:10252000ECCFE0E2F3E043812AE0421B08F440E014
:1025300021E0628181810E9419120895E0E2F3E0B6
:1025400043812AE0420F08F44FEF21E0628181814C
:102550000E9419120895E0E2F3E062812AE0621B12
:1025600008F460E021E0438181810E9419120895FE
:10257000E0E2F3E062812AE0620F08F46FEF21E00D
:10258000438181810E9419120895E0E2F3E0818184
:1025900021E0438162818A500E9419120895E0E28D
:1025A000F3E0818121E043816281865F0E941912FC
:1025B000089580912403882319F081508093240387
:1025C0002091200330912103409122035091230355
:1025D0006091240370912503809126039091270335
:1025E0000E94F311089580912403833018F48F5FC3
:1025F00080932403209120033091210340912203F2
:102600005091230360912403709125038091260348
:10261000909127030E94F3110895E0E2F3E085E032
:10262000808311828FEF828383831482758125E0FA
:1026300030E04FEF5FEF60E0868197810E94F311F9
:1026400008959091930292FB222720F9281779F0A0
:1026500080FB92F9909393026091920270919302A1
:1026600084E090E00E948A3182E00E94590C089533
:1026700090E080E00E945631863E9E4F19F40E9401
:102680005010089580E00895A8E0B0E0EAE4F3E196
:102690000C94313066EE7EEF90E080E00E948A314B
:1026A00060E082E090E00E946C3181E080938102E2
:1026B00061E083E090E00E946C3160E074E184E0CE
:1026C00090E00E948A3160E086E090E00E946C31E8
:1026D0006FEF87E090E00E946C3140E050E0BA017B
:1026E00088E090E00E947E3160E084E290E00E9409
:1026F0006C3160E087E190E00E946C3160E08CE03A
:1027000090E00E946C3160E08DE090E00E946C31BE
:1027100019821A821B821C821D821E821F821886C9
:1027200048E050E068E170E0CE0101960E945C3123
:1027300040E050E0BA0180E290E00E947E3180E00B
:102740000E94590F0E94401040E050E0BA018FE013
:1027500090E00E947E3140E050E0BA0183E190E0D9
:102760000E947E312896E2E00C944D301F920F9229
:102770000FB60F9211242F933F934F935F936F9354
:102780007F938F939F93AF93BF93EF93FF9380912A
:10279000E10082FF09C08091E20082FF05C08091C4
:1027A000E1008B7F8093E1008091DA0080FF24C0FC
:1027B0008091D80080FF20C08091DA008E7F8093C6
:1027C000DA008091D90080FF9DC080E189BD82E15F
:1027D00089BD09B400FEFDCF81E08093750380912F
:1027E0006803811109C00E948C060E942D07809108
:1027F000E20084608093E2008091E10080FF17C0D6
:102800008091E20080FF13C08091E2008E7F809370
:10281000E2008091E20080618093E2008091D80024
:1028200080628093D80019BC85E080937503809105
:10283000E10084FF2BC08091E20084FF27C080E18B
:1028400089BD82E189BD89B5982F917080FFFBCF4A
:102850008091D8008F7D8093D8008091E1008F7E99
:102860008093E1008091E2008F7E8093E20080916E
:10287000E20081608093E20080917603882309F46E
:1028800047C084E080937503809175038091E100D7
:1028900083FF27C08091E20083FF23C08091E10085
:1028A000877F8093E10082E0809375031092760326
:1028B0008091E1008E7F8093E1008091E2008E7F25
:1028C0008093E2008091E20080618093E20042E028
:1028D00060E080E00E94FB068091F00088608093B9
:1028E000F000FF91EF91BF91AF919F918F917F91F8
:1028F0006F915F914F913F912F910F900FBE0F906D
:102900001F90189519BC109275031092680374CF2C
:102910008091E30087FD93E090937503B5CF7894A1
:102920001F921FB61F9211248F939F93AF93BF9353
:102930008091640390916503A0916603B091670351
:102940000196A11DB11D8093640390936503A0932C
:102950006603B0936703BF91AF919F918F911F90D2
:102960001FBE1F9018959C014FB7F8948091640387
:1029700090916503A0916603B09167034FBF821BDE
:10298000930B08952FB7F894809164039091650399
:10299000A0916603B09167032FBF08952F923F92D5
:1029A0005F926F927F928F929F92AF92BF92CF92DF
:1029B000DF92EF92FF920F931F93CF93DF9380915B
:1029C0005A03882309F4D2C08FEB93E09093C60595
:1029D0008093C505D0912A038091320381112EC0C6
:1029E0000E94190D0E94B00C90E080E00E94830DBF
:1029F000C0E06FE1E62E7FE0D72EEAE7CE2EFE2C78
:102A0000FC1A8C2F6D2D0E94583002E0911106C0E7
:102A100041E06F2D85E70E947A0803E010E041E075
:102A20006F2D8C2D811B0E947A081F5F1013F7CF2A
:102A3000CD5FC13221F781E08093320387E291E0DC
:102A40000E94820E8091BC0390E081549C4F909331
:102A5000C6058093C50580911601D81305C08091E5
:102A60002F03803309F44BC0D093160180E3809389
:102A70002F03CD2ED12CF12CE12C10922E03C70167
:102A8000B6012AE030E040E050E00E947830605D1E
:102A9000603331F0C114D104E104F10409F460E3BE
:102AA00060932D0360E32AE0C216D104E104F1042F
:102AB00090F05AE0852E912CA12CB12CC701B601C3
:102AC000A50194010E947830CA01B901A5019401C1
:102AD0000E947830605D60932C0320E364E6C616A4
:102AE000D104E104F10448F0C701B60124E630E066
:102AF00040E050E00E947830205D20932B038BE271
:102B000093E00E94820E80913003909131030E94E5
:102B1000B3148D32914058F08D2F0E94190D0E94F0
:102B2000B00C0E94C21490933103809330038091C3
:102B3000BD039091BE03892B59F5809159038823D9
:102B4000A9F00E94FD0700915503109156032091B2
:102B5000570330915803601B710B820B930B6F3F2F
:102B60007F4F8F4F9F4710F40E94B011DF91CF919C
:102B70001F910F91FF90EF90DF90CF90BF90AF909B
:102B80009F908F907F906F905F903F902F900895CF
:102B900080915A03882389F2809154038111CDCF0B
:102BA0000E94CB112091BD033091BE032115310548
:102BB00021F280E041E050E0082F10E01A01082ED9
:102BC00002C0220C331C0A94E2F7B1016223732382
:102BD000672B11F48F5FF0CF9091530390FF95C056
:102BE000880F880F880F8093190110921C01895F4C
:102BF00080931A0183E080931D0124E630E047E0D2
:102C000050E067E171E088E70E94C12F892B09F04D
:102C100094CFA80125E0440F551F2A95E1F7809134
:102C2000530380FF84C0E3E3F3E080E2EF011992F5
:102C30008A95E9F7A4E9B1E000E911E088E9C82E36
:102C400081E0D82E97E0592E772473948D91F80166
:102C500021918F01240F352F311D21543C4FE82F36
:102C6000F0E0ED5CFC4F90E080E0652C681A872C6A
:102C7000082E01C0880C0A94EAF77901A12CE7011B
:102C8000B9907E01B820662D6A196770962E062EBF
:102C9000000C770BDB2D01C0DD0F9A94EAF77195DC
:102CA000619571096770772701C0B6946A95EAF754
:102CB000BD2A6081962E9B289082A39468E0A6127C
:102CC000DECF019631968830910579F6CA16DB067B
:102CD00009F0BCCF04E610E020E230E043E353E02B
:102CE00060E488E70E94E22F892B09F026CFE101FA
:102CF000C095D0958091BD039091BE03C823D92380
:102D0000D093BE03C093BD0318CF8295880F807601
:102D1000809319019801369527953695279520932C
:102D20001C01815E80931A0120931D0166CF4154DE
:102D30005C4F04E610E020E230E0D2CF6091200347
:102D40006695669570E04BE050E08BE091E00E9464
:102D50002731892B19F481E080931F030E94C2144C
:102D6000909319038093180308959091200390FF86
:102D700035C09370811133C0946090932003662313
:102D800091F0209120033091210340912203509132
:102D90002303609124037091250380912603909171
:102DA00027030E94F311609120036695669570E0F9
:102DB0004BE050E08BE091E00E942731892BB9F085
:102DC00010921F0381E080931B0320E040912303B6
:102DD00060912203809121030E94191208958F307F
:102DE00010F09863CACF880F880F982BC6CF0E9427
:102DF0009E16E8CF8091200386958695815009F430
:102E00008EE061E00E94B5160895809120038695BA
:102E100086958F5F8F3008F081E061E00E94B516E3
:102E200008959091200390FF09C096959695981764
:102E300028F0961718F40E940517089561E00E9483
:102E4000B5160895B0E0A0E0E8E2F7E10C94243074
:102E500090E080E0C0E001E010E0812C912C540172
:102E6000839461E9662E62E0762EA9E6B1E050E037
:102E700040E02D91E22FE295EF70F0E02F70B80165
:102E800002C0660F771F2A95E2F79B01B801042E56
:102E900002C0660F771F0A94E2F768237923042E95
:102EA00002C0759567950A94E2F732A1662309F48A
:102EB0005EC0232B22A34F5F5F4F44305105C9F6FC
:102EC0007AE17A95F1F700C0B501A401082E04C09B
:102ED000440F551F661F771F0A94D2F76A019A01A3
:102EE00020953095E7E8F2E044E6E42E41E0F42E48
:102EF000D0E041915191D7015D907D01A52DA29522
:102F0000AF70B0E090966C9170E0A52DAF7002C0EC
:102F100075956795AA95E2F7DF01129760FD2AC0C3
:102F2000BA016C297D2911967C936E936D917C91E9
:102F30004617570709F0D1E06E167F06D1F6CD2B64
:102F400001968031910509F090CFCC23B9F081E052
:102F5000809386020E94C21490938502809384021B
:102F6000C0E08C2FCDB7DEB7EFE00C944030209559
:102F70002323A0CFBA0162237323D5CFD091860239
:102F8000DD2379F380918402909185020E94B3142D
:102F9000059738F34AE050E067E872E08BEE92E084
:102FA0000E943431892B51F08AE0E7E8F2E0ABEE81
:102FB000B2E001900D928A95E1F7CD2F1092860232
:102FC000D0CF90918002292F282361F0809589230A
:102FD00080938002882339F00E94C21490937F026C
:102FE00080937E02089590E080E0F8CFCF93C09167
:102FF0007D0280917402C82B809180028823F9F0B1
:103000000E94C21420917E0230917F02821B930B9A
:103010008838934110F00E94720B80918002C82B77
:1030200020E08CEA91E0FC013191CF0131112F5F5A
:10303000F1E0823B9F07B9F721110E94720BC09308
:10304000AA0148E050E065E772E08AEA91E00E9458
:103050003431892BA9F088E0EAEAF1E0A5E7B2E093
:1030600001900D928A95E1F7E0915F03F091600382
:10307000309731F00280F381E02D8AEA91E00995E2
:10308000CF91089510927D02ECEAF1E086E0DF0135
:103090001D928A95E9F790E080E00E94480890E050
:1030A00080E00E942308109274020E94F61708958F
:1030B000AAE2B0E0EEE5F8E10C94303087E793E067
:1030C0002091F100DC012D93CD01B3E08F379B07F8
:1030D000B9F780917803833009F472C0B8F4813075
:1030E00009F449C0823009F4B3C08091E80083FF3D
:1030F00096C280917703909178039A3008F08FC23E
:10310000E92FF0E0EE55FE4C0C94B9308A3009F40A
:103110008EC08B3009F471C0893039F78091770304
:10312000813219F780917B0390917C03009711F015
:103130000297D9F68091E800877F8093E80080911C
:10314000E80082FF38C09091F3008091F20002976E
:1031500031F48091F100813011F0863021F48091BA
:10316000F10080936A038091E8008B778093E800F8
:103170000E94DC06BACF80917703813A09F0B5CF7F
:103180008091E800877F8093E80080917B03909195
:103190007C03892B61F468E08BE693E070E00E9489
:1031A00088078091E8008B778093E8009ECF60E0ED
:1031B00090E080E0F3CF809175038111C0CF95CF6F
:1031C00080917703813A09F090CF80917B039091B1
:1031D0007C03892B09F089CF8091E800877F809359
:1031E000E8008091E80080FFFCCF80911E01809371
:1031F000F1008091E8008E77B9CF8091770381321A
:1032000009F073CF80917B0390917C03892B09F0A7
:103210006CCF8091E800877F8093E8000E94DC06F5
:103220008091790380931E010E9442185ECF8091A5
:103230007703813209F059CF8091E800877F80932E
:10324000E8000E94DC0680917A03809369034DCFE9
:1032500080917703813A09F048CF8091E800877F19
:103260008093E8008091E80080FFFCCF80916903A3
:10327000BECF803899F0823809F0D1C180917B03AC
:103280008F70873008F0CBC18093E9008091EB000C
:1032900085FB882780F91092E90006C080917303AE
:1032A00090917403911182609091E800977F9093C0
:1032B000E8008093F1001092F1008091E8008E7791
:1032C000AAC1882309F498C1823009F0A8C180916D
:1032D000790381119BC180917B038F702FEF280FA1
:1032E000263008F09CC18093E9002091EB0020FF7C
:1032F0008DC1933031F48091EB0080628093EB00BC
:1033000085C19091EB0090619093EB0021E030E05B
:1033100001C0220F8A95EAF72093EA001092EA0092
:103320008091EB008860EACF811179C11091790317
:103330001F778091E3008078812B8093E300809158
:10334000E800877F8093E8000E94DC068091E80017
:1033500080FFFCCF8091E30080688093E30082E0EF
:10336000111183E0809375035AC18058823008F0B0
:1033700056C12091790330917A032C3DE3E03E075A
:10338000A1F583E08A838AE289834FB7F894DE014E
:10339000139620E03EE051E2E32FF0E05093570017
:1033A000E49120FF03C0E295EF703F5FEF708E2F36
:1033B00090E0EA30C0F0C7968D939D932F5F243143
:1033C00059F74FBF8091E800877F8093E8006AE259
:1033D00070E0CE0101960E9488078091E8008B770B
:1033E0008093E8001CC1C096E7CF80917B03909149
:1033F0007C03432F55274330510509F44AC078F523
:103400004130510509F485C08BE590E0EAEFF5E025
:103410004230510509F003C12091E800277F209335
:10342000E80020917D0330917E038217930708F412
:103430009C0140E02115310509F070C041116EC0BA
:103440008091E80082FDC9CF80917503882329F21D
:10345000853019F28091E80083FFF2CFBECF413270
:10346000510509F447C04232510509F0D8C08330F4
:10347000910508F0D4C0FC01EE0FFF1FE556FE4F8A
:103480000190F081E02D88569E4FDC018C9190E0F8
:103490001DC0332721303105E9F02115310579F0C0
:1034A00022303105F9F02330310509F0B8C0E7E6E4
:1034B000F6E0E4918E2F90E0E7E6F6E007C0E7EA59
:1034C000F6E0E4918E2F90E0E7EAF6E0009709F449
:1034D000A6C0A2CFE3E9F6E0E4918E2F90E0E3E905
:1034E000F6E0F4CFE5E8F6E0E4918E2F90E0E5E831
:1034F000F6E0ECCF8330910508F091C0880F991F5A
:10350000FC01EF55FE4F0190F081E02D89E090E045
:1035100083CF82E190E0E5E5F6E07ECF8091750310
:10352000882309F45ACF853009F457CF8091E800F9
:1035300083FD53CF8091E80082FD82CF8091E80027
:1035400080FF78CF9091F3008091F2002115310532
:1035500019F08830910550F041E0089709F040E0FB
:103560008091E8008E778093E80064CF4491409387
:10357000F1003196215031090196E8CF803809F0E9
:103580004EC08091E800877F8093E80080917603A9
:103590008093F10092CE811142C0109179031230D4
:1035A000F0F58091E800877F8093E8001093760320
:1035B0000E94DC06112311F084E005C08091E30035
:1035C00087FDFACF81E08093750342E061EC81E0F2
:1035D0000E94FB0642E261EC84E00E94FB0642E2AC
:1035E00061EC82E00E94FB0642E260EC83E00E9414
:1035F000FB068091750313C080917903813079F4C3
:1036000081E0933009F080E0809374031092E90028
:103610008091E800877F8093E8000E94DC0680911B
:10362000E80083FF0AC08091E800877F8093E8006C
:103630008091EB0080628093EB00AA96E3E00C940B
:103640004C301F920F920FB60F9211242F933F937D
:103650004F935F936F937F938F939F93AF93BF939A
:10366000CF93DF93EF93FF93D091E900DF708091C8
:10367000EC00C82FC17080FDC0E81092E900809175
:10368000F000877F8093F00078940E945818109281
:10369000E9008091F00088608093F000CD2BCF701E
:1036A000C093E900FF91EF91DF91CF91BF91AF916E
:1036B0009F918F917F916F915F914F913F912F914A
:1036C0000F900FBE0F901F9018950E9442182FEF79
:1036D00084E39CE0215080409040E1F700C000006E
:1036E00088E19AE00FB6F894A895809360000FBE29
:1036F00090936000FFCF882341F0809590917402F1
:103700008923809374020E94F6170895882339F064
:1037100090917402982B909374020E94F61708956A
:10372000882321F00E947D0B0E94F61708958823BC
:1037300039F090917D02982B90937D020E94F617AC
:103740000895882391F19CEF980F913A80F4ECEA68
:10375000F1E022EB31E09191891303C0DF01119771
:103760001C922E173F07B9F70E94F617089590E2B2
:10377000980F983050F4877091E001C0990F8A95A6
:10378000EAF7892F0E947D0BEFCF9BE5980F9330CE
:1037900028F490E080E00E9448080895885A8B3110
:1037A00020F490E080E00E9423080895CF93C82F72
:1037B0008823B1F08CEF8C0F813A00F5ECEAF1E050
:1037C00082EB91E0DF012D91C21761F08A179B0710
:1037D000D1F76C2F8AEA91E00E9409080E94F6173F
:1037E000CF9108952191C21303C0DF0111971C925C
:1037F0008E179F07B9F70E94F617EBCF80E28C0F68
:10380000883068F4C77021E030E001C0220FCA950B
:10381000EAF780917D02822B80937D02DFCFEBE57A
:10382000EC0FE33040F4F0E0E55DFE4F808190E086
:103830000E944808D5CFC85ACB3190F6EC2FF0E063
:10384000EE0FFF1FE25DFE4F808191810E942308F1
:10385000C7CF1F93CF93DF93182FD0E0C0E08933F9
:1038600011F4C0E5D0E0812F0E94D61B209739F4D7
:10387000812F0E94A11BDF91CF911F9108958FE9A5
:103880009FE00197F1F700C000002197EFCF0F9361
:103890001F93CF93DF93C62FD42F022FFC01858176
:1038A0008823A9F06093BB030E94C2149093BA03CB
:1038B0008093B903C77081E001C0880FCA95EAF709
:1038C0000E94971BDF91CF911F910F9108958091D6
:1038D000BB03681332C08091B9039091BA030E9470
:1038E000B3148535910548F510E21D0FCD17B9F0D9
:1038F00080E28C0F883040F4C77081E001C0880FEF
:10390000CA95EAF70E94901B183048F481E09D2F79
:10391000977001C0880F9A95EAF70E94971B802F35
:103920000E94291C183070F6D77081E001C0880F02
:10393000DA95EAF70E94901BC5CFC77081E001C0FD
:10394000880FCA95EAF7F6CFB0E0A0E0EAEAFCE11A
:103950000C942930EC018AE0A82E2881222309F456
:103960008FC02130C9F599818A81913021F4229646
:103970000E94291C05C0923029F422960E94D61B71
:103980002196EBCF933021F422960E94A11BF8CF11
:10399000943011F02196F4CF229630E020E0AE0171
:1039A0004F5F5F4F8053990B8A30910550F0215043
:1039B000310930F38FE99FE00197F1F700C0000073
:1039C000F6CFA29EB001A39E700D11249C01260F7C
:1039D000371F8981EA01E3CFE22FF0E0E552F94F8A
:1039E000B490822F86958695869590E0FC01E553EC
:1039F000F94FE4902770F12C022E02C0F594E79461
:103A00000A94E2F731E0E322FF24FC01E554F94F88
:103A1000C490D12C022E02C0D594C7940A94E2F728
:103A200031E0C322DD24FC01E555F94F049110E09B
:103A300002C0159507952A95E2F701701127E11448
:103A4000F10419F081EE0E94D61BC114D10419F0C3
:103A500086EE0E94D61B8B2D0E94291CC114D10416
:103A600019F086EE0E94A11BE114F10419F081EE19
:103A70000E94A11B0115110509F482CF8CE278CFB9
:103A8000CDB7DEB7EAE00C9445309091930292FFF7
:103A900010C098E0899F90011124622B60937302FB
:103AA0000E94700C0E94C214909372028093710263
:103AB00008950E94700C0895ABE1B0E0E2E6FDE1EC
:103AC0000C942F304E8B5F8B688F798F8A8F9B8FF2
:103AD000092F9111109274021D8A86E0FE017696DC
:103AE000DE011F9601900D928A95E1F71A8D809163
:103AF000930282FF1CC00E94C21420917102309177
:103B00007202821B930B8838934120F080917302DC
:103B100082FF7FC00E94C21420917E0230917F02FA
:103B2000821B930B8838934110F00E94720B112373
:103B300049F021E04F85588969897A89812F902F32
:103B40000E9461111B8B0C8B87E0FE013F96DE010A
:103B5000189601900D928A95E1F7CE0108960E9481
:103B6000722481110CC087E0FE013896DE011196A7
:103B700001900D928A95E1F78C8581110BC017E0B9
:103B80008091B80390917F03891331C06B96E4E074
:103B90000C944B3020917F0330E0C901019687706F
:103BA00099274091B8034817190699F097E0929F1A
:103BB000D001939FB00D1124A058BC4FFE01319647
:103BC00001900D929A95E1F780937F030E94950BE7
:103BD000D6CF0E94421810927F031092B80387E05C
:103BE000E9E6F2E0DF011D928A95E9F7C8CF819FEF
:103BF000C001112480589C4F0E947224882331F206
:103C00008091B80390E00196877099278093B8035C
:103C1000B7CF82E00E94590C7DCFA6E0B0E0E3E18F
:103C2000FEE10C942F308C0190932903809328039C
:103C3000011580E21807C0F4802F0E94A11BC80163
:103C40000E947F0C9801205E31092830310518F060
:103C50000115110531F40E94901B2696E4E00C94A6
:103C60004B300E947B1BF9CF80EF89838A830E94AF
:103C7000C2148160682F9C838B8349815A817C8127
:103C800081E090E00E945C1DE8CFA6E0B0E0EBE4AC
:103C9000FEE10C942F308C0190932903809328032C
:103CA000011580E21807C0F4C8010E947F0C98013A
:103CB000205E31092830310518F00115110549F44D
:103CC0000E94971B802F0E94D61B2696E4E00C943E
:103CD0004B300E94861BF6CF80EF89838A830E9437
:103CE000C2148160682F9C838B8349815A817C81B7
:103CF00081E091E00E945C1DE8CFA4E0B0E0E3E841
:103D0000FEE10C9427307C01FC018481882309F4B6
:103D10002CC121E0408151816281738195810E9493
:103D200061118C01F7018581882309F4C3C0E091FA
:103D3000A802F0E0EE0FFF1FE355FD4F8081918157
:103D40008F3F2FE7920719F0019691838083C80176
:103D500097578038910508F0ADC0D02E3FE030175E
:103D600008F4F4C08FEF93E00E9448318111EEC057
:103D700009E711E0D11036C019821A821B821C8219
:103D800099249A9468015FEFC51AD50AC8010E9468
:103D9000483189831A82882309F4D8C0813009F018
:103DA00083C0580182E0A80EB11CC6010E944831B0
:103DB000C82E8A83882309F4C9C0C5010E944831EE
:103DC000D82E8FEF8C0D8330D8F4580193E0A90ED4
:103DD000B11CDB82DD2021F0CE0101960E94A41CE3
:103DE0008501D0CF011544E0140709F4AFC0C80124
:103DF0000E944831811101C0DA940F5F1F4FBACF82
:103E00008BEF8C0D833040F5C8010396DB825C019B
:103E1000DD2031F35801E4E0AE0EB11C0E944831C0
:103E20008C838823E9F20B811C810130FFEF1F078F
:103E300010F0102F002726E0C21651F037E0C3160D
:103E400019F0C8010E94451EC8010E940D1EC8CF6E
:103E5000C8010E94451EC4CF44E0C412C1CF58011E
:103E600054E0A50EB11CC80103960E944831DD2024
:103E700009F46CC0882309F469C08150990B989E9D
:103E80009001999E300D1124ED2DE150FF0BCF01D3
:103E9000820F931F019708F4A3CFEFE9FFE031975A
:103EA000F1F700C00000F6CFCE0101960E94A41CDD
:103EB000560196CFC7010E94830DF70185818111BC
:103EC0000BC0F801E851FC47E730F10508F068C085
:103ED000E455FE4C0C94B93080914602082E000C3B
:103EE000990B01966FE170E00E9464305C01809351
:103EF0004602892B11F18FE1D82EDA1841E06D2DA1
:103F00008CE70E947A0841E06D2D8DE70E947A08C7
:103F100041E06D2D8EE70E947A08D3CF40E06D2DF1
:103F20008C2D0E947A08D394FFE1DF12F7CFC3945F
:103F30002FE7C21601F3D12CF1CF4CE7C42EFBCFF3
:103F400026E241EE61EEC7010E94471C8091730298
:103F5000877059F0F7018581882339F080919302A9
:103F600082FF03C082E00E94590C2496ECE00C947E
:103F7000433027E245EE65EEE6CF26E241EE60EE05
:103F8000E2CF27E245EE64EEDECF26E241EE62EEBE
:103F9000DACF27E245EE66EED6CF28E241E0EBCF5E
:103FA000F7018581882309F42AC41092BB03C80154
:103FB0009057839708F00DC484E090E00E9456313A
:103FC0009093930280939202F801E150F047E2321D
:103FD000F10520F4ED54FE4C0C94B930809192021E
:103FE00081608093920295C0809193028860809353
:103FF00093028FC0809192028260F3CF80919202EF
:104000008460EFCF809192028860EBCF8091930221
:104010008160EDCF809193028260E9CF809192021E
:104020008061DFCF809192028062DBCF809192022B
:104030008064D7CF0E944218809192028068D1CFCD
:10404000809192028C60CDCF809193028360CFCF1C
:10405000809192028E7FC5CF80919302877FC7CFD8
:10406000809192028D7FBDCF809192028B7FB9CFDC
:1040700080919202877FB5CF809193028E7FB7CFD8
:10408000809193028D7FB3CF809192028F7EA9CFD2
:10409000809192028F7DA5CF809192028F7BA1CFDC
:1040A0000E944218809192028F779BCF809192025A
:1040B000837F97CF809193028C7F99CF80919202DA
:1040C00082FB992790F921E0922790FB82F990FBDF
:1040D00083F987CF80919302982F909591708E7F6E
:1040E000892B90FB81F983CF90919202892F8F7B4E
:1040F00096FF806476CF0E94421890919202892F99
:1041000097FB87F980586DCF61E08EE090E00E94C8
:104110006C31609192027091930284E090E00E9471
:104120008A310E94421812CF60E0EFCF9091920244
:10413000892F8F7E94FF806154CF90919202892FB6
:104140008E7F90FF81604DCF90919302892F877F62
:1041500093FF88604CCF85E35CC380917D028272BF
:10416000F801E052F847E531F10508F069C0EB527B
:10417000FE4C0C94B9308091200380FF19C0282F89
:104180002E7F2093200330912103409122035091F0
:10419000230360912403709125038091260390915D
:1041A00027030E94F31110921F030E94F00ECECE3F
:1041B00081608093200361E0869586950E94B51604
:1041C000C5CE4AEF56E165E077E10E94B608BECE63
:1041D00045E057E16AEF76E1F8CF45EC52E16FEC4C
:1041E00072E1F3CF4FEC52E165EC72E1EECF4BEAB6
:1041F00052E168EB72E1E9CF48EB52E16BEA72E120
:10420000E4CF41E952E16EE972E1DFCF4EE952E1DC
:1042100061E972E1DACF49ED52E163EF72E1D5CFA6
:1042200043EF52E169ED72E1D0CF61E081E0C6CFAA
:1042300064E082E00E94111789CE6EE085E0FACF3B
:104240000737FCE71F0709F45FC008372CE71207A0
:1042500009F45EC0F701858100811181882309F48A
:1042600087C0C8010E94FF10D82E682FC8010E9485
:104270000E0CB8018D2D0E94D1100E94540A8C01A1
:10428000882EF701C580B680B2943FE0B3228091BA
:104290007302877009F1AC2CCC20F9F0812F807F5C
:1042A000803469F080E2800F8830B0F0812F807E0A
:1042B000803229F4F1E0F01778F4BB2069F08091A6
:1042C000930282FF09C082E00E94590C8091730220
:1042D0008770AA24A3948111A12C912E92942FE08F
:1042E00092222BE0291508F4A8C0E92DF0E0E65150
:1042F000FE4C0C94B93081E00E94700C43E062E007
:1043000081E00E942C0C22CE81E00E944C0CF6CF62
:1043100082E0FBCF0B359CE7190741F10C35ECE748
:104320001E07D1F00A351C4709F094CF81E01BC06D
:104330000E9442182FEF34E34CE0215030404040BF
:10434000E1F700C000000E94EC076FEF7FEF90E004
:1043500080E00E948A313BC28091930282FB8827D1
:1043600080F991E089270E94211374CF80E0FBCF70
:10437000C8010E94C60BD82E7CCF312F3F70D32EA0
:10438000107F19F0D29490EFD922CC20B9F0DD2023
:1043900069F080E2800F883010F0811009C08091B0
:1043A0007D02D82AD0927D020E94F617802F43C04A
:1043B00080917402D82AD0927402F6CF802F0E9486
:1043C000A11BDD20D1F1005E083010F0811004C087
:1043D0008D2D0E947D0B06C0D09480917402D8224E
:1043E000D09274020E94F61728C0412F4F70D42E2D
:1043F000107F103219F0D29480EFD822882059F023
:1044000051E0851609F48EC0CC2009F49AC0BB2077
:1044100009F447C0CBCF8091930282FD3EC0CC20EF
:10442000B1F1DD2039F080917D02D82AD0927D0251
:104430000E94F61780E00E94D61B492D4850550B6C
:104440004430510510F40E946D08AA20A9F0809113
:10445000730280FD11C0F7011582869586958695B9
:104460000E94700CC7010E947D1E80917302869588
:10447000869586950E944C0C20E0F7014081518181
:1044800062817381848195810E9461116ECD80E08B
:104490000E94A11BDD2089F29BCFCC2071F1B110CD
:1044A00004C08D2D0E94971BC8CF81E0B81211C0A7
:1044B000109180028D2D8123D81609F4BECF0E9461
:1044C000C21490937F0280937E02D12AD092800200
:1044D000B4CF95E0B912B1CF8D2D0E94971B8D2DD1
:1044E0000E94E117809170029D2D9823D91609F43E
:1044F000A4CFD82AD0927002A0CFB1100AC08D2DBF
:104500000E94901B8D2D0E94E1178D2D0E948B0B18
:1045100094CFE1E0BE1291CF80917D028D2109F40C
:104520008CCFEDCFCC2029F0F5E0FB1508F485CF3A
:10453000B8CF24E02B1508F480CF8D2D0E94901B5E
:104540007CCFBB20D1F339E3831209C04FEF57EE84
:1045500083E0415050408040E1F700C00000802FD0
:104560000E94A11B6ACF812F86958695837061F08A
:10457000813009F062CFC8019370C11002C080E0A1
:1045800090E00E94230859CFC8019370C11002C067
:1045900080E090E00E94480850CF812F837089F519
:1045A000C1104BCF402F429546954770440F440FA2
:1045B000802F8F70042E01C0880F0A94EAF7202FF5
:1045C000207104FF07C02FE030E001C0220F4A95A0
:1045D000EAF72095169516951370123069F050F48D
:1045E00030918102113029F0822B83230E947C0CB0
:1045F00024CF832B822BFACF282B80918102822714
:10460000F5CF8695CC2011F0812F8170882309F495
:1046100014CF402F429546954770440F440F802F8A
:104620008F70042E01C0880F0A94EAF7202F2071A2
:1046300004FF07C02FE030E001C0220F4A95EAF7DF
:104640002095169516951370123069F050F430913C
:104650009102113029F0822B83230E94290CEDCE88
:10466000832B822BFACF282B809191028227F5CFC2
:104670001F70CC2029F0812F0E94700C802F12CF48
:10468000802F0E94901B812F0E944C0CD6CE802F31
:1046900092EF8916B1F1981570F0E0EF8E16D1F017
:1046A000F1EF8F1691F0CC2009F466C0B1107ECEE8
:1046B000812F8F712AC023EF821651F134EF8312BC
:1046C000F2CF8091930282FD2FC0812F8F71CC2079
:1046D000D9F21BC0CC2081F044E04B1508F4ADCEDC
:1046E0001F7181E090E0012E01C0880F0A94EAF763
:1046F000909191028927B1CF55E05B1508F49DCECA
:10470000EFCF812F8F71C110BFCF0E94700C95CE5B
:1047100080E0CC2009F4A1CF1F7181E0012E01C0FF
:10472000880F0A94EAF799CFCC20C9F080917302E0
:104730008770843041F40E94840B812F8F710E9416
:104740004C0CA12C7ACE84E08B15D8F31F71812FED
:104750000E94700C63E0812F0E94451DF2CF94E00F
:104760009B1530F40E94840B64E0812F8F71F4CF8D
:1047700081E00E94590CE5CFBB2059F0893309F044
:10478000EECEEFEFF7EE23E0E150F0402040E1F70E
:10479000E4CE812F8F7178CF0737FCE71F0709F42C
:1047A000AACD82E008372CE7120709F4A5CD033023
:1047B0003CE7130709F4C9CD08F0ACCD01155CE75F
:1047C000150709F4B5CD01301C4709F043CD0E940F
:1047D000651B06313CE71307F9F680917D028A7A62
:1047E00091E009F490E09093470269E2811165E35A
:1047F0008AEA91E00E9409080E94F617A7CB0631C9
:104800004CE7140709F0A9CC809147028111A3CC91
:1048100089E2ECEAF1E022EB31E09191891303C0E7
:10482000DF0111971C922E173F07B9F7E5CFCF9301
:10483000DF9380916F02807F09F04DC080916E02FE
:10484000882309F448C0E091B80350917F03C091D8
:104850006A02D091690260916B0270916C0247E02C
:104860005E17C9F18E2F90E0E49FF0011124E0580B
:10487000FC4F2481222391F1489FF001499FF00DC4
:104880001124DF01A058BC4F11962C9111972C13C5
:1048900025C02C912D1322C015962C91159721110E
:1048A0001DC012962D913C91261B370B25353105E5
:1048B000A8F480916F028F70806180936F02EA5735
:1048C000FC4F80818F708061808389E692E00E9436
:1048D0007D1E0E94950BDF91CF910895FC013196CA
:1048E000E770BECFA4E1B0E0E8E7F4E20C94273033
:1048F0008C0186E0F801DE011F9601900D928A95E9
:10490000E1F7F8018481E58099E6A92E92E0B92EBD
:1049100090916D02911128C0882319F1EE20F1F0D9
:10492000C8010E943E11F82E8823C1F087E0F801EB
:10493000D50101900D928A95E1F780916D02813049
:1049400031F48091690290916A020E9431110E94B3
:1049500017248F2D6496ECE00C944330C8010E941C
:104960007D1EFF24F394F5CFD080C1808280938098
:10497000F0906E0220916B0230916C02A401421BF8
:10498000530BFF2009F4D9C04535510508F092C0FA
:104990008823F9F290916A0280916F02282F207F7C
:1049A00009F056C0C91214C090916902D91210C002
:1049B000E11048C08F70806180936F0289E692E0B9
:1049C0000E947D1E80916F02F8018683F12CC1CF79
:1049D000E11038C06C2D8D2D0E946D066C2D8D2D33
:1049E0000E946D06E82E8111F1CFDF86C88A8F857F
:1049F00098890E943111292F22952F70243058F464
:104A00009F70223088F0992399F0F8019681907F69
:104A100079F4FE2C9ECF2A5F2F70223068F0C801F7
:104A20000E947D1EEF2CF5CF992311F0882389F386
:104A3000805E883070F3F3CF803F58F3815F83301E
:104A400070F7E7CF80916F02816080936F02BECFD5
:104A5000C91207C090916902D91203C0EE2009F46F
:104A60008DC0C8010E943E11882309F477CFEE2043
:104A700009F474CF80916F02803288F0209169022E
:104A800030916A02398728879B868A8690916D02C9
:104A90009C871D868E87CE0108960E947D1E87E02A
:104AA000F801A9E6B2E001900D928A95E1F70E9423
:104AB000172457CF90916F02292F207F51F489E658
:104AC00092E00E947D1E87E0F50111928A95E9F738
:104AD0007DCF882309F43DCF80916A028C1110C0EC
:104AE00080916902D8120CC0E1100AC09683C801F7
:104AF0000E947D1E87E0F50111928A95E9F729CF82
:104B0000C8010E943E11882309F428CFEE2009F441
:104B100025CF80916F02803210F22091690230918E
:104B20006A023A8329839C828B8290916D029D83D5
:104B30001E828F83CE010196B0CF45355105D0F648
:104B4000882309F40ECFFE2CEE2009F407CF8091C4
:104B50006A028C1120C080916902D8121CC0809119
:104B60006F0280FD0FC0982F907F61F08683903F89
:104B700031F0982F907F905F8F70892B8683C801CA
:104B80000E947D1E87E0F801A9E6B2E001900D9237
:104B90008A95E1F7DECEC8010E943E1181117FCFD8
:104BA00080916F02816080936F02C8010E947D1E18
:104BB000D0CEA6E0B0E0EFEDF5E20C942F300E94ED
:104BC000C2148C0180918202909183028017910718
:104BD00081F019821A820E94C214682F49815A8179
:104BE000792F80E090E00E945C1D10938302009377
:104BF00082022696E4E00C944B301F921FB61F925F
:104C000011248F939F93AF93BF938091630381117E
:104C100013C08091640390916503A0916603B091E5
:104C200067034196A11DB11D8093640390936503B2
:104C3000A0936603B0936703BF91AF919F918F914B
:104C40001F901FBE1F901895CDB7DEB7C654D1096F
:104C50000FB6F894DEBF0FBECDBF85B7806885BFA5
:104C600085B7806885BF84B7877F84BF0FB6F89407
:104C7000A895809160008861809360001092600028
:104C80000FBE80E890E00FB6F89480936100909397
:104C900061000FBE81E699E09093A9018093A8017D
:104CA0000E948C060E942D078091E2008460809310
:104CB000E2007894809175038823A1F01091E900B7
:104CC0001F709091EC00892F817090FD80E8182B67
:104CD0001092E9008091E80083FD0E9458181F702F
:104CE0001093E90082E084BD93E095BD9AEF97BDF3
:104CF00080936E000E945010811102C00E944010EB
:104D000082E08093E3024FE751E0BDE7AB2EB1E0D4
:104D1000BB2E85019A0161E070E0D9018D919D0162
:104D2000E82FE295EF70F0E0D1A08F707B0101C019
:104D3000EE0C8A95EAF79E2D90959D2191A382A174
:104D40008E2982A3F80181918F01E82FE295EF70FF
:104D5000F0E0D1A08F707B0101C0EE0C8A95EAF7DC
:104D60009E2D90959D2191A382A18E2982A3A15869
:104D7000B14099F68FE891E00197F1F700C000008B
:104D80001091E30264EE72E0FB018E2F861B811707
:104D900008F4A2C0A9E6B1E02DE631E0AD0101E0E2
:104DA00010E0FA018191AF01E82FE295EF70F0E099
:104DB00091A18F70B80101C0660F8A95EAF7892F1B
:104DC000862B81A32417350761F761E070E09D9180
:104DD000E92FE295EF70F0E042A19F708B0102C0D5
:104DE000000F111F9A95E2F7C8018095842382A3D2
:104DF0002A173B0761F7A4E6B1E049E651E061E01C
:104E000070E08D91E82FE295EF70F0E011A18F70C6
:104E10009B0101C0220F8A95EAF7922F909591236A
:104E200091A382A1822B82A34A175B0751F71092AC
:104E30008802109287021092EC021092EB021092FC
:104E40008A02109289021092EE021092ED021092E4
:104E50008C0210928B021092F0021092EF021092CC
:104E60008E0210928D021092F2021092F1021092B4
:104E7000900210928F021092F4021092F3020E949C
:104E80003813811102C00E94441382E090E00E9416
:104E900048318093970284E090E00E9456319093CD
:104EA0009302809392020E9422171FEF26E731E0BF
:104EB000115020403040E1F700C000000E9422174E
:104EC0008091EB0280FF31C06FEF7FEF90E080E0D8
:104ED0000E948A310E94EC07DA012D91AD01822FE8
:104EE00082958F7090E0DC0190968C9190E02F700D
:104EF00002C0959587952A95E2F78170D5019D911D
:104F00005D01292F22952F7030E0D90190962C91C8
:104F100030E09F7002C0359527959A95E2F790E0B2
:104F200020FD92E0892B819330CF83E090E00E94B6
:104F300048310E947C0C82E08093530380E8809388
:104F4000BC030E94212F6BE070E08BE591E00E9492
:104F500086118823E9F18091530365E070E081FDBB
:104F600051C186E591E00E948611882389F16DE0A8
:104F700070E084E491E00E948611882349F10E9448
:104F8000FD07605A75418F4F9F4F60935503709393
:104F900056038093570390935803EFEBF3E080E0C0
:104FA00092E0DF018C011D9201501040E1F7F09377
:104FB000C605E093C5058FEF9FEF9093BE038093E6
:104FC000BD0381E080935A038093590310925403E8
:104FD00080919402811174C00E943813811104C021
:104FE0000E9444130E940D1388E090E00E9450310B
:104FF0004B015C0184E290E00E944831282F30E0B0
:1050000040E050E060E070E080E090E000E20E946C
:10501000D930282939294A295B2920932003309344
:10502000210340932203509323036093240370933E
:10503000250380932603909327032C7F89F50E94F4
:105040000D1388E090E00E9450316B017C0184E2F6
:1050500090E00E944831282F30E040E050E060E0CE
:1050600070E080E090E00E94D930B22FA32FF42F9F
:10507000E52F5B0197018601BC29A12BFE29E32BBB
:10508000B0932003A0932103F0932203E093230322
:1050900060932403B0922503809326039093270303
:1050A0000E94BC0810921F038091200380FF05C05E
:1050B00060E0869586950E94B51681E08093940203
:1050C00080E091E09093600380935F03A8E12A2E33
:1050D000312C80917503853029F570E4D72E05EFCA
:1050E00012E0CC24C394E0E1EE2EF2E1FF2E809199
:1050F0007503853009F489C00E9442180E946D082A
:105100001092960280919502882351F0809120039D
:1051100081608093200360E0869586950E94B51695
:105120000E949E160E94221758E9A52E52E0B52E25
:105130006BEE862E62E0962E42EA52E0D401F50133
:10514000219131918D919D914E175F0709F4AAC06D
:1051500028173907A9F3712CD4010D911D914D0128
:10516000F501C190D1905F01C016D10609F441C08C
:10517000C026D126612CEE24E394F12C55245394BF
:10518000C6018E219F21892B51F122966FAE229765
:1051900023967FAE23970E94C21425969FAF8EAFB1
:1051A000259726965FAE269791E098012E213F2104
:1051B000232B09F490E027969FAF279722964FADB7
:1051C000229723965FAD239724966FAD249725965B
:1051D0007FAD259726968FAD26970E945C1D639420
:1051E000EE0CFF1CF0E16F12CBCFF501329711836B
:1051F0000083739405E07012AFCF0E94FD079924DD
:10520000939457C081E591E0AECE809175038430D0
:1052100009F436C010921F038091960281110DC0CF
:10522000C092960280912003982F917090939502DE
:105230008E7F809320030E94F00E0E94B011109286
:1052400063030FB6F894A895209260000FBED09229
:10525000600083B7817F846083BF83B7816083BF31
:105260007894889583B78E7F83BF0FB6F894A895FE
:1052700080916000886180936000109260000FBE92
:1052800080917403882309F432CF0E942217EBEE39
:10529000F2E081919191892B09F0ACC50E171F079F
:1052A000C1F725CF2817390709F055CF0E94D92516
:1052B000912CC090AD02D090AE020D2C000CEE08E7
:1052C000FF0880910A0190E0EDEAF2E021E030E091
:1052D0003296821793070CF008C18091A902909131
:1052E000AA02A091AB02B091AC026FB7F8944090C3
:1052F00064035090650360906603709067036FBF0E
:10530000481A590A6A0A7B0A10910A0129EC4216C6
:1053100051046104710414F18091A80290E0019697
:1053200069E170E00E9464308093A802880F991FA1
:10533000FC01E355FD4F11821082812F183108F0D6
:1053400087E18F5F80930A010E94FD076093A902A5
:105350007093AA028093AB029093AC0232E0C31622
:10536000D104E104F1040CF4CDC0A0E6BAEEA7012B
:1053700096010E94C6306B017C0188EC189F900159
:105380001124032E000C440B550B240D351D461D16
:10539000571DA5E0B0E00E94C6309B01AC01C701DB
:1053A000B6010E94783029013A0191EF4916510463
:1053B000610471042CF090EF492E512C612C712C5A
:1053C0008091A4029091A502A091A602B091A7029B
:1053D0002FB7F894C0906403D0906503E090660303
:1053E000F09067032FBFC81AD90AEA0AFB0AA5E69C
:1053F000CA16D104E104F10484F00E94FD07609311
:10540000A4027093A5028093A6029093A7028091B4
:105410002A038093A3024092A2021091A302A091BA
:10542000A202A11BBB0BA70196010E94D13024E66A
:1054300030E040E050E00E949A30120F10932A03AF
:1054400080911F03882309F440C080911E03E091DE
:105450002003E695E695E81BE0931A0300ED17E0BC
:10546000B6EEEB2EB7E0FB2E823051F4F0E0EA59B5
:10547000FE4FE4910E2F10E086E3E82E8FE0F82E29
:1054800080911B03882361F010921B030E94C214B9
:10549000909319038093180310921D0310921C031C
:1054A0000E94C214E0911803F09119038E1B9F0B08
:1054B0008F3F9F4750F40E0F1F1F10931903009347
:1054C000180388E193E0F701099510E000E062E03D
:1054D000862E74E0A72EB12CEDEF7E2E6624639409
:1054E000FCEF5F2EA3E04A2EB6C040815181052E0D
:1054F000000C660B770BC40ED51EE61EF71E2F5F41
:105500003F4FE6CE412C512C32015ACFE12EF12CE7
:10551000F701E158FE4F8081E82FE295EF70F0E04F
:10552000E0A1F0E08F7002C0F595E7958A95E2F76B
:10553000E170D701A358BE4F2C91A22FA295AF7056
:10554000B0E090968C9190E02F7002C09595879571
:105550002A95E2F780FD8DC080E08E2BD701AC51FB
:10556000BD4FEC919E2F9370891709F473C0EE0F15
:10557000EE0FE82BEC93EF70F0E0E359FE4F97014C
:105580002F513D4F69018081D9019C91890F8C93E6
:1055900020E084304CF1F701E152FD4F80818F5FB4
:1055A00080830E94C2141DAB5EAA682F8FAB98AF98
:1055B00049AE6AAE412F5CEF792F83E091E00E9403
:1055C0005C1D0E94C2141BAF5CAE682F8DAF9EAFF6
:1055D0004FAE21961FAE2197412F5CEF792F83E0CC
:1055E00090E00E945C1D21E0F60180818D3F3CF53A
:1055F000F701E152FD4F8081815080830E94C214E7
:1056000019A77AA6682F8BA79CA78DA66EA6412FF7
:105610005DEF792F82E091E00E945C1D0E94C21430
:105620001FA778AA682F89AB9AAB8BAA1CAA412F17
:105630005DEF792F82E090E00E945C1D21E0D601B1
:105640008C91082E000C990BB5010E946430F60174
:105650008083022B1F5F8091E302181708F456CF56
:10566000002349F00E94FD070E94CE140E94CB1136
:1056700006C082E072CF0E94CE149110F7CF0E9434
:105680006D089091E602891721F08093E6020E944E
:10569000FD0780917503843009F01BCD83E0809372
:1056A000E9008091E80082FF14CD8091E80090E04D
:1056B00085FF05C00E94AB06882331F191E08091FF
:1056C000E8008B778093E800992309F402CD0091DC
:1056D000F5021091F60289810115110591F18E3FB5
:1056E00009F0CCC08A81833020F08550833008F0E7
:1056F000C5C0EA81EE3008F0C1C0F0E0EA50FE4CCF
:10570000CE0101960C94B93000E210E09E012F5FAB
:105710003F4F79018091E80085FD0AC08091E80043
:105720008B778093E8000E94AB06882399F3C6CF5D
:105730008091F100D7018D937D010150110951F73E
:10574000BDCF8B3009F433C2D8F5853009F4E2C0FF
:10575000D0F4823009F481C030F4813009F479C08A
:105760008FEF89838BC0833009F4C5C08430C1F7C3
:105770004C816B818A810E94A210982789279827E3
:105780009E838D837BC0873009F4D2C008F4CDC0DE
:10579000883009F406C1893019F72091200330912F
:1057A00021034091220350912303609124037091BF
:1057B000250380912603909127030E94F3115EC078
:1057C000803109F443C1C8F58D3009F40FC108F4E4
:1057D0000AC18E3009F40EC18F3011F680915B033F
:1057E00090915C03892B09F449C08C81E82EF12C3F
:1057F0000DE1E016F10408F041C0CA80DB80DC2432
:10580000CD24DC248E010F5F1F4FE00EF11EC60178
:1058100087589E4FE016F10689F127E8C21622E06C
:10582000D20628F4D80114966C910E946C310F5F57
:105830001F4FBFEFCB1ADB0AEACF823109F40BC14D
:1058400008F407C1833109F431C18E3F09F088CFD4
:1058500050CF1A8289E08B8311C08A81823009F48B
:10586000E8C28330A1F0813009F07ACF0E94FD07B1
:105870000E94BF306B837C838D839E8340E250E027
:10588000BE016F5F7F4F82E00E949A0E22CC809112
:105890005B0390915C03892B89F38091EB029091DB
:1058A000EC029827892798279C838B838091ED02AF
:1058B0009091EE029827892798279E838D83809167
:1058C000EF029091F00298278927982798878F8375
:1058D0008091F1029091F2029827892798279A8760
:1058E00089878091F3029091F4029827892798275D
:1058F0009C878B87C3CF8A81823009F031CF6B813F
:105900007C818D819E810E94BF3088E290E00E9460
:105910006C31B4CF2D813E813227232732274C8131
:105920006B818A810E94B30FA9CF0E94D90FA6CFA5
:105930008A818138C1F060F4803809F09FCF20E07F
:105940004B8160912203809121030E94191296CF0E
:10595000823819F1833809F091CF20E04091230378
:105960006C818B81F2CF60E08B810E94B5169B81A8
:1059700080912003911108C08E7F809320031092A4
:105980001F030E94F00E7ACF81608093200360E0B5
:10599000869586950E94B51671CF8B8180932403DE
:1059A0006DCF8A81813899F030F4803809F066CF64
:1059B0008091230350CF823899F0833809F05ECF6D
:1059C000809121038B83809122038C8357CF809118
:1059D000200380FF03C0869586953DCF80E03BCFB6
:1059E0008091240338CF80E18A8348CF82E08A8384
:1059F00087E831CF8C81E82EF12CBDE1EB16F10464
:105A000008F03CCFCA80DB80DC24CD24DC248E016E
:105A10000F5F1F4FE00EF11EC60187589E4F0E15F7
:105A20001F0509F42BCFE7E8CE16E2E0DE0658F4B6
:105A30000E944831D80114968C93FFEFCF1ADF0AE9
:105A40000F5F1F4FE9CFF8011482F7CF0E94720F4A
:105A500015CF82E0C9CF8C81E82EF12CEDE1EE1656
:105A6000F10408F00BCFCA80DB80DC24CD24DC24D9
:105A70008E010F5F1F4FE00EF11EC60189960E15B5
:105A80001F0509F4FBCEF0E4CF16F1E0DF0658F471
:105A90000E944831D80114968C93FFEFCF1ADF0A89
:105AA0000F5F1F4FEACFF8011482F7CFEC80F12C83
:105AB0000DE1E016F10408F0E1CE0A811B81102708
:105AC00001271027003421E0120708F0D7CE80E428
:105AD00091E0801B910B8E159F0508F4CFCE4801F5
