:100000000C94C80D0C94E50D0C94E50D0C94E50DC5
:100010000C94E50D0C94E50D0C94E50D0C94E50D98
:100020000C94E50D0C94E50D0C9436190C944F1EB0
:100030000C9498280C94E50D0C94E50D0C94E50DAA
:100040000C94E50D0C94E50D0C94E50D0C94E50D68
:100050000C94E50D0C940F1A0C94E50D0C94E50D21
:100060000C94E50D0C94E50D0C94E50D0C94E50D48
:100070000C94E50D0C94E50D0C94E50D0C94E50D38
:100080000C94E50D0C94E50D0C94E50D0C94E50D28
:100090000C94E50D0C94E50D0C94E50D0C94E50D18
:1000A0000C94E50D0C94E50D0C94E50D050109800B
:1000B000A101850319012AB700150126B700950192
:1000C00075108100C0050C0901A101850419012AE0
:1000D000A002150126A002950175108100C00660DE
:1000E000FF0961A1010962150026FF00952075082E
:1000F00081020963150026FF00952075089102C052
:1001000005010906A101050719E029E715002501E8
:10011000950875018102950175088101050719008F
:1001200029FF150026FF00950675088100050819AE
:10013000012905950575019102950175039101C08D
:1001400000000000000000000000000000000000AF
:10015000000000000000000000000000000000009F
:10016000000000000000000000000000000000008F
:10017000000000808000000000008040402020201F
:1001800020101010100804020101020C3040800001
:10019000000000000000F8F8F8F8000000000080FF
:1001A00080000000000000000000000000000000CF
:1001B00000000000000000000000000000808080BF
:1001C000000000000000000000000000000000002F
:1001D000000000000000000000000000000000001F
:1001E000000000000000000000000000000000000F
:1001F000001EE10000010102028180800000808079
:10020000000000000000000000800030300000010D
:100210000102040810204387070100B8BCBE9F5F9D
:100220005F4F4C20202020101010100808080808EC
:10023000040404040402020202010101010000009E
:1002400000000000000000000000000000000000AE
:10025000000000000000000000000000000000009E
:10026000000000000000000000000000000000008E
:1002700080700C030000180605989984437C414166
:100280004040202122121111110908080808040415
:1002900008081010101010110F013D7CFCFCFCFC34
:1002A000FC3C0C000000000000000000000000000A
:1002B000000000000000000000000000000000003E
:1002C000000000000000000000000000000000002E
:1002D00000808080808040404040402020202020BE
:1002E0001010101010080808080804040404040280
:1002F00003020201010101010100000000000000F1
:1003000000000000000000000000000000000000ED
:1003100000000000000000000000000000010303D6
:1003200000000000000000000000000000000000CD
:1003300000000000000000000000000000000000BD
:1003400000000000000000000000000000000000AD
:10035000000000000000000000000000000000009D
:10036000000000000000000000000000000000008D
:10037000000000808000000000008040402020201D
:1003800020101010100804020101020C30408000FF
:10039000000000000000000000000000000000005D
:1003A000000000000000000000000000000000004D
:1003B00000000000000000000000000000808080BD
:1003C000000000000000000000000000000000002D
:1003D000000000000000000000000000000000001D
:1003E000000000000000000000000000000000000D
:1003F000001EE100000101020201000000008080F7
:10040000000000000000000000800030300000010B
:10041000E11A06093135018A7C0000808080804025
:100420004040402020202010101010080808080824
:10043000040404040402020202010101010000009C
:1004400000000000000000000000000000000000AC
:10045000000000000000000000000000000000009C
:10046000000000000000000000000000000000008C
:1004700080700C030000000000000000000001017B
:100480000040A021221211111109080808080404D3
:100490000404040402020201010101000000000042
:1004A000000000000000000000000000000000004C
:1004B000000000000000000000000000000000003C
:1004C000000000000000000000000000000000002C
:1004D00000808080808040404040402020202020BC
:1004E000101010101008080808080404040404027E
:1004F000037A7A7979797939310202040408080893
:1005000088888780000000000000000000000000D4
:1005100000000000000000000000000000000000DB
:1005200000000000000000000000000000000000CB
:1005300000000000000000000000000000000000BB
:1005400000000000000000000000000000000000AB
:10055000000000000000000000000000000000009B
:10056000000000000000000000000000000000008B
:10057000000000808000000000008040402020201B
:1005800020101010100804020101020C30408000FD
:10059000000000000000000000000000000000005B
:1005A000000000000000000000000000000000004B
:1005B00000000000000000000000000000808080BB
:1005C000000000000000000000000000000000002B
:1005D000000000000000000000000000000000001B
:1005E000000000000000000000000000000000000B
:1005F000001EE10000010102028180800000808075
:100600000000000000000000008000303000000109
:10061000E11A06093135018A7C0000808080804023
:100620004040402020202010101010080808080822
:10063000040404040402020202010101010000009A
:1006400000000000000000000000000000000000AA
:10065000000000000000000000000000000000009A
:10066000000000000000000000000000000000008A
:1006700080700C030000180605989984C37C4141E2
:100680004040202122121111110908080808040411
:100690000404040402020201010101000000000040
:1006A000000000000000000000000000000000004A
:1006B000000000000000000000000000000000003A
:1006C000000000000000000000000000000000002A
:1006D00000808080808040404040402020202020BA
:1006E000101010101008080808080404040404027C
:1006F00003020201010101010100000000000000ED
:1007000000000000000000000000000000000000E9
:1007100000000000000000000000000000000000D9
:1007200000000000000000000000000000000000C9
:1007300000000000000000000000000000000000B9
:1007400000000000000000000000000000000000A9
:100750000000000000000000000000000000000099
:100760000000000000000000000000000000000089
:100770000000000000000000000080404020202019
:1007800020101010101008080404040830408000E5
:100790000000000000000000000000000000000059
:1007A0000000000000000000000000000000000049
:1007B00000000000000000000000000000808080B9
:1007C0000000000000000000000000000000000029
:1007D0000000000000000000000000000000000019
:1007E0000000000000000000000000000000000009
:1007F00000186482020202020201000000008080F0
:100800000000000000000000008000303000C0C187
:10081000C1C2040810204080000000808080804019
:100820004040402020202010101010080808080820
:100830000404040404020202020101010100000098
:1008400000000000000000000000000000000000A8
:100850000000000000000000000000000000000098
:100860000000000000000000000000000000000088
:10087000C0380403000000000000000C0C0C0D0147
:100880000040A021221211111109080808080404CF
:1008900008081010101010110F01010000000000D6
:1008A0000000000000000000000000000000000048
:1008B0000000000000000000000000000000000038
:1008C0000000000000000000000000000000000028
:1008D00000808080808040404040402020202020B8
:1008E000101010101008080808080404040404027A
:1008F00003020201010101010102020404080808C7
:1009000008080700000000000000000000000000D0
:1009100000000000000000000000000000000000D7
:1009200000000000000000000000000000000000C7
:1009300000000000000000000000000000000000B7
:1009400000000000000000000000000000000000A7
:100950000000000000000000000000000000000097
:100960000000000000000000000000000000000087
:100970000000000000000000000080404020202017
:1009800020101010101008080404040830408000E3
:100990000000000000000000000000000000000057
:1009A0000000000000000000000000000000000047
:1009B00000000000000000000000000000808080B7
:1009C0000000000000000000000000000000000027
:1009D0000000000000000000000000000000000017
:1009E0000000000000000000000000000000000007
:1009F00000186482020202020201000000008080EE
:100A00000000000000000000008000303000C0C185
:100A1000C1C2040810204080000000808080804017
:100A2000404040202020201010101008080808081E
:100A30000404040404020202020101010100000096
:100A400000000000000000000000000000000000A6
:100A50000000000000000000000000000000000096
:100A60000000000000000000000000000000000086
:100A7000C0380403000000000000000C0C0C0D0145
:100A80000040A021221211111109080808080404CD
:100A900008081010101010110F01010000000000D4
:100AA0000000000000000000000000000000000046
:100AB0000000000000000000000000000000000036
:100AC0000000000000000000000000000000000026
:100AD00000808080808040404040402020202020B6
:100AE0001010101010080808080804040404040278
:100AF00003020201010101010102020404080808C5
:100B000008080700000000000000000000000000CE
:100B100000000000000000000000000000000000D5
:100B200000000000000000000000000000000000C5
:100B300000000000000000000000000000000000B5
:100B400000000000000000000000000000000000A5
:100B50000000000000000000000000000000000095
:100B60000000000000000000000000000000000085
:100B700000000000000000000000008080404040B5
:100B80004020202020100804020204186080000089
:100B90000000000000000000000000000000000055
:100BA0000000000000000000000000000000000045
:100BB00000000000000000000000000000808080B5
:100BC0000000000000000000000000000000000025
:100BD0000000000000000000000000000000000015
:100BE0000000000000000000000000000000000005
:100BF000003CC201010202040402010000000000E6
:100C00000000000000000000000000606000818221
:100C10008284081020408000000000808080804096
:100C2000404040202020201010101008080808081C
:100C30000404040404020202020101010100000094
:100C400000000000000000000000000000000000A4
:100C50000000000000000000000000000000000094
:100C60000000000000000000000000000000000084
:100C700080701906000000000000001818181B03FF
:100C80000040A02224141212120B080808080505BF
:100C900009091010101010110F01010000000000D0
:100CA0000000000000000000000000000000000044
:100CB0000000000000000000000000000000000034
:100CC0000000000000000000000000000000000024
:100CD00000808080808040404040402020202020B4
:100CE0001010101010080808080804040404040276
:100CF00003020201010101010102020404080808C3
:100D000008080700000000000000000000000000CC
:100D100000000000000000000000000000000000D3
:100D200000000000000000000000000000000000C3
:100D300000000000000000000000000000000000B3
:100D400000000000000000000000000000000000A3
:100D50000000000000000000000000000000000093
:100D60000000000000000000000000000000000083
:100D70000000008080000000000080404020202013
:100D800020101010100804020101020C30408000F5
:100D90000000000000000000000000000000000053
:100DA0000000000000000000000000000000000043
:100DB00000000000000000000000000000808080B3
:100DC0000000000000000000000000000000000023
:100DD0000000000000000000000000000000000013
:100DE0000000000000000000000000000000000003
:100DF000001EE100000101020201000000008080ED
:100E00000000000000000000008000303000C0C181
:100E1000C1C2040810204080000000808080804013
:100E2000404040202020201010101008080808081A
:100E30000404040404020202020101010100000092
:100E400000000000000000000000000000000000A2
:100E50000000000000000000000000000000000092
:100E60000000000000000000000000000000000082
:100E700080700C03000000000000000C0C0C0D0141
:100E80000040A021221211111109080808080404C9
:100E900008081010101010110F01010000000000D0
:100EA0000000000000000000000000000000000042
:100EB0000000000000000000000000000000000032
:100EC0000000000000000000000000000000000022
:100ED00000808080808040404040402020202020B2
:100EE0001010101010080808080804040404040274
:100EF00003020201010101010102020404080808C1
:100F000008080700000000000000000000000000CA
:100F100000000000000000000000000000000000D1
:100F200000000000000000000000000000000000C1
:100F300000000000000000000000000000000000B1
:100F400000000000000000000000000000000000A1
:100F50000000000000000000000000000000000091
:100F60000000000000000000000000000000000081
:100F70000000000000000000000080404020202011
:100F800020101010100808040202020438408000EB
:100F90000000000000000000000000000000000051
:100FA0000000000000000000000000000000000041
:100FB00000000000000000000000000000808080B1
:100FC0000000000000000000000000000000000021
:100FD0000000000000000000000000000000000011
:100FE0000000000000000000000000000000000001
:100FF000001CE201010202020201000000008080E8
:101000000000000000000000008000303000C0C17F
:10101000C1C2040810204080000000808080804011
:101020004040402020202010101010080808080818
:101030000404040404020202020101010100000090
:1010400000000000000000000000000000000000A0
:101050000000000000000000000000000000000090
:101060000000000000000000000000000000000080
:1010700080700C03000000000000000C0C0C0D013F
:101080000040A021221211111109080808080404C7
:1010900008081010101010110F01010000000000CE
:1010A0000000000000000000000000000000000040
:1010B0000000000000000000000000000000000030
:1010C0000000000000000000000000000000000020
:1010D00000808080808040404040402020202020B0
:1010E0001010101010080808080804040404040272
:1010F00003020201010101010102020404080808BF
:1011000008080700000000000000000000000000C8
:1011100000000000000000000000000000000000CF
:1011200000000000000000000000000000000000BF
:1011300000000000000000000000000000000000AF
:1011400000DA0281FFD9F1DB20A4A62EAF00A0C0F7
:10115000D30000A1C8D30000AED580A81F408D14D5
:101160002000FD377A585A000004E6D6B446020043
:10117000210116000000742FE5A3E0066301F55D70
:10118000003D8889C65436C3174FE4F55C267DB30D
:1011900080F3B5C66371860F1B80DDAB03511C293C
:1011A0009A66DF75DCD66C18E389AD388BD093C4B2
:1011B00020493538BA06A9FDD35E392E5D9E0973E4
:1011C000AE08EDFCD5214987AB94A9768F6B49B366
:1011D00057AA9E5706559105D54FB243C5936BCB81
:1011E00096F6DF062629D54CD6CAFE4C7B8278823D
:1011F000A9A9034B9910B8547BC64CB1D5AF7586DD
:101200006369E9601B02F58D1D31C902905A5E6F5A
:10121000DFF0CC714951A18D89FBD45F034EBBD95E
:10122000D056E9713D8819A9D0333B8A4FF8052A79
:101230008C6B87B6A991DE2B5DB7DA468AB1B0B266
:101240004271BB122D24CA4E4654ECAE031B249BA4
:101250001E31C2C45AC0CD67C1A295C6422BC2B2CC
:10126000A095064C01BECB2E9440999FDDA11FDBBB
:101270000EBF564467C88B448AF64C3CA30F845B70
:1012800039080C4B03EDCE74AB711FEDDD0EB1DBF5
:1012900068C01D4A9A05D979987C5B9494E0FA1845
:1012A0000B8F561F8A910849C480C42AA6A4A9DEC0
:1012B00051CBB6A39B0CD30B9DAF037C1DF04644D2
:1012C0000EBF91B9003508D150429A312368BF430F
:1012D00068C9E1E7DC2D311F3228602717EC1B536A
:1012E0002B4D2744A24563A098E55AF781727C8173
:1012F000B81C3E5AF524A7C7C2E1EC4887FE1E9FE2
:10130000603126088403025371B145DC3E62EBFF75
:10131000635D9796CCB84D2B5044528350BF907369
:1013200015E8A0E31C0A270EAFE234D0CB2AF12A3D
:10133000CAE729D5C11B898F0299EB32F882282A86
:10134000E9A0662B7A2AAA3934DC00D39CAD9663D7
:10135000031426000B76E680557CA98D4F4537F89F
:10136000631FFC3D717B5463593C571C8362988515
:10137000FE1C1072D200000000004F1F4736CAA9A1
:1013800042E800019104E40C0000F098E8B0B1C418
:1013900067FB020000000004595A00AF00AE2900AC
:1013A0001E001F0020002100220023002400250031
:1013B000260027002D002E0000002A004A002B00E6
:1013C00014001A000800150017001C0018000C007B
:1013D000120013002F00300031004D00AE00390024
:1013E00004001600070009000A000B000D000E00A3
:1013F0000F0033003400000028004B00A800352205
:1014000000001D001B00060019000500110010005F
:10141000360037003800E50052004E000000E000C2
:10142000E300E2000000000000002C0000000000CB
:101430000000E6002152500051004F000000010062
:101440003A003B003C003D003E003F0040004100B0
:10145000420043004400450000004C004A000100E7
:101460000100010001000100010001000100010074
:101470000100010001000100010001000100010064
:101480000100010001000100010001000100010054
:10149000010001000100000001000100A80001009E
:1014A0000000010001000100010001000100010035
:1014B0000100010001000100520001000000E000F5
:1014C000E300E2000000000000002C00000000002B
:1014D0000000E600E400500051004F000000AB00A7
:1014E000AC00A900AA00AB00AC00A900AA00090248
:1014F0005B00030100A0FA090400000103010100E0
:1015000009211101000122400007058103080001A3
:101510000904010002030000000921110100012259
:1015200022000705820320000107050303200001B4
:101530000904020001030000000921110100012239
:1015400032000705840320000112010002000000A0
:1015500008868056560001010203011C03760069CB
:101560000061006C003A006600360034006300320F
:101570000062003300630000000C036C0061006730
:10158000006F006D00000012035300540048004C2F
:10159000004D0020006B00620000000403090400FD
:1015A000000000000000000000000000000000003B
:1015B000000000000000000000000000000000002B
:1015C0000000007E0F00D4FFFFFFC700000078007E
:1015D000000000000000002A2B280000000000008E
:1015E0000000000000000000000029000000002CA6
:1015F0001E3420212224342627252E362D37382745
:101600001E1F202122232425263333362E37381F50
:101610000405060708090A0B0C0D0E0F1011121312
:101620001415161718191A1B1C1D2F3130232D35B0
:101630000405060708090A0B0C0D0E0F10111213F2
:101640001415161718191A1B1C1D2F3130354C078D
:10165000087F0807003E5B4F5B3E003E6B4F6B3ED2
:10166000001C3E7C3E1C00183C7E3C18001C577D34
:10167000571C001C5E7F5E1C0000183C180000FF19
:10168000E7C3E7FF00001824180000FFE7DBE7FFCF
:101690000030483A060E00262979292600407F05A9
:1016A000050700407F05253F005A3CE73C5A007F74
:1016B0003E1C1C0800081C1C3E7F0014227F2214C4
:1016C000005F5F005F5F0006097F017F00006689A1
:1016D000956A0060606060600094A2FFA2940008B8
:1016E000047E04080010207E20100008082A1C0830
:1016F00000081C2A0808001E10101010000C1E0CF8
:101700001E0C0030383E383000060E3E0E0600003B
:10171000000000000000005F00000000070007005C
:1017200000147F147F1400242A7F2A120023130838
:10173000646200364956205000000807030000008C
:101740001C224100000041221C00002A1C7F1C2A90
:101750000008083E080800008070300000080808F3
:101760000808000000606000002010080402003E2D
:101770005149453E0000427F4000007249494946B8
:10178000002141494D33001814127F1000274545B0
:101790004539003C4A4949310041211109070036C9
:1017A0004949493600464949291E000000140000F5
:1017B00000004034000000000814224100141414FA
:1017C0001414000041221408000201590906003EC9
:1017D000415D594E007C1211127C007F4949493607
:1017E000003E41414122007F4141413E007F494945
:1017F0004941007F09090901003E41415173007FC1
:101800000808087F0000417F4100002040413F015F
:10181000007F08142241007F40404040007F021CAE
:10182000027F007F0408107F003E4141413E007F5F
:1018300009090906003E4151215E007F0919294628
:101840000026494949320003017F0103003F40401F
:10185000403F001F2040201F003F4038403F0063B2
:1018600014081463000304780403006159494D43CC
:1018700000007F4141410002040810200000414166
:10188000417F00040201020400404040404000004B
:1018900003070800002054547840007F284444384F
:1018A00000384444442800384444287F00385454C5
:1018B00054180000087E09020018A4A49C78007F38
:1018C000080404780000447D4000002040403D00B2
:1018D000007F102844000000417F4000007C047815
:1018E0000478007C0804047800384444443800FC40
:1018F000182424180018242418FC007C0804040868
:101900000048545454240004043F4424003C404004
:10191000207C001C2040201C003C4030403C004407
:1019200028102844004C9090907C004464544C440F
:10193000000008364100000000770000000041363A
:101940000800000201020402003C2623263C00009D
:101950000000000000404040F0F8F8FF38FFF8F8C1
:101960003FF8F8FF38FFF8F8F04040400000000072
:10197000000080C0C0C0800000C0C08000000080A7
:10198000C0C000C0C0000080C0C00000000000C097
:10199000C0C0C0C000C0C0000000000000000000C7
:1019A0000000000000000000000000000000000037
:1019B0000000000000000000000000000000000027
:1019C0000000000000000000000000000000C0F067
:1019D000F8FC3E1E06010000007F4141417F007F70
:1019E0004141417F000080C0E07E5B4F5BFEC00054
:1019F00000C000DCD7DEDEDED7DC00C00000000067
:101A000000000000000000000000000000000000D6
:101A10000000000000494949FFFFFFFFE0DFBFBFB2
:101A200000BFBFDFE0FFFFFFFF49494900000000A2
:101A3000001F3F6060E0BF1F007F7F071E381E074A
:101A40007F7F007F7F0E1F3B716000000000007FE2
:101A50007F0C0C0C007E7E007F7E0303007F7E03E4
:101A6000037E7E03037F7E000F3E703C063C703E8B
:101A70000F00327B49493F7E007F7E0303001E3FFB
:101A800069696F2600000000000000000000030FDD
:101A90001F3F3C7870600000007F4141417F007F24
:101AA0004141417F00307B7F7830202030787F3B80
:101AB0000003000F7F0F0F0F7F0F000300000000D7
:101AC0000000000000000000000000000000000016
:101AD0000000000000010101070F0F7F0F7F0F0FB3
:101AE0007E0F0F7F0F7F0F0F070101010000000025
:101AF00000000000000001010000000000000000E4
:101B000000000000000000000000000000000000D5
:101B100000000000000000000000000000000000C5
:101B200000000000000000000000000000000000B5
:101B300000000000000000000000000000000000A5
:101B40000000000000000000000000000000000095
:101B50000000000000000000000000000000000085
:101B60000000000000000000000000000000000075
:101B70000000000000000000000000000000000065
:101B80000000000000000000000000000000000055
:101B900011241FBECFEFDAE0DEBFCDBF11E0A0E021
:101BA000B1E0E8EBFBE602C005900D92A039B10769
:101BB000D9F724E0A0E9B1E001C01D92A23FB2072D
:101BC000E1F70E94BF280C948D350C940000CF9350
:101BD000DF934091F0045091F104405F52409A012C
:101BE0003E5F21303240C0F020E032E0241B350B54
:101BF0006091EE027091EF02FC01CA01240F351FC3
:101C0000C1E0D0E08217930750F07093EF02609329
:101C1000EE02DF91CF91089520E032E0E9CF4491C8
:101C2000DC01A051BD4F5C91451781F04C93AC0194
:101C3000A5E056954795AA95E1F7DE0102C0AA0FE7
:101C4000BB1F4A95E2F7AD016A2B752B01963196C1
:101C5000D9CF482F2091E3029091AA0257E029138F
:101C600002C080E0089530E0529FF001539FF00DD4
:101C70001124E555FD4F8181681306C0808148130A
:101C800003C085818111EECF2F5F3F4F2770E7CFD3
:101C9000E8EDF0E080818E7F80831092E200109268
:101CA000DA001092E100A0EEB0E08C9181608C939C
:101CB00080818F77808319BCA7EDB0E08C918E7FF7
:101CC0008C9380818F7E808310929302089520915F
:101CD000E4003091E50095E6A9012091EC00822F07
:101CE000817020FF06C08091E80080FF06C080E080
:101CF00008952091E80022FD1AC08091A002882357
:101D000089F0853089F08091EB0085FD0FC020912E
:101D1000E4003091E50042175307F9F29150E1F6E3
:101D200084E0089582E0089583E0089581E00895B5
:101D30008091A20287FF13C08091E80082FF06C055
:101D40008091E8008B778093E80004C08091A00226
:101D50008111F2CF08958091A0028823D9F3809158
:101D6000E80080FFF8CF8091E8008E77ECCF982FC5
:101D70009093E900242F762F50E0891731F070916D
:101D8000EC002091ED005091F00021FD07C09F5F15
:101D9000973071F78093E90081E008953091EB006E
:101DA0003E7F3093EB003091ED003D7F3093ED00AE
:101DB0003091EB0031603093EB007093EC00209396
:101DC000ED005093F0002091EE0027FDE0CF80E081
:101DD0000895B0E0A0E0EFEEFEE00C94CF31C8ED46
:101DE000D0E088818F7E8883E7EDF0E0808181609C
:101DF000808384E082BF81E08093930288818E7F1C
:101E0000888302EE10E0F80110821092DA0081EE71
:101E1000C82ED12CF601108288818F778883888123
:101E20008068888388818F7D888319BC1092A00286
:101E30001092A10210929F0210929E0290EEE92E43
:101E4000F12CF70180818B7F80838881816088837A
:101E500042E060E080E00E94B70EF60180818E7F54
:101E60008083F801808181608083808188608083A5
:101E7000F70180818E7F8083888180618883CDB7E0
:101E8000DEB7E8E00C94EB31FC018091A802909160
:101E9000A90286179707A0F06115710529F49091A2
:101EA000E8009E779093E80090E06115710551F489
:101EB000911108C08091E80082FF34C080E008954D
:101EC000BC01F2CF8091A0028823C1F18530C1F11D
:101ED0008091E80083FD30C08091E80082FDEACF68
:101EE0008091E80080FFE1CF8091F3002091F20023
:101EF000382F6115710519F02830310558F091E03F
:101F00002830310509F090E02091E8002E772093E9
:101F1000E800CBCF81918093F100615071092F5F70
:101F20003F4FE7CF8091A002882341F0853041F0F8
:101F30008091E80083FFBECF81E0089582E008959C
:101F400083E00895089580919502089587E797E7C3
:101F5000909301088093000888E19AE00FB6F89406
:101F6000A895809360000FBE90936000FFCF2FB7BD
:101F7000F89460918F0270919002809191029091FB
:101F800092022FBF08959C01FC0132969FEF80E0E2
:101F90004191461751F09F3F19F4411101C0982F0C
:101FA0008F5F8630A9F79F3F09F40895290F311DEF
:101FB00097FD3A95F90162830895A3E0B0E0E3EE5E
:101FC000FFE00C94D53120918C0230918D022817BE
:101FD0003907A1F090938D0280938C02E0918A02E0
:101FE000F0918B02309751F024E029839B838A8300
:101FF0000680F781E02DCE01019609952396E2E057
:102000000C94F131A3E0B0E0E8E0F0E10C94D531BC
:10201000209188023091890228173907A1F0909306
:10202000890280938802E0918A02F0918B023097B6
:1020300051F023E029839B838A830680F781E02D7A
:10204000CE01019609952396E2E00C94F131E091DE
:102050008A02F0918B02309729F00190F081E02DF7
:102060000995089580E0089580E008959091E70132
:1020700092FF06C0282F28712830F9F4877F8460EA
:1020800093FF06C0282F28712831F1F4877E8461E0
:102090002091E80120FF06C0382F38713830D9F47C
:1020A000877F816021FF06C0282F28712831D1F455
:1020B000877E816194FD877E0895282F24712430C6
:1020C000F9F68B7F8860DCCF282F2471243101F74B
:1020D0008B7E8861DDCF382F3171313019F78E7FDB
:1020E0008860E0CF282F2171213121F78E7E886111
:1020F000E1CF82389105B9F1B0F48133910509F44B
:102100007DC048F48932910509F46DC08A32910589
:1021100009F47BC008958533910509F45FC08933C4
:10212000910509F10895833E9105D9F138F4803E77
:10213000910529F1823E910579F10895863E910538
:10214000D9F1873E910509F43EC0843E910541F5E1
:102150002091E80121FF24C08091E70184FD19C08E
:1021600087EE90E008952091E701237009F05AC0AE
:102170002091E80123FF14C089E290E008952091A6
:10218000E70120FD38C03091E80130FF09C024FF8D
:1021900043C090E080E008952091E70122FDF7CF51
:1021A00008952091E70122FD3AC03091E80130FD09
:1021B00039C024FFF5CFEDCF2091E70123FFF0CF09
:1021C00024FDE7CFCDCF2091E70123FD2EC0309134
:1021D000E80131FFEECF84EE90E008952091E70111
:1021E00025FFDECFC9CF2091E70125FD21C0209139
:1021F000E80123FFD5CF89E390E0D2CF2091E7011A
:1022000026FFCECF8AE290E008952091E70126FFD5
:10221000C7CF81E390E0089583EE90E0089582EEC9
:1022200090E0089580EE90E0089586EE90E00895A5
:1022300085E390E008951F93CF93DF930E94791078
:10224000EC01C11580E5D807F0F5C11580E4D80789
:1022500008F09CC0C03ED10520F5CD3CD10508F06A
:1022600082C0C83AD10578F4C53AD10508F073C0E8
:10227000C130D10519F1209709F1C430D105F0F42E
:10228000D0E0C0E01BC0C33CD105D0F7C85AD0E0B5
:10229000CC0FDD1FCA5DDE4F0990D881C02DD464FC
:1022A0000DC0C11580E2D80708F0D1C0C11581E08A
:1022B000D80708F05AC0C83ED10510F7CE01DF910B
:1022C000CF911F910895C03682E5D80718F5C03424
:1022D00082E5D80708F06BC0C03282E5D80708F065
:1022E0005FC0C11582E5D80708F497C02C2F26954A
:1022F000269580E2289F900111248C2F8370C1E0E5
:10230000D0E002C0CC0FDD1F8A95E2F7C22BD32BA1
:10231000DD68D4CFC03A82E5D80760F4C03882E5E2
:10232000D80708F459C0CF71D0E0DC2FCC27C46F98
:10233000D06AC4CFC03C82E5D80708F462C0C03E72
:1023400082E5D80708F09CCFDC2FCC27CC27DF71A3
:10235000C06FD06AB3CFC55AD0E0CD5DDE4FC88123
:10236000D0E0D064ABCFD065A9CF8D2F0E943610BE
:10237000182FCE0199270E947910C12FD0E0DC2FB1
:10238000CC27CC27DF71C82BD92B98CFCE0199272A
:102390000E947910CC27DF70C82BD92BD06A8ECF42
:1023A000CF71D0E0DC2FCC27C16FD06A87CF2C2F24
:1023B00026952695277080E2289F900111248C2F66
:1023C0008370C1E0D0E002C0CC0FDD1F8A95E2F738
:1023D000C22BD32BDC6872CF2C2F26952695277025
:1023E00080E2289F900111248C2F8370C1E0D0E0FF
:1023F00002C0CC0FDD1F8A95E2F7C22BD32BDA681F
:102400005DCF8C2F8F710E943610C82FD0E0DC2F4B
:10241000CC27CC27DF71D06251CF8C2F8F710E94D7
:10242000361055E0D695C7955A95E1F7CF70D0E0B4
:10243000DC2FCC27282F30E084FF05C044E0220F9A
:10244000331F4A95E1F7C22BD32BD06937CF8D2F9D
:102450008F710E943610182FCE0199270E94791093
:10246000C12FD0E0DC2FCC27CC27DF71C82BD92B94
:10247000D2CF8091D501882331F01092D5011092EE
:10248000D4011092D301089580959091D2019823A0
:102490009093D20108951092C8011092C701109232
:1024A000C60108959091C501292F282321F0809518
:1024B00089238093C50108958091E3029091AA0237
:1024C000981301C008958F5F8770FACFA82FA77067
:1024D00023E0969587952A95E1F7FC01EE0FFF1F03
:1024E000E80FF91FE60FF71F50E040E080E0219170
:1024F00030E00A2E02C0369527950A94E2F7217043
:102500003327042E01C0220F0A94EAF7822B4F5F73
:102510005F4F4330510559F70895903FB9F095301A
:1025200070F4803198F440E1949F9001112460EAA6
:1025300071E0820F932F911D0E94661208959C5F97
:10254000923020F46DE971E090E0F6CF80E00895DC
:10255000262F277091E001C0990F2A95EAF723E012
:10256000769567952A95E1F7FB01EE0FFF1FE60FC1
:10257000F71FE40FF51F50E040E0682F70E08191F5
:10258000DF0111979B01042E02C0369527950A940E
:10259000E2F7217021952827292328272C934F5FC4
:1025A0005F4F4330510559F70895282F862F903FEC
:1025B00071F0953068F4203150F430E1939FB00110
:1025C0001124620F711D40EA51E00E94A812089583
:1025D0009C5F9230E0F7622F70E04DE951E0F5CF5B
:1025E0008093E60108959091E60121E030E0F90141
:1025F00001C0EE0F8A95EAF7D90102C0AA0FBB1FEE
:102600006A95E2F7EA2B01C0220F4A95EAF7892F73
:102610008E23E81305C0292B822F0E94F012089503
:1026200020952923F9CF21E030E001C0220F8A95BF
:10263000EAF720958091E60182230E94F012089526
:102640009091C801809589238093C801282F277015
:1026500069F4891759F09091E80192FF07C08695B7
:10266000869586950E9413130E944B12089521E0CF
:1026700030E001C0220F8A95EAF78091E601822BB3
:102680000E94F01208958093E50108959C013A9507
:1026900021153F4150F5FC01EE27F170BC01662782
:1026A0007270AC01442754709C012227387094FF4B
:1026B0000EC080E1EF2B09F480E0672B09F0806207
:1026C000452B09F08064232B89F08068089581E010
:1026D000EF2B09F480E0672B09F08260452B09F0AD
:1026E0008460232B19F08860089580E0089580911C
:1026F00053028F31D8F480919B0190E0019665E000
:1027000070E00E94083280939B0124E030E0A90130
:10271000481B590BCA01982F8827990F805C984F46
:102720000E94E70D089580E495E0FACF8832D8F34F
:1027300020919A0130E02F5F3F4F21703327209383
:102740009A0181E090E0821B930B982F8827990FC4
:10275000805C9E4FE5CFCF93DF93C091F004D09182
:10276000F1048A30C1F42091E702CE01805F9240EB
:10277000622F70E00E94B131281B822F66E00E9418
:10278000FC31C82FC15018F4DF91CF91089580E239
:102790000E94AB13F7CF8D30E9F4C05FD240209197
:1027A000E702622F70E0CE010E94B131281B822F18
:1027B0009E01280F311D2115324018F080E0D0E035
:1027C000C0E0C80FD11DC051DD4FD093F104C093BC
:1027D000F004DACF96E0FE01A8EEB2E001900D928F
:1027E0009A95E1F7803E08F458C086E0FE01119208
:1027F0008A95E9F7C091F004D091F10446E050E0E9
:10280000BE0188EE92E00E9495329E01205F324028
:10281000892B41F1C90145E0969587954A95E1F7E5
:1028200041E050E0BA0102C0660F771F8A95E2F7D7
:10283000CB016091EE027091EF02862B972BB901CC
:102840006B5F7F4FE5E076956795EA95E1F702C00B
:10285000440F551F6A95E2F7842B952B9093EF0256
:102860008093EE022A5F3F4F4091E702642F70E0B1
:10287000C9010E94B131481B463010F4240F311DAC
:10288000211572E0370710F030E020E020513D4F75
:102890003093F1042093F00477CFF6E08F9FB001DE
:1028A0001124615B794E46E050E0CE010E948C32EB
:1028B000A1CF0F931F93CF93DF938B01EA019091E8
:1028C000A002943061F58093E9008FEF9091E800C9
:1028D000815095FD06C095ED9A95F1F700008111A4
:1028E000F5CF8091E80085FF1AC00E94670E811124
:1028F00011C08091E80085FD06C08091E8008E77C8
:102900008093E800F2CFF80181918F018093F1006C
:10291000219779F78091E8008E778093E800DF9126
:10292000CF911F910F91089543E050E0BC0184E0E6
:102930000E9459140895CF93DF93EC0148E050E0D2
:10294000BC0181E00E94591488E0FE01A6E9B2E0D2
:1029500001900D928A95E1F7DF91CF910895CF9381
:10296000DF93C9E7D1E060E0CE010E94593521969E
:10297000C11584E0D807B9F7DF91CF9108950F937F
:102980001F93CF93DF93142F022F823020F56230F4
:1029900010F598E0899FE001112484E0689FB00160
:1029A0001124C60FD71FC759DE4F82E090E04423A1
:1029B00011F090E080E0632F8C0F9D1F0E9459352D
:1029C00083E090E0112311F081E090E0602F8C0F04
:1029D0009D1F0E945935DF91CF911F910F9108954E
:1029E0001F93CF93DF93122F8230E0F46530D0F441
:1029F0004031C0F490E2699FE001112450E0440F9F
:102A0000551FC40FD51F90EA899FC00DD11D1124F9
:102A1000632FCE0189960E945935612FCE018A9687
:102A20000E945935DF91CF911F910895B0E0A0E049
:102A3000ECE1F5E10C94C931A0908602B0908702D8
:102A400081E090E090938702809386028EEDC82EFD
:102A500084E1D82E9EE9E92E93E1F92EC0E04701EA
:102A600010E014C0F301259134914D2F612F8C2F6C
:102A70000E94F01482E0680E711CDF5FD03191F784
:102A800080E2880E911C1F5F153019F03401D0E0F0
:102A9000E9CF8601D0E0F8012591349141E06D2F16
:102AA0008C2F0E94BF14F80132962591349140E09A
:102AB0006D2F8C2F0E94BF140C5F1F4FD13051F42B
:102AC00088E0C80ED11C80EAE80EF11CC13021F06C
:102AD000C1E0C5CFD1E0DFCFB0928702A0928602DD
:102AE000CDB7DEB7EEE00C94E531CF93C82F6FEF92
:102AF00081116DE685E290E00E9459356FEFC111BA
:102B000064E586E290E00E9459356FEFC11167E6F7
:102B100087E290E00E945935CF91089580E00E94AD
:102B2000751560E088E290E00E9459350E94161504
:102B30000E94AF1481E00E9475150895FF920F93D3
:102B40001F93CF93DF93F42E823070F5623060F5DF
:102B500028E0829F8001112434E0639FB00111249A
:102B6000060F171F07591E4F82E090E0442311F013
:102B700090E080E0800F911F0E943B35C82FD0E08D
:102B8000DC2FCC2783E090E0FF2011F081E090E083
:102B9000800F911F0E943B359E01282BC901CDB7A4
:102BA000DEB7E5E00C94EE3190E080E0F8CF0F93D3
:102BB0001F93CF93DF93823030F5653020F540319D
:102BC00010F520E2629F8001112450E0440F551F50
:102BD000040F151F30EA839F000D111D1124C80139
:102BE00089960E943B35C82FD0E0DC2FCC27C80146
:102BF0008A960E943B359E01282BC901DF91CF9117
:102C00001F910F91089590E080E0F8CF2091470246
:102C100030914802232BD9F4703F39F4603FB9F466
:102C20008091490290914A020895753048F46031CC
:102C300070F4823060F4462F672F0E94D7150895F4
:102C40007D3F41F4623018F441E0823050F090E072
:102C500080E008957C3FD9F76230C8F78230B8F73A
:102C600040E00E949E150895CF92DF92FF920F934D
:102C70001F93CF93DF936C010091E6018091E501F2
:102C8000082BC1E0D0E010E0FC2EC8010C2E02C0E1
:102C9000959587950A94E2F780FD0FC0CD2B51F4EE
:102CA000F12C8F2DDF91CF911F910F91FF90DF902D
:102CB000CF900895D0E0C0E0E7CFB6018C2F0E94FE
:102CC00006160E941B11019749F3EBCFCF93DF93B8
:102CD000EC010E943416BE010E9406160E941B11D0
:102CE000DF91CF910895FC0124812223C1F08081DE
:102CF00091810E94661692959F70963091F058F4DB
:102D0000925F9F70923058F4803F19F030F4883E03
:102D100030F481E008959A5FF4CF843FD1F380E0EE
:102D20000895883EB0F3813FD1F7F3CFA6E0B0E03D
:102D3000ECE9F6E10C94D43149835A8349815A81F4
:102D40009923A1F0222391F0CA010E943416182F72
:102D5000682F89819A810E94D51269817A81812F99
:102D60000E9406162696E3E00C94F031CA010E94F8
:102D70008D12182FF2CF85E290E00E943B358D3600
:102D800089F486E290E00E943B35843559F487E26D
:102D900090E00E943B3591E0873609F090E0892F62
:102DA0008170089580E0FCCFB0E0A0E0EAEDF6E1AC
:102DB0000C94CF316C017B0164E670E088E70E94DF
:102DC000CB308C01E601EC0CFD1C17FD0BC0FE01A5
:102DD000849164E670E00E9437318C012196CE1513
:102DE000DF0599F70E94AD3181E00115110509F069
:102DF00080E0CDB7DEB7E8E00C94EB31809184023F
:102E000090918502911103C091E08927089588234C
:102E100069F062E070E08CE993E10E94D4168111C0
:102E200003C08091840208951092840280918402EC
:102E3000EBCFCF93C0918402809185028823D1F09B
:102E40000E94B70F605A75418F4F9F4F6093800269
:102E5000709381028093820290938302C11108C013
:102E600062E070E08AE993E10E94D416811105C006
:102E7000C09184028C2FCF91089581E080938402C9
:102E8000F7CF2F923F925F926F927F928F929F9295
:102E9000AF92BF92CF92DF92EF92FF920F931F9368
:102EA000CF93DF9380918502882309F48FC080EF50
:102EB00092E09093F1048093F00480915302882370
:102EC00009F496C00E94191740914F025091500288
:102ED00060915102709152022FB7F89480918F0245
:102EE00090919002A0919102B09192022FBF841B09
:102EF000950BA60BB70B893C9105A105B10560F0B8
:102F00000E94B70F60934F0270935002809351025A
:102F1000909352020E9477130E94B70F60934B0266
:102F200070934C0280934D0290934E028091E70281
:102F300064E0869FC00111248115A2E09A0714F075
:102F400090E080E080519D4F9093F1048093F004D5
:102F5000809153021F928F9389E191E09F938F9309
:102F6000C4E5D2E0DF93CF930E94A93209900020FC
:102F7000E9F721970F900F900F900F900F900F90FF
:102F800004E512E00C171D0708F47BC08091EE02E7
:102F90009091EF02892B09F07AC0809184028823F6
:102FA000A9F00E94B70F0091800210918102209138
:102FB000820230918302601B710B820B930B6F3F77
:102FC0007F4F8F4F9F4710F40E94FE16DF91CF91E5
:102FD0001F910F91FF90EF90DF90CF90BF90AF9037
:102FE0009F908F907F906F905F903F902F9008956B
:102FF00040914B0250914C0260914D0270914E02F3
:103000002FB7F89480918F0290919002A091910235
:10301000B09192022FBF841B950BA60BB70B813C7E
:103020009742A940B10518F00E94FE167FCF40914B
:103030004F025091500260915102709152022FB78D
:10304000F89480918F0290919002A0919102B0919A
:1030500092022FBF841B950BA60BB70B893C9105E1
:10306000A105B10508F462CF0E94B70F60934F022B
:103070007093500280935102909352020E947713F2
:1030800055CFD8018D918D010E94AB137BCF8091DC
:103090008502882309F481CF80917F0281117DCF41
:1030A0000E9419172091EE023091EF02211531058F
:1030B00009F473CF80E041E050E0082F10E01A01DE
:1030C000082E02C0220C331C0A94E2F7B1016223DD
:1030D0007323672B11F48F5FF0CF90917E0290FFE6
:1030E00095C0880F880F880F80930B0110920E01F6
:1030F000895F80930C0183E080930F0124E630E028
:1031000047E050E069E071E088E70E946531892B73
:1031100009F043CFA80125E0440F551F2A95E1F798
:1031200080917E0280FF84C0EEE5F2E080E2EF0154
:1031300019928A95E9F7ADE7B1E009E711E081E876
:10314000C82E81E0D82E97E0592E772473948D9164
:10315000F80121918F01240F352F311D20513D4F52
:10316000E82FF0E0E25AFD4F90E080E0652C681A0D
:10317000872C082E01C0880C0A94EAF77901A12C4B
:10318000E701B9907E01B820662D6A196770962E06
:10319000062E000C770BDB2D01C0DD0F9A94EAF7A9
:1031A0007195619571096770772701C0B6946A952A
:1031B000EAF7BD2A6081962E9B289082A39468E04E
:1031C000A612DECF019631968830910579F6CA169F
:1031D000DB0609F0BCCF04E610E020E230E04EE56B
:1031E00052E060E488E70E948631892B09F0D5CE51
:1031F000E101C095D0958091EE029091EF02C82335
:10320000D923D093EF02C093EE02C7CE8295880FE8
:10321000807680930B0198013695279536952795F2
:1032200020930E01815E80930C0120930F0166CFE5
:1032300040515D4F04E610E020E230E0D2CF9091A3
:10324000E80192FB222720F9281779F080FB92F9F8
:103250009093E8016091E7017091E80184E090E0CB
:103260000E94773582E00E94201308951F920F92EA
:103270000FB60F9211242F933F934F935F936F9349
:103280007F938F939F93AF93BF93EF93FF9380911F
:10329000E10082FF09C08091E20082FF05C08091B9
:1032A000E1008B7F8093E1008091DA0080FF24C0F1
:1032B0008091D80080FF20C08091DA008E7F8093BB
:1032C000DA008091D90080FF9DC080E189BD82E154
:1032D00089BD09B400FEFDCF81E08093A0028091FA
:1032E0009302811109C00E94480E0E94E90E80914C
:1032F000E20084608093E2008091E10080FF17C0CB
:103300008091E20080FF13C08091E2008E7F809365
:10331000E2008091E20080618093E2008091D80019
:1033200080628093D80019BC85E08093A0028091D0
:10333000E10084FF2BC08091E20084FF27C080E180
:1033400089BD82E189BD89B5982F917080FFFBCF3F
:103350008091D8008F7D8093D8008091E1008F7E8E
:103360008093E1008091E2008F7E8093E200809163
:10337000E20081608093E2008091A102882309F439
:1033800047C084E08093A0028091A0028091E10078
:1033900083FF27C08091E20083FF23C08091E1007A
:1033A000877F8093E10082E08093A0021092A102C7
:1033B0008091E1008E7F8093E1008091E2008E7F1A
:1033C0008093E2008091E20080618093E20042E01D
:1033D00060E080E00E94B70E8091F00088608093EA
:1033E000F000FF91EF91BF91AF919F918F917F91ED
:1033F0006F915F914F913F912F910F900FBE0F9062
:103400001F90189519BC1092A0021092930274CFCD
:103410008091E30087FD93E09093A002B5CF78946C
:103420001F921FB61F9211248F939F93AF93BF9348
:1034300080918F0290919002A0919102B09192029E
:103440000196A11DB11D80938F0290939002A093CD
:103450009102B0939202BF91AF919F918F911F9073
:103460001FBE1F9018959C014FB7F89480918F0252
:1034700090919002A0919102B09192024FBF821B55
:10348000930B08952FB7F89480918F02909190023A
:10349000A0919102B09192022FBF0895B0E0A0E0F8
:1034A000E4E5FAE10C94C83190E080E0712CC1E0D1
:1034B000D0E0C12CD12C7601C39435EE832E31E0BF
:1034C000932EA1E6B1E050E040E02D91E22FE2958D
:1034D000EF70F0E02F70BE0102C0660F771F2A95D3
:1034E000E2F79B01BE01042E02C0660F771F0A940B
:1034F000E2F768237923042E02C0759567950A9434
:10350000E2F732A1662309F475C0232B22A34F5F93
:103510005F4F44305105C9F67AE17A95F1F700C062
:10352000B701A601082E04C0440F551F661F771F60
:103530000A94D2F75A019A0120953095EBEDF1E00B
:103540000CE511E0612C41915191D8015D908D0104
:10355000A52DA295AF70B0E090966C9170E0A52D6E
:10356000AF7002C075956795AA95E2F7DF011297D3
:1035700060FD43C0BA016A297B2911967C936E9342
:103580006D917C914617570711F0662463948E164F
:103590009F06C9F6762801968031910509F091CFF2
:1035A000772079F181E08093DA010E94421A9093AA
:1035B000D9018093D8018091D8019091D9010E94BE
:1035C000331A059710F14AE050E06BED71E08DE39E
:1035D00092E00E949532892BF1F08AE0EBEDF1E068
:1035E000ADE3B2E001900D928A95E1F781E010928F
:1035F000DA010CC02095232389CFBA0162237323FB
:10360000BCCF8091DA018111D6CF80E0CDB7DEB793
:10361000EFE00C94E43180E0EACF9091D501292FBE
:10362000282361F0809589238093D501882339F080
:103630000E94421A9093D4018093D301089590E0A0
:1036400080E0F8CF8091D2019091D101892B8093B5
:1036500092018091D501882319F10E94421A20918C
:10366000D3013091D401821B930B8838934110F021
:103670000E943912809192019091D501892B8093FB
:10368000920120E084E991E0FC013191CF013111F8
:103690002F5FF1E08A399F07B9F721110E94391293
:1036A00048E050E069EC71E082E991E00E949532D7
:1036B000892BA9F088E0E2E9F1E0A9ECB1E0019002
:1036C0000D928A95E1F7E0918A02F0918B02309792
:1036D00031F00280F381E02D82E991E009950895AF
:1036E0001092D201E4E9F1E086E0DF011D928A95B3
:1036F000E9F790E080E00E94021090E080E00E94F4
:10370000DD0F1092D1010E94221B0895AAE2B0E0C1
:10371000ECE8FBE10C94D43182EA92E02091F100D4
:10372000DC012D93CD01B2E08A3A9B07B9F7809175
:10373000A302833009F472C0B8F4813009F449C09F
:10374000823009F4B3C08091E80083FF96C2809173
:10375000A2029091A3029A3008F08FC2E92FF0E004
:10376000E157FA4C0C945D328A3009F48EC08B30EC
:1037700009F471C0893039F78091A202813219F7BA
:103780008091A6029091A702009711F00297D9F6B6
:103790008091E800877F8093E8008091E80082FFB5
:1037A00038C09091F3008091F200029731F480913B
:1037B000F100813011F0863021F48091F100809386
:1037C00095028091E8008B778093E8000E94980E24
:1037D000BACF8091A202813A09F0B5CF8091E8007A
:1037E000877F8093E8008091A6029091A702892BA1
:1037F00061F468E086E992E070E00E94440F8091F5
:10380000E8008B778093E8009ECF60E090E080E056
:10381000F3CF8091A0028111C0CF95CF8091A202F9
:10382000813A09F090CF8091A6029091A702892B4E
:1038300009F089CF8091E800877F8093E80080912C
:10384000E80080FFFCCF809110018093F10080910F
:10385000E8008E77B9CF8091A202813209F073CF50
:103860008091A6029091A702892B09F06CCF8091DC
:10387000E800877F8093E8000E94980E8091A40260
:10388000809310010E94701B5ECF8091A202813252
:1038900009F059CF8091E800877F8093E8000E946B
:1038A000980E8091A502809394024DCF8091A20240
:1038B000813A09F048CF8091E800877F8093E80043
:1038C0008091E80080FFFCCF80919402BECF8038C9
:1038D00099F0823809F0D1C18091A6028F708730AB
:1038E00008F0CBC18093E9008091EB0085FB88272D
:1038F00080F91092E90006C080919E0290919F028B
:10390000911182609091E800977F9093E8008093F6
:10391000F1001092F1008091E8008E77AAC188230F
:1039200009F498C1823009F0A8C18091A4028111E4
:103930009BC18091A6028F702FEF280F263008F0D0
:103940009CC18093E9002091EB0020FF8DC1933052
:1039500031F48091EB0080628093EB0085C19091FF
:10396000EB0090619093EB0021E030E001C0220F6A
:103970008A95EAF72093EA001092EA008091EB0022
:103980008860EACF811179C11091A4021F778091DC
:10399000E3008078812B8093E3008091E800877FAB
:1039A0008093E8000E94980E8091E80080FFFCCF91
:1039B0008091E30080688093E30082E0111183E04E
:1039C0008093A0025AC18058823008F056C12091DD
:1039D000A4023091A5022C3DE3E03E07A1F583E06F
:1039E0008A838AE289834FB7F894DE01139620E038
:1039F0003EE051E2E32FF0E050935700E49120FFC6
:103A000003C0E295EF703F5FEF708E2F90E0EA30D9
:103A1000C0F0C7968D939D932F5F243159F74FBF08
:103A20008091E800877F8093E8006AE270E0CE0131
:103A300001960E94440F8091E8008B778093E80004
:103A40001CC1C096E7CF8091A6029091A702432F98
:103A500055274330510509F44AC078F541305105E6
:103A600009F485C08BE590E0EEEEF4E142305105BB
:103A700009F003C12091E800277F2093E8002091FE
:103A8000A8023091A9028217930708F49C0140E034
:103A90002115310509F070C041116EC08091E80018
:103AA00082FDC9CF8091A002882329F2853019F2C6
:103AB0008091E80083FFF2CFBECF4132510509F477
:103AC00047C04232510509F0D8C08330910508F053
:103AD000D4C0FC01EE0FFF1FEC57FE4F0190F081A8
:103AE000E02D8F579E4FDC018C9190E01DC0332755
:103AF00021303105E9F02115310579F02230310509
:103B0000F9F02330310509F0B8C0EBE5F5E1E491B7
:103B10008E2F90E0EBE5F5E107C0EBE9F5E1E491EC
:103B20008E2F90E0EBE9F5E1009709F4A6C0A2CF53
:103B3000E7E8F5E1E4918E2F90E0E7E8F5E1F4CFD6
:103B4000E9E7F5E1E4918E2F90E0E9E7F5E1ECCFCC
:103B50008330910508F091C0880F991FFC01E6574A
:103B6000FE4F0190F081E02D89E090E083CF82E16B
:103B700090E0E9E4F5E17ECF8091A002882309F48A
:103B80005ACF853009F457CF8091E80083FD53CF99
:103B90008091E80082FD82CF8091E80080FF78CF9D
:103BA0009091F3008091F2002115310519F08830D1
:103BB000910550F041E0089709F040E08091E8005D
:103BC0008E778093E80064CF44914093F100319662
:103BD000215031090196E8CF803809F04EC080911C
:103BE000E800877F8093E8008091A1028093F10034
:103BF00092CE811142C01091A4021230F0F5809152
:103C0000E800877F8093E8001093A1020E94980E3D
:103C1000112311F084E005C08091E30087FDFACF05
:103C200081E08093A00242E061EC81E00E94B70E47
:103C300042E261EC84E00E94B70E42E261EC82E075
:103C40000E94B70E42E260EC83E00E94B70E8091C2
:103C5000A00213C08091A402813079F481E09330F6
:103C600009F080E080939F021092E9008091E800C3
:103C7000877F8093E8000E94980E8091E80083FF80
:103C80000AC08091E800877F8093E8008091EB0074
:103C900080628093EB00AA96E3E00C94F0311F92CF
:103CA0000F920FB60F9211242F933F934F935F9370
:103CB0006F937F938F939F93AF93BF93CF93DF9334
:103CC000EF93FF93D091E900DF708091EC00C82F53
:103CD000C17080FDC0E81092E9008091F000877FFC
:103CE0008093F00078940E94861B1092E9008091E6
:103CF000F00088608093F000CD2BCF70C093E90076
:103D0000FF91EF91DF91CF91BF91AF919F918F91F3
:103D10007F916F915F914F913F912F910F900FBEC7
:103D20000F901F9018950E94701B2FEF84E39CE06A
:103D3000215080409040E1F700C0000088E19AE007
:103D40000FB6F894A895809360000FBE9093600022
:103D5000FFCF882341F080959091D10189238093F2
:103D6000D1010E94221B0895882339F09091D1013E
:103D7000982B9093D1010E94221B0895882321F053
:103D80000E9444120E94221B0895882339F09091CA
:103D9000D201982B9093D2010E94221B0895882370
:103DA00091F19CEF980F913A80F4E4E9F1E02AE96F
:103DB00031E09191891303C0DF0111971C922E17F6
:103DC0003F07B9F70E94221B089590E2980F9830A0
:103DD00050F4877091E001C0990F8A95EAF7892F16
:103DE0000E944412EFCF9BE5980F933028F490E0A7
:103DF00080E00E9402100895885A8B3120F490E0F0
:103E000080E00E94DD0F0895CF93C82F8823B1F082
:103E10008CEF8C0F813A00F5E4E9F1E08AE991E05A
:103E2000DF012D91C21761F08A179B07D1F76C2F24
:103E300082E991E00E94C30F0E94221BCF91089556
:103E40002191C21303C0DF0111971C928E179F07A7
:103E5000B9F70E94221BEBCF80E28C0F883068F408
:103E6000C77021E030E001C0220FCA95EAF78091C7
:103E7000D201822B8093D201DFCFEBE5EC0FE33050
:103E800040F4F0E0ED5DFE4F808190E00E94021072
:103E9000D5CFC85ACB3190F6EC2FF0E0EE0FFF1FD4
:103EA000EA5DFE4F808191810E94DD0FC7CF1F9395
:103EB000CF93DF93182FD0E0C0E0893311F4C0E531
:103EC000D0E0812F0E94041F209739F4812F0E9497
:103ED000CF1EDF91CF911F9108958FE99FE0019749
:103EE000F1F700C000002197EFCF0F931F93CF93FE
:103EF000DF93C62FD42F022FFC0185818823A9F0E0
:103F00006093E6020E94421A9093E5028093E402D5
:103F1000C77081E001C0880FCA95EAF70E94C51EEC
:103F2000DF91CF911F910F9108958091E602681360
:103F300032C08091E4029091E5020E94331A883CDD
:103F4000910548F510E21D0FCD17B9F080E28C0FF6
:103F5000883040F4C77081E001C0880FCA95EAF745
:103F60000E94BE1E183048F481E09D2F977001C05A
:103F7000880F9A95EAF70E94C51E802F0E94571F4E
:103F8000183070F6D77081E001C0880FDA95EAF733
:103F90000E94BE1EC5CFC77081E001C0880FCA95C0
:103FA000EAF7F6CFB0E0A0E0E8EDFFE10C94CD3108
:103FB000EC018AE0A82E2881222309F48FC0213049
:103FC000C9F599818A81913021F422960E94571F68
:103FD00005C0923029F422960E94041F2196EBCF4F
:103FE000933021F422960E94CF1EF8CF943011F026
:103FF0002196F4CF229630E020E0AE014F5F5F4F74
:104000008053990B8A30910550F02150310930F3DB
:104010008FE99FE00197F1F700C00000F6CFA29E64
:10402000B001A39E700D11249C01260F371F8981BA
:10403000EA01E3CFE22FF0E0E153FA4EB490822F91
:1040400086958695869590E0FC01E154FA4EE490C1
:104050002770F12C022E02C0F594E7940A94E2F73F
:1040600031E0E322FF24FC01E155FA4EC490D12C4B
:10407000022E02C0D594C7940A94E2F731E0C3221D
:10408000DD24FC01E156FA4E049110E002C01595C2
:1040900007952A95E2F701701127E114F10419F050
:1040A00081EE0E94041FC114D10419F086EE0E9413
:1040B000041F8B2D0E94571FC114D10419F086EEE6
:1040C0000E94CF1EE114F10419F081EE0E94CF1E70
:1040D0000115110509F482CF8CE278CFCDB7DEB798
:1040E000EAE00C94E9319091E80192FF10C098E069
:1040F000899F90011124622B6093C8010E9437139D
:104100000E94421A9093C7018093C60108950E94AD
:1041100037130895ABE1B0E0E0E9F0E20C94D3315D
:104120004E8B5F8B688F798F8A8F9B8F092F9111B0
:104130001092D1011D8A86E0FE017696DE011F965F
:1041400001900D928A95E1F71A8D8091E80182FF26
:104150001CC00E94421A2091C6013091C701821BE7
:10416000930B8838934120F08091C80182FF7FC073
:104170000E94421A2091D3013091D401821B930BEB
:104180008838934110F00E943912112349F021E040
:104190004F85588969897A89812F902F0E949616B8
:1041A0001B8B0C8B87E0FE013F96DE011896019079
:1041B0000D928A95E1F7CE0108960E940D27811194
:1041C0000CC087E0FE013896DE01119601900D9239
:1041D0008A95E1F78C8581110BC017E08091E3028D
:1041E0009091AA02891331C06B96E4E00C94EF31F0
:1041F0002091AA0230E0C901019687709927409169
:10420000E3024817190699F097E0929FD001939F17
:10421000B00D1124A555BD4FFE01319601900D92B0
:104220009A95E1F78093AA020E945C12D6CF0E9471
:10423000701B1092AA021092E30287E0EEEBF1E00D
:10424000DF011D928A95E9F7C8CF819FC001112433
:1042500085559D4F0E940D27882331F28091E302FE
:1042600090E00196877099278093E302B7CF82E0B0
:104270000E9420137DCFA6E0B0E0E1E4F1E20C94CF
:10428000D3318C0190934A0280934902011580E258
:104290001807C0F4802F0E94CF1EC8010E94461349
:1042A0009801205E31092830310518F001151105FB
:1042B00031F40E94BE1E2696E4E00C94EF310E9479
:1042C000A91EF9CF80EF89838A830E94421A8160F8
:1042D000682F9C838B8349815A817C8181E090E0A7
:1042E0000E948A20E8CFA6E0B0E0E9E7F1E20C9472
:1042F000D3318C0190934A0280934902011580E2E8
:104300001807C0F4C8010E9446139801205E3109C5
:104310002830310518F00115110549F40E94C51E19
:10432000802F0E94041F2696E4E00C94EF310E9437
:10433000B41EF6CF80EF89838A830E94421A81607F
:10434000682F9C838B8349815A817C8181E091E035
:104350000E948A20E8CFA4E0B0E0E1EBF1E20C9407
:10436000CB317C01FC018481882309F408C121E060
:10437000408151816281738195810E9496168C01E2
:10438000F7012581222309F4DAC09A9581159F440B
:1043900008F066C0C8019927AC0144505109443265
:1043A000510518F08B970E9780F4E091FA01F0E038
:1043B000EE0FFF1FE150FE4F808191818F3F3FE75D
:1043C000930719F0019691838083C801975780382D
:1043D000910508F09CC4D02E4FE0401708F4C0C0EF
:1043E0008FEF93E00E943B358111BAC009E711E0DD
:1043F000D1103FC019821A821B821C8299249A9480
:1044000068018FEFC81AD80AC8010E943B3589831A
:104410001A82882309F4A4C0813009F08AC05801A7
:1044200092E0A90EB11CC6010E943B35C82E8A83BA
:10443000882309F495C0C5010E943B35D82E8FEF23
:104440008C0D833020F55801E3E0AE0EB11CDB8209
:10445000DD2021F0CE0101960E94D21F8501D0CF30
:1044600090E080E00F3F110511F008F095CFC801F2
:1044700093CF011554E0150709F472C0C8010E94DA
:104480003B35811101C0DA940F5F1F4FB1CF8BEF25
:104490008C0D833040F5C8010396DB825C01DD2082
:1044A000E9F25801F4E0AF0EB11C0E943B358C8359
:1044B0008823A1F20B811C8101302FEF120710F02D
:1044C000102F002736E0C31651F047E0C41619F04C
:1044D000C8010E947321C8010E943B21BFCFC801BF
:1044E0000E947321BBCF54E0C512B8CF580184E0BD
:1044F000A80EB11CC80103960E943B35DD2081F156
:10450000882371F18150990B989E9001999E300DEE
:104510001124ED2DE150FF0BCF01820F931F019766
:1045200008F49CCFEFE9FFE03197F1F700C00000FD
:10453000F6CFCE0101960E94D21F56018FCFFC010B
:10454000E851FC47E730F10508F0CAC3E756FA4CDA
:104550000C945D3226E241EE61EEC7010E94751FA8
:104560008091C801877059F0F7018581882339F05F
:104570008091E80182FF03C082E00E94201324960C
:10458000ECE00C94E73127E245EE65EEE6CF26E25B
:1045900041EE60EEE2CF27E245EE64EEDECF26E2AA
:1045A00041EE62EEDACF27E245EE66EED6CF28E2A4
:1045B00041E0EBCF8091E70181608093E70195C0F6
:1045C0008091E80188608093E8018FC08091E701C5
:1045D0008260F3CF8091E7018460EFCF8091E701A3
:1045E0008860EBCF8091E8018160EDCF8091E80198
:1045F0008260E9CF8091E7018061DFCF8091E701A0
:104600008062DBCF8091E7018064D7CF0E94701B6E
:104610008091E7018068D1CF8091E7018C60CDCF98
:104620008091E8018360CFCF8091E7018E7FC5CF75
:104630008091E801877FC7CF8091E7018D7FBDCF53
:104640008091E7018B7FB9CF8091E701877FB5CF5C
:104650008091E8018E7FB7CF8091E8018D7FB3CF45
:104660008091E7018F7EA9CF8091E7018F7DA5CF53
:104670008091E7018F7BA1CF0E94701B8091E701A1
:104680008F779BCF8091E701837F97CF8091E8015F
:104690008C7F99CF8091E70182FB992790F921E0E7
:1046A000922790FB82F990FB83F987CF8091E801F4
:1046B000982F909591708E7F892B90FB81F983CFF5
:1046C0009091E701892F8F7B96FF806476CF0E94BF
:1046D000701B9091E701892F97FB87F980586DCF68
:1046E00061E08EE090E00E9459356091E7017091A1
:1046F000E80184E090E00E9477350E94701B30CF83
:1047000060E0EFCF9091E701892F8F7E94FF806169
:1047100054CF9091E701892F8E7F90FF81604DCF1C
:104720009091E801892F877F93FF88604CCF85E3C4
:10473000E0C207373CE7130709F465C008374CE7C8
:10474000140709F467C0222381F003305CE71507E2
:1047500009F487C008F06AC001159CE7190709F43D
:1047600073C001301C4709F482C0F70185810081C4
:104770001181882309F489C0C8010E943416D82EFB
:10478000682FC8010E94D512B8018D2D0E9406160F
:104790000E941B118C01882EF701C580B680B2944F
:1047A0003FE0B3228091C8018770F1F0AC2CCC209F
:1047B000E1F0812F807F803451F080E2800F8830DB
:1047C00098F0B11004C0812F807E803269F0809112
:1047D000E80182FF09C082E00E9420138091C80195
:1047E0008770AA24A3948111A12C912E92942FE07A
:1047F0009222FBE0F91508F4ADC0E92DF0E0E05697
:10480000FA4C0C945D3281E0211108C081E00E94D5
:10481000131306C0222309F4A3C282E00E943713B7
:1048200043E062E081E00E94F3129ACE0B35FCE790
:104830001F0749F10C352CE71207D9F00A351C4740
:1048400009F093CF81E01CC00E94701B4FEF54E32E
:104850008CE0415050408040E1F700C000000E94D1
:10486000A60F6FEF7FEF90E080E00E9477350E9407
:10487000931E8091E80182FB882780F991E08927C7
:104880000E941F1972CF80E0FBCFC8010E948D12D9
:10489000D82E7ACF212F2F70D22E107F19F0D294DC
:1048A00090EFD922CC20B9F0DD2069F080E2800FB2
:1048B000883010F0811009C08091D201D82AD0929E
:1048C000D2010E94221B802F43C08091D101D82A9F
:1048D000D092D101F6CF802F0E94CF1EDD20D1F1E2
:1048E000005E083010F0811004C08D2D0E9444122B
:1048F00006C0D0948091D101D822D092D1010E94DB
:10490000221B28C0312F3F70D32E107F103219F098
:10491000D29480EFD822882059F041E0841609F41F
:104920008EC0CC2009F49AC0BB2009F447C0CBCF7D
:104930008091E80182FD3EC0CC20B1F1DD2039F04C
:104940008091D201D82AD092D2010E94221B80E00D
:104950000E94041F492D4850550B4430510510F456
:104960000E942710AA20A9F08091C80180FD11C0E3
:10497000F70115828695869586950E943713C701A3
:104980000E94AB218091C8018695869586950E94EC
:10499000131320E0F701408151816281738184818A
:1049A00095810E949616EBCD80E00E94CF1EDD20FF
:1049B00089F29BCFCC2071F1B11004C08D2D0E94E3
:1049C000C51EC8CF51E0B51211C01091D5018D2D73
:1049D0008123D81609F4BECF0E94421A9093D401C5
:1049E0008093D301D12AD092D501B4CF85E0B812FB
:1049F000B1CF8D2D0E94C51E8D2D0E940D1B809163
:104A0000C5019D2D9823D91609F4A4CFD82AD09298
:104A1000C501A0CFB1100AC08D2D0E94BE1E8D2DE4
:104A20000E940D1B8D2D0E94521294CF91E0B9125D
:104A300091CF8091D2018D2109F48CCFEDCFCC2084
:104A400029F0E5E0EB1508F485CFB8CFF4E0FB15CD
:104A500008F480CF8D2D0E94BE1E7CCFBB20D1F3E9
:104A600029E3821209C03FEF47EE53E03150404046
:104A70005040E1F700C00000802F0E94CF1E6ACF97
:104A8000812F86958695837061F0813009F062CF21
:104A9000C8019370C11002C080E090E00E94DD0F59
:104AA00059CFC8019370C11002C080E090E00E940D
:104AB000021050CF812F837089F5C1104BCF402F4A
:104AC000429546954770440F440F802F8F70042EF7
:104AD00001C0880F0A94EAF7202F207104FF07C055
:104AE0002FE030E001C0220F4A95EAF72095169595
:104AF00016951370123069F050F43091E5011130C1
:104B000029F0822B83230E94431324CF832B822BF3
:104B1000FACF282B8091E5018227F5CF8695CC200E
:104B200011F0812F8170882309F414CF402F429512
:104B300046954770440F440F802F8F70042E01C09C
:104B4000880F0A94EAF7202F207104FF07C02FE096
:104B500030E001C0220F4A95EAF720951695169588
:104B60001370123069F050F43091E601113029F0E1
:104B7000822B83230E94F012EDCE832B822BFACF5F
:104B8000282B8091E6018227F5CF1F70CC2029F0D9
:104B9000812F0E943713802F12CF802F0E94BE1EBC
:104BA000812F0E941313D6CE802F92EF8916B1F178
:104BB000981570F0E0EF8E16D1F0F1EF8F1691F0AE
:104BC000CC2009F466C0B1107ECE812F8F712AC02F
:104BD00023EF821651F134EF8312F2CF8091E80176
:104BE00082FD2FC0812F8F71CC20D9F21BC0CC2029
:104BF00081F044E04B1508F4ADCE1F7181E090E0E8
:104C0000012E01C0880F0A94EAF79091E6018927E6
:104C1000B1CF55E05B1508F49DCEEFCF812F8F719A
:104C2000C110BFCF0E94371395CE80E0CC2009F48D
:104C3000A1CF1F7181E0012E01C0880F0A94EAF70D
:104C400099CFCC20C9F08091C8018770843041F49D
:104C50000E944B12812F8F710E941313A12C7ACEC8
:104C600084E08B15D8F31F71812F0E94371363E006
:104C7000812F0E947320F2CF94E09B1530F40E94A4
:104C80004B1264E0812F8F71F4CF81E00E942013DA
:104C9000E5CFBB2059F0893309F0EECEEFEFF7EE08
:104CA00023E0E150F0402040E1F7E4CE812F8F7106
:104CB00078CF0631FCE71F0709F03BCD8091D20188
:104CC0008A7A91E009F490E090939C0169E2811165
:104CD00065E382E991E00E94C30F0E94221B40CC51
:104CE00086312CE7920799F580919C0181111FCDA7
:104CF00089E2E4E9F1E02AE931E09191891303C006
:104D0000DF0111971C922E173F07B9F7E6CFF80184
:104D1000E851FC47E730F10508F418CC1092E602A0
:104D2000C8019057839728F684E090E00E944335AD
:104D30009093E8018093E701F801E150F047E232F7
:104D4000F10508F037CCE455FA4C0C945D32873706
:104D50003CE7930709F45ACD88379C4709F005CD05
:104D600082E055CDCF93DF938091C401807F09F01D
:104D70004DC08091C301882309F448C0E091E3024B
:104D80005091AA02C091BF01D091BE016091C001B3
:104D90007091C10147E05E17C9F18E2F90E0E49F4A
:104DA000F0011124E555FD4F2481222391F1489F04
:104DB000F001499FF00D1124DF01A555BD4F11965B
:104DC0002C9111972C1325C02C912D1322C01596D0
:104DD0002C91159721111DC012962D913C91261BE7
:104DE000370B283C3105A8F48091C4018F70806195
:104DF0008093C401EF54FD4F80818F708061808368
:104E00008EEB91E00E94AB210E945C12DF91CF916A
:104E10000895FC013196E770BECFA4E1B0E0E3E174
:104E2000F7E20C94CB318C0186E0F801DE011F968D
:104E300001900D928A95E1F7F8018481E5809EEB5F
:104E4000A92E91E0B92E9091C201911128C088231A
:104E500019F1EE20F1F0C8010E947316F82E882394
:104E6000C1F087E0F801D50101900D928A95E1F734
:104E70008091C201813031F48091BE019091BF01D7
:104E80000E9466160E94B2268F2D6496ECE00C9468
:104E9000E731C8010E94AB21FF24F394F5CFD08005
:104EA000C18082809380F090C3012091C001309135
:104EB000C101A401421B530BFF2009F4D9C0483C97
:104EC000510508F092C08823F9F29091BF018091BA
:104ED000C401282F207F09F056C0C91214C0909138
:104EE000BE01D91210C0E11048C08F70806180935C
:104EF000C4018EEB91E00E94AB218091C401F801C6
:104F00008683F12CC1CFE11038C06C2D8D2D0E940D
:104F1000290E6C2D8D2D0E94290EE82E8111F1CFC6
:104F2000DF86C88A8F8598890E946616292F229568
:104F30002F70243058F49F70223088F0992399F014
:104F4000F8019681907F79F4FE2C9ECF2A5F2F7016
:104F5000223068F0C8010E94AB21EF2CF5CF9923D5
:104F600011F0882389F3805E883070F3F3CF803F9F
:104F700058F3815F833070F7E7CF8091C40181607F
:104F80008093C401BECFC91207C09091BE01D9124F
:104F900003C0EE2009F48DC0C8010E947316882357
:104FA00009F477CFEE2009F474CF8091C4018032E8
:104FB00088F02091BE013091BF01398728879B86F8
:104FC0008A869091C2019C871D868E87CE010896A5
:104FD0000E94AB2187E0F801AEEBB1E001900D92A9
:104FE0008A95E1F70E94B22657CF9091C401292FEC
:104FF000207F51F48EEB91E00E94AB2187E0F50118
:1050000011928A95E9F77DCF882309F43DCF8091ED
:10501000BF018C1110C08091BE01D8120CC0E110EC
:105020000AC09683C8010E94AB2187E0F501119266
:105030008A95E9F729CFC8010E947316882309F4DD
:1050400028CFEE2009F425CF8091C401803210F2E0
:105050002091BE013091BF013A8329839C828B82CB
:105060009091C2019D831E828F83CE010196B0CFA5
:10507000483C5105D0F6882309F40ECFFE2CEE20D3
:1050800009F407CF8091BF018C1120C08091BE012F
:10509000D8121CC08091C40180FD0FC0982F907F52
:1050A00061F08683903F31F0982F907F905F8F70F2
:1050B000892B8683C8010E94AB2187E0F801AEEB03
:1050C000B1E001900D928A95E1F7DECEC8010E9411
:1050D000731681117FCF8091C40181608093C401D8
:1050E000C8010E94AB21D0CEA6E0B0E0EAE7F8E22A
:1050F0000C94D3310E94421A8C018091D601909178
:10510000D7018017910781F019821A820E94421AF2
:10511000682F49815A81792F80E090E00E948A208F
:105120001093D7010093D6012696E4E00C94EF315A
:105130001F921FB61F9211248F939F93AF93BF931B
:1051400080918E02811113C080918F029091900204
:10515000A0919102B09192024196A11DB11D809340
:105160008F0290939002A0939102B0939202BF910C
:10517000AF919F918F911F901FBE1F901895CDB733
:10518000DEB7C654D1090FB6F894DEBF0FBECDBF4F
:1051900085B7806885BF85B7806885BF84B7877FFE
:1051A00084BF0FB6F894A8958091600088618093C1
:1051B0006000109260000FBE80E890E00FB6F89497
:1051C00080936100909361000FBE84E390E190931F
:1051D0009101809390010E94480E0E94E90E8091F7
:1051E000E20084608093E20078948091A00288239A
:1051F000A1F01091E9001F709091EC00892F81704F
:1052000090FD80E8182B1092E9008091E80083FD62
:105210000E94861B1F701093E90082E084BD93E01A
:1052200095BD9AEF97BD80936E000E94BB168111C9
:1052300002C00E948E1582E08093350247E751E05C
:10524000E5E78E2EE1E09E2EF9E7EF2EF1E0FF2E4E
:1052500084019A0161E070E0D9018D919D01E82FF0
:10526000E295EF70F0E0B1A08F706B0101C0CC0C43
:105270008A95EAF79C2D90959B2191A382A18C2978
:1052800082A3F80181918F01E82FE295EF70F0E0A1
:10529000B1A08F706B0101C0CC0C8A95EAF79C2DF0
:1052A00090959B2191A382A18C2982A3EA16FB06EB
:1052B00099F68FE891E00197F1F700C00000109196
:1052C000350266E372E0FB018E2F861B811708F41E
:1052D0000FC1A1E6B1E025E631E0AD0101E010E04B
:1052E000FA018191AF01E82FE295EF70F0E091A112
:1052F0008F70B80101C0660F8A95EAF7892F862B57
:1053000081A3F1E045365F0759F761E070E09D91B8
:10531000E92FE295EF70F0E042A19F708B0102C08F
:10532000000F111F9A95E2F7C8018095842382A38C
:105330002A173B0761F7ACE5B1E041E651E061E0D7
:1053400070E08D91E82FE295EF70F0E011A18F7081
:105350009B0101C0220F8A95EAF7922F9095912325
:1053600091A382A1822B82A34A175B0751F7109267
:10537000DC011092DB0110923E0210923D0210926D
:10538000DE011092DD011092400210923F02109255
:10539000E0011092DF01109242021092410210923D
:1053A000E2011092E1011092440210924302109225
:1053B000E4011092E301109246021092450290E03F
:1053C00080E00E944335863E9E4F21F40E94BB162A
:1053D000811167C066EE7EEF90E080E00E94773535
:1053E00060E082E090E00E94593560E083E090E068
:1053F0000E9459351092E50160E074E184E090E08C
:105400000E94773560E086E090E00E9459356FEFAA
:1054100087E090E00E94593540E050E0BA0188E012
:1054200090E00E946B3560E084E290E00E94593584
:1054300060E087E190E00E94593560E08CE090E008
:105440000E94593560E08DE090E00E945935198244
:105450001A821B821C821D821E821F82188648E0CF
:1054600050E068E170E0CE0101960E94493540E0CD
:1054700050E0BA0180E290E00E946B3580E00E942B
:1054800075150E948E1540E050E0BA018FE090E063
:105490000E946B3540E050E0BA0183E190E00E9449
:1054A0006B3582E090E00E943B358093E90184E017
:1054B00090E00E9443359093E8018093E7010E94B9
:1054C0004E1A2FEF36E781E0215030408040E1F75F
:1054D00000C000000E944E1A80913D0280FF31C042
:1054E0006FEF7FEF90E080E00E9477350E94A60F7B
:1054F000DA012D91AD01822F82958F7090E0DC0151
:1055000090968C9190E02F7002C0959587952A9582
:10551000E2F78170D4019D914D01292F22952F70C2
:1055200030E0D90190962C9130E09F7002C0359503
:1055300027959A95E2F790E020FD92E0892B8193E0
:10554000C3CE83E090E00E943B350E94431382E08B
:1055500080937E0280E88093E7020E94C5306BE072
:1055600070E087E591E10E94D4168823E9F18091EB
:105570007E0265E070E081FDC5C082E591E10E9498
:10558000D416882389F16DE070E080E491E10E94F7
:10559000D416882349F10E94B70F605A75418F4F86
:1055A0009F4F609380027093810280938202909358
:1055B0008302E0EFF2E080E092E0DF018C011D92D7
:1055C00001501040E1F7F093F104E093F0048FEF05
:1055D0009FEF9093EF028093EE0281E0809385022B
:1055E0008093840210927F0280E091E090938B027E
:1055F00080938A0278E1272E312C8091A002853099
:1056000089F440E4D42E07E412E050E1E52E62E193
:10561000F62E8091A002853009F477C00E94701B9D
:105620000E9427100E944E1A2AEEA22E21E0B22ECE
:105630003DE3832E32E0932E44EF51E0D401F50197
:10564000219131918D919D914E175F0709F496C07C
:1056500028173907A9F3712CD4010D911D914D0123
:10566000F501C190D1905F01C016D10609F441C087
:10567000C026D126612CEE24E394F12C55245394BA
:10568000C6018E219F21892B51F122966FAE229760
:1056900023967FAE23970E94421A25969FAF8EAF26
:1056A000259726965FAE269791E098012E213F21FF
:1056B000232B09F490E027969FAF279722964FADB2
:1056C000229723965FAD239724966FAD2497259656
:1056D0007FAD259726968FAD26970E948A206394EA
:1056E000EE0CFF1CF0E16F12CBCFF5013297118366
:1056F0000083739405E07012AFCF0E94B70F992416
:10570000939443C08DE491E13ACF8091A00284301C
:1057100019F10E94FE1610928E020FB6F894A89509
:10572000209260000FBED092600083B7817F8460BA
:1057300083BF83B7816083BF7894889583B78E7F5A
:1057400083BF0FB6F894A89580916000886180931C
:105750006000109260000FBE80919F02882309F4C0
:1057600058CF0E944E1AEDE3F2E081919191892B7E
:1057700009F0EDC40E171F07C1F74BCF28173907E3
:1057800009F069CF0E947428912CC090FF01D0903D
:1057900000020D2C000CEE08FF088091080190E03B
:1057A000EFEFF1E021E030E03296821793070CF042
:1057B000D0C08091FB019091FC01A091FD01B091BE
:1057C000FE016FB7F89440908F0250909002609065
:1057D0009102709092026FBF481A590A6A0A7B0AB6
:1057E0001091080129EC421651046104710414F16E
:1057F0008091FA0190E0019669E170E00E94083220
:105800008093FA01880F991FFC01E150FE4F11822D
:105810001082812F183108F087E18F5F8093080193
:105820000E94B70F6093FB017093FC018093FD0110
:105830009093FE0132E0C316D104E104F1040CF4AC
:1058400095C0A0E6BAEEA70196010E946A326B01EC
:105850007C0188EC189F90011124032E000C440B4E
:10586000550B240D351D461D571DA5E0B0E00E94C7
:105870006A329B01AC01C701B6010E941C322901AA
:105880003A0191EF49165104610471042CF0B0EF14
:105890004B2E512C612C712C8091F6019091F701C7
:1058A000A091F801B091F9012FB7F894C0908F0240
:1058B000D0909002E0909102F09092022FBFC81A0F
:1058C000D90AEA0AFB0AA5E6CA16D104E104F104E2
:1058D00084F00E94B70F6093F6017093F7018093F4
:1058E000F8019093F901809153028093F501409261
:1058F000F4011091F501A091F401A11BBB0BA701CC
:1059000096010E94753224E630E040E050E00E94AB
:105910003E32120F1093530210E000E062E0862E38
:1059200074E0A72EB12CEDEF7E2E66246394FCEF7D
:105930005F2EA3E04A2E809135021817D8F000237D
:1059400009F4C0C00E94B70F0E9441170E941917A6
:10595000BDC040815181052E000C660B770BC40E33
:10596000D51EE61EF71E2F5F3F4F1ECF412C512C38
:10597000320192CFE12EF12CF701E958FE4F8081E0
:10598000E82FE295EF70F0E0E0A1F0E08F7002C048
:10599000F595E7958A95E2F7E170D701AB58BE4FD0
:1059A0002C91A22FA295AF70B0E090968C9190E0D0
:1059B0002F7002C0959587952A95E2F780FD80C0EB
:1059C00080E08E2BD701AA5CBD4FEC919E2F937087
:1059D000891709F473C0EE0FEE0FE82BEC93EF700C
:1059E000F0E0EB59FE4F97012D5C3D4F690180813E
:1059F000D9019C91890F8C9320E084304CF1F70100
:105A0000EF5CFD4F80818F5F80830E94421A1DAB47
:105A10005EAA682F8FAB98AF49AE6AAE412F5CEF9C
:105A2000792F83E091E00E948A200E94421A1BAFE6
:105A30005CAE682F8DAF9EAF4FAE21961FAE219703
:105A4000412F5CEF792F83E090E00E948A2021E0D3
:105A5000F60180818D3F3CF5F701EF5CFD4F8081C1
:105A6000815080830E94421A19A77AA6682F8BA7BB
:105A70009CA78DA66EA6412F5DEF792F82E091E065
:105A80000E948A200E94421A1FA778AA682F89AB19
:105A90009AAB8BAA1CAA412F5DEF792F82E090E090
:105AA0000E948A2021E0D6018C91082E000C990BCF
:105AB000B5010E940832F6018083022B1F5F3BCFA5
:105AC00082E07FCF0E944117911040CF0E942710A3
:105AD00090913802891721F0809338020E94B70F05
