:100000000C941B0C0C94380C0C94380C0C94380C7D
:100010000C94380C0C94380C0C94380C0C94380C50
:100020000C94380C0C94380C0C9432180C94EE1779
:100030000C94B5210C94380C0C94380C0C94380C9E
:100040000C94380C0C94380C0C94380C0C94380C20
:100050000C94380C0C940B190C94380C0C94380C30
:100060000C94380C0C94380C0C94380C0C94380C00
:100070000C94380C0C94380C0C94380C0C94380CF0
:100080000C94380C0C94380C0C94380C0C94380CE0
:100090000C94380C0C94380C0C94380C0C94380CD0
:1000A0000C94380C0C94380C0C94380C00000000A4
:1000B0000000000000000000000000000000000040
:1000C0000000000000000000000000000000000030
:1000D00000000000000000000000000000000080A0
:1000E00080000000000080404020202020101010E0
:1000F000100804020101020C3040800000000000E2
:100100000000F8F8F8F8000000000080800000000F
:1001100000000000000000000000000000000000DF
:10012000000000000000000000808080000000004F
:1001300000000000000000000000000000000000BF
:1001400000000000000000000000000000000000AF
:10015000000000000000000000000000001EE100A0
:100160000001010202818080000080800000000008
:10017000000000000080003030000001010204088F
:1001800010204387070100B8BCBE9F5F5F4F4C2023
:100190002020201010101008080808080404040487
:1001A000040202020201010101000000000000003F
:1001B000000000000000000000000000000000003F
:1001C000000000000000000000000000000000002F
:1001D00000000000000000000000000080700C0320
:1001E0000000180605989984437C41414040202135
:1001F0002212111111090808080804040808101037
:10020000101010110F013D7CFCFCFCFCFC3C0C00B0
:1002100000000000000000000000000000000000DE
:1002200000000000000000000000000000000000CE
:10023000000000000000000000000000008080803E
:10024000808040404040402020202020101010108E
:100250001008080808080404040404020302020148
:100260000101010101000000000000000000000089
:10027000000000000000000000000000000000007E
:100280000000000000000000000103030000000067
:10029000000000000000000000000000000000005E
:1002A000000000000000000000000000000000004E
:1002B000000000000000000000000000000000003E
:1002C000000000000000000000000000000000002E
:1002D000000000000000000000000000000000809E
:1002E00080000000000080404020202020101010DE
:1002F000100804020101020C3040800000000000E0
:1003000000000000000000000000000000000000ED
:1003100000000000000000000000000000000000DD
:10032000000000000000000000808080000000004D
:1003300000000000000000000000000000000000BD
:1003400000000000000000000000000000000000AD
:10035000000000000000000000000000001EE1009E
:100360000001010202010000000080800000000086
:10037000000000000080003030000001E11A060992
:100380003135018A7C0000808080804040404020E0
:100390002020201010101008080808080404040485
:1003A000040202020201010101000000000000003D
:1003B000000000000000000000000000000000003D
:1003C000000000000000000000000000000000002D
:1003D00000000000000000000000000080700C031E
:1003E0000000000000000000000001010040A0210A
:1003F0002212111111090808080804040404040455
:1004000002020201010101000000000000000000E2
:1004100000000000000000000000000000000000DC
:1004200000000000000000000000000000000000CC
:10043000000000000000000000000000008080803C
:10044000808040404040402020202020101010108C
:10045000100808080808040404040402037A7A79DE
:10046000797979393102020404080808888887807C
:10047000000000000000000000000000000000007C
:10048000000000000000000000000000000000006C
:10049000000000000000000000000000000000005C
:1004A000000000000000000000000000000000004C
:1004B000000000000000000000000000000000003C
:1004C000000000000000000000000000000000002C
:1004D000000000000000000000000000000000809C
:1004E00080000000000080404020202020101010DC
:1004F000100804020101020C3040800000000000DE
:1005000000000000000000000000000000000000EB
:1005100000000000000000000000000000000000DB
:10052000000000000000000000808080000000004B
:1005300000000000000000000000000000000000BB
:1005400000000000000000000000000000000000AB
:10055000000000000000000000000000001EE1009C
:100560000001010202818080000080800000000004
:10057000000000000080003030000001E11A060990
:100580003135018A7C0000808080804040404020DE
:100590002020201010101008080808080404040483
:1005A000040202020201010101000000000000003B
:1005B000000000000000000000000000000000003B
:1005C000000000000000000000000000000000002B
:1005D00000000000000000000000000080700C031C
:1005E0000000180605989984C37C414140402021B1
:1005F0002212111111090808080804040404040453
:1006000002020201010101000000000000000000E0
:1006100000000000000000000000000000000000DA
:1006200000000000000000000000000000000000CA
:10063000000000000000000000000000008080803A
:10064000808040404040402020202020101010108A
:100650001008080808080404040404020302020144
:100660000101010101000000000000000000000085
:10067000000000000000000000000000000000007A
:10068000000000000000000000000000000000006A
:10069000000000000000000000000000000000005A
:1006A000000000000000000000000000000000004A
:1006B000000000000000000000000000000000003A
:1006C000000000000000000000000000000000002A
:1006D000000000000000000000000000000000001A
:1006E000000000000000804040202020201010105A
:1006F00010100808040404083040800000000000C6
:1007000000000000000000000000000000000000E9
:1007100000000000000000000000000000000000D9
:100720000000000000000000008080800000000049
:1007300000000000000000000000000000000000B9
:1007400000000000000000000000000000000000A9
:10075000000000000000000000000000001864829B
:10076000020202020201000000008080000000007E
:1007700000000000008000303000C0C1C1C2040889
:100780001020408000000080808080404040402059
:100790002020201010101008080808080404040481
:1007A0000402020202010101010000000000000039
:1007B0000000000000000000000000000000000039
:1007C0000000000000000000000000000000000029
:1007D000000000000000000000000000C03804031A
:1007E000000000000000000C0C0C0D010040A021D6
:1007F0002212111111090808080804040808101031
:10080000101010110F010100000000000000000096
:1008100000000000000000000000000000000000D8
:1008200000000000000000000000000000000000C8
:100830000000000000000000000000000080808038
:100840008080404040404020202020201010101088
:100850001008080808080404040404020302020142
:100860000101010101020204040808080808070048
:100870000000000000000000000000000000000078
:100880000000000000000000000000000000000068
:100890000000000000000000000000000000000058
:1008A0000000000000000000000000000000000048
:1008B0000000000000000000000000000000000038
:1008C0000000000000000000000000000000000028
:1008D0000000000000000000000000000000000018
:1008E0000000000000008040402020202010101058
:1008F00010100808040404083040800000000000C4
:1009000000000000000000000000000000000000E7
:1009100000000000000000000000000000000000D7
:100920000000000000000000008080800000000047
:1009300000000000000000000000000000000000B7
:1009400000000000000000000000000000000000A7
:100950000000000000000000000000000018648299
:10096000020202020201000000008080000000007C
:1009700000000000008000303000C0C1C1C2040887
:100980001020408000000080808080404040402057
:10099000202020101010100808080808040404047F
:1009A0000402020202010101010000000000000037
:1009B0000000000000000000000000000000000037
:1009C0000000000000000000000000000000000027
:1009D000000000000000000000000000C038040318
:1009E000000000000000000C0C0C0D010040A021D4
:1009F000221211111109080808080404080810102F
:100A0000101010110F010100000000000000000094
:100A100000000000000000000000000000000000D6
:100A200000000000000000000000000000000000C6
:100A30000000000000000000000000000080808036
:100A40008080404040404020202020201010101086
:100A50001008080808080404040404020302020140
:100A60000101010101020204040808080808070046
:100A70000000000000000000000000000000000076
:100A80000000000000000000000000000000000066
:100A90000000000000000000000000000000000056
:100AA0000000000000000000000000000000000046
:100AB0000000000000000000000000000000000036
:100AC0000000000000000000000000000000000026
:100AD0000000000000000000000000000000000016
:100AE00000000000000000808040404040202020A6
:100AF00020100804020204186080000000000000BA
:100B000000000000000000000000000000000000E5
:100B100000000000000000000000000000000000D5
:100B20000000000000000000008080800000000045
:100B300000000000000000000000000000000000B5
:100B400000000000000000000000000000000000A5
:100B5000000000000000000000000000003CC20196
:100B60000102020404020100000000000000000075
:100B70000000000000000060600081828284081094
:100B80002040800000000080808080404040402065
:100B9000202020101010100808080808040404047D
:100BA0000402020202010101010000000000000035
:100BB0000000000000000000000000000000000035
:100BC0000000000000000000000000000000000025
:100BD0000000000000000000000000008070190606
:100BE000000000000000001818181B030040A0229D
:100BF00024141212120B0808080805050909101020
:100C0000101010110F010100000000000000000092
:100C100000000000000000000000000000000000D4
:100C200000000000000000000000000000000000C4
:100C30000000000000000000000000000080808034
:100C40008080404040404020202020201010101084
:100C5000100808080808040404040402030202013E
:100C60000101010101020204040808080808070044
:100C70000000000000000000000000000000000074
:100C80000000000000000000000000000000000064
:100C90000000000000000000000000000000000054
:100CA0000000000000000000000000000000000044
:100CB0000000000000000000000000000000000034
:100CC0000000000000000000000000000000000024
:100CD0000000000000000000000000000000008094
:100CE00080000000000080404020202020101010D4
:100CF000100804020101020C3040800000000000D6
:100D000000000000000000000000000000000000E3
:100D100000000000000000000000000000000000D3
:100D20000000000000000000008080800000000043
:100D300000000000000000000000000000000000B3
:100D400000000000000000000000000000000000A3
:100D5000000000000000000000000000001EE10094
:100D6000000101020201000000008080000000007C
:100D700000000000008000303000C0C1C1C2040883
:100D80001020408000000080808080404040402053
:100D9000202020101010100808080808040404047B
:100DA0000402020202010101010000000000000033
:100DB0000000000000000000000000000000000033
:100DC0000000000000000000000000000000000023
:100DD00000000000000000000000000080700C0314
:100DE000000000000000000C0C0C0D010040A021D0
:100DF000221211111109080808080404080810102B
:100E0000101010110F010100000000000000000090
:100E100000000000000000000000000000000000D2
:100E200000000000000000000000000000000000C2
:100E30000000000000000000000000000080808032
:100E40008080404040404020202020201010101082
:100E5000100808080808040404040402030202013C
:100E60000101010101020204040808080808070042
:100E70000000000000000000000000000000000072
:100E80000000000000000000000000000000000062
:100E90000000000000000000000000000000000052
:100EA0000000000000000000000000000000000042
:100EB0000000000000000000000000000000000032
:100EC0000000000000000000000000000000000022
:100ED0000000000000000000000000000000000012
:100EE0000000000000008040402020202010101052
:100EF00010080804020202043840800000000000CC
:100F000000000000000000000000000000000000E1
:100F100000000000000000000000000000000000D1
:100F20000000000000000000008080800000000041
:100F300000000000000000000000000000000000B1
:100F400000000000000000000000000000000000A1
:100F5000000000000000000000000000001CE20192
:100F60000102020202010000000080800000000077
:100F700000000000008000303000C0C1C1C2040881
:100F80001020408000000080808080404040402051
:100F90002020201010101008080808080404040479
:100FA0000402020202010101010000000000000031
:100FB0000000000000000000000000000000000031
:100FC0000000000000000000000000000000000021
:100FD00000000000000000000000000080700C0312
:100FE000000000000000000C0C0C0D010040A021CE
:100FF0002212111111090808080804040808101029
:10100000101010110F01010000000000000000008E
:1010100000000000000000000000000000000000D0
:1010200000000000000000000000000000000000C0
:101030000000000000000000000000000080808030
:101040008080404040404020202020201010101080
:10105000100808080808040404040402030202013A
:101060000101010101020204040808080808070040
:101070000000000000000000000000000000000070
:101080000000000000000000000000000000000060
:101090000000000000000000000000000000000050
:1010A00000000000000000000000000029001E00F9
:1010B0001F0020002100220023002400250026001C
:1010C00027002D002E0000002A004A002B001400EB
:1010D0001A000800150017001C0018000C00120070
:1010E00013002F00300031004D00AE003900040025
:1010F0001600070009000A000B000D000E000F008B
:1011000033003400000028004B00A80035620000C6
:101110001D001B000600190005001100100036001C
:1011200037003800E50052004E000000E000E30008
:10113000E2000000000000002C00000000000000A1
:10114000E6000151500051004F00000029003A0014
:101150003B003C003D003E003F004000410042009B
:1011600043002D002E0000004C004A002B0014000C
:101170001A000800150017001C0018000C001200CF
:1011800013002F00300031004D00AE003900040084
:101190001600070009000A000B000D000E000F00EA
:1011A00033003400000028004B00A8003562000026
:1011B0001D001B000600190005001100100036007C
:1011C00037003800E50052004E000000E000E30068
:1011D000E2000000000000002C0000000000000001
:1011E000E600E400500051004F00000000DA0281E8
:1011F000FFD9F1DB20A4A62EAF00A0C000A1C8003B
:10120000AED580A81FD300408D14200000AF00AEE3
:1012100005010980A101850319012AB700150126DE
:10122000B700950175108100C0050C0901A1018569
:101230000419012AA002150126A00295017510814A
:1012400000C005010906A101050719E029E71500FD
:101250002501950875018102950175088101050731
:10126000190029FF150026FF009506750881000565
:1012700008190129059505750191029501750391DC
:1012800001C009023B00020100A0FA0904000001AC
:10129000030101000921110100012240000705811D
:1012A00003080001090401000103000000092111E5
:1012B0000100012232000705820320000112010013
:1012C0000200000008868056560001010200010C51
:1012D000036C00610067006F006D00000012035393
:1012E00000540048004C004D0020006B00620000DC
:1012F000000403090407087F0807003E5B4F5B3EBC
:10130000003E6B4F6B3E001C3E7C3E1C00183C7E3A
:101310003C18001C577D571C001C5E7F5E1C0000A3
:10132000183C180000FFE7C3E7FF0000182418006E
:1013300000FFE7DBE7FF0030483A060E0026297978
:10134000292600407F05050700407F05253F005AFC
:101350003CE73C5A007F3E1C1C0800081C1C3E7FDA
:101360000014227F2214005F5F005F5F0006097F88
:10137000017F00006689956A00606060606000948B
:10138000A2FFA2940008047E04080010207E201012
:101390000008082A1C0800081C2A0808001E101053
:1013A0001010000C1E0C1E0C0030383E38300006A9
:1013B0000E3E0E060000000000000000005F00006E
:1013C00000000700070000147F147F1400242A7F08
:1013D0002A12002313086462003649562050000088
:1013E0000807030000001C224100000041221C00ED
:1013F000002A1C7F1C2A0008083E08080000807094
:1014000030000008080808080000006060000020A4
:1014100010080402003E5149453E0000427F400052
:10142000007249494946002141494D3300181412C0
:101430007F10002745454539003C4A494931004164
:101440002111090700364949493600464949291EF4
:1014500000000014000000004034000000000814E8
:101460002241001414141414000041221408000234
:1014700001590906003E415D594E007C1211127C53
:10148000007F49494936003E41414122007F4141A8
:10149000413E007F49494941007F09090901003E59
:1014A00041415173007F0808087F0000417F4100DF
:1014B000002040413F01007F08142241007F40404E
:1014C0004040007F021C027F007F0408107F003E26
:1014D0004141413E007F09090906003E4151215E1C
:1014E000007F091929460026494949320003017F36
:1014F0000103003F4040403F001F2040201F003FAD
:101500004038403F00631408146300030478040368
:10151000006159494D4300007F41414100020408E8
:10152000102000004141417F0004020102040040FC
:101530004040404000000307080000205454784019
:10154000007F284444380038444444280038444448
:10155000287F0038545454180000087E09020018EF
:10156000A4A49C78007F080404780000447D400017
:10157000002040403D00007F102844000000417FD3
:101580004000007C04780478007C0804047800386B
:101590004444443800FC182424180018242418FC5F
:1015A000007C080404080048545454240004043FF8
:1015B0004424003C4040207C001C2040201C003C77
:1015C0004030403C004428102844004C9090907CCF
:1015D000004464544C440000083641000000007789
:1015E0000000000041360800000201020402003C35
:1015F0002623263C00000000000000404040F0F898
:10160000F8FF38FFF8F83FF8F8FF38FFF8F8F04037
:10161000404000000000000080C0C0C0800000C04A
:10162000C08000000080C0C000C0C0000080C0C0FA
:101630000000000000C0C0C0C0C000C0C00000006A
:10164000000000000000000000000000000000009A
:10165000000000000000000000000000000000008A
:10166000000000000000000000000000000000007A
:1016700000000000C0F0F8FC3E1E06010000007FE4
:101680004141417F007F4141417F000080C0E07EB9
:101690005B4F5BFEC00000C000DCD7DEDEDED7DCC7
:1016A00000C000000000000000000000000000007A
:1016B0000000000000000000000000494949FFFF51
:1016C000FFFFE0DFBFBF00BFBFDFE0FFFFFFFF495D
:1016D000494900000000001F3F6060E0BF1F007F1D
:1016E0007F071E381E077F7F007F7F0E1F3B7160C4
:1016F00000000000007F7F0C0C0C007E7E007F7ECF
:101700000303007F7E03037E7E03037F7E000F3E84
:10171000703C063C703E0F00327B49493F7E007FA3
:101720007E0303001E3F69696F2600000000000071
:1017300000000000030F1F3F3C7870600000007F36
:101740004141417F007F4141417F00307B7F7830C4
:10175000202030787F3B0003000F7F0F0F0F7F0F9B
:101760000003000000000000000000000000000076
:101770000000000000000000000000010101070F50
:101780000F7F0F7F0F0F7E0F0F7F0F7F0F0F070150
:101790000101000000000000000000000101000045
:1017A0000000000000000000000000000000000039
:1017B0000000000000000000000000000000000029
:1017C0000000000000000000000000000000000019
:1017D0000000000000000000000000000000000009
:1017E00000000000000000000000000000000000F9
:1017F00000000000000000000000000000000000E9
:1018000000000000000000000000000000000000D8
:1018100000000000000000000000000000000000C8
:1018200000000000000000000000000000000000B8
:1018300000000000000011241FBECFEFDAE0DEBF81
:10184000CDBF11E0A0E0B1E0E8ECF8E502C0059002
:101850000D92A637B107D9F724E0A6E7B1E001C0A1
:101860001D92AC3CB207E1F70E94DC210C944C2C99
:101870000C940000CF93DF934091CA045091CB04A5
:101880004A5C52409A013E5F21303240C0F020E075
:1018900032E0241B350B6091C8027091C902FC0133
:1018A000CA01240F351FC1E0D0E08217930750F022
:1018B0007093C9026093C802DF91CF91089520E030
:1018C00032E0E9CF4491DC01A653BD4F5C9145174E
:1018D00081F04C93AC01A5E056954795AA95E1F7A8
:1018E000DE0102C0AA0FBB1F4A95E2F7AD016A2BC9
:1018F000752B01963196D9CFE8EDF0E080818E7F8F
:1019000080831092E2001092DA001092E100A0EEC3
:10191000B0E08C9181608C9380818F77808319BC3B
:10192000A7EDB0E08C918E7F8C9380818F7E808339
:101930001092A70208952091E4003091E50095E609
:10194000A9012091EC00822F817020FF06C08091B8
:10195000E80080FF06C080E008952091E80022FDA5
:101960001AC08091B402882389F0853089F0809173
:10197000EB0085FD0FC02091E4003091E500421797
:101980005307F9F29150E1F684E0089582E008955A
:1019900083E0089581E00895EF92FF920F931F93E3
:1019A000CF937C018B010E949B0CC82F811117C023
:1019B0008091E80085FD0BC08091E8008E778093D0
:1019C000E8000E949B0C882399F3C82F08C0F701F8
:1019D00081917F018093F1000150110949F78C2F0B
:1019E000CF911F910F91FF90EF9008958091B602D3
:1019F00087FF13C08091E80082FF06C08091E80055
:101A00008B778093E80004C08091B4028111F2CFFB
:101A100008958091B4028823D9F38091E80080FF73
:101A2000F8CF8091E8008E77ECCF982F9093E90063
:101A3000242F762F50E0891731F07091EC0020911F
:101A4000ED005091F00021FD07C09F5F973071F7C6
:101A50008093E90081E008953091EB003E7F309360
:101A6000EB003091ED003D7F3093ED003091EB00C5
:101A700031603093EB007093EC002093ED005093B5
:101A8000F0002091EE0027FDE0CF80E00895B0E067
:101A9000A0E0EDE4FDE00C94AC28C8EDD0E0888136
:101AA0008F7E8883E7EDF0E080818160808384E031
:101AB00082BF81E08093A70288818E7F888302EEB7
:101AC00010E0F80110821092DA0081EEC82ED12CBD
:101AD000F601108288818F77888388818068888367
:101AE00088818F7D888319BC1092B4021092B50250
:101AF0001092B3021092B20290EEE92EF12CF7018F
:101B000080818B7F808388818160888342E060E070
:101B100080E00E94150DF60180818E7F8083F801A0
:101B2000808181608083808188608083F7018081EB
:101B30008E7F8083888180618883CDB7DEB7E8E0BF
:101B40000C94C828FC018091BC029091BD028617BC
:101B50009707A0F06115710529F49091E8009E7730
:101B60009093E80090E06115710551F4911108C05F
:101B70008091E80082FF34C080E00895BC01F2CF7C
:101B80008091B4028823C1F18530C1F18091E800D1
:101B900083FD30C08091E80082FDEACF8091E800AB
:101BA00080FFE1CF8091F3002091F200382F611582
:101BB000710519F02830310558F091E028303105D1
:101BC00009F090E02091E8002E772093E800CBCF39
:101BD00081918093F100615071092F5F3F4FE7CFF2
:101BE0008091B402882341F0853041F08091E80073
:101BF00083FFBECF81E0089582E0089583E00895D9
:101C0000089508958091A90208952FB7F8946091DE
:101C1000A0027091A1028091A2029091A3022FBF15
:101C2000089520919D0230919E022817390771F086
:101C300090939E0280939D02E0919B02F0919C0202
:101C4000309721F00084F185E02D099508952091C9
:101C5000990230919A022817390771F090939A02ED
:101C600080939902E0919B02F0919C02309721F0C1
:101C70000680F781E02D09950895E0919B02F0918F
:101C80009C02309729F00190F081E02D099508958C
:101C900080E0089580E008959091000292FF06C0D0
:101CA000282F28712830F9F4877F846093FF06C0BD
:101CB000282F28712831F1F4877E84612091010258
:101CC00020FF06C0382F38713830D9F4877F816003
:101CD00021FF06C0282F28712831D1F4877E816129
:101CE00094FD877E0895282F24712430F9F68B7F88
:101CF0008860DCCF282F2471243101F78B7E886126
:101D0000DDCF382F3171313019F78E7F8860E0CF09
:101D1000282F2171213121F78E7E8861E1CF753026
:101D2000B8F46031A8F4E72FF0E095E0899FE00D6A
:101D3000F11D112484E0EE0FFF1F8A95E1F7E60FF5
:101D4000F11DEE0FFF1FE455FF4E8591949108950C
:101D500080E090E00895CF93DF93EC018238910505
:101D6000B1F108F040C08133910509F49DC048F5F8
:101D70008932910509F48DC08A9709F49CC0C11578
:101D800022E5D20708F0BDC0C11531E5D30708F040
:101D900024C1C83ED10508F0A3C0C13ED10588F5D5
:101DA000C83AD10508F08EC0C53AD10508F0F6C092
:101DB000C130D10531F1209721F1C430D10508F5AA
:101DC00045C08533910509F45FC0C997C1F680917C
:101DD0000002837009F036C18091010283FF11C0B7
:101DE000C9E2D0E00EC0833E910599F170F4803EC7
:101DF000910501F1823E910511F68091000282FD6C
:101E000021C0CE01DF91CF910895863E910561F109
:101E1000873E910571F1843E910509F0B0CF809124
:101E2000010281FFEECF80910002C7EED0E084FD79
:101E30000DC0E7CF8091000280FD33C09091010278
:101E400090FFDFCFC3EED0E084FFDBCFD0E0C0E077
:101E5000D8CF8091000282FDF2C09091010290FDE6
:101E6000F1C084FFCECFF2CF8091000283FDDDCFA1
:101E7000C8CF8091000283FDE8C09091010291FFDC
:101E8000F0CFC4EED0E0BDCF8091000285FFB9CF86
:101E9000A7CF8091000285FDDBC08091010283FF06
:101EA000B0CFC9E3D0E0ADCF8091000286FFA9CFCB
:101EB000CAE2D0E0A6CF8091000286FFA2CFC1E3A4
:101EC000D0E09FCFCF3BD10508F6C85AD0E0CC0F69
:101ED000DD1FCE5DDE4F0990D881C02DD46491CF37
:101EE000C11540E5D40708F064C0C11580E4D807E7
:101EF00008F05CC0CE019A9581159F4108F481CF0E
:101F0000A5CFC11536E5D30718F5C11545E5D407AA
:101F100008F07CC0C11584E5D80708F072C09E01A6
:101F2000237033279C2F96959695C115D34508F4B9
:101F300059C0C1E0D0E002C0CC0FDD1F2A95E2F706
:101F400030E2939FC0011124C82BD92BDA6859CFF6
:101F5000C1158AE5D80778F4C11529E5D20708F03C
:101F600060C0C11538E5D30708F470CFDC2FCC274B
:101F7000C06FD06A46CFCE0190568115904208F0CE
:101F800065CF8D2F8F710E944C0E90E0982F88277F
:101F900088279F719C012C2BE90141C0C55AD0E0D4
:101FA000C15EDE4FC881D0E0D0642BCFDF70D06A35
:101FB00028CFCE018370992721E030E002C0220FA4
:101FC000331F8A95E2F7C695C69580E2C89FE00167
:101FD0001124C22BD32BDD6814CFDC2FCC27C16F8B
:101FE000D06A0FCFC1E0D0E002C0CC0FDD1F2A9530
:101FF000E2F720E2929FC0011124C82BD92BDC68A4
:1020000000CFDC2FCC27C46FD06AFBCE8C2F0E9470
:102010004C0EC82FD0E0DC2FCC27CC27DF71D0624C
:10202000F0CE8C2F8F700E944C0E34E0D695C79561
:102030003A95E1F7CF709C2FEC01D069E2CEC2EE69
:10204000D0E0DFCEC0EED0E0DCCEC6EED0E0D9CE20
:10205000C5E3D0E0D6CE8091EE0181111092EE0161
:10206000089580959091ED0198239093ED01089546
:10207000EAE7F1E09191891303C0DF0111971C9207
:1020800091E0E038F907B1F70895AAE7B1E0EFEF82
:1020900090E02D91821751F0EF3F19F4211101C00A
:1020A000E92F9F5F9630A9F7EF3F09F408950E2EB0
:1020B000000CFF0BE858FE4F828308958091E201E7
:1020C0009091B101981301C008958F5F8770FACF86
:1020D000B0E0A0E0EEE6F0E10C94AB287C010091CA
:1020E000FE011091FF018091EF019091F001082B0A
:1020F000192BCFE0D0E0CC24C394D12CBC2EC60148
:102100000C2E02C0880F991F0A94E2F780239123B6
:10211000892B49F4219790F7B12C8B2DCDB7DEB7E1
:10212000E9E00C94C728B7018C2F0E948F0E0E9403
:10213000AB0E019779F3F1CFCF93DF93EC010E94BF
:102140006810BE010E948F0E0E94AB0EDF91CF91EE
:102150000895953070F5803160F520E1929FF0018F
:102160001124E80FF11D6E2F677083E0F695E79557
:102170008A95E1F7EE0FFF1FEE0FFF1FED57FE4FA1
:1021800050E040E080E0219130E0062E02C036951C
:1021900027950A94E2F721703327042E01C0220FFD
:1021A0000A94EAF7822B4F5F5F4F4430510559F78D
:1021B000089580E00895953090F5803180F520E114
:1021C000929FF0011124E80FF11D2E2F277041E09E
:1021D00001C0440F2A95EAF783E0F695E7958A95C2
:1021E000E1F7EE0FFF1FEE0FFF1FED57FE4F30E040
:1021F00020E070E05191DF011197CB01022E02C067
:10220000969587950A94E2F78170819585278423B6
:1022100085278C932F5F3F4F2430310559F7089560
:10222000FC0183819481892B29F08081918189230C
:102230008F3F51F480E00895843FE1F717C0883E56
:10224000A8F0813FB9F712C0808191810E949C1053
:1022500092959F70963099F358F4925F9F709230E8
:1022600048F7803F19F040F7883E20F781E0089555
:102270009A5FF4CF809165028F31D8F4809181010B
:1022800090E0019665E070E00E94E528809381016E
:1022900024E030E0A901481B590BCA01982F882778
:1022A000990F8455994F0E943A0C08958CEA94E056
:1022B000FACF8832D8F32091800130E02F5F3F4F72
:1022C000217033272093800181E090E0821B930BE3
:1022D000982F8827990F84559F4FE5CFB0E0A0E055
:1022E000E4E7F1E10C94AC286C017B0164E670E05A
:1022F00088E70E94A827EC0197FD12C010E000E0DB
:10230000F601E00FF11F849164E670E00E9414284A
:10231000EC01892B29F40F5F1F4F0E151F0581F764
:102320000E948A28CE01CDB7DEB7E8E00C94C82819
:102330008091970290919802911103C091E08927B2
:102340000895882369F062E070E08EE092E10E94D7
:102350006E11892B19F080919702089510929702BF
:1023600080919702EBCFCF93C09197028091980212
:102370008823D1F00E94050E605A75418F4F9F4F00
:1023800060939302709394028093950290939602C7
:10239000C11108C062E070E08CE092E10E946E1111
:1023A000892B29F0C09197028C2FCF91089581E05D
:1023B00080939702F7CFCF93DF93C091CA04D09157
:1023C000CB048A30C1F42091C102CE018A5C9240D4
:1023D000622F70E00E948E28281B822F66E00E94E8
:1023E000D928C82FC15018F4DF91CF91089580E209
:1023F0000E94DB11F7CF8D30E9F4CA5CD240209106
:10240000C102622F70E0CE010E948E28281B822F0D
:102410009E01280F311D2115324018F080E0D0E0D8
:10242000C0E0C80FD11DC653DD4FD093CB04C0937D
:10243000CA04DACF96E0FE01A2ECB2E001900D9260
:102440009A95E1F7803E08F458C086E0FE011192AB
:102450008A95E9F7C091CA04D091CB0446E050E0D8
:10246000BE0182EC92E00E946B299E012A5C324000
:10247000892B41F1C90145E0969587954A95E1F789
:1024800041E050E0BA0102C0660F771F8A95E2F77B
:10249000CB016091C8027091C902862B972BB901BC
:1024A0006B5F7F4FE5E076956795EA95E1F702C0AF
:1024B000440F551F6A95E2F7842B952B9093C90220
:1024C0008093C8022A5F3F4F4091C102642F70E0A1
:1024D000C9010E948E28481B463010F4240F311D7C
:1024E000211572E0370710F030E020E026533D4F11
:1024F0003093CB042093CA0477CFF6E08F9FB001CE
:1025000011246B507D4E46E050E0CE010E946229BE
:10251000A1CF8091ED019091EC01892B80937801FE
:102520009091EE01992391F0892B8093780120E01E
:102530008AE791E0FC013191CF0131112F5FF1E089
:1025400080389F07B9F721110E942B1048E050E016
:1025500064EE71E088E791E00E946B29892BA9F075
:1025600088E0E8E7F1E0A4EEB1E001900D928A95F1
:10257000E1F7E0919B02F0919C02309731F00280EC
:10258000F381E02D88E791E00995089590E080E0DF
:102590000E94270E90E080E00E94110E1092EC0144
:1025A0000E94891208959093FF018093FE010E947A
:1025B000C612089521E030E002C0220F331F8A9531
:1025C000E2F7209530958091FE019091FF018223E2
:1025D00093230E94D31208959091E301809589235B
:1025E0008093E301282F277091F4282F082E000CE8
:1025F000330B9217130659F09091010292FF07C016
:102600008595859585950E94DA121092E3010895CB
:1026100021E030E002C0220F331F8A95E2F780915B
:10262000FE019091FF01822B932B0E94D3120895FB
:102630009093F0018093EF010E94C61208951092CA
:10264000ED01EAE7F1E086E0DF011D928A95E9F706
:102650000E94C6120895AAE2B0E0E1E3F3E10C940F
:10266000B12886EB92E02091F100FC012193CF018B
:10267000F2E08E3B9F07B9F78091B702833009F4EF
:1026800070C0B8F4813009F447C0823009F4B1C099
:102690008091E80083FF7EC28091B6029091B702DC
:1026A0009A3008F077C2E92FF0E0E25BF34D0C942A
:1026B0003A298A3009F48CC08B3009F46FC0893014
:1026C00039F78091B602813219F78091BA02909160
:1026D000BB020297E8F68091E800877F8093E800CC
:1026E0008091E80082FF38C09091F3008091F20061
:1026F000029731F48091F100813011F0863021F49D
:102700008091F1008093A9028091E8008B778093FB
:10271000E8000E94F60CBCCF8091B602813A09F025
:10272000B7CF8091E800877F8093E8008091BA025C
:102730009091BB02892B61F468E08AEA92E070E034
:102740000E94A20D8091E8008B778093E800A0CFD3
:1027500060E090E080E0F3CF8091B4028111C0CFBF
:1027600097CF8091B602813A09F092CF8091BA0258
:102770009091BB02892B09F08BCF8091E800877F75
:102780008093E8008091E80080FFFCCF80911401E5
:102790008093F1008091E8008E77B9CF8091B602E6
:1027A000813209F075CF8091BA029091BB02892BDA
:1027B00009F06ECF8091E800877F8093E8000E9447
:1027C000F60C8091B802809314010E941F1360CF11
:1027D0008091B602813209F05BCF8091E800877F5B
:1027E0008093E8000E94F60C8091B9028093A802C1
:1027F0004FCF8091B602813A09F04ACF8091E8002C
:10280000877F8093E8008091E80080FFFCCF809173
:10281000A802BECF803899F0823809F0BBC1809100
:10282000BA028F70873008F0B5C18093E9008091BB
:10283000EB0085FB882780F91092E90006C08091A3
:10284000B2029091B302911182609091E800977F5B
:102850009093E8008093F1001092F1008091E800DD
:102860008E7794C1882309F482C1823009F092C125
:102870008091B802811185C18091BA028F702FEFCB
:10288000280F263008F086C18093E9002091EB00E4
:1028900020FF77C1933031F48091EB008062809308
:1028A000EB006FC19091EB0090619093EB0021E001
:1028B00030E001C0220F8A95EAF72093EA001092D7
:1028C000EA008091EB008860EACF811163C110912A
:1028D000B8021F778091E3008078812B8093E3001A
:1028E0008091E800877F8093E8000E94F60C809139
:1028F000E80080FFFCCF8091E30080688093E300D4
:1029000082E0111183E08093B40244C18058823088
:1029100008F040C18091B8029091B9028C3D23E04B
:102920009207A1F583E08A838AE289834FB7F894FE
:10293000DE01139620E03EE051E2E32FF0E05093F9
:102940005700E49120FF03C0E295EF703F5FEF7006
:102950008E2F90E0EA30C0F0C7968D939D932F5F45
:10296000243159F74FBF8091E800877F8093E800BA
:102970006AE270E0CE0101960E94A20D8091E8000B
:102980008B778093E80006C1C096E7CF4091BA02EA
:102990005091BB02292F33272330310509F444C05D
:1029A00078F52130310509F46FC08BE390E0E2E85F
:1029B000F2E12230310509F0EDC02091E800277FD7
:1029C0002093E8002091BC023091BD02821793074A
:1029D00008F49C0140E02115310509F064C0411163
:1029E00062C08091E80082FDC9CF8091B402882343
:1029F00029F2853019F28091E80083FFF2CFBECF33
:102A000021323105A9F12232310509F0C3C0411547
:102A1000510509F443C04130510509F0BBC082E3C0
:102A200090E0E0E1F2E1C9CF992781309105C1F052
:102A3000009759F0029709F0ADC0EFECF2E1E49194
:102A40008E2F90E0EFECF2E107C0E1EFF2E1E491CC
:102A50008E2F90E0E1EFF2E1009709F49BC0ADCF3B
:102A6000EDEDF2E1E4918E2F90E0EDEDF2E1F4CFA7
:102A70004115510571F04130510509F08BC089E0D5
:102A800090E0EDEAF2E199CF82E190E0EDEBF2E146
:102A900094CF89E090E0E4E9F2E18FCF80E490E028
:102AA000E2E4F2E18ACF8091B402882309F466CF90
:102AB000853009F463CF8091E80083FD5FCF80917A
:102AC000E80082FD8ECF8091E80080FF84CF909156
:102AD000F3008091F2002115310519F0883091053D
:102AE00050F041E0089709F040E08091E8008E77CF
:102AF0008093E80070CF44914093F10031962150CB
:102B000031090196E8CF803809F044C08091E8008F
:102B1000877F8093E8008091B5028093F1009ECE7C
:102B2000811138C01091B8021230A0F58091E800F0
:102B3000877F8093E8001093B5020E94F60C112362
:102B400011F084E005C08091E30087FDFACF81E0B9
:102B50008093B40242E061EC81E00E94150D42E2F4
:102B600061EC82E00E94150D8091B40213C0809147
:102B7000B802813079F481E0933009F080E08093ED
:102B8000B3021092E9008091E800877F8093E8000B
:102B90000E94F60C8091E80083FF0AC08091E80053
:102BA000877F8093E8008091EB0080628093EB0048
:102BB000AA96E3E00C94CD28882321F00E943110DE
:102BC0000E9489120895882339F09091ED01982B85
:102BD0009093ED010E9489120895882309F44DC055
:102BE000823879F40E943D0E81FF47C089E30E943C
:102BF00045100E94891289E30E9438100E948912B0
:102C00000895833859F40E943D0E80FF36C083E555
:102C10000E9445100E94891283E5EECF843859F452
:102C20000E943D0E82FF29C087E40E9445100E9449
:102C3000891287E4E1CF9CEF980F913AE8F290E295
:102C4000980F983050F4877091E001C0990F8A95E1
:102C5000EAF7892F0E943110D1CF9BE5980F93306E
:102C600028F490E080E00E94270E0895885A87316A
:102C700020F490E080E00E94110E08958093A40259
:102C80007093A6026093A5028091B402843001F58E
:102C900082E08093E9008FEF9091E800815095FDEC
:102CA00006C095ED9A95F1F700008111F5CF80915E
:102CB000E80085FF0DC050E040E063E070E084EA8A
:102CC00092E00E94CC0C8091E8008E778093E8001F
:102CD0000895BC0184E00E943E160895BC0183E083
:102CE0000E943E160895CF93DF93EC0181E080931C
:102CF000E9008FEF9091E800815095FD06C095EDB9
:102D00009A95F1F700008111F5CF8091E80085FFD9
:102D100014C050E040E068E070E0CE010E94CC0CAE
:102D20008091E8008E778093E80088E0FE01AAEAAF
:102D3000B2E001900D928A95E1F7DF91CF9108956D
:102D4000CF93C82F8823C9F08238C9F40E943D0E62
:102D500081FD13C089E30E9445100E9489122FEF64
:102D600087EE93E0215080409040E1F700C00000E2
:102D700089E30E9438100E948912CF910895833808
:102D8000A1F40E943D0E80FDF8CF83E50E9445101E
:102D90000E9489122FEF81EE94E0215080409040F4
:102DA000E1F700C0000083E5E4CF8438A1F40E947D
:102DB0003D0E82FDE2CF87E40E9445100E948912F9
:102DC0002FEF81EE94E0215080409040E1F700C069
:102DD000000087E4CECF8CEF8C0F813A68F4EAE7ED
:102DE000F1E08191C817A1F121E0E038F207C9F7BD
:102DF0008C2F0E944510BFCF80E28C0F883068F482
:102E0000C77021E030E001C0220FCA95EAF7809137
:102E1000ED01822B8093ED01AECFEBE5EC0FE330BB
:102E200040F4F0E0E15EFE4F808190E00E94270ECA
:102E3000A4CFC85AC73108F0A0CFEC2FF0E0EE0FB6
:102E4000FF1FEE5DFE4F808191810E94110E95CF94
:102E50008C2F0E9438100E948912CACF1F93CF93E3
:102E6000DF93182FEB010E94A016209739F4812FD1
:102E70000E94ED15DF91CF911F9108958FE99FE09A
:102E80000197F1F700C000002197EFCF0E941F13B8
:102E90002FEF84E39CE0215080409040E1F700C098
:102EA000000088E19AE00FB6F894A895809360003E
:102EB0000FBE90936000FFCFCF9384E090E00E941C
:102EC0000A2CC82F82E290E00E940A2C982F8C2FA7
:102ED000CF91089568EE7EEF90E080E00E94362C5E
:102EE00060E082E090E00E94182C60E083E090E0D7
:102EF0000E94182C1092F0011092EF0160E084E023
:102F000090E00E94182C64E082E290E00E94182C6D
:102F100060E085E090E00E94182C60E086E090E0A0
:102F20000E94182C6FEF87E090E00E94182C40E080
:102F300050E0BA0188E090E00E942A2C60E08DE029
:102F400090E00E94182C40E050E0BA0188E190E047
:102F50000E942A2C60E087E190E00E94182C40E05B
:102F600050E0BA018CE190E00E942A2C70E060E011
:102F700080E290E00E94362C40E050E0BA0188E107
:102F800090E00E942A2C40E050E0BA018FE090E0EF
:102F90000E942A2C40E050E0BA0183E190E00E94B8
:102FA0002A2C0895CF93C0910102C2FB992790F972
:102FB000981791F080FBC2F9C09301026091000262
:102FC00084E090E00E94182C6C2F82E290E00E9436
:102FD000182C82E00E94EC12CF9108951F920F925C
:102FE0000FB60F9211242F933F934F935F936F93DC
:102FF0007F938F939F93AF93BF93CF93DF93EF9381
:10300000FF93D091E900DF708091EC00C82FC17070
:1030100080FDC0E81092E9008091F000877F8093E6
:10302000F00078940E942B131092E9008091F00038
:1030300088608093F000CD2BCF70C093E900FF91A2
:10304000EF91DF91CF91BF91AF919F918F917F9140
:103050006F915F914F913F912F910F900FBE0F9005
:103060001F9018951F920F920FB60F9211242F9355
:103070003F934F935F936F937F938F939F93AF9300
:10308000BF93EF93FF938091E10082FF09C080918D
:10309000E20082FF05C08091E1008B7F8093E10018
:1030A0008091DA0080FF24C08091D80080FF20C08A
:1030B0008091DA008E7F8093DA008091D90080FFC2
:1030C0009DC080E189BD82E189BD09B400FEFDCFCC
:1030D00081E08093B4028091A702811109C00E940F
:1030E0007C0C0E94470D8091E20084608093E20096
:1030F0008091E10080FF17C08091E20080FF13C043
:103100008091E2008E7F8093E2008091E2008061F6
:103110008093E2008091D80080628093D80019BC2F
:1031200085E08093B4028091E10084FF2BC0809100
:10313000E20084FF27C080E189BD82E189BD89B5B5
:10314000982F917080FFFBCF8091D8008F7D809366
:10315000D8008091E1008F7E8093E1008091E200B1
:103160008F7E8093E2008091E20081608093E20094
:103170008091B502882309F447C084E08093B402AB
:103180008091B4028091E10083FF27C08091E2002A
:1031900083FF23C08091E100877F8093E10082E07C
:1031A0008093B4021092B5028091E1008E7F8093EB
:1031B000E1008091E2008E7F8093E2008091E20046
:1031C00080618093E20042E060E080E00E94150DA3
:1031D0008091F00088608093F000FF91EF91BF91A3
:1031E000AF919F918F917F916F915F914F913F919F
:1031F0002F910F900FBE0F901F90189519BC109231
:10320000B4021092A70274CF8091E30087FD93E08F
:103210009093B402B5CF78941F921FB61F921124D9
:103220008F939F93AF93BF938091A0029091A1023F
:10323000A091A202B091A3020196A11DB11D80939D
:10324000A0029093A102A093A202B093A302BF9107
:10325000AF919F918F911F901FBE1F9018959C0159
:103260004FB7F8948091A0029091A102A091A20280
:10327000B091A3024FBF821B930B08952FB7F89410
:103280008091A0029091A102A091A202B091A3020C
:103290002FBF08950F931F93CF93DF93C62FD42F83
:1032A000022FFC0182818823A9F06093C0020E9452
:1032B0003E199093BF028093BE02C77081E001C0A7
:1032C000880FCA95EAF70E94E315DF91CF911F910D
:1032D0000F9108958091C002681334C08091BE029E
:1032E0009091BF020E942F19883C910558F510E279
:1032F0001D0FCD17B9F080E28C0F883040F4C770F5
:1033000081E001C0880FCA95EAF70E94DC151830E9
:1033100048F481E09D2F977001C0880F9A95EAF7D5
:103320000E94E31570E060E0802F0E942E17183095
:1033300060F6D77081E001C0880FDA95EAF70E9445
:10334000DC15C3CFC77081E001C0880FCA95EAF7CA
:10335000F6CFA5E0B0E0EFEAF9E10C94A8287C01F3
:10336000FC0183819481892B31F0808191818923B3
:103370008F3F09F0EFC42596ECE00C94C4280E941E
:103380006810182F682F89819A810E94DB1069814B
:103390007A81812F0E948F0E8C01F70122812223D6
:1033A00009F4A7C490568115F0E29F0750F0905E93
:1033B000811530E1930728F0915C81159F4108F059
:1033C00046C0C8019927AC01445051094432510507
:1033D00018F08B970E9780F4E0911F02F0E0EE0F4B
:1033E000FF1FEC5DFD4F808191818F3F3FE7930789
:1033F00019F0019691838083043FFCE51F07A1F13A
:1034000008F020C4093D8CE5180751F10A3D9CE500
:103410001907B1F1083DECE51E0709F01FC426E2CB
:1034200041EE61EEC7010E944A198091E301877065
:1034300009F4A1CFF7018281882309F49CCF809100
:10344000010282FF98CF82E00E94EC1294CF90E0BC
:1034500080E00F3F110511F008F0B5CFC801B3CFE0
:1034600027E245EE65EEDECF26E241EE60EEDACFF2
:1034700027E245EE64EED6CF26E241EE62EED2CFF1
:1034800028E241E0EFCF063AEDE51E0709F4F7C365
:10349000E8F402363DE5130709F4F1C306313CE5D3
:1034A000130709F036C1222309F43DC48091ED01D0
:1034B0008A7A91E009F490E090938201811125C10C
:1034C00089E20E9445100E948912AFCFC8018E5A2E
:1034D0009D45039718F7D3C380910002806207309F
:1034E0002CE51207B9F180910002806108303CE5BB
:1034F000130780F18091000280642CC00D308CE5B0
:10350000180709F4C0C090F4809100028E7F0B3040
:10351000ECE51E07F9F0809100028C600C30FCE5B0
:103520001F07C0F0809100028D7F14C00F302CE582
:10353000120709F4B8C008F4AAC000318CE51807D6
:1035400009F4B5C0809100028F7B01319CE5190719
:1035500009F0BFC380930002BCC30115EDE51E074F
:1035600009F4B3C098F50B3F2CE5120709F479C0B4
:10357000C0F404318CE5180709F4B5C008F4A1C003
:103580000531ECE51E0709F0A4C38091000282FB1F
:10359000992790F921E0922790FB82F990FB83F91B
:1035A000D9CF0D3FFCE51F0709F475C008F45DC0D5
:1035B0000E3F3CE5130709F472C00F3F8CE5180776
:1035C00009F087C38091010283603CC002369DE50B
:1035D000190709F493C090F40230FDE51F0709F4C0
:1035E0008BC008F476C060E003303DE5130709F0B6
:1035F00070C38EE090E00E94182C6BC30E3A8DE5EC
:103600001807E9F060F490910002892F8E7F90FFF7
:103610008160063AEDE51E0709F49CCF5AC30F3AC4
:10362000FDE51F0761F1003B2DE5120709F051C3CD
:1036300090910102892F877F93FF886003C080915A
:10364000010288608093010244C38091000282607D
:1036500081CF8091000284607DCF809100028860DC
:1036600079CF809101028160EDCF8091010282606B
:10367000E9CF0E941F138091000280686BCF809178
:103680000102877FDFCF809100028B7F63CF809123
:103690000002877F5FCF809101028E7FD3CF809120
:1036A00001028D7FCFCF809100028F7E53CF80911A
:1036B00000028F7D4FCF0E941F13809100028F77F1
:1036C00049CF80910002837F45CF809101028C7F9A
:1036D000B9CF80910102982F909591708E7F892BA0
:1036E00090FB81F9AFCF0E941F1390910002892FA8
:1036F00097FB87F980582ECF61E07BCF9091000235
:10370000892F8F7E94FF806125CF85E3DACE85E314
:103710000FC3222381F00B358DE5180709F487C00C
:1037200008F051C00115ECE51E0709F457C00F3D24
:103730001C4509F46FC0F701828100811181882343
:1037400009F479C0C8010E946810D82E682FC801FA
:103750000E94DB10B8018D2D0E948F0E0E94AB0ECF
:103760008C01882EF701D280B580B2943FE0B3225D
:103770008091E3018770C1F0AD2CDD20B1F0812F85
:10378000807F803421F080E2800F883068F0809163
:10379000010282FF09C082E00E94EC128091E301E5
:1037A0008770AA24A3948111A12C912E92942FE0CA
:1037B0009222FBE0F91508F4AAC0E92DF0E0E85ADE
:1037C000F34D0C943A290D352DE5120731F188F1AE
:1037D000083A1D4509F0AFCF0E9446170E941F13FB
:1037E0009FEFE4E3FCE09150E040F040E1F700C0DF
:1037F000000087E797E7909301088093000888E12D
:103800009AE00FB6F894A895809360000FBE90934D
:103810006000FFCF0E946A17DFCF8091010282FB18
:10382000882780F991E089270E94D21784CF81E010
:10383000FBCF80E0F9CFC8010E94A910D82E8ACF13
:10384000212F2F70C22E107F19F0C29490EFC92241
:10385000DD20B9F0CC2069F080E2800F883010F0D4
:10386000811009C08091ED01C82AC092ED010E942B
:103870008912802F4AC08091EC01C82AC092EC01C5
:10388000F6CF802F0E94ED15CC2009F440C0005ED9
:10389000083010F0811004C08C2D0E94311006C039
:1038A000C0948091EC01C822C092EC010E94891260
:1038B0002EC0312F3F70C32E107F103219F0C294EA
:1038C00080EFC822882089F081E0881609F477C04B
:1038D000DD2009F481C0BB2009F477C0F7018581A0
:1038E00080FFC7CF8F70858370C02091010222FDB9
:1038F00043C0DD20D9F1CC2039F08091ED01C82AF8
:10390000C092ED010E94891280E00E94A016E92D6C
:10391000E850FF0B349710F40E943D0EAA20A9F046
:103920008091E30180FD11C0F70112828595859594
:1039300085950E940813C7010E94A9198091E3018F
:103940008595859585950E94DA1285E0F701DE015F
:10395000119601900D928A95E1F709811A81C801AB
:103960000E94A910B8010E948F0E05CD80E00E9430
:10397000ED15CC2061F290CFDD20A1F09091EE0109
:103980008C2D892BB11003C00E94E315C0CFE1E05C
:10399000BE12FACF22FFBBCF981709F4B8CF80939D
:1039A000EE01B5CFB11006C00E942B108C2D0E94E5
:1039B000DC15ADCFF1E0BF1609F4A9CFF5CFDD20BE
:1039C00031F025E02B1508F4A2CF8C2DDDCF34E0AB
:1039D0003B1508F49CCFEACFBB2041F3F9E38F12EB
:1039E0002AC12FEF37EE83E0215030408040E1F7CD
:1039F00000C0000020C1812F86958695837061F0FC
:103A0000813009F084CFC8019370D11002C090E0DA
:103A100080E00E94110E7BCFC8019370D11002C0CC
:103A200090E080E00E94270E72CF812F837009F012
:103A30003FC0D1106CCF402F429546954770440F40
:103A4000440F802F8F7090E0042E02C0880F991FC2
:103A50000A94E2F730E020E004FF09C02FE030E0F4
:103A600002C0220F331F4A95E2F720953095169534
:103A700016951370123099F078F44091EF0150913F
:103A8000F001113039F0822B932B842395230E946F
:103A900018133DCF842B952B822B932BF8CF822BA1
:103AA000932B2091EF013091F00182279327EFCFE4
:103AB0008695DD2011F0812F8170882309F427CFAE
:103AC000402F429546954770440F440F802F8F70CA
:103AD00090E0042E02C0880F991F0A94E2F730E0AC
:103AE00020E004FF09C02FE030E002C0220F331FA6
:103AF0004A95E2F720953095169516951370123079
:103B000099F078F44091FE015091FF01113039F0A5
:103B1000822B932B842395230E94D312F8CE842BDF
:103B2000952B822B932BF8CF822B932B2091FE0188
:103B30003091FF0182279327EFCF1F70DD2029F0FE
:103B4000812F0E940813802F1FCF802F0E94DC1529
:103B5000812F0E94DA12DBCE802F92EF891699F125
:103B6000981570F0E0EF8E16D1F0F1EF8F1691F00E
:103B7000DD2009F45BC0B1107CCE812F8F7127C08E
:103B800023EF821639F134EF8312F2CF80910102D4
:103B900082FD2EC0812F8F71DD20D9F218C0DD206B
:103BA00069F084E08B1508F4B2CE1F7181E090E0DB
:103BB00002C0880F991F1A95E2F7B8CF95E09B15C0
:103BC00008F4A5CEF2CF812F8F71D110C2CF0E9401
:103BD00008139DCE90E080E0DD2009F49DCF1F7199
:103BE00081E090E002C0880F991F1A95E2F794CF08
:103BF000DD2089F01F71812F0E940813809101023E
:103C000082FF07C0E8E01E9FC001112483608093FB
:103C1000E301812FDCCF81E00E94EC12F1E0FB1583
:103C200008F075CE82E00E94EC1271CEBB2039F014
:103C3000893309F4D6CE802F0E94ED1568CE812FEE
:103C40008F7187CF063FFCE51F0709F415CC08F4F8
:103C50000FCC073F8CE5180709F478C01092C0021A
:103C600004308DE5180708F00ECC0B3F9CE51907D2
:103C700030F4C80182509C45449708F00FCC0E9454
:103C80005C17909301028093000202319CE51907B2
:103C900009F411CD08F061CC0930FCE51F0709F4E7
:103CA000E8CC08F02BCC05303CE5130709F4D5CC63
:103CB00008F012CC03309CE5190709F4C6CC08F0D3
:103CC000C8CC8091000281600230FCE51F0709F436
:103CD00041CC609100021091010284E090E00E94CA
:103CE000182C612F82E290E00E94182C0E941F1372
:103CF0009CCB043F9CE5190709F4B6CBE0F4093DE1
:103D0000FCE51F0709F4ACCB0A3D2CE5120709F4CA
:103D1000B7CB083D3CE5130709F481CB06318CE5B0
:103D2000180709F008CD809182018111F0CC89E259
:103D30000E943810C8CB063F8CE5180709F49CCBCD
:103D400008F496CB073FECE51E0741F727E245EE66
:103D500066EE68CB85E0DE01119601900D928A95A2
:103D6000E1F7F701228189819A81211108CB0E9414
:103D7000A910182F0CCB1F93CF93DF938091B00124
:103D8000807F09F049C08091AD01882309F444C0C7
:103D90008091E201D091B1016091AB017091AC01D1
:103DA000A091AE01B091AF01C62FC72316E0D8177E
:103DB00099F190E0109711F0CF3F19F401968770B8
:103DC000F6CF189F9001199F300D1124F901EE5480
:103DD000FE4F41814713F2CF40814613EFCF42811E
:103DE0004111ECCF438154814A1B5B0B483C510588
:103DF00028F78091B0018F7080618093B001F90144
:103E0000E954FE4F80818F70806180838BEA91E05E
:103E10000E94A9190E945E10DF91CF911F91089511
:103E2000A1E1B0E0E6E1FFE10C94AA288C0185E075
:103E3000F801DE011D9601900D928A95E1F7F801D7
:103E4000E2808BEAA82E81E0B82E6091AE017091DD
:103E5000AF016115710509F426C19091AB01409144
:103E6000AC01892F84238F3F09F41DC1208131814A
:103E7000C380D480F090AD01F601E61BF70BFF2064
:103E800009F4DCC08091B001582F507FE83CF10567
:103E900008F09FC051116BC0FE2C431314C0921345
:103EA00012C0E11010C08F7080618093B001C50115
:103EB0000E94A9198091B001F80185838F2D619628
:103EC000EAE00C94C628C114D10429F0822F832380
:103ED0008F3F09F003C180E0F82FF170DF2E80FFE3
:103EE0003CC08091E2014091B10156E0841315C0BD
:103EF0002D873E878D859E850E949C10292F2295B7
:103F00002F702230F0F0243018F59F70F1F0F80196
:103F10009581907FD1F4D12C1EC090E0589FF00184
:103F2000599FF00D1124EE54FE4F6181361306C0E7
:103F30006081261303C06281E6120FC0019687706C
:103F4000D5CF9F7011F0882331F3805E883018F34D
:103F5000C8010E94A919FD2CB1CFEE2009F4AECF03
:103F60008091B00181608093B001F12CA7CF431301
:103F700006C0921304C0F801EE2009F479C0C8010C
:103F80000E941011882309F1EE20F9F08091B00110
:103F9000803270F02091AB013091AC0138872F83D3
:103FA0001986DB86CA868C87CE0107960E94A919DE
:103FB00086E0F801ABEAB1E001900D928A95E1F755
:103FC0000E94BB1EFF24F39479CFC8010E94A91957
:103FD000F9CF51110AC08BEA91E00E94A91986E03D
:103FE000F50111928A95E9F7C0CF43130FC09213E0
:103FF0000DC0E1100BC0F8018583C8010E94A9190A
:1040000086E0F50111928A95E9F758CFC8010E9420
:1040100010118823D1F2EE20C1F28091B0018032DC
:1040200038F22091AB013091AC013A8329831B8295
:10403000DD82CC828E83CE010196B8CFE83CF105BB
:10404000F8F6FE2CEE2009F243131FC092131DC098
:104050008091B00180FD10C0982F907F69F0F80129
:104060008583903F31F0982F907F905F8F70892BE0
:104070008583C8010E94A91986E0F801ABEAB1E086
:1040800001900D928A95E1F719CFC8010E94101195
:1040900081118ECF8091B00181608093B001C80101
:1040A0000E94A9190BCFEE2009F48FCFC8010E94FE
:1040B0001011F82E882309F488CF86E0F801ABEAC6
:1040C000B1E001900D928A95E1F78091AB0190915A
:1040D000AC010E949C100E94BB1EF0CE81E08E2598
:1040E000FBCEA7E1B0E0E7E7F0E20C94B1284B8B00
:1040F0005C8B6D8B7E8B8F8B61111092EC011A8A19
:10410000198A85E0FE017396DE011D9601900D92DD
:104110008A95E1F786E0FE013D96DE011796019053
:104120000D928A95E1F7CE0107960E94101F882311
:1041300059F016E08091E2019091B101891343C0DA
:104140006796E3E00C94CD2886E0FE013796DE0109
:10415000119601900D928A95E1F78A859B85892BAE
:1041600041F38F81988589238F3F19F32091B10105
:1041700030E0C9010196877099274091E201481704
:10418000190671F40E941F131092B1011092E201FE
:1041900086E0EBEAF1E0DF011D928A95E9F7C9CFED
:1041A00096E0929FD001939FB00D1124AE54BE4F64
:1041B000FE01319601900D929A95E1F78093B1013D
:1041C0000E945E10B6CF819FC00111248E549E4F75
:1041D0000E94101F882309F4B3CF8091E20190E080
:1041E0000196877099278093E201A4CFB0E0A0E008
:1041F000ECEFF0E20C94A52890E080E0712CC1E097
:10420000D0E0C12CD12C7601C3943EEF832E31E057
:10421000932EA5E5B1E050E040E02D91E22FE2952C
:10422000EF70F0E02F70BE0102C0660F771F2A9575
:10423000E2F79B01BE01042E02C0660F771F0A94AD
:10424000E2F768237923042E02C0759567950A94D6
:10425000E2F732A1662309F475C0232B22A34F5F36
:104260005F4F44305105C9F67AE17A95F1F700C005
:10427000B701A601082E04C0440F551F661F771F03
:104280000A94D2F75A019A0120953095E4EFF1E0B3
:1042900000E511E0612C41915191D8015D908D01B3
:1042A000A52DA295AF70B0E090966C9170E0A52D11
:1042B000AF7002C075956795AA95E2F7DF01129776
:1042C00060FD43C0BA016A297B2911967C936E93E5
:1042D0006D917C914617570711F0662463948E16F2
:1042E0009F06C9F6762801968031910509F091CF95
:1042F000772079F181E08093F3010E943E19909339
:10430000F2018093F1018091F1019091F2010E94FC
:104310002F19059710F14AE050E064EF71E084E056
:1043200092E00E946B29892BF1F08AE0E4EFF1E042
:10433000A4E0B2E001900D928A95E1F781E010923D
:10434000F3010CC02095232389CFBA016223732384
:10435000BCCF8091F3018111D6CF80E0CDB7DEB71D
:10436000EFE00C94C12880E0EACF1F921FB61F92A5
:1043700011248F939F93AF93BF9380919F028111DC
:1043800013C08091A0029091A102A091A202B091CD
:10439000A3024196A11DB11D8093A0029093A1029A
:1043A000A093A202B093A302BF91AF919F918F916E
:1043B0001F901FBE1F901895CDB7DEB72C970FB674
:1043C000F894DEBF0FBECDBF85B7806885BF85B7C7
:1043D000806885BF84B7877F84BF0FB6F894A8959F
:1043E00080916000886180936000109260000FBE31
:1043F00080E890E00FB6F89480936100909361009C
:104400000FBE8AE49EE090937701809376010E942C
:104410007C0C0E94470D8091E20084608093E20052
:1044200078948091B4028823A1F01091E9001F7064
:104430009091EC00892F817090FD80E8182B1092EC
:10444000E9008091E80083FD0E942B131F701093F8
:10445000E90082E084BD93E095BD9AEF97BD80931B
:104460006E00A5E5B1E029E531E0AD0101E010E025
:10447000FA018191AF01E82FE295EF70F0E091A190
:104480008F70B80101C0660F8A95EAF7892F862BD5
:1044900081A32417350761F761E070E09D91E92F52
:1044A000E295EF70F0E042A19F708B0102C0000F17
:1044B000111F9A95E2F7C8018095842382A32A17D9
:1044C0003B0761F7A0E5B1E045E551E061E070E050
:1044D0008D91E82FE295EF70F0E011A18F709B01B4
:1044E00001C0220F8A95EAF7922F9095912391A30C
:1044F00082A1822B82A34A175B0751F71092F50124
:104500001092F40110920502109204021092F70129
:104510001092F60110920702109206021092F90111
:104520001092F80110920902109208021092FB01F9
:104530001092FA0110920B0210920A021092FD01E1
:104540001092FC0110920D0210920C0290E080E09B
:104550000E94122C883E9E4F11F00E946A1782E042
:1045600090E00E940A2C80930E020E945C179093A8
:1045700001028093000283E090E00E940A2C90E008
:104580000E94181382E08093900280E88093C10219
:104590000E94A2276DE070E08FEF91E10E946E1102
:1045A000892BE9F58091900263E070E081FDEBC01A
:1045B0008CEF91E10E946E11892B89F56DE070E01E
:1045C0008CEE91E10E946E11892B49F50E94050E37
:1045D000605A75418F4F9F4F60939302709394027E
:1045E0008093950290939602EAECF2E080E092E0EC
:1045F000DF018C011D9201501040E1F7F093CB04D4
:10460000E093CA048FEF9FEF9093C9028093C80292
:1046100081E080939802809397021092910282E049
:1046200080935A024BE651E009E6802E01E0902E7D
:104630008DE6E82E81E0F82E84019A0161E070E0B9
:10464000D9018D919D01E82FE295EF70F0E0B1A0C6
:104650008F706B0101C0CC0C8A95EAF79C2D909568
:104660009B2191A382A18C2982A3F80181918F01C2
:10467000E82FE295EF70F0E0B1A08F706B0101C000
:10468000CC0C8A95EAF79C2D90959B2191A382A151
:104690008C2982A3EA16FB0699F68FE891E0019730
:1046A000F1F700C0000010915A026BE572E0FB01C7
:1046B0008E2F861B811708F469C080E091E09093EB
:1046C0009C0280939B028091B40200E112E185304C
:1046D00009F4C1C00E94F620BFE08B2EB2E09B2EF1
:1046E00014E0A12E12E0B12E49E152E0D501F4010F
:1046F000219131918D919D914E175F0709F4B5C0BD
:1047000028173907A9F3712CD5010D911D915D0171
:10471000F401C190D1904F01C016D10659F1C026C5
:10472000D126512CEE24E394F12CC6018E219F2139
:10473000892BB1F05E827F8221E0C8018E219F210A
:10474000892B09F420E028870E943E198160782F88
:104750009A8789874E815F8168858A850E9471204A
:104760005394EE0CFF1CF0E15F12DFCFF40132979F
:1047700011830083739405E07012C6CF0E94050E6A
:10478000EE24E39495C089EF91E114CFDA012D91E5
:10479000AD01822F82958F7090E0DC0190968C9114
:1047A00090E02F7002C0959587952A95E2F7817069
:1047B000D4019D914D01292F22952F7030E0D90110
:1047C00090962C9130E09F7002C0359527959A9570
:1047D000E2F790E020FD92E0892B819369CF8091F0
:1047E000B402843031F10E94981110929F02E8E1E6
:1047F000F0E020E40FB6F894A895E09360000FBEB7
:104800002093600083B7817F846083BF83B781601A
:1048100083BF7894889583B78E7F83BF0FB6F89453
:10482000A89580916000886180936000109260007C
:104830000FBE8091B302882371F00E94F620E4E05D
:10484000F2E081919191892B09F066C38EE092E0AC
:104850008E179F07B1F78091B402853009F4BFCF5E
:104860000E941F130E943D0E35CF2817390709F00B
:104870004ACF0E943E198C0180910202909103025E
:1048800008171907A1F08FEF89838A831B820E9482
:104890003E198160782F9D838C8349815A816B8179
:1048A0008D810E9471201093030200930202E12C7B
:1048B0008090240290902502092C000CAA08BB08C5
:1048C00080910C0190E0E4E2F2E021E030E03296E9
:1048D000821793070CF075C18091200290912102FC
:1048E000A0912202B09123026FB7F8944090A002E9
:1048F0005090A1026090A2027090A3026FBF481A6C
:10490000590A6A0A7B0A10910C0129EC42165104DB
:104910006104710414F180911F0290E0019669E135
:1049200070E00E94E52880931F02880F991FFC0108
:10493000EC5DFD4F11821082812F183108F087E164
:104940008F5F80930C010E94050E6093200270938C
:104950002102809322029093230232E08316910475
:10496000A104B1040CF43AC1A0E6BAEEA501940189
:104970000E9440294B015C0188EC189F9001112492
:10498000032E000C440B550B240D351D461D571DE1
:10499000A5E0B0E00E9440299B01AC01C501B40133
:1049A0000E94F92829013A0191EF49165104610446
:1049B00071042CF070EF472E512C612C712C8091DA
:1049C0001B0290911C02A0911D02B0911E022FB7F4
:1049D000F8948090A0029090A102A090A202B090C2
:1049E000A3022FBF881A990AAA0ABB0AA5E68A164B
:1049F0009104A104B10484F00E94050E60931B028F
:104A000070931C0280931D0290931E028091650298
:104A100080931A024092190210911A02A091190271
:104A2000A11BBB0BA50194010E944B2924E630E099
:104A300040E050E00E941B29120F10936502912C58
:104A4000F12C64E0A62EB12C80915A02981608F43D
:104A5000C9C0F1100E94050E80919802882309F4C4
:104A60009FC08AEC92E09093CB048093CA0480911B
:104A70006502882309F436C10E94B3114091610296
:104A80005091620260916302709164022FB7F894B2
:104A90008091A0029091A102A091A202B091A302E4
:104AA0002FBF841B950BA60BB70B893C9105A10565
:104AB000B10560F00E94050E60936102709362027E
:104AC00080936302909364020E943A110E94050E43
:104AD00060935D0270935E0280935F029093600228
:104AE0008091C10204E0809FC0011124811512E071
:104AF000910714F090E080E086539D4F9093CB0493
:104B00008093CA04809165021F928F9385E191E0A2
:104B10009F938F9306E612E01F930F930E947829CC
:104B2000D8010D900020E9F78D01015011090F9077
:104B30000F900F900F900F900F9056E6C52E52E0F9
:104B4000D52EC016D10608F416C18091980288238C
:104B500071F02091C8023091C9022115310539F058
:104B60008091910261E070E0882309F40BC180918B
:104B700097028823A9F00E94050E009193021091DC
:104B800094022091950230919602601B710B820B6A
:104B9000930B6F3F7F4F8F4F9F4710F40E949811E8
:104BA000E11001C0F1100E94B3110E943D0E9091DE
:104BB0009202891709F487CD809392020E94050E14
:104BC00082CD40815181052E000C660B770B840E3F
:104BD000951EA61EB71E2F5F3F4F79CE412C512C3C
:104BE0003201EDCE092D10E0F801E559FE4F80812C
:104BF000E82FE295EF70F0E0E0A1F0E08F7002C0E6
:104C0000F595E7958A95E2F7E170D801A759BE4F6F
:104C10002C91A22FA295AF70B0E090968C9190E06D
:104C20002F7002C0959587952A95E2F780FD58C0B0
:104C300080E08E2BD801A55ABD4FEC919E2F93702A
:104C4000891709F44BC0EE0FEE0FE82BEC93EF70D1
:104C5000F0E0E75AFE4F9801285A3D4F69018081E4
:104C6000D9019C91890F8C9320E08430A4F0F80145
:104C7000EA5AFD4F80818F5F808370E060E08BEAAD
:104C8000992031F0B1E09B1205C06AE070E089EA3A
:104C90000E942E1721E0F60180818D3FA4F4F801D7
:104CA000EA5AFD4F80818150808370E060E08CEA99
:104CB000992031F0F1E09F1205C06AE070E08AEAC5
:104CC0000E942E1721E0D6018C91082E000C990B22
:104CD000B5010E94E528F6018083F22A9394B4CEB0
:104CE00082E0A7CF40915D0250915E0260915F0229
:104CF000709160022FB7F8948091A0029091A10268
:104D0000A091A202B091A3022FBF841B950BA60B0A
:104D1000B70B813C9742A940B10518F00E94981149
:104D2000DFCE409161025091620260916302709106
:104D300064022FB7F8948091A0029091A102A091F3
:104D4000A202B091A3022FBF841B950BA60BB70B39
:104D5000893C9105A105B10508F4C2CE0E94050E5B
:104D60006093610270936202809363029093640285
:104D70000E943A11B5CEF60181916F010E94DB11BC
:104D8000E0CE8F5F082F10E02B01082E02C0440CEC
:104D9000551C0A94E2F7A90144215521452B89F3BA
:104DA0009091900290FD44C08295880F8076809308
:104DB0000F01980136952795369527952093120176
:104DC000815E809310011092130124E630E047E0E9
:104DD00050E06DE071E088E70E944228892B09F0DD
:104DE000C6CEA80195E0440F551F9A95E1F7809132
:104DF000900280FD2BC046535D4F04E610E020E298
:104E000030E060E488E70E946328892B09F0AFCE88
:104E10000E94B311C201809590954090C8025090B5
:104E2000C902482259225092C9024092C8029FCE1C
:104E3000880F880F880F80930F0110921201895FED
:104E40008093100183E080931301BFCFE0E7F2E08D
:104E500080E2DF011D928A95E9F7E1E7F1E0FC8746
:104E6000EB870DE611E087E0A82E99249394AB859B
:104E7000BC852D91BC87AB87F80121908F01240E52
:104E8000352E311CC10186539D4F1C01E22FF0E0ED
:104E9000E059FD4F30E020E07A2C721AB92C022E36
:104EA00001C0BB0C0A94EAF7610190E0D6018D9134
:104EB0006D018B21672D691B6770862E062E000CF5
:104EC000770BB82F01C0BB0F8A94EAF78B2E719530
:104ED000619571096770772701C086956A95EAF731
:104EE000882A8081882A80829F5F9830F9F62F5F18
:104EF0003F4F31962830310579F6E5E7F1E02B8513
:104F00003C85E217F30709F0B2CF04E610E020E297
:104F100030E040E752E075CF09BD19BD09B400FE8D
:104F2000FDCF8091D8008F7D8093D8008091E000E4
:104F300082608093E0008091E00081FDFCCF0E94C0
:104F40001F1389CC1092B9008CE08093B8000895AB
:104F5000B0E0A0E0EEEAF7E20C94A928B82EEB014D
:104F60000E943E196C01EE24E394F12CC431D1056A
:104F700060F025E0E22EF12CCF3FDC0731F0CE01CE
:104F800064E170E00E948E287B0184EAA82E94E8F8
:104F9000992E1092BC00A092BC000E943E198C0178
:104FA0008091BC0087FF0DC08091B900887F883058
:104FB000F9F08091B900887F8031D1F00FEF1FEFB9
:104FC00008C0C8010E942F19E816F90648F70EEF2D
:104FD0001FEFCF3FDC07E9F2C6010E942F19C81767
:104FE000D907B8F6C801CDB7DEB7EBE00C94C528F9
:104FF000B092BB009092BC000E943E198C0180913F
:10500000BC0087FF0AC08091B900887F883111F009
:105010008034A1F610E000E0E5CFC8010E942F190E
:10502000E816F90660F7D3CF0F931F93CF93DF9362
:10503000EB018093BB0084E88093BC000E943E1982
:105040008C018091BC0087FF11C02091B900287F9E
:1050500081E090E0283211F490E080E09195819514
:105060009109DF91CF911F910F910895CF3FDC07F8
:1050700041F3C8010E942F19C817D90710F78EEF06
:105080009FEFEFCFB0E0A0E0E8E4F8E20C94AC28AA
:105090006B018A017901B9010E94A827E6010C0D74
:1050A0001D1DC017D10711F097FF08C024E92093F8
:1050B000BC00CDB7DEB7E8E00C94C828B7018991F1
:1050C0000E941428EECFB0E0A0E0E9E6F8E20C94EC
:1050D000AC28C62F6A017901B8010E94A82797FD64
:1050E0000CC0B8018C2F0E941428E601EC0CFD1CAA
:1050F000CE15DF0511F097FF08C024E92093BC000E
:10510000CDB7DEB7E8E00C94C828B80189910E94B9
:105110001428EECF84E98093BC000895AA1BBB1B22
:1051200051E107C0AA1FBB1FA617B70710F0A61BA7
:10513000B70B881F991F5A95A9F780959095BC01C8
:10514000CD0108952F923F924F925F926F927F927E
:105150008F929F92AF92BF92CF92DF92EF92FF9287
:105160000F931F93CF93DF93CDB7DEB7CA1BDB0B33
:105170000FB6F894DEBF0FBECDBF09942A883988D8
:1051800048885F846E847D848C849B84AA84B984DF
:10519000C884DF80EE80FD800C811B81AA81B981EB
:1051A000CE0FD11D0FB6F894DEBF0FBECDBFED01FF
:1051B0000895991B79E004C0991F961708F0961B73
:1051C000881F7A95C9F78095089597FB072E16F4E6
:1051D000009407D077FD09D00E948E2807FC05D0E7
:1051E0003EF4909581959F4F0895709561957F4FFE
:1051F0000895A1E21A2EAA1BBB1BFD010DC0AA1F18
:10520000BB1FEE1FFF1FA217B307E407F50720F02F
:10521000A21BB30BE40BF50B661F771F881F991FAA
:105220001A9469F760957095809590959B01AC01F3
:10523000BD01CF010895052E97FB1EF400940E9436
:10524000322957FD07D00E94F92807FC03D04EF4FD
:105250000C94322950954095309521953F4F4F4FF2
:105260005F4F089590958095709561957F4F8F4F12
:105270009F4F0895EE0FFF1F0590F491E02D0994C4
:105280000E945329A59F900DB49F900DA49F800D5F
:10529000911D11240895B7FF0C9440290E944029C4
:1052A000821B930B0895A29FB001B39FC001A39FDF
:1052B000700D811D1124911DB29F700D811D11244F
:1052C000911D0895FB01DC0102C005900D92415033
:1052D0005040D8F70895FB01DC0104C08D91019086
:1052E000801921F441505040C8F7881B990B08954C
:1052F000AEE0B0E0EEE7F9E20C94B0280D891E892B
:1053000086E08C831A8309838FEF9FE79E838D83CA
:10531000AE01475E5F4F6F89788DCE0101960E9486
:105320009B292F813885020F131FF80110822E96BA
:10533000E4E00C94CC28ABE0B0E0E1EAF9E20C94B4
:10534000A2287C013B018A01FC011782168283811D
:1053500081FFB9C19AE0292ECE0101965C01F701C7
:105360009381F30193FD859193FF81913F01882300
:1053700009F446C1853239F493FD859193FF8191FB
:105380003F01853229F4B70190E00E947C2BE7CFE2
:10539000912C412C512CFFE1F51538F08B3209F19D
:1053A00088F4803201F1833221F157FC3AC020EDBC
:1053B000280F2A3040F556FE1FC0929C200D112464
:1053C000922E06C08D3291F0803379F7689450F8B0
:1053D000F30193FD859193FF81913F018111DBCF13
:1053E00020C0689451F8689452F8F2CF689453F84A
:1053F000EFCF689454F8ECCF429C200D1124422E3C
:10540000689455F8E5CF8E3229F456FCF9C06894BB
:1054100056F8DECF8C3619F4689457F8D9CF883611
:10542000B9F2982F9F7D95549330C0F08336A1F147
:105430008337C1F1833509F05BC0F801C190D19089
:105440008F01692D70E056FC02C06FEF7FEFC6013F
:105450000E94662B4C01689457F80AC00C5F1F4FDE
:105460002FE3298388248394912C6501E89457F8CD
:1054700053FC04C04814190409F018F5342C8114A5
:10548000910431F5332009F46ACFB70180E290E04E
:105490000E947C2B3A94F6CFF801808189830E5FBD
:1054A0001F4FE0CFF801C190D1908F01692D70E0BE
:1054B00056FC02C06FEF7FEFC6010E94712B4C01BA
:1054C000D5CFB70180E290E00E947C2B4A94D2CFE6
:1054D000F60157FC859157FE81916F01B70190E06D
:1054E0000E947C2B31103A94F1E08F1A9108C7CFBB
:1054F000843619F0893609F074C0F80157FE6AC085
:1055000061917191819191918F01252D2F76D22EEC
:1055100097FF09C090958095709561957F4F8F4F4B
:105520009F4F6894D7F82AE030E0A5010E94AC2B89
:10553000C82ECA188C2C5D2CD6FE0CC0E89450F8EE
:10554000C91440F4D4FE05C0D2FC03C0FD2DFE7E7C
:105550005F2E892C54FE8FC0FE01EC0DF11D808161
:10556000803309F081C0252D297E522E852D88702B
:10557000382E53FC8FC050FE89C09C2C841418F424
:105580004C0C942C981854FE8BC0B70180E390E02B
:105590000E947C2B52FE09C088E790E051FE02C0B9
:1055A00088E590E0B7010E947C2BC91408F484C000
:1055B000CA94D12C9FEFC91AD90ACA0CDB1CF60178
:1055C00082916F01B70190E00E947C2BAC14BD0466
:1055D000B1F758CF61917191072E000C880B990B90
:1055E00093CFD52CE894D4F82AE030E0853739F110
:1055F000952D997FD92E8F3601F148F48835A9F081
:10560000F701868197812B96E2E10C94BE288037C2
:1056100049F08837A9F7D4FE02C06894D2F820E197
:1056200030E00DC06894D4F8F6CF54FE03C0E92FE3
:10563000E660DE2E20E132E002C028E030E0F80132
:10564000D7FE0DC061917191819191918F01A5015A
:105650000E94AC2BC82ECA18E894D7F86BCF619182
:10566000719190E080E0F2CF52FC02C083947ECF33
:10567000839483947BCF852D867809F477CFF6CFFA
:10568000B70180E290E00E947C2B83948414C0F3E5
:10569000312C79CF342C3818841408F474CFF8CF17
:1056A000852D867809F481CF8BE251FE80E257FC8C
:1056B0008DE2B70190E077CFB70180E390E00E94E0
:1056C0007C2B9A9472CF8FEF9FEF9DCFFC010590BA
:1056D000615070400110D8F7809590958E0F9F1FF4
:1056E0000895FC016150704001900110D8F7809539
:1056F00090958E0F9F1F08950F931F93CF93DF9365
:10570000182F092FEB018B8181FD09C01FEF0FEFCF
:10571000812F902FDF91CF911F910F91089582FFDC
:1057200014C02E813F818C819D81281739073CF45C
:10573000E881F981CF0101969983888310838E8156
:105740009F8101969F838E83E3CFE885F985812F22
:105750000995892BA1F3DACFFA01AA27283051F154
:10576000203181F1E8946F936E7F6E5F7F4F8F4F92
:105770009F4FAF4FB1E03ED0B4E03CD0670F781FF1
:10578000891F9A1FA11D680F791F8A1F911DA11DD6
:105790006A0F711D811D911DA11D20D009F468940F
:1057A0003F912AE0269F11243019305D3193DEF6B7
:1057B000CF010895462F4770405D4193B3E00FD06D
:1057C000C9F7F6CF462F4F70405D4A3318F0495D58
:1057D00031FD4052419302D0A9F7EACFB4E0A6953B
:1057E0009795879577956795BA95C9F7009761055D
:1057F000710508959B01AC010A2E069457954795B3
:1058000037952795BA95C9F7620F731F841F951FA7
:10581000A01D0895F999FECF92BD81BDF89A9927F0
:1058200080B50895A8E1B0E042E050E00C943E2C31
:10583000262FF999FECF92BD81BDF89A019700B449
:10584000021639F01FBA20BD0FB6F894FA9AF99AE9
:105850000FBE08950396272F0E94192C0E94182C22
:10586000252F0E94192C242F0C94192C0196272FD8
:105870000E94192C0C94182CDC01CB01FC01F99925
:10588000FECF06C0F2BDE1BDF89A319600B40D928C
:1058900041505040B8F70895F894FFCF0A143214DD
:1058A000CA153214CA1565148614CA1583159015C5
:1058B000201C201C591C591CFB1C871C871C871C86
:0858C000151D9D1DAC1DAC1D62
:1058C800020E7316010E6E166916000E01002100F5
:1058D8007F2200030157504D3A2025303364008160
:1058E8008283E200E900EA00B500B600B700CD0007
:1058F8008301CC008A01920194012102230224022F
:105908002502260227022A02B300B4006F007000A5
:1059180036323331F797C6343500FF0100010000F5
:10592800FFFF0000010001FF0066F594F400081075
:0659380018181008000021
:00000001FF
