:100000000C94C8050C94E5050C94E5050C94E505E5
:100010000C94E5050C94E5050C94E5050C94E505B8
:100020000C94E5050C94E5050C945A100C944317B8
:100030000C94A7210C94E5050C94E5050C94E505BA
:100040000C94E5050C94E5050C94E5050C94E50588
:100050000C94E5050C9433110C94E5050C94E5051E
:100060000C94E5050C94E5050C94E5050C94E50568
:100070000C94E5050C94E5050C94E5050C94E50558
:100080000C94E5050C94E5050C94E5050C94E50548
:100090000C94E5050C94E5050C94E5050C94E50538
:1000A0000C94E5050C94E5050C94E5050501098023
:1000B000A101850319012AB700150126B700950192
:1000C00075108100C0050C0901A101850419012AE0
:1000D000A002150126A002950175108100C00660DE
:1000E000FF0961A1010962150026FF00952075082E
:1000F00081020963150026FF00952075089102C052
:1001000005010906A101050719E029E715002501E8
:10011000950875018102950175088101050719008F
:1001200029FF150026FF00950675088100050819AE
:10013000012905950575019102950175039101C08D
:1001400000DA0281FFD9F1DB20A4A62EAF00A0C007
:10015000D30000A1C8D30000AED580A81F408D14E5
:100160002000FD377A585A000004E6D6B446020053
:10017000210116000000742FE5A3E0066301F55D80
:10018000003D8889C65436C3174FE4F55C267DB31D
:1001900080F3B5C66371860F1B80DDAB03511C294C
:1001A0009A66DF75DCD66C18E389AD388BD093C4C2
:1001B00020493538BA06A9FDD35E392E5D9E0973F4
:1001C000AE08EDFCD5214987AB94A9768F6B49B376
:1001D00057AA9E5706559105D54FB243C5936BCB91
:1001E00096F6DF062629D54CD6CAFE4C7B8278824D
:1001F000A9A9034B9910B8547BC64CB1D5AF7586ED
:100200006369E9601B02F58D1D31C902905A5E6F6A
:10021000DFF0CC714951A18D89FBD45F034EBBD96E
:10022000D056E9713D8819A9D0333B8A4FF8052A89
:100230008C6B87B6A991DE2B5DB7DA468AB1B0B276
:100240004271BB122D24CA4E4654ECAE031B249BB4
:100250001E31C2C45AC0CD67C1A295C6422BC2B2DC
:10026000A095064C01BECB2E9440999FDDA11FDBCB
:100270000EBF564467C88B448AF64C3CA30F845B80
:1002800039080C4B03EDCE74AB711FEDDD0EB1DB05
:1002900068C01D4A9A05D979987C5B9494E0FA1855
:1002A0000B8F561F8A910849C480C42AA6A4A9DED0
:1002B00051CBB6A39B0CD30B9DAF037C1DF04644E2
:1002C0000EBF91B9003508D150429A312368BF431F
:1002D00068C9E1E7DC2D311F3228602717EC1B537A
:1002E0002B4D2744A24563A098E55AF781727C8183
:1002F000B81C3E5AF524A7C7C2E1EC4887FE1E9FF2
:10030000603126088403025371B145DC3E62EBFF85
:10031000635D9796CCB84D2B5044528350BF907379
:1003200015E8A0E31C0A270EAFE234D0CB2AF12A4D
:10033000CAE729D5C11B898F0299EB32F882282A96
:10034000E9A0662B7A2AAA3934DC00D39CAD9663E7
:10035000031426000B76E680557CA98D4F4537F8AF
:10036000631FFC3D717B5463593C571C8362988525
:10037000FE1C1072D200000000004F1F4736CAA9B1
:1003800042E800019104E40C0000F098E8B0B1C428
:1003900067FB020000000004595A00AF00AE2900BC
:1003A0001E001F0020002100220023002400250041
:1003B000260027002D002E0000002A004A002B00F6
:1003C00014001A000800150017001C0018000C008B
:1003D000120013002F00300031004D00AE00390034
:1003E00004001600070009000A000B000D000E00B3
:1003F0000F0033003400000028004B00A800352215
:1004000000001D001B00060019000500110010006F
:10041000360037003800E50052004E000000E000D2
:10042000E300E2000000000000002C0000000000DB
:100430000000E6002152500051004F000000010072
:100440003A003B003C003D003E003F0040004100C0
:10045000420043004400450000004C004A000100F7
:100460000100010001000100010001000100010084
:100470000100010001000100010001000100010074
:100480000100010001000100010001000100010064
:10049000010001000100000001000100A8000100AE
:1004A0000000010001000100010001000100010045
:1004B0000100010001000100520001000000E00005
:1004C000E300E2000000000000002C00000000003B
:1004D0000000E600E400500051004F000000AB00B7
:1004E000AC00A900AA00AB00AC00A900AA00090258
:1004F0005B00030100A0FA090400000103010100F0
:1005000009211101000122400007058103080001B3
:100510000904010002030000000921110100012269
:1005200022000705820320000107050303200001C4
:100530000904020001030000000921110100012249
:1005400032000705840320000112010002000000B0
:1005500008868056560001010203011C03760069DB
:100560000061006C003A006600360034006300321F
:100570000062003300630000000C036C0061006740
:10058000006F006D00000012035300540048004C3F
:10059000004D0020006B006200000004030904000D
:1005A000000000000000000000000000000000004B
:1005B000000000000000000000000000000000003B
:1005C0000000007E0F00D4FFFFFFC700000078008E
:1005D000000000000000002A2B280000000000009E
:1005E0000000000000000000000029000000002CB6
:1005F0001E3420212224342627252E362D37382755
:100600001E1F202122232425263333362E37381F60
:100610000405060708090A0B0C0D0E0F1011121322
:100620001415161718191A1B1C1D2F3130232D35C0
:100630000405060708090A0B0C0D0E0F1011121302
:100640001415161718191A1B1C1D2F3130354C079D
:10065000087F0807003E5B4F5B3E003E6B4F6B3EE2
:10066000001C3E7C3E1C00183C7E3C18001C577D44
:10067000571C001C5E7F5E1C0000183C180000FF29
:10068000E7C3E7FF00001824180000FFE7DBE7FFDF
:100690000030483A060E00262979292600407F05B9
:1006A000050700407F05253F005A3CE73C5A007F84
:1006B0003E1C1C0800081C1C3E7F0014227F2214D4
:1006C000005F5F005F5F0006097F017F00006689B1
:1006D000956A0060606060600094A2FFA2940008C8
:1006E000047E04080010207E20100008082A1C0840
:1006F00000081C2A0808001E10101010000C1E0C08
:100700001E0C0030383E383000060E3E0E0600004B
:10071000000000000000005F00000000070007006C
:1007200000147F147F1400242A7F2A120023130848
:10073000646200364956205000000807030000009C
:100740001C224100000041221C00002A1C7F1C2AA0
:100750000008083E08080000807030000008080803
:100760000808000000606000002010080402003E3D
:100770005149453E0000427F4000007249494946C8
:10078000002141494D33001814127F1000274545C0
:100790004539003C4A4949310041211109070036D9
:1007A0004949493600464949291E00000014000005
:1007B000000040340000000008142241001414140A
:1007C0001414000041221408000201590906003ED9
:1007D000415D594E007C1211127C007F4949493617
:1007E000003E41414122007F4141413E007F494955
:1007F0004941007F09090901003E41415173007FD1
:100800000808087F0000417F4100002040413F016F
:10081000007F08142241007F40404040007F021CBE
:10082000027F007F0408107F003E4141413E007F6F
:1008300009090906003E4151215E007F0919294638
:100840000026494949320003017F0103003F40402F
:10085000403F001F2040201F003F4038403F0063C2
:1008600014081463000304780403006159494D43DC
:1008700000007F4141410002040810200000414176
:10088000417F00040201020400404040404000005B
:1008900003070800002054547840007F284444385F
:1008A00000384444442800384444287F00385454D5
:1008B00054180000087E09020018A4A49C78007F48
:1008C000080404780000447D4000002040403D00C2
:1008D000007F102844000000417F4000007C047825
:1008E0000478007C0804047800384444443800FC50
:1008F000182424180018242418FC007C0804040878
:100900000048545454240004043F4424003C404014
:10091000207C001C2040201C003C4030403C004417
:1009200028102844004C9090907C004464544C441F
:10093000000008364100000000770000000041364A
:100940000800000201020402003C2623263C0000AD
:100950000000000000404040F0F8F8FF38FFF8F8D1
:100960003FF8F8FF38FFF8F8F04040400000000082
:10097000000080C0C0C0800000C0C08000000080B7
:10098000C0C000C0C0000080C0C00000000000C0A7
:10099000C0C0C0C000C0C0000000000000000000D7
:1009A0000000000000000000000000000000000047
:1009B0000000000000000000000000000000000037
:1009C0000000000000000000000000000000C0F077
:1009D000F8FC3E1E06010000007F4141417F007F80
:1009E0004141417F000080C0E07E5B4F5BFEC00064
:1009F00000C000DCD7DEDEDED7DC00C00000000077
:100A000000000000000000000000000000000000E6
:100A10000000000000494949FFFFFFFFE0DFBFBFC2
:100A200000BFBFDFE0FFFFFFFF49494900000000B2
:100A3000001F3F6060E0BF1F007F7F071E381E075A
:100A40007F7F007F7F0E1F3B716000000000007FF2
:100A50007F0C0C0C007E7E007F7E0303007F7E03F4
:100A6000037E7E03037F7E000F3E703C063C703E9B
:100A70000F00327B49493F7E007F7E0303001E3F0B
:100A800069696F2600000000000000000000030FED
:100A90001F3F3C7870600000007F4141417F007F34
:100AA0004141417F00307B7F7830202030787F3B90
:100AB0000003000F7F0F0F0F7F0F000300000000E7
:100AC0000000000000000000000000000000000026
:100AD0000000000000010101070F0F7F0F7F0F0FC3
:100AE0007E0F0F7F0F7F0F0F070101010000000035
:100AF00000000000000001010000000000000000F4
:100B000000000000000000000000000000000000E5
:100B100000000000000000000000000000000000D5
:100B200000000000000000000000000000000000C5
:100B300000000000000000000000000000000000B5
:100B400000000000000000000000000000000000A5
:100B50000000000000000000000000000000000095
:100B60000000000000000000000000000000000085
:100B70000000000000000000000000000000000075
:100B80000000000000000000000000000000000065
:100B900011241FBECFEFDAE0DEBFCDBF11E0A0E031
:100BA000B1E0E2EBF8E502C005900D92AC38B10778
:100BB000D9F725E0ACE8B1E001C01D92A737B20734
:100BC000E1F70E94CE210C940A2C0C940000482FCF
:100BD0002091680390912F0357E0291302C080E011
:100BE000089530E0529FF001539FF00D1124E05D15
:100BF000FC4F8181681306C08081481303C0858142
:100C00008111EECF2F5F3F4F2770E7CFE8EDF0E087
:100C100080818E7F80831092E2001092DA00109221
:100C2000E100A0EEB0E08C9181608C9380818F77A1
:100C3000808319BCA7EDB0E08C918E7F8C9380816E
:100C40008F7E80831092180308952091E4003091E4
:100C5000E50095E6A9012091EC00822F817020FF2C
:100C600006C08091E80080FF06C080E008952091D2
:100C7000E80022FD1AC080912503882389F0853081
:100C800089F08091EB0085FD0FC02091E400309148
:100C9000E50042175307F9F29150E1F684E0089518
:100CA00082E0089583E0089581E00895809127030C
:100CB00087FF13C08091E80082FF06C08091E800A2
:100CC0008B778093E80004C0809125038111F2CFD7
:100CD0000895809125038823D9F38091E80080FF4F
:100CE000F8CF8091E8008E77ECCF982F9093E900B1
:100CF000242F762F50E0891731F07091EC0020916D
:100D0000ED005091F00021FD07C09F5F973071F713
:100D10008093E90081E008953091EB003E7F3093AD
:100D2000EB003091ED003D7F3093ED003091EB0012
:100D300031603093EB007093EC002093ED00509302
:100D4000F0002091EE0027FDE0CF80E00895B0E0B4
:100D5000A0E0EDEAF6E00C94DE2AC8EDD0E0888150
:100D60008F7E8883E7EDF0E080818160808384E07E
:100D700082BF81E08093180388818E7F888302EE92
:100D800010E0F80110821092DA0081EEC82ED12C0A
:100D9000F601108288818F778883888180688883B4
:100DA00088818F7D888319BC1092250310922603B9
:100DB000109224031092230390EEE92EF12CF701F8
:100DC00080818B7F808388818160888342E060E0BE
:100DD00080E00E947506F60180818E7F8083F80195
:100DE000808181608083808188608083F701808139
:100DF0008E7F8083888180618883CDB7DEB7E8E00D
:100E00000C94FA2AFC0180912D0390912E038617F1
:100E10009707A0F06115710529F49091E8009E777D
:100E20009093E80090E06115710551F4911108C0AC
:100E30008091E80082FF34C080E00895BC01F2CFC9
:100E4000809125038823C1F18530C1F18091E800AC
:100E500083FD30C08091E80082FDEACF8091E800F8
:100E600080FFE1CF8091F3002091F200382F6115CF
:100E7000710519F02830310558F091E0283031051E
:100E800009F090E02091E8002E772093E800CBCF86
:100E900081918093F100615071092F5F3F4FE7CF3F
:100EA00080912503882341F0853041F08091E8004E
:100EB00083FFBECF81E0089582E0089583E0089526
:100EC000089580911A03089587E797E790930108A2
:100ED0008093000888E19AE00FB6F894A895809373
:100EE00060000FBE90936000FFCF2FB7F894609121
:100EF00014037091150380911603909117032FBF6F
:100F000008959C01FC0132969FEF80E041914617C5
:100F100051F09F3F19F4411101C0982F8F5F863027
:100F2000A9F79F3F09F40895290F311D97FD3A95C0
:100F3000F90162830895A3E0B0E0E1EAF7E00C94E0
:100F4000E42A209111033091120328173907A1F0E8
:100F50009093120380931103E0910F03F09110031B
:100F6000309751F024E029839B838A830680F781A0
:100F7000E02DCE01019609952396E2E00C94002B1A
:100F8000A3E0B0E0E6ECF7E00C94E42A20910D0336
:100F900030910E0328173907A1F090930E03809328
:100FA0000D03E0910F03F0911003309751F023E00F
:100FB00029839B838A830680F781E02DCE010196E9
:100FC00009952396E2E00C94002BE0910F03F09139
:100FD0001003309729F00190F081E02D09950895D4
:100FE00080E0089530916C038317A0F590E0262FE0
:100FF000269526952695239F800D911D11248115F8
:1010000022E092073CF5FC01E159FC4F50816770EA
:1010100021E030E001C0220F6A95EAF74423D9F0BD
:10102000252B2517B9F0208325E0969587952A95DD
:10103000E1F721E030E002C0220F331F8A95E2F78A
:1010400080916D0390916E03822B932B90936E038E
:1010500080936D03089520952523E3CF80E00895C4
:101060009091760292FF06C0282F28712830F9F45B
:10107000877F846093FF06C0282F28712831F1F400
:10108000877E84612091770220FF06C0382F387157
:101090003830D9F4877F816021FF06C0282F28715E
:1010A0002831D1F4877E816194FD877E0895282FB1
:1010B00024712430F9F68B7F8860DCCF282F2471CF
:1010C000243101F78B7E8861DDCF382F31713130CB
:1010D00019F78E7F8860E0CF282F2171213121F709
:1010E0008E7E8861E1CF82389105B9F1B0F4813309
:1010F000910509F47DC048F48932910509F46DC069
:101100008A32910509F47BC008958533910509F46D
:101110005FC08933910509F10895833E9105D9F1A6
:1011200038F4803E910529F1823E910579F10895C8
:10113000863E9105D9F1873E910509F43EC0843E73
:10114000910541F52091770221FF24C0809176021C
:1011500084FD19C087EE90E00895209176022370F7
:1011600009F05AC02091770223FF14C089E290E071
:1011700008952091760220FD38C03091770230FF2B
:1011800009C024FF43C090E080E0089520917602DA
:1011900022FDF7CF08952091760222FD3AC03091CA
:1011A000770230FD39C024FFF5CFEDCF20917602D4
:1011B00023FFF0CF24FDE7CFCDCF2091760223FD92
:1011C0002EC03091770231FFEECF84EE90E008958B
:1011D0002091760225FFDECFC9CF2091760225FD32
:1011E00021C02091770223FFD5CF89E390E0D2CFB1
:1011F0002091760226FFCECF8AE290E008952091DA
:10120000760226FFC7CF81E390E0089583EE90E059
:10121000089582EE90E0089580EE90E0089586EEC5
:1012200090E0089585E390E008951F93CF93DF93B6
:101230000E947308EC01C11580E5D807F0F5C115CF
:1012400080E4D80708F09CC0C03ED10520F5CD3C15
:10125000D10508F082C0C83AD10578F4C53AD10565
:1012600008F073C0C130D10519F1209709F1C430DD
:10127000D105F0F4D0E0C0E01BC0C33CD105D0F7ED
:10128000C85AD0E0CC0FDD1FCF5DDE4F0990D8816A
:10129000C02DD4640DC0C11580E2D80708F0D1C0BC
:1012A000C11581E0D80708F05AC0C83ED10510F733
:1012B000CE01DF91CF911F910895C03682E5D80706
:1012C00018F5C03482E5D80708F06BC0C03282E55B
:1012D000D80708F05FC0C11582E5D80708F497C0A9
:1012E0002C2F2695269580E2289F900111248C2F83
:1012F0008370C1E0D0E002C0CC0FDD1F8A95E2F719
:10130000C22BD32BDD68D4CFC03A82E5D80760F476
:10131000C03882E5D80708F459C0CF71D0E0DC2F7F
:10132000CC27C46FD06AC4CFC03C82E5D80708F48C
:1013300062C0C03E82E5D80708F09CCFDC2FCC27E6
:10134000CC27DF71C06FD06AB3CFC55AD0E0C25E80
:10135000DE4FC881D0E0D064ABCFD065A9CF8D2F50
:101360000E943008182FCE0199270E947308C12FC0
:10137000D0E0DC2FCC27CC27DF71C82BD92B98CF1E
:10138000CE0199270E947308CC27DF70C82BD92B78
:10139000D06A8ECFCF71D0E0DC2FCC27C16FD06A5E
:1013A00087CF2C2F26952695277080E2289F9001C5
:1013B00011248C2F8370C1E0D0E002C0CC0FDD1F60
:1013C0008A95E2F7C22BD32BDC6872CF2C2F26959F
:1013D0002695277080E2289F900111248C2F83701E
:1013E000C1E0D0E002C0CC0FDD1F8A95E2F7C22B2E
:1013F000D32BDA685DCF8C2F8F710E943008C82FF5
:10140000D0E0DC2FCC27CC27DF71D06251CF8C2FDE
:101410008F710E94300855E0D695C7955A95E1F72F
:10142000CF70D0E0DC2FCC27282F30E084FF05C020
:1014300044E0220F331F4A95E1F7C22BD32BD0692A
:1014400037CF8D2F8F710E943008182FCE0199272A
:101450000E947308C12FD0E0DC2FCC27CC27DF718E
:10146000C82BD92BD2CF80916402882331F01092FF
:101470006402109263021092620208958095909126
:10148000610298239093610208951092570210927E
:10149000560210925502089590915402292F282344
:1014A00021F08095892380935402089580916803E8
:1014B00090912F03981301C008958F5F8770FACF22
:1014C000A82FA77023E0969587952A95E1F7FC0150
:1014D000EE0FFF1FE80FF91FE60FF71F50E040E087
:1014E00080E0219130E00A2E02C0369527950A94BB
:1014F000E2F721703327042E01C0220F0A94EAF785
:10150000822B4F5F5F4F4330510559F70895903F4D
:10151000B9F0953070F4803198F440E1949F9001D7
:1015200011246FE272E0820F932F911D0E94600AD6
:1015300008959C5F923020F46CE272E090E0F6CF68
:1015400080E00895262F277091E001C0990F2A9519
:10155000EAF723E0769567952A95E1F7FB01EE0F10
:10156000FF1FE60FF71FE40FF51F50E040E0682F64
:1015700070E08191DF0111979B01042E02C0369526
:1015800027950A94E2F721702195282729232827F7
:101590002C934F5F5F4F4330510559F70895282F23
:1015A000862F903F71F0953068F4203150F430E18F
:1015B000939FB0011124620F711D4FE252E00E940F
:1015C000A20A08959C5F9230E0F7622F70E04CE22F
:1015D00052E0F5CF8093750208959091750221E055
:1015E00030E0F90101C0EE0F8A95EAF7D90102C097
:1015F000AA0FBB1F6A95E2F7EA2B01C0220F4A959A
:10160000EAF7892F8E23E81305C0292B822F0E9429
:10161000EA0A089520952923F9CF21E030E001C09E
:10162000220F8A95EAF720958091750282230E9405
:10163000EA0A089590915702809589238093570272
:10164000282F277069F4891759F09091770292FF3B
:1016500007C08695869586950E940D0B0E94450AC7
:10166000089521E030E001C0220F8A95EAF78091C9
:101670007502822B0E94EA0A0895809374020895ED
:101680009C013A9521153F4150F5FC01EE27F17080
:10169000BC0166277270AC01442754709C0122275C
:1016A000387094FF0EC080E1EF2B09F480E0672BC7
:1016B00009F08062452B09F08064232B89F0806853
:1016C000089581E0EF2B09F480E0672B09F0826038
:1016D000452B09F08460232B19F08860089580E081
:1016E0000895EF92FF920F931F93CF93DF93809112
:1016F00029029091E20291111FC09FE1F92EF81A80
:10170000C1E705E010E031E7E32EDE2DDC1B07C06A
:101710006F2D6D1B41E08C2F0E94F207DF5FD01709
:101720001106B4F301501109C150CE3671F7CDB78F
:10173000DEB7E6E00C94FC2A90912802282F291BA2
:101740001216DCF4DFE1D91BD53088F3C0E021E7C5
:10175000F22E1AE1191B0F2D0C1B6D2F6C1B40E094
:10176000802F0E94F207612F6C0F41E0802F0E94B2
:10177000F207CF5FC33079F7DACF2223C1F2DFE17E
:10178000D81BD530A0F2C0E091E7F92E1AE1181B62
:101790000F2D0C1B612F6C0F40E0802F0E94F20771
:1017A0006D2F6C1B41E0802F0E94F207CF5FC3308A
:1017B00079F7BDCFB0E0A0E0E0EEFBE00C94DD2ACD
:1017C000D82F8091E202882309F442C086E9E82EEE
:1017D00081E0F82E00EE11E0C2E29FE1C92EF8018F
:1017E000D1808081BD2CB81AB7FE06C06C2D681B55
:1017F00040E08C2F0E94F207F701818181937F01E5
:10180000F801D1928F01BB2031F06C2D6D1941E0B0
:101810008C2F0E94F207CF5FCB3609F78091DF0152
:10182000C09129028D1710F5CF3100F5CF5FC0931D
:101830002902D093DF018091290290912802891713
:1018400081F06FE1681B41E08BE60E94F20709C05E
:10185000C2E241E06FE18C2F0E94F207CF5FCC36ED
:10186000C1F7CDB7DEB7E9E00C94F92AD81710F02C
:10187000D111DFCFCC23E9F26FE16C1B40E08BE6A6
:101880000E94F207C150D3CFEF92FF920F931F93A4
:10189000CF93DF938C018091E202811121C0C1E0DE
:1018A00041E064E18C2F0E94F20741E06FE18C2F50
:1018B0000E94F207CF5FCF3199F7C5E141E06C2F6D
:1018C00080E00E94F20741E06C2F8FE10E94F20756
:1018D000CF5FCF3199F7CDB7DEB7E6E00C94FC2AA5
:1018E000F801D181C081DD0FCC0F85E1F82EFD0E0E
:1018F000EE24E394EC0E45816F2D8E2D0E94F207AD
:10190000DA5EF80145816D2F8E2D0E94F207CE5FC1
:10191000F80145816F2D8C2F0E94F207F801458157
:101920006D2F8C2F0E94F207D6CFCF93DF93C091FB
:101930007505D09176058A30C1F420916C03CE01F3
:101940008F569340622F70E00E94C02A281B822F7E
:1019500066E00E940B2BC82FC15018F4DF91CF9185
:10196000089580E20E94950CF7CF8D30E9F4CF56B0
:10197000D34020916C03622F70E0CE010E94C02AF8
:10198000281B822F9E01280F311D2115324018F08F
:1019900080E0D0E0C0E0C80FD11DC159DC4FD0932A
:1019A0007605C0937505DACF96E0FE01AFE6B5E0A7
:1019B00001900D929A95E1F7803E08F458C086E0B8
:1019C000FE0111928A95E9F7C0917505D0917605CF
:1019D00046E050E0BE018FE695E00E94A42B9E01F8
:1019E0002F563340892B41F1C90145E096958795E3
:1019F0004A95E1F741E050E0BA0102C0660F771F57
:101A00008A95E2F7CB0160916D0370916E03862B8E
:101A1000972BB9016B5F7F4FE5E076956795EA9567
:101A2000E1F702C0440F551F6A95E2F7842B952B0E
:101A300090936E0380936D032A5F3F4F40916C0338
:101A4000642F70E0C9010E94C02A481B463010F480
:101A5000240F311D211572E0370710F030E020E02F
:101A600021593C4F309376052093750577CFF6E0EA
:101A70008F9FB0011124615B794F46E050E0CE01A9
:101A80000E949B2BA1CF0F931F93CF93DF93EC0169
:101A9000FC0101900020E9F78F0101501109C017E6
:101AA000D10728F0DF91CF911F910F91089589916F
:101AB0000E94950CF4CF0F931F93CF93DF938B016C
:101AC000EA0190912503943061F58093E9008FEF4E
:101AD0009091E800815095FD06C095ED9A95F1F73B
:101AE00000008111F5CF8091E80085FF1AC00E94A7
:101AF0002506811111C08091E80085FD06C0809106
:101B0000E8008E778093E800F2CFF80181918F0191
:101B10008093F100219779F78091E8008E77809388
:101B2000E800DF91CF911F910F91089543E050E0BD
:101B3000BC0184E00E945B0D0895CF93DF93EC011C
:101B400048E050E0BC0181E00E945B0D88E0FE01AE
:101B5000ABE1B3E001900D928A95E1F7DF91CF916F
:101B60000895CF93DF93C9E7D1E060E0CE010E94F2
:101B7000D62B2196C11584E0D807B9F7DF91CF9114
:101B800008950F931F93CF93DF93142F022F82306A
:101B900020F5623010F598E0899FE001112484E07F
:101BA000689FB0011124C60FD71FC759DE4F82E0CE
:101BB00090E0442311F090E080E0632F8C0F9D1F94
:101BC0000E94D62B83E090E0112311F081E090E099
:101BD000602F8C0F9D1F0E94D62BDF91CF911F91FC
:101BE0000F9108951F93CF93DF93122F8230E0F46B
:101BF0006530D0F44031C0F490E2699FE0011124D7
:101C000050E0440F551FC40FD51F90EA899FC00DA7
:101C1000D11D1124632FCE0189960E94D62B612FEE
:101C2000CE018A960E94D62BDF91CF911F91089505
:101C3000B0E0A0E0EEE1FEE00C94D82AA0900B0307
:101C4000B0900C0381E090E090930C0380930B0321
:101C50008EEDC82E84E0D82E9EE9E92E93E0F92E71
:101C6000C0E0470110E014C0F301259134914D2FDD
:101C7000612F8C2F0E94F20D82E0680E711CDF5FD5
:101C8000D03191F780E2880E911C1F5F153019F05A
:101C90003401D0E0E9CF8601D0E0F80125913491FC
:101CA00041E06D2F8C2F0E94C10DF80132962591D5
:101CB000349140E06D2F8C2F0E94C10D0C5F1F4F9F
:101CC000D13051F488E0C80ED11C80EAE80EF11C36
:101CD000C13021F0C1E0C5CFD1E0DFCFB0920C031D
:101CE000A0920B03CDB7DEB7EEE00C94F42ACF93AD
:101CF000C82F6FEF811167E985E290E00E94D62B33
:101D00006FEFC1116BE686E290E00E94D62B6FEF79
:101D1000C1116AE787E290E00E94D62BCF91089527
:101D200080E00E94770E60E088E290E00E94D62B6F
:101D30000E94180E0E94B10D81E00E94770E089556
:101D4000FF920F931F93CF93DF93F42E823070F5A1
:101D5000623060F528E0829F8001112434E0639FA7
:101D6000B0011124060F171F07591E4F82E090E0A3
:101D7000442311F090E080E0800F911F0E94B82B67
:101D8000C82FD0E0DC2FCC2783E090E0FF2011F0BB
:101D900081E090E0800F911F0E94B82B9E01282BBC
:101DA000C901CDB7DEB7E5E00C94FD2A90E080E0F4
:101DB000F8CF0F931F93CF93DF93823030F56530C8
:101DC00020F5403110F520E2629F8001112450E09F
:101DD000440F551F040F151F30EA839F000D111D7E
:101DE0001124C80189960E94B82BC82FD0E0DC2F9F
:101DF000CC27C8018A960E94B82B9E01282BC901C6
:101E0000DF91CF911F910F91089590E080E0F8CF7E
:101E10002091D6023091D702232BD9F4703F39F4A8
:101E2000603FB9F48091D8029091D902089575303D
:101E300048F4603170F4823060F4462F672F0E94BE
:101E4000D90E08957D3F41F4623018F441E08230AC
:101E500050F090E080E008957C3FD9F76230C8F7F9
:101E60008230B8F740E00E94A00E0895CF92DF9232
:101E7000FF920F931F93CF93DF936C010091750234
:101E800080917402082BC1E0D0E010E0FC2EC80164
:101E90000C2E02C0959587950A94E2F780FD0FC03D
:101EA000CD2B51F4F12C8F2DDF91CF911F910F91FC
:101EB000FF90DF90CF900895D0E0C0E0E7CFB6016B
:101EC0008C2F0E94080F0E941509019749F3EBCF50
:101ED000CF93DF93EC010E94360FBE010E94080FE2
:101EE0000E941509DF91CF910895FC0124812223DE
:101EF000C1F0808191810E94680F92959F70963009
:101F000091F058F4925F9F70923058F4803F19F02E
:101F100030F4883E30F481E008959A5FF4CF843F36
:101F2000D1F380E00895883EB0F3813FD1F7F3CF3D
:101F3000A6E0B0E0EEE9FFE00C94E32A49835A837F
:101F400049815A819923A1F0222391F0CA010E946C
:101F5000360F182F682F89819A810E94CF0A6981D4
:101F60007A81812F0E94080F2696E3E00C94FF2AC5
:101F7000CA010E94870A182FF2CF85E290E00E94E2
:101F8000B82B873989F486E290E00E94B82B8B3613
:101F900059F487E290E00E94B82B91E08A3709F06B
:101FA00090E0892F8170089580E0FCCFB0E0A0E040
:101FB000ECEDFFE00C94DE2A6C017B0164E670E03E
:101FC00088E70E94DA298C01E601EC0CFD1C17FD64
:101FD0000BC0FE01849164E670E00E94462A8C01E9
:101FE0002196CE15DF0599F70E94BC2A81E00115E4
:101FF000110509F080E0CDB7DEB7E8E00C94FA2ACD
:102000008091090390910A03911103C091E08927FF
:102010000895882369F062E070E08CE993E00E9403
:10202000D60F811103C0809109030895109209030E
:1020300080910903EBCFCF93C091090380910A03EC
:102040008823D1F00E947507605A75418F4F9F4FCA
:10205000609305037093060380930703909308032E
:10206000C11108C062E070E08AE993E00E94D60FD7
:10207000811105C0C09109038C2FCF91089581E093
:1020800080930903F7CF9091770292FB222720F9E2
:10209000281779F080FB92F990937702609176028D
:1020A0007091770284E090E00E94F42B82E00E941D
:1020B0001A0B08951F920F920FB60F9211242F93AF
:1020C0003F934F935F936F937F938F939F93AF93C0
:1020D000BF93EF93FF938091E10082FF09C080914D
:1020E000E20082FF05C08091E1008B7F8093E100D8
:1020F0008091DA0080FF24C08091D80080FF20C04A
:102100008091DA008E7F8093DA008091D90080FF81
:102110009DC080E189BD82E189BD09B400FEFDCF8B
:1021200081E08093250380911803811109C00E94EA
:1021300006060E94A7068091E20084608093E20078
:102140008091E10080FF17C08091E20080FF13C002
:102150008091E2008E7F8093E2008091E2008061B6
:102160008093E2008091D80080628093D80019BCEF
:1021700085E0809325038091E10084FF2BC080914E
:10218000E20084FF27C080E189BD82E189BD89B575
:10219000982F917080FFFBCF8091D8008F7D809326
:1021A000D8008091E1008F7E8093E1008091E20071
:1021B0008F7E8093E2008091E20081608093E20054
:1021C00080912603882309F447C084E08093250387
:1021D000809125038091E10083FF27C08091E20078
:1021E00083FF23C08091E100877F8093E10082E03C
:1021F00080932503109226038091E1008E7F8093C7
:10220000E1008091E2008E7F8093E2008091E20005
:1022100080618093E20042E060E080E00E94750609
:102220008091F00088608093F000FF91EF91BF9162
:10223000AF919F918F917F916F915F914F913F915E
:102240002F910F900FBE0F901F90189519BC1092F0
:1022500025031092180374CF8091E30087FD93E06B
:1022600090932503B5CF78941F921FB61F92112427
:102270008F939F93AF93BF93809114039091150315
:10228000A0911603B09117030196A11DB11D809373
:10229000140390931503A0931603B0931703BF91F3
:1022A000AF919F918F911F901FBE1F9018959C0119
:1022B0004FB7F8948091140390911503A0911603E1
:1022C000B09117034FBF821B930B08952FB7F8945B
:1022D0008091140390911503A0911603B0911703F8
:1022E0002FBF08952F923F925F926F927F928F92AD
:1022F0009F92AF92BF92CF92DF92EF92FF920F9395
:102300001F93CF93DF9380910A03882309F4D2C0EF
:102310008FE693E09093760580937505D091DA026D
:102320008091E20281112EC00E94DA0B0E94710B93
:1023300090E080E00E94440CC0E06FE1E62E7FE078
:10234000D72EEAE7CE2EFE2CFC1A8C2F6D2D0E9484
:102350000B2B02E0911106C041E06F2D85E70E9432
:10236000F20703E010E041E06F2D8C2D811B0E94ED
:10237000F2071F5F1013F7CFCD5FC13221F781E065
:102380008093E2028AE191E00E94430D80916C0308
:1023900090E081599C4F90937605809375058091CC
:1023A0000901D81305C08091DF02803309F44BC0C6
:1023B000D093090180E38093DF02CD2ED12CF12C44
:1023C000E12C1092DE02C701B6012AE030E040E0C5
:1023D00050E00E942B2B605D603331F0C114D104BA
:1023E000E104F10409F460E36093DD0260E32AE0B4
:1023F000C216D104E104F10490F05AE0852E912C2C
:10240000A12CB12CC701B601A50194010E942B2B70
:10241000CA01B901A50194010E942B2B605D609354
:10242000DC0220E364E6C616D104E104F10448F0BE
:10243000C701B60124E630E040E050E00E942B2BBB
:10244000205D2093DB028BED92E00E94430D809192
:10245000E0029091E1020E9457118D32914058F0B4
:102460008D2F0E94DA0B0E94710B0E9466119093CF
:10247000E1028093E00280916D0390916E03892BBD
:1024800059F5809109038823A9F00E9475070091EE
:102490000503109106032091070330910803601B88
:1024A000710B820B930B6F3F7F4F8F4F9F4710F441
:1024B0000E940010DF91CF911F910F91FF90EF903C
:1024C000DF90CF90BF90AF909F908F907F906F9054
:1024D0005F903F902F90089580910A03882389F29E
:1024E000809104038111CDCF0E941B1020916D03B8
:1024F00030916E032115310521F280E041E050E07A
:10250000082F10E01A01082E02C0220C331C0A9476
:10251000E2F7B10162237323672B11F48F5FF0CFD1
:102520009091030390FF95C0880F880F880F8093C8
:102530000C0110920F01895F80930D0183E080935D
:10254000100124E630E047E050E06AE071E088E7FF
:102550000E94742A892B09F094CFA80125E0440F2A
:10256000551F2A95E1F78091030380FF84C0E3EEB5
:10257000F2E080E2EF0119928A95E9F7A8E7B1E06D
:1025800004E711E08CE7C82E81E0D82E97E0592EA1
:10259000772473948D91F80121918F01240F352FA9
:1025A000311D21593C4FE82FF0E0ED51FD4F90E0F7
:1025B00080E0652C681A872C082E01C0880C0A94CC
:1025C000EAF77901A12CE701B9907E01B820662DC8
:1025D0006A196770962E062E000C770BDB2D01C052
:1025E000DD0F9A94EAF77195619571096770772705
:1025F00001C0B6946A95EAF7BD2A6081962E9B28A1
:102600009082A39468E0A612DECF019631968830BE
:10261000910579F6CA16DB0609F0BCCF04E610E096
:1026200020E230E043EE52E060E488E70E94952A21
:10263000892B09F026CFE101C095D09580916D03DB
:1026400090916E03C823D923D0936E03C0936D037A
:1026500018CF8295880F807680930C01980136956B
:1026600027953695279520930F01815E80930D0164
:102670002093100166CF41595C4F04E610E020E240
:1026800030E0D2CFB0E0A0E0E8E4F3E10C94D72A48
:1026900090E080E0712CC1E0D0E0C12CD12C76011B
:1026A000C39434E7832E32E0932EACE5B1E050E0E2
:1026B00040E02D91E22FE295EF70F0E02F70BE0127
:1026C00002C0660F771F2A95E2F79B01BE01042E18
:1026D00002C0660F771F0A94E2F768237923042E5D
:1026E00002C0759567950A94E2F732A1662309F452
:1026F00075C0232B22A34F5F5F4F44305105C9F6AD
:102700007AE17A95F1F700C0B701A601082E04C05E
:10271000440F551F661F771F0A94D2F75A019A017A
:1027200020953095EAE6F2E007E511E0612C419151
:102730005191D8015D908D01A52DA295AF70B0E0AB
:1027400090966C9170E0A52DAF7002C0759567955D
:10275000AA95E2F7DF01129760FD43C0BA016A292A
:102760007B2911967C936E936D917C914617570748
:1027700011F0662463948E169F06C9F6762801969A
:102780008031910509F091CF772079F181E0809334
:1027900069020E946611909368028093670280919B
:1027A0006702909168020E945711059710F14AE064
:1027B00050E06AE672E08CEC92E00E94A42B892B38
:1027C000F1F08AE0EAE6F2E0ACECB2E001900D92C2
:1027D0008A95E1F781E0109269020CC020952323CD
:1027E00089CFBA0162237323BCCF80916902811122
:1027F000D6CF80E0CDB7DEB7EFE00C94F32A80E0CF
:10280000EACF90916402292F282361F080958923D3
:1028100080936402882339F00E94661190936302CA
:1028200080936202089590E080E0F8CF8091610289
:1028300090916002892B80938E018091640288239D
:1028400019F10E9466112091620230916302821B8D
:10285000930B8838934110F00E94330A80918E01C7
:1028600090916402892B80938E0120E080E991E0B1
:10287000FC013191CF0131112F5FF1E086399F07C3
:10288000B9F721110E94330A48E050E068E572E090
:102890008EE891E00E94A42B892BA9F088E0EEE855
:1028A000F1E0A8E5B2E001900D928A95E1F7E091A0
:1028B0000F03F0911003309731F00280F381E02D87
:1028C0008EE891E00995089510926102E0E9F1E047
:1028D00086E0DF011D928A95E9F790E080E00E9492
:1028E000C00790E080E00E949B07109260020E9467
:1028F00016140895AAE2B0E0E0E8F4E10C94E32AAB
:1029000087E293E02091F100DC012D93CD01B3E04B
:102910008F329B07B9F780912803833009F472C086
:10292000B8F4813009F449C0823009F4B3C0809111
:10293000E80083FF96C280912703909128039A3084
:1029400008F08FC2E92FF0E0E45FF34D0C946C2B9C
:102950008A3009F48EC08B3009F471C0893039F7A0
:1029600080912703813219F780912B0390912C03DA
:10297000009711F00297D9F68091E800877F809345
:10298000E8008091E80082FF38C09091F3008091C8
:10299000F200029731F48091F100813011F086301D
:1029A00021F48091F10080931A038091E8008B77E5
:1029B0008093E8000E945606BACF80912703813A9F
:1029C00009F0B5CF8091E800877F8093E80080917F
:1029D0002B0390912C03892B61F468E08BE193E049
:1029E00070E00E9402078091E8008B778093E800F6
:1029F0009ECF60E090E080E0F3CF809125038111CD
:102A0000C0CF95CF80912703813A09F090CF809174
:102A10002B0390912C03892B09F089CF8091E8003A
:102A2000877F8093E8008091E80080FFFCCF809151
:102A300011018093F1008091E8008E77B9CF8091E9
:102A40002703813209F073CF80912B0390912C03DF
:102A5000892B09F06CCF8091E800877F8093E80094
:102A60000E94560680912903809311010E946414EC
:102A70005ECF80912703813209F059CF8091E80021
:102A8000877F8093E8000E94560680912A038093F6
:102A900019034DCF80912703813A09F048CF8091E7
:102AA000E800877F8093E8008091E80080FFFCCFFA
:102AB00080911903BECF803899F0823809F0D1C1D6
:102AC00080912B038F70873008F0CBC18093E90091
:102AD0008091EB0085FB882780F91092E90006C001
:102AE0008091230390912403911182609091E800DA
:102AF000977F9093E8008093F1001092F10080910D
:102B0000E8008E77AAC1882309F498C1823009F0C1
:102B1000A8C18091290381119BC180912B038F70E3
:102B20002FEF280F263008F09CC18093E9002091F8
:102B3000EB0020FF8DC1933031F48091EB00806277
:102B40008093EB0085C19091EB0090619093EB0036
:102B500021E030E001C0220F8A95EAF72093EA00D5
:102B60001092EA008091EB008860EACF811179C170
:102B7000109129031F778091E3008078812B809347
:102B8000E3008091E800877F8093E8000E9456066A
:102B90008091E80080FFFCCF8091E3008068809303
:102BA000E30082E0111183E0809325035AC180582D
:102BB000823008F056C12091290330912A032C3D20
:102BC000E3E03E07A1F583E08A838AE289834FB779
:102BD000F894DE01139620E03EE051E2E32FF0E0AE
:102BE00050935700E49120FF03C0E295EF703F5FE0
:102BF000EF708E2F90E0EA30C0F0C7968D939D93D2
:102C00002F5F243159F74FBF8091E800877F809371
:102C1000E8006AE270E0CE0101960E94020780910E
:102C2000E8008B778093E8001CC1C096E7CF8091C5
:102C30002B0390912C03432F55274330510509F462
:102C40004AC078F54130510509F485C08BE590E024
:102C5000EEEEF4E04230510509F003C12091E800A6
:102C6000277F2093E80020912D0330912E038217B7
:102C7000930708F49C0140E02115310509F070C06C
:102C800041116EC08091E80082FDC9CF809125037B
:102C9000882329F2853019F28091E80083FFF2CF72
:102CA000BECF4132510509F447C04232510509F007
:102CB000D8C08330910508F0D4C0FC01EE0FFF1F8F
:102CC000E158FE4F0190F081E02D84589E4FDC01C9
:102CD0008C9190E01DC0332721303105E9F021159A
:102CE000310579F022303105F9F02330310509F052
:102CF000B8C0EBE5F5E0E4918E2F90E0EBE5F5E070
:102D000007C0EBE9F5E0E4918E2F90E0EBE9F5E008
:102D1000009709F4A6C0A2CFE7E8F5E0E4918E2F72
:102D200090E0E7E8F5E0F4CFE9E7F5E0E4918E2FF5
:102D300090E0E9E7F5E0ECCF8330910508F091C031
:102D4000880F991FFC01EB57FE4F0190F081E02D99
:102D500089E090E083CF82E190E0E9E4F5E07ECF86
:102D600080912503882309F45ACF853009F457CF81
:102D70008091E80083FD53CF8091E80082FD82CFEF
:102D80008091E80080FF78CF9091F3008091F2006D
:102D90002115310519F08830910550F041E0089770
:102DA00009F040E08091E8008E778093E80064CFDE
:102DB00044914093F1003196215031090196E8CFBA
:102DC000803809F04EC08091E800877F8093E8004A
:102DD000809126038093F10092CE811142C0109120
:102DE00029031230F0F58091E800877F8093E80096
:102DF000109326030E945606112311F084E005C0AB
:102E00008091E30087FDFACF81E08093250342E0C3
:102E100061EC81E00E94750642E261EC84E00E9470
:102E2000750642E261EC82E00E94750642E260ECC7
:102E300083E00E9475068091250313C080912903C9
:102E4000813079F481E0933009F080E080932403AD
:102E50001092E9008091E800877F8093E8000E944B
:102E600056068091E80083FF0AC08091E800877FC2
:102E70008093E8008091EB0080628093EB00AA963B
:102E8000E3E00C94FF2A1F920F920FB60F921124C9
:102E90002F933F934F935F936F937F938F939F9362
:102EA000AF93BF93CF93DF93EF93FF93D091E9005C
:102EB000DF708091EC00C82FC17080FDC0E81092D7
:102EC000E9008091F000877F8093F00078940E9461
:102ED0007A141092E9008091F00088608093F000ED
:102EE000CD2BCF70C093E900FF91EF91DF91CF918F
:102EF000BF91AF919F918F917F916F915F914F9112
:102F00003F912F910F900FBE0F901F9018950E9428
:102F100064142FEF84E39CE0215080409040E1F75F
:102F200000C0000088E19AE00FB6F894A89580935D
:102F300060000FBE90936000FFCF882341F0809522
:102F4000909160028923809360020E941614089574
:102F5000882339F090916002982B909360020E9430
:102F600016140895882321F00E943E0A0E94161428
:102F70000895882339F090916102982B9093610213
:102F80000E9416140895882391F19CEF980F913AAE
:102F900080F4E0E9F1E026E931E09191891303C082
:102FA000DF0111971C922E173F07B9F70E941614E4
:102FB000089590E2980F983050F4877091E001C026
:102FC000990F8A95EAF7892F0E943E0AEFCF9BE579
:102FD000980F933028F490E080E00E94C007089595
:102FE000885A8B3120F490E080E00E949B0708957E
:102FF000CF93C82F8823B1F08CEF8C0F813A00F566
:10300000E0E9F1E086E991E0DF012D91C21761F07E
:103010008A179B07D1F76C2F8EE891E00E948107F9
:103020000E941614CF9108952191C21303C0DF01AD
:1030300011971C928E179F07B9F70E941614EBCFB9
:1030400080E28C0F883068F4C77021E030E001C066
:10305000220FCA95EAF780916102822B8093610268
:10306000DFCFEBE5EC0FE33040F4F0E0E25EFE4F43
:10307000808190E00E94C007D5CFC85ACB3190F62E
:10308000EC2FF0E0EE0FFF1FEF5DFE4F808191818E
:103090000E949B07C7CF1F93CF93DF93182FD0E0D9
:1030A000C0E0893311F4C0E5D0E0812F0E94F81709
:1030B000209739F4812F0E94C317DF91CF911F9180
:1030C00008958FE99FE00197F1F700C00000219774
:1030D000EFCF0F931F93CF93DF93C62FD42F022FE1
:1030E000FC0185818823A9F060936B030E9466111F
:1030F00090936A0380936903C77081E001C0880FD1
:10310000CA95EAF70E94B917DF91CF911F910F91ED
:10311000089580916B03681332C080916903909188
:103120006A030E945711883C910548F510E21D0F73
:10313000CD17B9F080E28C0F883040F4C77081E081
:1031400001C0880FCA95EAF70E94B217183048F4F8
:1031500081E09D2F977001C0880F9A95EAF70E9431
:10316000B917802F0E944B18183070F6D77081E085
:1031700001C0880FDA95EAF70E94B217C5CFC77071
:1031800081E001C0880FCA95EAF7F6CFB0E0A0E071
:10319000ECECF8E10C94DC2AEC018AE0A82E288102
:1031A000222309F48FC02130C9F599818A81913099
:1031B00021F422960E944B1805C0923029F42296E1
:1031C0000E94F8172196EBCF933021F422960E94AB
:1031D000C317F8CF943011F02196F4CF229630E047
:1031E00020E0AE014F5F5F4F8053990B8A3091050D
:1031F00050F02150310930F38FE99FE00197F1F74A
:1032000000C00000F6CFA29EB001A39E700D112455
:103210009C01260F371F8981EA01E3CFE22FF0E0FE
:10322000E153FA4FB490822F86958695869590E06B
:10323000FC01E154FA4FE4902770F12C022E02C0F9
:10324000F594E7940A94E2F731E0E322FF24FC01CD
:10325000E155FA4FC490D12C022E02C0D594C794E8
:103260000A94E2F731E0C322DD24FC01E156FA4F73
:10327000049110E002C0159507952A95E2F70170B8
:103280001127E114F10419F081EE0E94F817C1141E
:10329000D10419F086EE0E94F8178B2D0E944B186E
:1032A000C114D10419F086EE0E94C317E114F10491
:1032B00019F081EE0E94C3170115110509F482CFA0
:1032C0008CE278CFCDB7DEB7EAE00C94F82A909183
:1032D000770292FF10C098E0899F90011124622B21
:1032E000609357020E94310B0E9466119093560220
:1032F0008093550208950E94310B0895ABE1B0E030
:10330000E4E8F9E10C94E22A4E8B5F8B688F798FA9
:103310008A8F9B8F092F9111109260021D8A86E07F
:10332000FE017696DE011F9601900D928A95E1F7D7
:103330001A8D8091770282FF1CC00E946611209135
:10334000550230915602821B930B8838934120F02E
:103350008091570282FF7FC00E9466112091620215
:1033600030916302821B930B8838934110F00E94C6
:10337000330A112349F021E04F85588969897A89F8
:10338000812F902F0E94980F1B8B0C8B87E0FE01E2
:103390003F96DE01189601900D928A95E1F7CE01D5
:1033A00008960E941C2081110CC087E0FE0138960F
:1033B000DE01119601900D928A95E1F78C858111BD
:1033C0000BC017E08091680390912F03891331C0DF
:1033D0006B96E4E00C94FE2A20912F0330E0C901A3
:1033E000019687709927409168034817190699F04C
:1033F00097E0929FD001939FB00D1124A05DBC4F28
:10340000FE01319601900D929A95E1F780932F037A
:103410000E94560AD6CF0E94641410922F03109275
:10342000680387E0EDE4F2E0DF011D928A95E9F799
:10343000C8CF819FC0011124805D9C4F0E941C2039
:10344000882331F28091680390E001968770992774
:1034500080936803B7CF82E00E941A0B7DCFA6E06D
:10346000B0E0E5E3FAE10C94E22A8C019093D902F2
:103470008093D802011580E21807C0F4802F0E94C3
:10348000C317C8010E94400B9801205E3109283003
:10349000310518F00115110531F40E94B217269676
:1034A000E4E00C94FE2A0E949D17F9CF80EF8983F7
:1034B0008A830E9466118160682F9C838B83498177
:1034C0005A817C8181E090E00E947E19E8CFA6E0DD
:1034D000B0E0EDE6FAE10C94E22A8C019093D90277
:1034E0008093D802011580E21807C0F4C8010E9439
:1034F000400B9801205E31092830310518F0011584
:10350000110549F40E94B917802F0E94F8172696DA
:10351000E4E00C94FE2A0E94A817F6CF80EF89837E
:103520008A830E9466118160682F9C838B83498106
:103530005A817C8181E091E00E947E19E8CFA4E06D
:10354000B0E0E5EAFAE10C94DA2A7C01FC0184811E
:10355000882309F42CC121E040815181628173816B
:1035600095810E94980F8C01F7018581882309F4C9
:10357000C3C0E0918902F0E0EE0FFF1FE257FD4F5C
:10358000808191818F3F2FE7920719F001969183F7
:103590008083C80197578038910508F0ADC0D02EC0
:1035A0003FE0301708F4F4C08FEF93E00E94B82B8F
:1035B0008111EEC009E711E0D11036C019821A82DC
:1035C0001B821C8299249A9468015FEFC51AD50A60
:1035D000C8010E94B82B89831A82882309F4D8C0B5
:1035E000813009F083C0580182E0A80EB11CC601E9
:1035F0000E94B82BC82E8A83882309F4C9C0C5014C
:103600000E94B82BD82E8FEF8C0D8330D8F4580140
:1036100093E0A90EB11CDB82DD2021F0CE010196E2
:103620000E94C6188501D0CF011544E0140709F4A3
:10363000AFC0C8010E94B82B811101C0DA940F5F9E
:103640001F4FBACF8BEF8C0D833040F5C801039626
:10365000DB825C01DD2031F35801E4E0AE0EB11CE9
:103660000E94B82B8C838823E9F20B811C810130E6
:10367000FFEF1F0710F0102F002726E0C21651F0B1
:1036800037E0C31619F0C8010E94671AC8010E94EA
:103690002F1AC8CFC8010E94671AC4CF44E0C412D1
:1036A000C1CF580154E0A50EB11CC80103960E9479
:1036B000B82BDD2009F46CC0882309F469C081505F
:1036C000990B989E9001999E300D1124ED2DE1509B
:1036D000FF0BCF01820F931F019708F4A3CFEFE9EF
:1036E000FFE03197F1F700C00000F6CFCE01019660
:1036F0000E94C618560196CFC7010E94440CF701DC
:10370000858181110BC0F801E851FC47E730F105D4
:1037100008F068C0EA5EF34D0C946C2B80912A028D
:10372000082E000C990B01966FE170E00E94172B98
:103730005C0180932A02892B11F18FE1D82EDA18CF
:1037400041E06D2D8CE70E94F20741E06D2D8DE781
:103750000E94F20741E06D2D8EE70E94F207D3CF61
:1037600040E06D2D8C2D0E94F207D394FFE1DF1213
:10377000F7CFC3942FE7C21601F3D12CF1CF4CE75A
:10378000C42EFBCF26E241EE61EEC7010E9469180C
:1037900080915702877059F0F7018581882339F0AD
:1037A0008091770282FF03C082E00E941A0B249668
:1037B000ECE00C94F62A27E245EE65EEE6CF26E231
:1037C00041EE60EEE2CF27E245EE64EEDECF26E288
:1037D00041EE62EEDACF27E245EE66EED6CF28E282
:1037E00041E0EBCFF7018581882309F452C31092A1
:1037F0006B03C8019057839708F035C384E090E0CD
:103800000E94C02B9093770280937602F801E150DA
:10381000F047E232F10520F4E35EF34D0C946C2B9B
:103820008091760281608093760295C080917702C4
:103830008860809377028FC0809176028260F3CF98
:10384000809176028460EFCF809176028860EBCF22
:10385000809177028160EDCF809177028260E9CF1D
:10386000809176028061DFCF809176028062DBCF2B
:10387000809176028064D7CF0E9464148091760292
:103880008068D1CF809176028C60CDCF8091770215
:103890008360CFCF809176028E7FC5CF80917702F3
:1038A000877FC7CF809176028D7FBDCF80917602D2
:1038B0008B7FB9CF80917602877FB5CF80917702D9
:1038C0008E7FB7CF809177028D7FB3CF80917602C4
:1038D0008F7EA9CF809176028F7DA5CF80917602D1
:1038E0008F7BA1CF0E946414809176028F779BCF4B
:1038F00080917602837F97CF809177028C7F99CFDA
:103900008091760282FB992790F921E0922790FB23
:1039100082F990FB83F987CF80917702982F909559
:1039200091708E7F892B90FB81F983CF90917602E5
:10393000892F8F7B96FF806476CF0E9464149091CC
:103940007602892F97FB87F980586DCF61E08EE072
:1039500090E00E94D62B609176027091770284E00D
:1039600090E00E94F42B0E94641412CF60E0EFCF2D
:1039700090917602892F8F7E94FF806154CF909131
:103980007602892F8E7F90FF81604DCF90917702D4
:10399000892F877F93FF88604CCF80912B02811104
:1039A0000EC089E2E0E9F1E09191891303C0DF01E3
:1039B00011971C9221E0E639F207B1F767C285E35F
:1039C000F1CF81E00E94310B43E062E081E00E9490
:1039D000ED0ADECE81E00E940D0BF6CF82E0F2CF41
:1039E0000B359CE7190749F10C35ECE71E07D9F0B8
:1039F0000A351C4709F077C281E01CC00E9464149C
:103A00002FEF34E34CE0215030404040E1F700C05C
:103A100000000E9464076FEF7FEF90E080E00E945B
:103A2000F42B0E9487178091770282FB882780F908
:103A300091E089270E94431056C280E0FBCFC80165
:103A40000E94870AD82E5EC2212F2F70D22E107F9F
:103A500019F0D29490EFD922CC20B9F0DD2069F092
:103A600080E2800F883010F0811009C080916102DF
:103A7000D82AD09261020E941614802F43C08091F0
:103A80006002D82AD0926002F6CF802F0E94C3171E
:103A9000DD20D1F1005E083010F0811004C08D2DC2
:103AA0000E943E0A06C0D09480916002D822D09233
:103AB00060020E94161428C0312F3F70D32E107F51
:103AC000103219F0D29480EFD822882059F041E0CA
:103AD000841609F48EC0CC2009F49AC0BB2009F4E6
:103AE00047C0CBCF8091770282FD3EC0CC20B1F1A0
:103AF000DD2039F080916102D82AD09261020E94C3
:103B0000161480E00E94F817492D4850550B443098
:103B1000510510F40E94E507AA20A9F080915702F0
:103B200080FD11C0F70115828695869586950E94C5
:103B3000310BC7010E949F1A809157028695869586
:103B400086950E940D0B20E0F70140815181628132
:103B50007381848195810E94980F29CE80E00E9414
:103B6000C317DD2089F29BCFCC2071F1B11004C0C6
:103B70008D2D0E94B917C8CF51E0B51211C0109118
:103B800064028D2D8123D81609F4BECF0E946611E0
:103B90009093630280936202D12AD0926402B4CFE0
:103BA00085E0B812B1CF8D2D0E94B9178D2D0E94DE
:103BB0000114809154029D2D9823D91609F4A4CFA5
:103BC000D82AD0925402A0CFB1100AC08D2D0E94E5
:103BD000B2178D2D0E9401148D2D0E944C0A94CF96
:103BE00091E0B91291CF809161028D2109F48CCFBF
:103BF000EDCFCC2029F0E5E0EB1508F485CFB8CF68
:103C0000F4E0FB1508F480CF8D2D0E94B2177CCF15
:103C1000BB20D1F329E3821209C03FEF47EE53E006
:103C2000315040405040E1F700C00000802F0E941A
:103C3000C3176ACF812F86958695837061F0813096
:103C400009F062CFC8019370C11002C080E090E01B
:103C50000E949B0759CFC8019370C11002C080E039
:103C600090E00E94C00750CF812F837089F5C1106A
:103C70004BCF402F429546954770440F440F802FFD
:103C80008F70042E01C0880F0A94EAF7202F20714C
:103C900004FF07C02FE030E001C0220F4A95EAF789
:103CA0002095169516951370123069F050F43091E6
:103CB0007402113029F0822B83230E943D0B24CF04
:103CC000832B822BFACF282B809174028227F5CF89
:103CD0008695CC2011F0812F8170882309F414CFB0
:103CE000402F429546954770440F440F802F8F70A8
:103CF000042E01C0880F0A94EAF7202F207104FFD8
:103D000007C02FE030E001C0220F4A95EAF7209566
:103D1000169516951370123069F050F430917502B3
:103D2000113029F0822B83230E94EA0AEDCE832BE7
:103D3000822BFACF282B809175028227F5CF1F7036
:103D4000CC2029F0812F0E94310B802F12CF802FA1
:103D50000E94B217812F0E940D0BD6CE802F92EFBA
:103D60008916B1F1981570F0E0EF8E16D1F0F1EFF1
:103D70008F1691F0CC2009F466C0B1107ECE812F51
:103D80008F712AC023EF821651F134EF8312F2CFE4
:103D90008091770282FD2FC0812F8F71CC20D9F2C4
:103DA0001BC0CC2081F044E04B1508F4ADCE1F7150
:103DB00081E090E0012E01C0880F0A94EAF790910B
:103DC00075028927B1CF55E05B1508F49DCEEFCF82
:103DD000812F8F71C110BFCF0E94310B95CE80E033
:103DE000CC2009F4A1CF1F7181E0012E01C0880F02
:103DF0000A94EAF799CFCC20C9F0809157028770D6
:103E0000843041F40E94450A812F8F710E940D0B6E
:103E1000A12C7ACE84E08B15D8F31F71812F0E94DC
:103E2000310B63E0812F0E946719F2CF94E09B155C
:103E300030F40E94450A64E0812F8F71F4CF81E055
:103E40000E941A0BE5CFBB2059F0893309F0EECE62
:103E5000EFEFF7EE23E0E150F0402040E1F7E4CE51
:103E6000812F8F7178CF0631FCE71F0711F5809104
:103E700061028A7A91E009F490E090932B0269E262
:103E8000811165E38EE891E00E9481070E9416147B
:103E90007FCC06312CE7120709F47FCD07373CE7CA
:103EA000130709F497CD08374CE71407E1F482E0D3
:103EB00092CD07375CE7150709F483CD08378CE707
:103EC000180709F48BCD03303CE7130709F4A3CDA1
:103ED00008F086CD01155CE7150709F48FCD013098
:103EE0001C4709F49ECDF70185810081118188234B
:103EF00009F4A5CDC8010E94360FD82E682FC8013D
:103F00000E94CF0AB8018D2D0E94080F0E9415094A
:103F10008C01882EF701C580B680B2943FE0B322B1
:103F2000809157028770F1F0AC2CCC20E1F0812F0A
:103F3000807F803451F080E2800F883098F0B1109B
:103F400004C0812F807E803269F08091770282FFE9
:103F500009C082E00E941A0B809157028770AA2440
:103F6000A3948111A12C912E92942FE09222FBE038
:103F7000F91508F4C9CDE92DF0E0E15CF34D0C949E
:103F80006C2BCF93DF9380915302807F09F04DC05B
:103F900080915202882309F448C0E091680350914F
:103FA0002F03C0914E02D0914D0260914F0270914B
:103FB000500247E05E17C9F18E2F90E0E49FF001B8
:103FC0001124E05DFC4F2481222391F1489FF001F0
:103FD000499FF00D1124DF01A05DBC4F11962C917B
:103FE00011972C1325C02C912D1322C015962C91BE
:103FF000159721111DC012962D913C91261B370B50
:10400000283C3105A8F4809153028F708061809321
:104010005302EA5CFC4F80818F70806180838DE465
:1040200092E00E949F1A0E94560ADF91CF91089554
:10403000FC013196E770BECFA4E1B0E0E2E2F0E22D
:104040000C94DA2A8C0186E0F801DE011F960190BB
:104050000D928A95E1F7F8018481E5809DE4A92E0F
:1040600092E0B92E90915102911128C0882319F144
:10407000EE20F1F0C8010E94750FF82E8823C1F0E0
:1040800087E0F801D50101900D928A95E1F78091C2
:104090005102813031F480914D0290914E020E9484
:1040A000680F0E94C11F8F2D6496ECE00C94F62AD5
:1040B000C8010E949F1AFF24F394F5CFD080C180DD
:1040C00082809380F090520220914F0230915002F2
:1040D000A401421B530BFF2009F4D9C0483C5105F1
:1040E00008F092C08823F9F290914E028091530219
:1040F000282F207F09F056C0C91214C090914D029C
:10410000D91210C0E11048C08F70806180935302B3
:104110008DE492E00E949F1A80915302F8018683F9
:10412000F12CC1CFE11038C06C2D8D2D0E94E70518
:104130006C2D8D2D0E94E705E82E8111F1CFDF86D1
:10414000C88A8F8598890E94680F292F22952F7021
:10415000243058F49F70223088F0992399F0F801A8
:104160009681907F79F4FE2C9ECF2A5F2F702230AB
:1041700068F0C8010E949F1AEF2CF5CF992311F027
:10418000882389F3805E883070F3F3CF803F58F343
:10419000815F833070F7E7CF809153028160809315
:1041A0005302BECFC91207C090914D02D91203C06D
:1041B000EE2009F48DC0C8010E94750F882309F410
:1041C00077CFEE2009F474CF80915302803288F0CB
:1041D00020914D0230914E02398728879B868A862E
:1041E000909151029C871D868E87CE0108960E9471
:1041F0009F1A87E0F801ADE4B2E001900D928A9534
:10420000E1F70E94C11F57CF90915302292F207FC1
:1042100051F48DE492E00E949F1A87E0F50111921B
:104220008A95E9F77DCF882309F43DCF80914E022E
:104230008C1110C080914D02D8120CC0E1100AC040
:104240009683C8010E949F1A87E0F50111928A9512
:10425000E9F729CFC8010E94750F882309F428CFF8
:10426000EE2009F425CF80915302803210F2209184
:104270004D0230914E023A8329839C828B82909129
:1042800051029D831E828F83CE010196B0CF483CA0
:104290005105D0F6882309F40ECFFE2CEE2009F448
:1042A00007CF80914E028C1120C080914D02D81210
:1042B0001CC08091530280FD0FC0982F907F61F049
:1042C0008683903F31F0982F907F905F8F70892B7D
:1042D0008683C8010E949F1A87E0F801ADE4B2E02E
:1042E00001900D928A95E1F7DECEC8010E94750F0C
:1042F00081117FCF80915302816080935302C80166
:104300000E949F1AD0CEA6E0B0E0E9E8F1E20C945A
:10431000E22A0E9466118C018091650290916602EA
:104320008017910781F019821A820E946611682F06
:1043300049815A81792F80E090E00E947E19109384
:104340006602009365022696E4E00C94FE2A1F9212
:104350001FB61F9211248F939F93AF93BF938091A9
:104360001303811113C08091140390911503A09140
:104370001603B09117034196A11DB11D809314033C
:1043800090931503A0931603B0931703BF91AF91B9
:104390009F918F911F901FBE1F901895CDB7DEB7CC
:1043A000C654D1090FB6F894DEBF0FBECDBF85B796
:1043B000806885BF85B7806885BF84B7877F84BFE5
:1043C0000FB6F894A8958091600088618093600092
:1043D000109260000FBE80E890E00FB6F8948093D2
:1043E0006100909361000FBE8EE298E090938D0182
:1043F00080938C010E9406060E94A7068091E2002D
:1044000084608093E2007894809125038823A1F052
:104410001091E9001F709091EC00892F817090FD40
:1044200080E8182B1092E9008091E80083FD0E943B
:104430007A141F701093E90082E084BD93E095BD6B
:104440009AEF97BD80936E000E94BD0F811102C04C
:104450000E94900E82E08093C40242E751E0E0E7C0
:104460008E2EE1E09E2EF4E7EF2EF1E0FF2E840188
:104470009A0161E070E0D9018D919D01E82FE295EC
:10448000EF70F0E0B1A08F706B0101C0CC0C8A9589
:10449000EAF79C2D90959B2191A382A18C2982A360
:1044A000F80181918F01E82FE295EF70F0E0B1A063
:1044B0008F706B0101C0CC0C8A95EAF79C2D90950A
:1044C0009B2191A382A18C2982A3EA16FB0699F66F
:1044D0008FE891E00197F1F700C000001091C4024D
:1044E00065EC72E0FB018E2F861B811708F40FC16B
:1044F000ACE5B1E020E631E0AD0101E010E0FA0109
:104500008191AF01E82FE295EF70F0E091A18F70FB
:10451000B80101C0660F8A95EAF7892F862B81A31F
:10452000F1E040365F0759F761E070E09D91E92FB7
:10453000E295EF70F0E042A19F708B0102C0000F86
:10454000111F9A95E2F7C8018095842382A32A1748
:104550003B0761F7A7E5B1E04CE551E061E070E0B1
:104560008D91E82FE295EF70F0E011A18F709B0123
:1045700001C0220F8A95EAF7922F9095912391A37B
:1045800082A1822B82A34A175B0751F710926B021C
:1045900010926A021092CD021092CC0210926D021B
:1045A00010926C021092CF021092CE0210926F0203
:1045B00010926E021092D1021092D00210927102EB
:1045C000109270021092D3021092D20210927302D3
:1045D000109272021092D5021092D40290E080E004
:1045E0000E94C02B863E9E4F21F40E94BD0F811178
:1045F00067C066EE7EEF90E080E00E94F42B60E002
:1046000082E090E00E94D62B60E083E090E00E9480
:10461000D62B1092740260E074E184E090E00E9476
:10462000F42B60E086E090E00E94D62B6FEF87E0ED
:1046300090E00E94D62B40E050E0BA0188E090E084
:104640000E94E82B60E084E290E00E94D62B60E0BC
:1046500087E190E00E94D62B60E08CE090E00E9421
:10466000D62B60E08DE090E00E94D62B19821A8252
:104670001B821C821D821E821F82188648E050E029
:1046800068E170E0CE0101960E94C62B40E050E048
:10469000BA0180E290E00E94E82B80E00E94770E51
:1046A0000E94900E40E050E0BA018FE090E00E943E
:1046B000E82B40E050E0BA0183E190E00E94E82B53
:1046C00082E090E00E94B82B8093780284E090E032
:1046D0000E94C02B90937702809376020E9442132F
:1046E0002FEF36E781E0215030408040E1F700C0F5
:1046F00000000E9442138091CC0280FF31C06FEF16
:104700007FEF90E080E00E94F42B0E946407DA01C2
:104710002D91AD01822F82958F7090E0DC019096F3
:104720008C9190E02F7002C0959587952A95E2F7BD
:104730008170D4019D914D01292F22952F7030E079
:10474000D90190962C9130E09F7002C03595279545
:104750009A95E2F790E020FD92E0892B8193C3CEF9
:1047600083E090E00E94B82B0E943D0B82E0809392
:10477000030380E880936C030E94D4296BE070E00F
:1047800087E591E00E94D60F8823E9F18091030329
:1047900065E070E081FDC5C082E591E00E94D60F22
:1047A000882389F16DE070E080E491E00E94D60FEB
:1047B000882349F10E947507605A75418F4F9F4FBA
:1047C0006093050370930603809307039093080397
:1047D000EFE6F3E080E092E0DF018C011D920150F2
:1047E0001040E1F7F0937605E09375058FEF9FEFAA
:1047F00090936E0380936D0381E080930A0380930E
:1048000009031092040380E091E0909310038093D9
:104810000F0378E1272E312C80912503853089F410
:1048200040E4D42E06ED12E050E1E52E62E1F62ED2
:1048300080912503853009F477C00E9464140E949A
:10484000E5070E94421329E7A22E22E0B22E3CEC9B
:10485000832E32E0932E43E852E0D401F5012191FA
:1048600031918D919D914E175F0709F496C02817DD
:104870003907A9F3712CD4010D911D914D01F5015A
:10488000C190D1905F01C016D10609F441C0C02685
:10489000D126612CEE24E394F12C55245394C601C7
:1048A0008E219F21892B51F122966FAE229723965C
:1048B0007FAE23970E94661125969FAF8EAF2597F6
:1048C00026965FAE269791E098012E213F21232B5B
:1048D00009F490E027969FAF279722964FAD229735
:1048E00023965FAD239724966FAD249725967FADD1
:1048F000259726968FAD26970E947E196394EE0C1D
:10490000FF1CF0E16F12CBCFF501329711830083CA
:10491000739405E07012AFCF0E94750799249394A9
:1049200043C08DE491E03ACF80912503843019F1A2
:104930000E940010109213030FB6F894A8952092CD
:1049400060000FBED092600083B7817F846083BF18
:1049500083B7816083BF7894889583B78E7F83BF48
:104960000FB6F894A89580916000886180936000EC
:10497000109260000FBE80912403882309F458CF61
:104980000E944213ECECF2E081919191892B09F0A5
:10499000EDC40E171F07C1F74BCF2817390709F0D1
:1049A00069CF0E948321912CC0908E02D0908F02FB
:1049B0000D2C000CEE08FF088091080190E0EEE855
:1049C000F2E021E030E03296821793070CF0D0C07D
:1049D00080918A0290918B02A0918C02B0918D02FD
:1049E0006FB7F8944090140350901503609016032D
:1049F000709017036FBF481A590A6A0A7B0A109110
:104A0000080129EC421651046104710414F18091EB
:104A1000890290E0019669E170E00E94172B809373
:104A20008902880F991FFC01E257FD4F1182108205
:104A3000812F183108F087E18F5F809308010E9471
:104A4000750760938A0270938B0280938C02909317
:104A50008D0232E0C316D104E104F1040CF495C0D8
:104A6000A0E6BAEEA70196010E94792B6B017C01AA
:104A700088EC189F90011124032E000C440B550B59
:104A8000240D351D461D571DA5E0B0E00E94792B71
:104A90009B01AC01C701B6010E942B2B29013A01F1
:104AA00091EF49165104610471042CF0B0EF4B2EC4
:104AB000512C612C712C8091850290918602A091DD
:104AC0008702B09188022FB7F894C0901403D09059
:104AD0001503E0901603F09017032FBFC81AD90AE8
:104AE000EA0AFB0AA5E6CA16D104E104F10484F03F
:104AF0000E947507609385027093860280938702F7
:104B0000909388028091DA0280938402409283021B
:104B100010918402A0918302A11BBB0BA7019601F7
:104B20000E94842B24E630E040E050E00E944D2BB0
:104B3000120F1093DA0210E000E062E0862E74E0BB
:104B4000A72EB12CEDEF7E2E66246394FCEF5F2E32
:104B5000A3E04A2E8091C4021817D8F0002309F46C
:104B6000C0C00E9475070E9472110E941B10BDC038
:104B700040815181052E000C660B770BC40ED51EAB
:104B8000E61EF71E2F5F3F4F1ECF412C512C3201E6
:104B900092CFE12EF12CF701EE58FE4F8081E82FE5
:104BA000E295EF70F0E0E0A1F0E08F7002C0F595C3
:104BB000E7958A95E2F7E170D701A059BE4F2C9195
:104BC000A22FA295AF70B0E090968C9190E02F70DC
:104BD00002C0959587952A95E2F780FD80C080E018
:104BE0008E2BD701AB53BD4FEC919E2F937089173D
:104BF00009F473C0EE0FEE0FE82BEC93EF70F0E0CA
:104C0000E05AFE4F97012E533D4F69018081D90133
:104C10009C91890F8C9320E084304CF1F701E05493
:104C2000FD4F80818F5F80830E9466111DAB5EAA5D
:104C3000682F8FAB98AF49AE6AAE412F5CEF792FEA
:104C400083E091E00E947E190E9466111BAF5CAE6A
:104C5000682F8DAF9EAF4FAE21961FAE2197412F8B
:104C60005CEF792F83E090E00E947E1921E0F6014D
:104C700080818D3F3CF5F701E054FD4F80818150EC
:104C800080830E94661119A77AA6682F8BA79CA71C
:104C90008DA66EA6412F5DEF792F82E091E00E94F4
:104CA0007E190E9466111FA778AA682F89AB9AAB5C
:104CB0008BAA1CAA412F5DEF792F82E090E00E9421
:104CC0007E1921E0D6018C91082E000C990BB501BC
:104CD0000E94172BF6018083022B1F5F3BCF82E0DF
:104CE0007FCF0E947211911040CF0E94E5079091F2
:104CF000C702891721F08093C7020E94750780912F
:104D00002503843009F088CD83E08093E900809109
:104D1000E80082FF81CD8091E80090E085FF05C02A
:104D20000E942506882331F191E08091E8008B777D
:104D30008093E800992309F46FCD0091D602109179
:104D4000D70289810115110591F18E3F09F0BBC091
:104D50008A81833020F08550833008F0B4C0EA8126
:104D6000EE3008F0B0C0F0E0E55BF34DCE01019607
:104D70000C946C2B00E210E09E012F5F3F4F7901F5
:104D80008091E80085FD0AC08091E8008B778093D0
:104D9000E8000E942506882399F3C6CF8091F10090
:104DA000D7018D937D010150110951F7BDCF8C3092
:104DB00009F4EEC078F5843009F4D1C058F482309B
:104DC00009F470C008F0BCC0813009F467C08FEFEF
:104DD000898379C0863009F4D8C008F4CBC08B3001
:104DE000B1F780910B0390910C03892B09F46BC0F0
:104DF00040E250E0BE016F5F7F4F82E00E945B0D9A
:104E00003FEF81EE94E0315080409040E1F700C0E8
:104E100000007BCC803109F4EEC0A0F58E3009F49F
:104E2000BEC008F4B8C080910B0390910C03892B8D
:104E300009F449C08C81E82EF12C0DE1E016F10453
:104E400008F041C0CA80DB80DC24CD24DC248E0144
:104E50000F5F1F4FE00EF11EC60187589E4FE016F0
:104E6000F10689F127E8C21622E0D20628F4D8011B
:104E700014966C910E94D62B0F5F1F4FBFEFCB1A79
:104E8000DB0AEACF823109F4BBC008F4B7C0833132
:104E900009F4E1C08E3F09F09ACF61CF1A8289E010
:104EA0008B8311C08A81823009F476C28330A1F0ED
:104EB000813009F08CCF0E9475070E94722B6B83A2
:104EC0007C838D839E8340E250E0BE016F5F7F4F05
:104ED00082E00E945B0DA0CC80910B0390910C03AB
:104EE000892B89F38091CC029091CD029827892754
:104EF00098279C838B838091CE029091CF02982734
:104F0000892798279E838D838091D0029091D1022A
:104F100098278927982798878F838091D20290912C
:104F2000D3029827892798279A8789878091D40266
:104F30009091D5029827892798279C878B87C3CF84
:104F40008A81823009F043CF6B817C818D819E8183
:104F50000E94722B88E290E00E94D62BB4CF4C8145
:104F60006B818A810E94D90E9827892798279E8372
:104F70008D83A9CF2D813E813227232732274C8173
:104F80006B818A810E94F20D9ECF0E94180E9BCFEA
:104F900080E18A8398CF82E08A8387E881CF8C8101
:104FA000E82EF12CBDE1EB16F10408F08CCFCA809D
:104FB000DB80DC24CD24DC248E010F5F1F4FE00E4C
:104FC000F11EC60187589E4F0E151F0509F47BCFB1
:104FD000E7E8CE16E2E0DE0658F40E94B82BD801CE
:104FE00014968C93FFEFCF1ADF0A0F5F1F4FE9CFA4
:104FF000F8011482F7CF0E94B10D65CF82E0C9CFCE
:105000008C81E82EF12CEDE1EE16F10408F05BCF77
:10501000CA80DB80DC24CD24DC248E010F5F1F4F8F
:10502000E00EF11EC60189960E151F0509F44BCF3F
:10503000F0E4CF16F1E0DF0658F40E94B82BD80157
:1050400014968C93FFEFCF1ADF0A0F5F1F4FEACF42
:10505000F8011482F7CFEC80F12C0DE1E016F10499
:1050600008F031CF0A811B81102701271027003457
:1050700021E0120708F027CF80E491E0801B910B1C
:105080008E159F0508F41FCF480139E2830E911C4D
:1050900080910B0390910C0338016E0C7F1C892BBF
:1050A000B9F5680181E0C822DD2400FF0DC0C80108
:1050B00088960E94B82B9D8189279827892781157A
:1050C0009C4711F48FEF8D83570160FE17C0B1E04C
:1050D000AB1AB10855E0452E512C4C0E5D1E4A0C02
:1050E0005B1CC4018E0D9F1D0E94B82BF2019081A4
:1050F00081159C4719F48FEFD2018C93E1E0F0E029
:10510000EC0FFD1FEC0DFD1D2FEFCA14DB0428F082
:105110009E012F5F3F4F790119C0948185818115D0
:105120009C4711F42483258332E0C30ED11C3296B0
:10513000ECCF0034A1E01A0720F4F70164810E944B
:10514000D62BFFEFEF1AFF0A0F5F1F4FC80189969A
:105150006016710671F7B7CE28E0E2E1F1E0DE01FA
:10516000919601900D922A95E1F720E2DC011D92C3
:105170002A95E9F786E0898388E0FE01B196DE0191
:10518000159601900D928A95E1F79DCE88E389836B
:1051900082E08A831B821C8296CE0C81602F70E095
:1051A000762F66270B81060F172F111D012E000C7D
:1051B000220B330B45E0000F111F221F331F4A95AE
:1051C000D1F7B901A801405E5F4F6F4F7F4F401785
:1051D00051076207730708F476CE0833B2E01B0765
:1051E0002105310508F06FCE4933E2E05E07610525
:1051F000710520F048E352E060E070E0401B510B85
:10520000B8016E597E4F0E949B2B5DCE1B810C8195
:1052100040E0602F812F0E94A00E982789279827B1
:105220009A83898341E0602F812F0E94A00E9827E6
:10523000892798279C838B8346CE2E813F813227F6
:10524000232732272115FCE73F0741F480910B0308
:1052500090910C03892B11F430E020E041E08D8126
:10526000811101C040E06C818B810E94C10D2BCE69
:105270004AE150E06FEF70E0CE0107960E94B12B3B
:1052800080910B0389830A831B821C8284E08D83B7
:105290008EE08E8318CE81E090E09093D7028093C9
:1052A000D60282E390E09093CB028093CA020E94E0
:1052B00066119093C9028093C80205CE012B89F133
:1052C000F090CC020091D4021091D5028091C802D6
:1052D0009091C9020E9457118536910558F116FB2D
:1052E000002700F9002331F1F0FE24C00E9466116E
:1052F0009093C9028093C8028091CA029091CB0218
:1053000001979093CB028093CA02892B51F410929B
:10531000D7021092D60281E090E090930C03809324
:105320000B0380910B0389838091D6028A8380913D
:10533000CA02B6CD82E390E09093CB028093CA027A
:10534000F0CF10920C0310920B03BDCD40E250E061
:105350006FEF70E00E94B12BB6CD2B812111B3CD40
:1053600020E2DC011D922A95E9F7ADCDE9BCF9BC3C
:1053700009B400FEFDCF8091D8008F7D8093D800C6
:105380008091E00082608093E0008091E00081FDE8
:10539000FCCF0E9464144CCA88E290E00E94B82BB3
:1053A0001B821C821D8275CF1092B9008CE0809305
:1053B000B8000895B0E0A0E0E0EEF9E20C94DB2A3A
:1053C000B82EEB010E9466116C01EE24E394F12CDF
:1053D000C431D10560F025E0E22EF12CCF3FDC078F
:1053E00031F0CE0164E170E00E94C02A7B0184EAC2
:1053F000A82E94E8992E1092BC00A092BC000E94A6
:1054000066118C018091BC0087FF0DC08091B900AE
:10541000887F8830F9F08091B900887F8031D1F0A1
:105420000FEF1FEF08C0C8010E945711E816F906D8
:1054300048F70EEF1FEFCF3FDC07E9F2C6010E94ED
:105440005711C817D907B8F6C801CDB7DEB7EBE0DA
:105450000C94F72AB092BB009092BC000E94661197
:105460008C018091BC0087FF0AC08091B900887FC1
:10547000883111F08034A1F610E000E0E5CFC801DA
:105480000E945711E816F90660F7D3CF0F931F93C8
:10549000CF93DF93EB018093BB0084E88093BC0043
:1054A0000E9466118C018091BC0087FF11C0209181
:1054B000B900287F81E090E0283211F490E080E08C
:1054C000919581959109DF91CF911F910F91089549
:1054D000CF3FDC0741F3C8010E945711C817D90715
:1054E00010F78EEF9FEFEFCFB0E0A0E0EAE7FAE22F
:1054F0000C94DE2A6B018A017901B9010E94DA2934
:10550000E6010C0D1D1DC017D10711F097FF08C053
:1055100024E92093BC00CDB7DEB7E8E00C94FA2A6A
:10552000B70189910E94462AEECFB0E0A0E0EBE9F6
:10553000FAE20C94DE2AC62F6A017901B8010E94B2
:10554000DA2997FD0CC0B8018C2F0E94462AE6018B
:10555000EC0CFD1CCE15DF0511F097FF08C024E907
:105560002093BC00CDB7DEB7E8E00C94FA2AB8016E
:1055700089910E94462AEECF84E98093BC00089569
:10558000AA1BBB1B51E107C0AA1FBB1FA617B70769
:1055900010F0A61BB70B881F991F5A95A9F7809585
:1055A0009095BC01CD0108952F923F924F925F924A
:1055B0006F927F928F929F92AF92BF92CF92DF9223
:1055C000EF92FF920F931F93CF93DF93CDB7DEB788
:1055D000CA1BDB0B0FB6F894DEBF0FBECDBF09941C
:1055E0002A88398848885F846E847D848C849B8473
:1055F000AA84B984C884DF80EE80FD800C811B8181
:10560000AA81B981CE0FD11D0FB6F894DEBF0FBEAF
:10561000CDBFED010895991B79E004C0991F96173D
:1056200008F0961B881F7A95C9F78095089597FB17
:10563000072E16F4009407D077FD09D00E94C02AE7
:1056400007FC05D03EF4909581959F4F0895709585
:1056500061957F4F0895A1E21A2EAA1BBB1BFD0185
:105660000DC0AA1FBB1FEE1FFF1FA217B307E40741
:10567000F50720F0A21BB30BE40BF50B661F771F99
:10568000881F991F1A9469F7609570958095909579
:105690009B01AC01BD01CF010895052E97FB1EF4BF
:1056A00000940E94642B57FD07D00E942B2B07FC0F
:1056B00003D04EF40C94642B509540953095219571
:1056C0003F4F4F4F5F4F089590958095709561952E
:1056D0007F4F8F4F9F4F0895EE0FFF1F0590F4915E
:1056E000E02D099469279627692778278727782747
:1056F00008950E948C2BA59F900DB49F900DA49FA0
:10570000800D911D11240895B7FF0C94792B0E94F0
:10571000792B821B930B0895A29FB001B39FC00108
:10572000A39F700D811D1124911DB29F700D811DCD
:105730001124911D0895FB01DC0102C005900D921A
:1057400041505040D8F70895FB01DC0104C08D9111
:105750000190801921F441505040C8F7881B990BE3
:105760000895DC0101C06D9341505040E0F7089569
:10577000F999FECF92BD81BDF89A992780B5089519
:10578000A8E1B0E042E050E00C94FC2BDC01A40F57
:10579000B51F4150504048F0CB01840F951F2E910A
:1057A0000E94D72B41505040D0F70895262FF999E9
:1057B000FECF92BD81BDF89A019700B4021639F070
:1057C0001FBA20BD0FB6F894FA9AF99A0FBE089541
:1057D0000396272F0E94D72B0E94D62B252F0E949D
:1057E000D72B242F0C94D72B0196272F0E94D72B31
:1057F0000C94D62BDC01CB01FC01F999FECF06C03D
:10580000F2BDE1BDF89A319600B40D92415050407E
:10581000B8F70895F894FFCF5B15831531178315FA
:105820003117B615D7153117E016ED16DF1BE31B40
:10583000C21BDB1BE71BEB1BEF1B4A1CBF1C521CD4
:105840001C1C201C561C241C5A1C661C301CB81C1A
:10585000341C6A1C381C6E1C961C3C1C721C9D1C43
:10586000421C781C801C281C5E1C2C1C621C461CC4
:105870007C1C8C1CA61CB61C161C4E1CC61C241D95
:10588000241D5C1D5C1D1A1E841D841D841D341E78
:105890009F1EAE1EAE1EAC28C628CD2806291D2987
:1058A00038294B295E29A129A62963276327632765
:0258B000AD2920
:1058B20061079D0D6007960D01FF0021007F220008
:1058C20003018C592EF7BA40CCCA57504D00818241
:1058D20083E200E900EA00B500B600B700CD00831C
:1058E20001CC008A019201940121022302240225A3
:1058F20002260227022A02B300B4006F0070009F42
:1059020001CB019F02A00236323331F797C63435FC
:1059120000FF0100010000FFFF0000010001FF0085
:1059220094F466F50008101818100800402232009E
:0C59320001DE00AC00000519053905007D
:00000001FF
