:100000000C944B060C9468060C9468060C946806D5
:100010000C9468060C9468060C9468060C946806A8
:100020000C9468060C9468060C94CB120C94AF18D0
:100030000C94AF240C9468060C9468060C94680623
:100040000C9468060C9468060C9468060C94680678
:100050000C9468060C94A4130C9468060C9468061F
:100060000C9468060C9468060C9468060C94680658
:100070000C9468060C9468060C9468060C94680648
:100080000C9468060C9468060C9468060C94680638
:100090000C9468060C9468060C9468060C94680628
:1000A0000C9468060C9468060C9468060501098097
:1000B000A101850319012AB700150126B700950192
:1000C00075108100C0050C0901A101850419012AE0
:1000D000A002150126A002950175108100C00660DE
:1000E000FF0961A1010962150026FF00952075082E
:1000F00081020963150026FF00952075089102C052
:1001000005010906A101050719E029E715002501E8
:10011000950875018102950175088101050719008F
:1001200029FF150026FF00950675088100050819AE
:10013000012905950575019102950175039101C08D
:1001400000DA0281FFD9F1DB20A4A62EAF00A0C007
:1001500000A1C800AED580A81FD300408D14200098
:10016000783C1EFD377A585A000004E6D6B44602A1
:1001700000210116000000742FE5A3E0066301F5DD
:100180005D003D8889C65436C3174FE4F55C267D73
:10019000B380F3B5C66371860F1B80DDAB03511CC2
:1001A000299A66DF75DCD66C18E389AD388BD0935D
:1001B000C420493538BA06A9FDD35E392E5D9E09A3
:1001C00073AE08EDFCD5214987AB94A9768F6B49B6
:1001D000B357AA9E5706559105D54FB243C5936BA9
:1001E000CB96F6DF062629D54CD6CAFE4C7B827804
:1001F00082A9A9034B9910B8547BC64CB1D5AF75F1
:10020000866369E9601B02F58D1D31C902905A5E53
:100210006FDFF0CC714951A18D89FBD45F034EBBD8
:10022000D9D056E9713D8819A9D0333B8A4FF805DA
:100230002A8C6B87B6A991DE2B5DB7DA468AB1B0FE
:10024000B24271BB122D24CA4E4654ECAE031B249D
:100250009B1E31C2C45AC0CD67C1A295C6422BC2F3
:10026000B2A095064C01BECB2E9440999FDDA11FF4
:10027000DB0EBF564467C88B448AF64C3CA30F8400
:100280005B39080C4B03EDCE74AB711FEDDD0EB185
:10029000DB68C01D4A9A05D979987C5B9494E0FA92
:1002A000180B8F561F8A910849C480C42AA6A4A996
:1002B000DE51CBB6A39B0CD30B9DAF037C1DF04648
:1002C000440EBF91B9003508D150429A312368BF1E
:1002D0004368C9E1E7DC2D311F3228602717EC1B8A
:1002E000532B4D2744A24563A098E55AF781727CB1
:1002F00081B81C3E5AF524A7C7C2E1EC4887FE1E10
:100300009F603126088403025371B145DC3E62EBE5
:10031000FF635D9796CCB84D2B5044528350BF90ED
:100320007315E8A0E31C0A270EAFE234D0CB2AF104
:100330002ACAE729D5C11B898F0299EB32F8822896
:100340002AE9A0662B7A2AAA3934DC00D39CAD9620
:1003500063031426000B76E680557CA98D4F453744
:10036000F8631FFC3D717B5463593C571C836298B2
:1003700085FE1C1072D200000000004F1F4736CAD5
:10038000A942E800019104E40C0000F098E8B0B143
:10039000C467FB020000000004595A00010101017A
:1003A0000101010101020202020202020202030330
:1003B0000303030303030404040404040405050500
:1003C00005050606060606070707070708080808C2
:1003D000090909090A0A0A0B0B0B0C0C0C0D0D0D6F
:1003E0000E0E0E0F0F0F1010111111121213131405
:1003F00014151516161717181819191A1A1B1B1C7D
:100400001D1D1E1E1F2020212222232424252626D6
:10041000272829292A2B2C2D2D2E2F30313232330B
:100420003435363738393A3B3C3D3E3F4041424314
:100430004445464748494A4C4D4E4F5051535455F8
:100440005658595A5B5D5E5F616264656668696BA8
:100450006C6D6F7072737577787A7B7D7E80828326
:100460008587888A8C8E8F91939596989A9C9EA06A
:10047000A2A3A5A7A9ABADAFB1B3B5B7BABCBEC077
:10048000C2C4C6C9CBCDCFD1D4D6D8DBDDDFE2E440
:10049000E7E9EBEEF0F3F5F8FAFDFFFFAA7F554030
:1004A000AC00AB00AA00A900AC00AB00AA00A900F8
:1004B00029001E001F00200021002200230024002C
:1004C0002500260027002D002E0000002A004A00EB
:1004D0002B0014001A000800150017001C0018005B
:1004E0000C00120013002F00300031004D00AE0050
:1004F000390004001600070009000A000B000D0077
:100500000E000F0033003400000028004B00A8004C
:10051000356200001D001B000600190005001100D7
:100520001000360037003800E50052004E00000091
:10053000E000E300E2000000000000002C000000EA
:1005400000000000E6000151500051004F00000083
:1005500001003A003B003C003D003E003F004000EF
:100560004100420043004400450000004C004A00A6
:100570000100010001000100010001000100010073
:100580000100010001000100010001000100010063
:100590000100010001000100010001000100010053
:1005A0000100010001000100000001000100A8009D
:1005B0000100000001000100010001000100010034
:1005C00001000100010001000100520001000000D3
:1005D000E000E300E2000000000000002C0000004A
:1005E00000000000E600E400500051004F00000051
:1005F00000AF00AE09025B00030100A0FA0904008D
:10060000000103010100092111010001224000073E
:10061000058103080001090401000203000000092C
:100620002111010001222200070582032000010799
:100630000503032000010904020001030000000972
:10064000211101000122320007058403200001125C
:1006500001000200000008868056560001010203D6
:10066000011C037600690061006C003A00660036E8
:100670000034006300320062003300630000000CAD
:10068000036C00610067006F006D000000120353EF
:1006900000540048004C004D0020006B0062000038
:1006A0000004030904000000000000000000000036
:1006B000000000000000000000000000000000003A
:1006C0000000000000000000007E0F00D4FFFFFFCC
:1006D000C70000007800000000000000002A2B285E
:1006E000000000000000000000000000000000000A
:1006F00029000000002C1E34202122243426272526
:100700002E362D3738271E1F20212223242526335D
:1007100033362E37381F0405060708090A0B0C0D5F
:100720000E0F101112131415161718191A1B1C1D71
:100730002F3130232D350405060708090A0B0C0D4F
:100740000E0F101112131415161718191A1B1C1D51
:100750002F3130354C07087F0807003E5B4F5B3E6A
:10076000003E6B4F6B3E001C3E7C3E1C00183C7EE6
:100770003C18001C577D571C001C5E7F5E1C00004F
:10078000183C180000FFE7C3E7FF0000182418001A
:1007900000FFE7DBE7FF0030483A060E0026297924
:1007A000292600407F05050700407F05253F005AA8
:1007B0003CE73C5A007F3E1C1C0800081C1C3E7F86
:1007C0000014227F2214005F5F005F5F0006097F34
:1007D000017F00006689956A006060606060009437
:1007E000A2FFA2940008047E04080010207E2010BE
:1007F0000008082A1C0800081C2A0808001E1010FF
:100800001010000C1E0C1E0C0030383E3830000654
:100810000E3E0E060000000000000000005F000019
:1008200000000700070000147F147F1400242A7FB3
:100830002A12002313086462003649562050000033
:100840000807030000001C224100000041221C0098
:10085000002A1C7F1C2A0008083E0808000080703F
:100860003000000808080808000000606000002050
:1008700010080402003E5149453E0000427F4000FE
:10088000007249494946002141494D33001814126C
:100890007F10002745454539003C4A494931004110
:1008A0002111090700364949493600464949291EA0
:1008B0000000001400000000403400000000081494
:1008C00022410014141414140000412214080002E0
:1008D00001590906003E415D594E007C1211127CFF
:1008E000007F49494936003E41414122007F414154
:1008F000413E007F49494941007F09090901003E05
:1009000041415173007F0808087F0000417F41008A
:10091000002040413F01007F08142241007F4040F9
:100920004040007F021C027F007F0408107F003ED1
:100930004141413E007F09090906003E4151215EC7
:10094000007F091929460026494949320003017FE1
:100950000103003F4040403F001F2040201F003F58
:100960004038403F00631408146300030478040314
:10097000006159494D4300007F4141410002040894
:10098000102000004141417F0004020102040040A8
:1009900040404040000003070800002054547840C5
:1009A000007F2844443800384444442800384444F4
:1009B000287F0038545454180000087E090200189B
:1009C000A4A49C78007F080404780000447D4000C3
:1009D000002040403D00007F102844000000417F7F
:1009E0004000007C04780478007C08040478003817
:1009F0004444443800FC182424180018242418FC0B
:100A0000007C080404080048545454240004043FA3
:100A10004424003C4040207C001C2040201C003C22
:100A20004030403C004428102844004C9090907C7A
:100A3000004464544C440000083641000000007734
:100A40000000000041360800000201020402003CE0
:100A50002623263C00000000000000404040F0F843
:100A6000F8FF38FFF8F83FF8F8FF38FFF8F8F040E3
:100A7000404000000000000080C0C0C0800000C0F6
:100A8000C08000000080C0C000C0C0000080C0C0A6
:100A90000000000000C0C0C0C0C000C0C000000016
:100AA0000000000000000000000000000000000046
:100AB0000000000000000000000000000000000036
:100AC0000000000000000000000000000000000026
:100AD00000000000C0F0F8FC3E1E06010000007F90
:100AE0004141417F007F4141417F000080C0E07E65
:100AF0005B4F5BFEC00000C000DCD7DEDEDED7DC73
:100B000000C0000000000000000000000000000025
:100B10000000000000000000000000494949FFFFFC
:100B2000FFFFE0DFBFBF00BFBFDFE0FFFFFFFF4908
:100B3000494900000000001F3F6060E0BF1F007FC8
:100B40007F071E381E077F7F007F7F0E1F3B71606F
:100B500000000000007F7F0C0C0C007E7E007F7E7A
:100B60000303007F7E03037E7E03037F7E000F3E30
:100B7000703C063C703E0F00327B49493F7E007F4F
:100B80007E0303001E3F69696F260000000000001D
:100B900000000000030F1F3F3C7870600000007FE2
:100BA0004141417F007F4141417F00307B7F783070
:100BB000202030787F3B0003000F7F0F0F0F7F0F47
:100BC0000003000000000000000000000000000022
:100BD0000000000000000000000000010101070FFC
:100BE0000F7F0F7F0F0F7E0F0F7F0F7F0F0F0701FC
:100BF00001010000000000000000000001010000F1
:100C000000000000000000000000000000000000E4
:100C100000000000000000000000000000000000D4
:100C200000000000000000000000000000000000C4
:100C300000000000000000000000000000000000B4
:100C400000000000000000000000000000000000A4
:100C50000000000000000000000000000000000094
:100C60000000000000000000000000000000000084
:100C70000000000000000000000000000000000074
:100C80000000000000000000000000000000000064
:100C900000000000000011241FBECFEFDAE0DEBF2D
:100CA000CDBF11E0A0E0B1E0E8E8F3E602C00590B6
:100CB0000D92A23AB107D9F725E0A2EAB1E001C04E
:100CC0001D92A83BB207E1F70E94D6240C949E31F6
:100CD0000C940000E8EDF0E080818E7F808310921C
:100CE000E2001092DA001092E100A0EEB0E08C91E8
:100CF00081608C9380818F77808319BCA7EDB0E0F1
:100D00008C918E7F8C9380818F7E80831092920352
:100D100008952091E4003091E50095E6A901209125
:100D2000EC00822F817020FF06C08091E80080FFD8
:100D300006C080E008952091E80022FD1AC080914D
:100D4000A803882389F0853089F08091EB0085FD28
:100D50000FC02091E4003091E50042175307F9F2EB
:100D60009150E1F684E0089582E0089583E00895CB
:100D700081E00895EF92FF920F931F93CF937C0130
:100D80008B010E948906C82F811117C08091E8004D
:100D900085FD0BC08091E8008E778093E8000E946B
:100DA0008906882399F3C82F08C0F70181917F0134
:100DB0008093F1000150110949F78C2FCF911F91B9
:100DC0000F91FF90EF900895CF93FC018091A803BD
:100DD000843001F5C091E900CF702091EC00922F92
:100DE000917020FD90E8C92B82E08093E90080910A
:100DF000E80080FF0CC050E040E060E270E0CF010E
:100E00000E94BA068091E8008E778093E800CF7048
:100E1000C093E900CF9108958091A00387FF13C08C
:100E20008091E80082FF06C08091E8008B77809374
:100E3000E80004C08091A8038111F2CF0895809149
:100E4000A8038823D9F38091E80080FFF8CF809130
:100E5000E8008E77ECCF982F9093E900242F762F1F
:100E600050E0891731F07091EC002091ED00509125
:100E7000F00021FD07C09F5F973071F78093E90074
:100E800081E008953091EB003E7F3093EB0030918C
:100E9000ED003D7F3093ED003091EB0031603093F9
:100EA000EB007093EC002093ED005093F000209144
:100EB000EE0027FDE0CF80E00895B0E0A0E0E3E69B
:100EC000F7E00C946F30C8EDD0E088818F7E888386
:100ED000E7EDF0E080818160808384E082BF81E083
:100EE0008093920388818E7F888302EE10E0F80160
:100EF00010821092DA0081EEC82ED12CF6011082F9
:100F000088818F77888388818068888388818F7DB6
:100F1000888319BC1092A80310929F0310929E031D
:100F200010929D0390EEE92EF12CF70180818B7FCA
:100F3000808388818160888342E060E080E00E9455
:100F40002B07F60180818E7F8083F801808181608C
:100F50008083808188608083F70180818E7F808399
:100F6000888180618883CDB7DEB7E8E00C948B3050
:100F7000FC018091A6039091A70386179707A0F024
:100F80006115710529F49091E8009E779093E8002F
:100F900090E06115710551F4911108C08091E8004D
:100FA00082FF34C080E00895BC01F2CF8091A80395
:100FB0008823C1F18530C1F18091E80083FD30C004
:100FC0008091E80082FDEACF8091E80080FFE1CFC8
:100FD0008091F3002091F200382F6115710519F00E
:100FE0002830310558F091E02830310509F090E0C3
:100FF0002091E8002E772093E800CBCF8191809359
:10100000F100615071092F5F3F4FE7CF8091A80336
:10101000882341F0853041F08091E80083FFBECF06
:1010200081E0089582E0089583E008950895089589
:10103000089580919403089587E797E790930108B6
:101040008093000888E19AE00FB6F894A895809301
:1010500060000FBE90936000FFCF2FB7F8946091AF
:101060008B0370918C0380918D0390918E032FBF21
:10107000089520918803309189032817390771F06A
:101080009093890380938803E0918603F09187030E
:10109000309721F00084F185E02D09950895209185
:1010A0008403309185032817390771F090938503E5
:1010B00080938403E0918603F0918703309721F0B9
:1010C0000680F781E02D09950895E0918603F0915F
:1010D0008703309729F00190F081E02D099508955C
:1010E00080E008953091AD038317A0F590E0262F9E
:1010F000269526952695239F800D911D11248115F7
:1011000022E092073CF5FC01E055FC4F50816770EE
:1011100021E030E001C0220F6A95EAF74423D9F0BC
:10112000252B2517B9F0208325E0969587952A95DC
:10113000E1F721E030E002C0220F331F8A95E2F789
:101140008091AE039091AF03822B932B9093AF03CA
:101150008093AE03089520952523E3CFFA018111F2
:1011600001C0FB010995089580917303982F9E7F1C
:1011700029F4817082608093730308958E31E8F3BF
:1011800081708C61F8CFAF92BF92DF92EF92FF92A5
:101190000F931F93CF93DF93082F162FE901E42FAE
:1011A000F0E0E556FC4F611110C0E4915E2F4E2F28
:1011B0004983E8835A83DF91CF911F910F91FF906C
:1011C000EF90DF90BF90AF900895E62EF12C449100
:1011D000D42EE42FF0E026E0829FC00111242FEFEF
:1011E00030E0B9010E945130802F90E0880F991FA4
:1011F00055E5569FD001579FB00D11248A1B9B0BBC
:10120000982F990F890F5901AE18BF08AE9ED001D3
:10121000AF9EB00DBE9EB00D11245B2F189F8001B4
:101220001124012F11275901A01AB10AAE9E800185
:10123000AF9E100DBE9E100D11245901A81AB108C1
:10124000AE9CC001AF9C900DBE9C900D1124892FC7
:101250009927281B390B2E9FC0012F9F900D3E9F71
:10126000900D1124E92F62307105A1F050F4611541
:10127000710509F49DCF6130710581F0EB2F512F7D
:1012800097CF6430710569F080F06630710509F41C
:101290008FCFF4CFE42F4B2F592F8ACFE42F412F3C
:1012A00087CFEB2F542F492F83CF4B2F5D2DE12F6D
:1012B0007FCF80E008959091BA0292FF06C0282F58
:1012C00028712830F9F4877F846093FF06C0282FA7
:1012D00028712831F1F4877E84612091BB0220FFC0
:1012E00006C0382F38713830D9F4877F816021FFEC
:1012F00006C0282F28712831D1F4877E816194FDA2
:10130000877E0895282F24712430F9F68B7F88601A
:10131000DCCF282F2471243101F78B7E8861DDCF4B
:10132000382F3171313019F78E7F8860E0CF282F48
:101330002171213121F78E7E8861E1CFCF93DF9338
:10134000EC0182389105B1F108F040C0813391057C
:1013500009F49DC048F58932910509F48DC08A973A
:1013600009F49CC0C11522E5D20708F0BDC0C11523
:1013700031E5D30708F025C1C83ED10508F0A3C068
:10138000C13ED10588F5C83AD10508F08EC0C53AEE
:10139000D10508F0F6C0C130D10531F1209721F117
:1013A000C430D10508F545C08533910509F45FC007
:1013B000C997C1F68091BA02837009F037C1809154
:1013C000BB0283FF11C0C9E2D0E00EC0833E91058D
:1013D00099F170F4803E910501F1823E910511F67C
:1013E0008091BA0282FD21C0CE01DF91CF91089594
:1013F000863E910561F1873E910571F1843E91052C
:1014000009F0B0CF8091BB0281FFEECF8091BA028C
:10141000C7EED0E084FD0DC0E7CF8091BA0280FD19
:1014200033C09091BB0290FFDFCFC3EED0E084FFCA
:10143000DBCFD0E0C0E0D8CF8091BA0282FDF3C00C
:101440009091BB0290FDF2C084FFCECFF2CF80918D
:10145000BA0283FDDDCFC8CF8091BA0283FDE9C017
:101460009091BB0291FFF0CFC4EED0E0BDCF809150
:10147000BA0285FFB9CFA7CF8091BA0285FDDCC043
:101480008091BB0283FFB0CFC9E3D0E0ADCF8091A4
:10149000BA0286FFA9CFCAE2D0E0A6CF8091BA02F5
:1014A00086FFA2CFC1E3D0E09FCFCF3BD10508F6A6
:1014B000C85AD0E0CC0FDD1FC05DDE4F0990D88147
:1014C000C02DD46491CFC11540E5D40708F064C0A5
:1014D000C11580E4D80708F05CC0CE019A9581154B
:1014E0009F4108F481CFA5CFC11536E5D30718F584
:1014F000C11545E5D40708F07DC0C11584E5D807BE
:1015000008F073C09C2F969596959E012370332703
:10151000C115D34508F45AC0C1E0D0E002C0CC0FD9
:10152000DD1F2A95E2F730E2939FC0011124C82BFA
:10153000D92BDA6859CFC1158AE5D80778F4C115D7
:1015400029E5D20708F061C0C11538E5D30708F4D2
:1015500070CFDC2FCC27C06FD06A46CFCE0190561B
:101560008115904208F065CF8D2F8F710E945B0925
:1015700090E0982F882788279F719C012C2BE901E8
:1015800042C0C55AD0E0C35DDE4FC881D0E0D06410
:101590002BCFDF70D06A28CF2C2F2695269523706D
:1015A00080E2289F900111248C2F8370C1E0D0E04D
:1015B00002C0CC0FDD1F8A95E2F7C22BD32BDD686A
:1015C00013CFDC2FCC27C16FD06A0ECFC1E0D0E0A3
:1015D00002C0CC0FDD1F2A95E2F720E2929FC001E6
:1015E0001124C82BD92BDC68FFCEDC2FCC27C46F8D
:1015F000D06AFACE8C2F0E945B09C82FD0E0DC2F76
:10160000CC27CC27DF71D062EFCE8C2F8F700E9459
:101610005B0934E0D695C7953A95E1F7CF709C2FDA
:10162000EC01D069E1CEC2EED0E0DECEC0EED0E07B
:10163000DBCEC6EED0E0D8CEC5E3D0E0D5CE8091EB
:10164000AB02882331F01092AB021092AA021092E2
:10165000A902089580959091A80298239093A802DA
:10166000089510929E0210929D0210929C0208957D
:10167000E6EAF1E09191891303C0DF0111971C9212
:1016800091E0EC3AF907B1F70895A6EAB1E0EFEF7F
:1016900090E02D91821751F0EF3F19F4211101C014
:1016A000E92F9F5F9630A9F7EF3F09F408950E2EBA
:1016B000000CFF0BEC55FE4F8283089580919B0236
:1016C00090916A02981301C008958F5F8770FACFD6
:1016D000A82FA77023E0969587952A95E1F7FC013E
:1016E000EE0FFF1FE80FF91FE60FF71F50E040E075
:1016F00080E0219130E00A2E02C0369527950A94A9
:10170000E2F721703327042E01C0220F0A94EAF772
:10171000822B4F5F5F4F4330510559F70895903F3B
:10172000B9F0953070F4803198F440E1949F9001C5
:10173000112466E472E0820F932F911D0E94680BC2
:1017400008959C5F923020F463E472E090E0F6CF5D
:1017500080E00895262F277091E001C0990F2A9507
:10176000EAF723E0769567952A95E1F7FB01EE0FFE
:10177000FF1FE60FF71FE40FF51F50E040E0682F52
:1017800070E08191DF0111979B01042E02C0369514
:1017900027950A94E2F721702195282729232827E5
:1017A0002C934F5F5F4F4330510559F70895282F11
:1017B000862F903F71F0953068F4203150F430E17D
:1017C000939FB0011124620F711D46E452E00E9404
:1017D000AA0B08959C5F9230E0F7622F70E043E41B
:1017E00052E0F5CF9C013A9521153F4150F5FC019F
:1017F000EE27F170BC0166277270AC01442754706B
:101800009C012227387094FF0EC080E1EF2B09F471
:1018100080E0672B09F08062452B09F08064232B60
:1018200089F08068089581E0EF2B09F480E0672B50
:1018300009F08260452B09F08460232B19F0886041
:10184000089580E00895EF92FF920F931F93CF9336
:10185000DF9380913F029091180391111FC09FE187
:10186000F92EF81AC1E705E010E031E7E32EDE2D8E
:10187000DC1B07C06F2D6D1B41E08C2F0E9472088E
:10188000DF5FD0171106B4F301501109C150CE36F5
:1018900071F7CDB7DEB7E6E00C948D3090913E0243
:1018A000282F291B1216DCF4DFE1D91BD53088F371
:1018B000C0E021E7F22E1AE1191B0F2D0C1B6D2F32
:1018C0006C1B40E0802F0E947208612F6C0F41E07A
:1018D000802F0E947208CF5FC33079F7DACF2223BE
:1018E000C1F2DFE1D81BD530A0F2C0E091E7F92EBC
:1018F0001AE1181B0F2D0C1B612F6C0F40E0802F7D
:101900000E9472086D2F6C1B41E0802F0E947208AC
:10191000CF5FC33079F7BDCFB0E0A0E0E2E9FCE0F3
:101920000C946E30D82F80911803882309F442C09C
:101930008CEAE82E81E0F82E06EF11E0C2E29FE18A
:10194000C92EF801D1808081BD2CB81AB7FE06C01F
:101950006C2D681B40E08C2F0E947208F70181817A
:1019600081937F01F801D1928F01BB2031F06C2D62
:101970006D1941E08C2F0E947208CF5FCB3609F7BA
:101980008091F501C0913F028D1710F5CF3100F520
:10199000CF5FC0933F02D093F50180913F029091B9
:1019A0003E02891781F06FE1681B41E08BE60E94DF
:1019B000720809C0C2E241E06FE18C2F0E947208F8
:1019C000CF5FCC36C1F7CDB7DEB7E9E00C948A30F3
:1019D000D81710F0D111DFCFCC23E9F26FE16C1BE7
:1019E00040E08BE60E947208C150D3CFEF92FF9285
:1019F0000F931F93CF93DF938C0180911803811174
:101A000021C0C1E041E064E18C2F0E94720841E0F6
:101A10006FE18C2F0E947208CF5FCF3199F7C5E13B
:101A200041E06C2F80E00E94720841E06C2F8FE152
:101A30000E947208CF5FCF3199F7CDB7DEB7E6E0ED
:101A40000C948D30F801D181C081DD0FCC0F85E180
:101A5000F82EFD0EEE24E394EC0E42816F2D8E2DB8
:101A60000E947208DA5EF80142816D2F8E2D0E946D
:101A70007208CE5FF80142816F2D8C2F0E94720890
:101A8000F80142816D2F8C2F0E947208D6CFCF9320
:101A9000DF93C091B605D091B7058A30C1F420918B
:101AA000AD03CE01805B9340622F70E00E94513005
:101AB000281B822F66E00E949C30C82FC15018F46A
:101AC000DF91CF91089580E20E94470DF7CF8D30CE
:101AD000E9F4C05BD3402091AD03622F70E0CE01EA
:101AE0000E945130281B822F9E01280F311D211585
:101AF000324018F080E0D0E0C0E0C80FD11DC055E2
:101B0000DC4FD093B705C093B605DACF96E0FE015F
:101B1000A0EBB5E001900D929A95E1F7803E08F4B4
:101B200058C086E0FE0111928A95E9F7C091B6058A
:101B3000D091B70546E050E0BE0180EB95E00E94F1
:101B400042319E01205B3340892B41F1C90145E0C0
:101B5000969587954A95E1F741E050E0BA0102C0B9
:101B6000660F771F8A95E2F7CB016091AE03709103
:101B7000AF03862B972BB9016B5F7F4FE5E076951E
:101B80006795EA95E1F702C0440F551F6A95E2F7A1
:101B9000842B952B9093AF038093AE032A5F3F4F26
:101BA0004091AD03642F70E0C9010E945130481B81
:101BB000463010F4240F311D211572E0370710F064
:101BC00030E020E020553C4F3093B7052093B60518
:101BD00077CFF6E08F9FB00111246B5A784F46E023
:101BE00050E0CE010E942C31A1CF0F931F93CF93D1
:101BF000DF93EC01FC0101900020E9F78F01015017
:101C00001109C017D10728F0DF91CF911F910F91D3
:101C1000089589910E94470DF4CF80938F037093AC
:101C20009103609390038091A8038430F9F480932A
:101C3000E9008FEF9091E800815095FD06C095ED89
:101C40009A95F1F700008111F5CF8091E80085FFAA
:101C50000DC050E040E063E070E08FE893E00E9448
:101C6000BA068091E8008E778093E8000895BC0161
:101C700084E00E940D0E0895BC0183E00E940D0EC9
:101C80000895CF93DF93EC0181E08093E9008FEF1B
:101C90009091E800815095FD06C095ED9A95F1F779
:101CA00000008111F5CF8091E80085FF14C050E05D
:101CB00040E068E070E0CE010E94BA068091E80042
:101CC0008E778093E80088E0FE01A5E9B3E00190FB
:101CD0000D928A95E1F7DF91CF910895809173037A
:101CE00080FD0AC0EAE4F3E011821082128233968A
:101CF00053E0EB36F507C1F7869A31B33F7B21B34A
:101D000020644FB7F8948AE493E0FC015191CF012D
:101D100068E021BB000000C057FF31BB550F000039
:101D200000C000C000C031BB00C06A9591F7F3E06D
:101D30008B369F0751F74FBF8FE594E00197F1F77E
:101D400000C0000008959091730390FF0CC0EAE476
:101D5000F3E0818360834283339693E0EB36F907A7
:101D6000C1F70E946E0E0895A3E0B0E0EAEBFEE03A
:101D70000C9473308C018091730380FF10C09E011E
:101D80002F5F3F4F4091760360917503F801848186
:101D90000E94C3084B8169818A810E94A30EF801C9
:101DA00084818F5F84832396E4E00C948F30B0E0CD
:101DB000A0E0EDEDFEE00C946F306C017B0164E679
:101DC00070E088E70E946B2FEC0197FD12C010E0D5
:101DD00000E0F601E00FF11F849164E670E00E94DC
:101DE000D72FEC01892B29F40F5F1F4F0E151F050C
:101DF00081F70E944D30CE01CDB7DEB7E8E00C94FC
:101E00008B308091820390918303911103C091E004
:101E100089270895882369F062E070E082EF95E0F9
:101E20000E94D70E892B19F0809182030895109299
:101E3000820380918203EBCFCF93C0918203809184
:101E400083038823D1F00E942D08605A75418F4F7B
:101E50009F4F60937E0370937F03809380039093E2
:101E60008103C11108C062E070E080EF95E00E943C
:101E7000D70E892B29F0C09182038C2FCF91089522
:101E800081E080938203F7CFCF93DF93C7E7D1E060
:101E900060E0CE010E946A312196C11584E0D80726
:101EA000B9F7DF91CF9108950F931F93CF93DF93ED
:101EB000142F022F823020F5623010F598E0899FB0
:101EC000E001112484E0689FB0011124C60FD71FE0
:101ED000C959DE4F82E090E0442311F090E080E0A9
:101EE000632F8C0F9D1F0E946A3183E090E01123C5
:101EF00011F081E090E0602F8C0F9D1F0E946A31ED
:101F0000DF91CF911F910F9108951F93CF93DF938E
:101F1000122F8230E0F46530D0F44031C0F490E20A
:101F2000699FE001112450E0440F551FC40FD51FD5
:101F300090EA899FC00DD11D1124632FCE01879691
:101F40000E946A31612FCE0188960E946A31DF912A
:101F5000CF911F910895B0E0A0E0E1EBFFE00C9479
:101F60006930A0907803B090790381E090E090937D
:101F700079038093780380EAC82E84E0D82E90EB12
:101F8000E92E94E0F92EC0E0470110E014C0F301FF
:101F9000259134914D2F612F8C2F0E94850F82E067
:101FA000680E711CDF5FD03191F780E2880E911CC2
:101FB0001F5F153019F03401D0E0E9CF8601D0E081
:101FC000F8012591349141E06D2F8C2F0E94540F20
:101FD000F80132962591349140E06D2F8C2F0E94AC
:101FE000540F0C5F1F4FD13051F488E0C80ED11C44
:101FF00080EAE80EF11CC13021F0C1E0C5CFD1E08C
:10200000DFCFB0927903A0927803CDB7DEB7EEE0D0
:102010000C948530CF93C82F6FEF81116BE183E271
:1020200090E00E946A31C1110DC0CFEF6C2F84E2A5
:1020300090E00E946A316C2F85E290E00E946A3144
:10204000CF910895CBE4F2CF80E00E940A1060E0C7
:1020500086E290E00E946A310E94AB0F0E94440F1A
:1020600081E00E940A100895FF920F931F93CF936F
:10207000DF93F42E823070F5623060F528E0829FA5
:102080008001112434E0639FB0011124060F171F53
:1020900009591E4F82E090E0442311F090E080E067
:1020A000800F911F0E945631C82FD0E0DC2FCC2723
:1020B00083E090E0FF2011F081E090E0800F911F1D
:1020C0000E9456319E01282BC901CDB7DEB7E5E04D
:1020D0000C948E3090E080E0F8CF0F931F93CF9355
:1020E000DF93823030F5653020F5403110F520E285
:1020F000629F8001112450E0440F551F040F151FEB
:1021000030EA839F000D111D1124C80187960E949B
:102110005631C82FD0E0DC2FCC27C80188960E940A
:1021200056319E01282BC901DF91CF911F910F914C
:10213000089590E080E0F8CF20917C0330917D03FA
:10214000232BC9F4703F39F4603FA9F480917A03DE
:1021500090917B030895823070F4753038F46031CB
:1021600050F4462F672F0E946D1008957D3F31F483
:1021700041E0623040F090E080E008957C3FD9F784
:102180006230C8F740E00E9434100895CF92DF9289
:10219000FF920F931F93CF93DF936C010091AC03D9
:1021A0008091AC02082BC7E0D0E010E0FC2EC80103
:1021B0000C2E02C0959587950A94E2F780FD0CC01D
:1021C0002197A0F7F12C8F2DDF91CF911F910F91C7
:1021D000FF90DF90CF900895B6018C2F0E949C1045
:1021E0000E949E09019761F3EECFCF93DF93EC013C
:1021F0000E94C610BE010E949C100E949E09DF91A1
:10220000CF910895FC0183819481892B29F08081ED
:10221000918189238F3F51F480E00895843FE1F755
:1022200017C0883EA8F0813FB9F712C08081918124
:102230000E94F51092959F70963099F358F4925F32
:102240009F70923048F7803F19F040F7883E20F7A2
:1022500081E008959A5FF4CF83E290E00E945631C6
:102260008B3189F484E290E00E9456318B3459F42A
:1022700085E290E00E94563191E08B3409F090E0C5
:10228000892F8170089580E0FCCFCF9384E090E0A7
:102290000E945631C82F82E290E00E945631982F5A
:1022A0008C2FCF910895CF92DF92EF92FF926B0126
:1022B0007C010E94B408B701A60188E090E00E946A
:1022C0007C31FF90EF90DF90CF900895A3E0B0E0D5
:1022D000ECE6F1E10C946830F82E762EE42E622EB6
:1022E0008091730380FF29C0E82FE695AE2FB0E000
:1022F000AD57BE4F9C91909371038E7F823009F54C
:102300009E012F5F3F4F8F2D0E94C3084B81698133
:102310008A810E94A30EF092740370927503E0927A
:102320007603662051F0609173037091740380917D
:102330007503909176030E9453112396EFE00C945D
:102340008430923019F4F0907403E5CF953019F78A
:10235000E5508E2F8170582EE695F0E0E556FB4F44
:10236000E4910E2F10E08AE4C82E83E0D82EB12C21
:10237000A12C9BE0892E912CC501B4010E94513003
:102380008F2D511013C0860F96014E2D672D0E9480
:10239000C308A00EB11E83E0C80ED11C8BE6C81680
:1023A00083E0D80649F70E946E0EB5CF861BECCFAE
:1023B000E3E7F3E043812AE0421B08F440E021E038
:1023C000628181810E9466110895E3E7F3E0438111
:1023D0002AE0420F08F44FEF21E0628181810E94E0
:1023E00066110895E3E7F3E062812AE0621B08F4D6
:1023F00060E021E0438181810E9466110895E3E756
:10240000F3E062812AE0620F08F46FEF21E043817C
:1024100081810E9466110895E3E7F3E0818121E064
:10242000438162818A500E9466110895E3E7F3E0D8
:10243000818121E043816281865F0E946611089557
:1024400080917703882319F08150809377036091FE
:1024500073037091740380917503909176030E94C9
:102460005311089580917703833018F48F5F809320
:102470007703609173037091740380917503909159
:1024800076030E9453110895E3E7F3E083E080832D
:1024900011828FEF828383831482608171818281B4
:1024A00093810E945311089568EE7EEF90E080E0E2
:1024B0000E94883160E082E090E00E946A3160E032
:1024C00083E090E00E946A311092AC0260E084E008
:1024D00090E00E946A3164E082E290E00E946A31FA
:1024E00060E085E090E00E946A3160E086E090E084
:1024F0000E946A316FEF87E090E00E946A3140E00D
:1025000050E0BA0188E090E00E947C3160E08DE00C
:1025100090E00E946A3140E050E0BA0188E190E02A
:102520000E947C3160E087E190E00E946A3140E0E7
:1025300050E0BA018CE190E00E947C3170E060E0F4
:1025400080E290E00E94883140E050E0BA0188E1EA
:1025500090E00E947C3180E00E940A100E942410CA
:1025600040E050E0BA018FE090E00E947C3140E012
:1025700050E0BA0183E190E00E947C31089590E040
:1025800080E00E946431883E9E4F19F40E942C1115
:10259000089580E008951F920F920FB60F921124B4
:1025A0002F933F934F935F936F937F938F939F935B
:1025B000AF93BF93EF93FF938091E10082FF09C037
:1025C0008091E20082FF05C08091E1008B7F8093C3
:1025D000E1008091DA0080FF24C08091D80080FF64
:1025E00020C08091DA008E7F8093DA008091D9003C
:1025F00080FF9DC080E189BD82E189BD09B400FEF4
:10260000FDCF81E08093A80380919203811109C0DE
:102610000E946A060E945D078091E20084608093B8
:10262000E2008091E10080FF17C08091E20080FF0E
:1026300013C08091E2008E7F8093E2008091E200DF
:1026400080618093E2008091D80080628093D800FE
:1026500019BC85E08093A8038091E10084FF2BC022
:102660008091E20084FF27C080E189BD82E189BDBD
:1026700089B5982F917080FFFBCF8091D8008F7D16
:102680008093D8008091E1008F7E8093E10080915B
:10269000E2008F7E8093E2008091E200816080936F
:1026A000E20080919F03882309F447C084E080936F
:1026B000A8038091A8038091E10083FF27C0809147
:1026C000E20083FF23C08091E100877F8093E100D7
:1026D00082E08093A80310929F038091E1008E7F97
:1026E0008093E1008091E2008E7F8093E2008091F0
:1026F000E20080618093E20042E060E080E00E94BE
:102700002B078091F00088608093F000FF91EF919B
:10271000BF91AF919F918F917F916F915F914F91F9
:102720003F912F910F900FBE0F901F90189519BCDD
:102730001092A8031092920374CF8091E30087FD5A
:1027400093E09093A803B5CF78941F921FB61F9281
:1027500011248F939F93AF93BF9380918B0390919C
:102760008C03A0918D03B0918E030196A11DB11D24
:1027700080938B0390938C03A0938D03B0938E036F
:10278000BF91AF919F918F911F901FBE1F90189581
:102790009C014FB7F89480918B0390918C03A0918A
:1027A0008D03B0918E034FBF821B930B08952FB7FB
:1027B000F89480918B0390918C03A0918D03B0913C
:1027C0008E032FBF089560917303669570E04BE010
:1027D00050E085E191E00E943531892B19F481E0C8
:1027E000809372030E94D71390936C0380936B03C2
:1027F00008959091730390FF2CC0917081112AC0AD
:10280000926090937303662351F06091730370910B
:10281000740380917503909176030E945311609127
:102820007303669570E04BE050E085E191E00E9413
:102830003531892BB1F01092720381E080936E03E1
:1028400020E04091760360917503809174030E94AB
:10285000661108958F3010F09C61D3CF880F982BAC
:10286000D0CF0E94E313E9CF809173038695815006
:1028700009F48EE061E00E94F913089580917303DA
:1028800086958F5F8F3008F081E061E00E94F91338
:1028900008959091730390FF08C09695981728F0BB
:1028A000961718F40E943E14089561E00E94F913EF
:1028B0000895B0E0A0E0EFE5F4E10C94683090E01A
:1028C00080E0712CC1E0D0E0C12CD12C7601C39402
:1028D0003AEB832E32E0932EA3E6B1E050E040E0E5
:1028E0002D91E22FE295EF70F0E02F70BE0102C053
:1028F000660F771F2A95E2F79B01BE01042E02C0E6
:10290000660F771F0A94E2F768237923042E02C02A
:10291000759567950A94E2F732A1662309F475C0AC
:10292000232B22A34F5F5F4F44305105C9F67AE154
:102930007A95F1F700C0B701A601082E04C0440F34
:10294000551F661F771F0A94D2F75A019A012095E6
:102950003095E0EBF2E00EE511E0612C41915191F0
:10296000D8015D908D01A52DA295AF70B0E0909635
:102970006C9170E0A52DAF7002C075956795AA9512
:10298000E2F7DF01129760FD43C0BA016A297B2993
:1029900011967C936E936D917C914617570711F0B9
:1029A000662463948E169F06C9F6762801968031B8
:1029B000910509F091CF772079F181E08093AF0202
:1029C0000E94D7139093AE028093AD028091AD0226
:1029D0009091AE020E94C813059710F14AE050E0B2
:1029E00060EB72E080E493E00E944231892BF1F0C9
:1029F0008AE0E0EBF2E0A0E4B3E001900D928A956A
:102A0000E1F781E01092AF020CC02095232389CF1B
:102A1000BA0162237323BCCF8091AF028111D6CF5C
:102A200080E0CDB7DEB7EFE00C94843080E0EACFF1
:102A30008091A8029091A702892B8093A401809194
:102A4000AB02882319F10E94D7132091A90230917B
:102A5000AA02821B930B8838934110F00E941F0B2F
:102A60008091A4019091AB02892B8093A40120E076
:102A700086EA91E0FC013191CF0131112F5FF1E045
:102A80008C3A9F07B9F721110E941F0B48E050E0D4
:102A90006FE972E084EA91E00E944231892BA9F04B
:102AA00088E0E4EAF1E0AFE9B2E001900D928A95A6
:102AB000E1F7E0918603F0918703309731F00280CF
:102AC000F381E02D84EA91E00995089590E080E09B
:102AD0000E944F0890E080E00E9439081092A702FF
:102AE0000E94181508958093AC030E9466150895FE
:102AF0008091AC03982F9670963021F488600E94E4
:102B000073150895877FFBCF21E030E001C0220FCD
:102B10008A95EAF720958091AC0382230E94731571
:102B2000089590919E028095892380939E02282F7C
:102B3000277091F4282F082E000C330B92171306E0
:102B400059F09091BB0292FF07C0859585958595B8
:102B50000E9484150E94310B0895CF93C091BB024F
:102B6000C2FB992790F9981791F080FBC2F9C093A6
:102B7000BB026091BA0284E090E00E946A316C2F3F
:102B800082E290E00E946A3182E00E949115CF912A
:102B9000089521E030E001C0220F8A95EAF7809184
:102BA000AC03822B0E94731508958093AC020E949F
:102BB000661508951092A802E6EAF1E086E0DF01CA
:102BC0001D928A95E9F70E9466150895AAE2B0E081
:102BD000ECEEF5E10C94743080EA93E02091F10082
:102BE000DC012D93CD01B3E0883A9B07B9F78091C2
:102BF000A103833009F472C0B8F4813009F449C0EC
:102C0000823009F4B3C08091E80083FF96C28091BE
:102C1000A0039091A1039A3008F08FC2E92FF0E051
:102C2000E056FE4C0C94FD308A3009F48EC08B3097
:102C300009F471C0893039F78091A003813219F706
:102C40008091A4039091A503009711F00297D9F603
:102C50008091E800877F8093E8008091E80082FF00
:102C600038C09091F3008091F200029731F4809186
:102C7000F100813011F0863021F48091F1008093D1
:102C800094038091E8008B778093E8000E940C0702
:102C9000BACF8091A003813A09F0B5CF8091E800C6
:102CA000877F8093E8008091A4039091A503892BEE
:102CB00061F468E085E993E070E00E94B8078091D4
:102CC000E8008B778093E8009ECF60E090E080E0A2
:102CD000F3CF8091A8038111C0CF95CF8091A0033D
:102CE000813A09F090CF8091A4039091A503892B9C
:102CF00009F089CF8091E800877F8093E800809178
:102D0000E80080FFFCCF809120018093F10080914A
:102D1000E8008E77B9CF8091A003813209F073CF9C
:102D20008091A4039091A503892B09F06CCF809129
:102D3000E800877F8093E8000E940C078091A2033F
:102D4000809320010E94DA155ECF8091A00381322A
:102D500009F059CF8091E800877F8093E8000E94B6
:102D60000C078091A303809393034DCF8091A00320
:102D7000813A09F048CF8091E800877F8093E8008E
:102D80008091E80080FFFCCF80919303BECF803814
:102D900099F0823809F0D1C18091A4038F708730F7
:102DA00008F0CBC18093E9008091EB0085FB882778
:102DB00080F91092E90006C080919D0390919E03D6
:102DC000911182609091E800977F9093E800809342
:102DD000F1001092F1008091E8008E77AAC188235B
:102DE00009F498C1823009F0A8C18091A203811131
:102DF0009BC18091A4038F702FEF280F263008F01D
:102E00009CC18093E9002091EB0020FF8DC193309D
:102E100031F48091EB0080628093EB0085C190914A
:102E2000EB0090619093EB0021E030E001C0220FB5
:102E30008A95EAF72093EA001092EA008091EB006D
:102E40008860EACF811179C11091A2031F77809128
:102E5000E3008078812B8093E3008091E800877FF6
:102E60008093E8000E940C078091E80080FFFCCF6F
:102E70008091E30080688093E30082E0111183E099
:102E80008093A8035AC18058823008F056C120911F
:102E9000A2033091A3032C3DE3E03E07A1F583E0BC
:102EA0008A838AE289834FB7F894DE01139620E083
:102EB0003EE051E2E32FF0E050935700E49120FF11
:102EC00003C0E295EF703F5FEF708E2F90E0EA3025
:102ED000C0F0C7968D939D932F5F243159F74FBF54
:102EE0008091E800877F8093E8006AE270E0CE017D
:102EF00001960E94B8078091E8008B778093E800E4
:102F00001CC1C096E7CF8091A4039091A503432FE5
:102F100055274330510509F44AC078F54130510531
:102F200009F485C08BE590E0E4EFF5E0423051050F
:102F300009F003C12091E800277F2093E800209149
:102F4000A6033091A7038217930708F49C0140E081
:102F50002115310509F070C041116EC08091E80063
:102F600082FDC9CF8091A803882329F2853019F208
:102F70008091E80083FFF2CFBECF4132510509F4C2
:102F800047C04232510509F0D8C08330910508F09E
:102F9000D4C0FC01EE0FFF1FEB56FE4F0190F081F5
:102FA000E02D8E569E4FDC018C9190E01DC03327A2
:102FB00021303105E9F02115310579F02230310554
:102FC000F9F02330310509F0B8C0E1E6F6E0E4910C
:102FD0008E2F90E0E1E6F6E007C0E1EAF6E0E4914A
:102FE0008E2F90E0E1EAF6E0009709F4A6C0A2CFA8
:102FF000EDE8F6E0E4918E2F90E0EDE8F6E0F4CF16
:10300000EFE7F6E0E4918E2F90E0EFE7F6E0ECCF0B
:103010008330910508F091C0880F991FFC01E55697
:10302000FE4F0190F081E02D89E090E083CF82E1B6
:1030300090E0EFE4F6E07ECF8091A803882309F4C6
:103040005ACF853009F457CF8091E80083FD53CFE4
:103050008091E80082FD82CF8091E80080FF78CFE8
:103060009091F3008091F2002115310519F088301C
:10307000910550F041E0089709F040E08091E800A8
:103080008E778093E80064CF44914093F1003196AD
:10309000215031090196E8CF803809F04EC0809167
:1030A000E800877F8093E80080919F038093F10080
:1030B00092CE811142C01091A2031230F0F580919E
:1030C000E800877F8093E80010939F030E940C071D
:1030D000112311F084E005C08091E30087FDFACF51
:1030E00081E08093A80342E061EC81E00E942B071D
:1030F00042E261EC84E00E942B0742E261EC82E054
:103100000E942B0742E260EC83E00E942B07809133
:10311000A80313C08091A203813079F481E0933039
:1031200009F080E080939E031092E9008091E8000E
:10313000877F8093E8000E940C078091E80083FF5E
:103140000AC08091E800877F8093E8008091EB00BF
:1031500080628093EB00AA96E3E00C9490301F927B
:103160000F920FB60F9211242F933F934F935F93BB
:103170006F937F938F939F93AF93BF93CF93DF937F
:10318000EF93FF93D091E900DF708091EC00C82F9E
:10319000C17080FDC0E81092E9008091F000877F47
:1031A0008093F00078940E94E6151092E9008091D7
:1031B000F00088608093F000CD2BCF70C093E900C1
:1031C000FF91EF91DF91CF91BF91AF919F918F913F
:1031D0007F916F915F914F913F912F910F900FBE13
:1031E0000F901F9018950E94DA152FEF84E39CE052
:1031F000215080409040E1F700C0000088E19AE053
:103200000FB6F894A895809360000FBE909360006D
:10321000FFCF882341F080959091A7028923809366
:10322000A7020E9418150895882339F09091A702EB
:10323000982B9093A7020E9418150895882321F0D7
:103240000E942A0B0E9418150895882339F0909146
:10325000A802982B9093A8020E941815089588231D
:1032600009F44DC0823879F40E94650881FF47C097
:1032700089E30E94450B0E94181589E30E94380BD0
:103280000E9418150895833859F40E94650880FF3C
:1032900036C083E50E94450B0E94181583E5EECFEA
:1032A000843859F40E94650882FF29C087E40E948F
:1032B000450B0E94181587E4E1CF9CEF980F913AD7
:1032C000E8F290E2980F983050F4877091E001C0D6
:1032D000990F8A95EAF7892F0E942A0BD1CF9BE597
:1032E000980F933028F490E080E00E944F080895F2
:1032F000885A873120F490E080E00E9439080895D0
:10330000CF93C82F8823C9F08238C9F40E9465087A
:1033100081FD13C089E30E94450B0E9418152FEF11
:1033200087EE93E0215080409040E1F700C000001C
:1033300089E30E94380B0E941815CF9108958338B5
:10334000A1F40E94650880FDF8CF83E50E94450B3B
:103350000E9418152FEF81EE94E02150804090409C
:10336000E1F700C0000083E5E4CF8438A1F40E94B7
:10337000650882FDE2CF87E40E94450B0E94181584
:103380002FEF81EE94E0215080409040E1F700C0A3
:10339000000087E4CECF8CEF8C0F813A68F4E6EA28
:1033A000F1E08191C817A1F121E0EC3AF207C9F7E9
:1033B0008C2F0E94450BBFCF80E28C0F883068F4C1
:1033C000C77021E030E001C0220FCA95EAF7809172
:1033D000A802822B8093A802AECFEBE5EC0FE3307E
:1033E00040F4F0E0E35DFE4F808190E00E944F08E2
:1033F000A4CFC85AC73108F0A0CFEC2FF0E0EE0FF1
:10340000FF1FE05DFE4F808191810E94390895CFBA
:103410008C2F0E94380B0E941815CACF1F93CF9390
:10342000DF93182FD0E0C0E0893311F4C0E5D0E07D
:10343000812F0E948019209739F4812F0E942F1923
:10344000DF91CF911F9108958FE99FE00197F1F7E8
:1034500000C000002197EFCF0F931F93CF93DF930E
:10346000C62FD42F022FFC0182818823A9F06093FC
:10347000AB030E94D7139093AA038093A903C7704C
:1034800081E001C0880FCA95EAF70E942519DF91F3
:10349000CF911F910F9108958091AB03681332C0B3
:1034A0008091A9039091AA030E94C813883C9105BA
:1034B00048F510E21D0FCD17B9F080E28C0F88306F
:1034C00040F4C77081E001C0880FCA95EAF70E94F6
:1034D0001E19183048F481E09D2F977001C0880FA5
:1034E0009A95EAF70E942519802F0E940E1A18302B
:1034F00070F6D77081E001C0880FDA95EAF70E9474
:103500001E19C5CFC77081E001C0880FCA95EAF7C0
:10351000F6CFB0E0A0E0EFE8FAE10C946D30EC01FA
:103520008AE0A82E2881222309F48FC02130C9F512
:1035300099818A81913021F422960E940E1A05C049
:10354000923029F422960E9480192196EBCF933075
:1035500021F422960E942F19F8CF943011F0219671
:10356000F4CF229630E020E0AE014F5F5F4F8053F2
:10357000990B8A30910550F02150310930F38FE9D1
:103580009FE00197F1F700C00000F6CFA29EB001C6
:10359000A39E700D11249C01260F371F8981EA011B
:1035A000E3CFE22FF0E0EB52F94FB490822F8695F3
:1035B0008695869590E0FC01EB53F94FE4902770D7
:1035C000F12C022E02C0F594E7940A94E2F731E060
:1035D000E322FF24FC01EB54F94FC490D12C022EBE
:1035E00002C0D594C7940A94E2F731E0C322DD24E7
:1035F000FC01EB55F94F049110E002C015950795B9
:103600002A95E2F701701127E114F10419F081EE17
:103610000E948019C114D10419F086EE0E9480190D
:103620008B2D0E940E1AC114D10419F086EE0E944F
:103630002F19E114F10419F081EE0E942F190115E0
:10364000110509F482CF8CE278CFCDB7DEB7EAE07E
:103650000C9489309091BB0292FF10C098E0899F32
:1036600090011124622B60939E020E94C9150E9452
:10367000D71390939D0280939C0208950E94C915D0
:103680000895A7E1B0E0E7E4FBE10C9474304B8BC4
:103690005C8B6D8B7E8B8F8B61111092A7021A8AC7
:1036A000198A85E0FE017396DE011D9601900D9248
:1036B0008A95E1F78091BB0282FF1CC00E94D7135C
:1036C00020919C0230919D02821B930B883893417C
:1036D00020F080919E0282FF79C00E94D713209132
:1036E000A9023091AA02821B930B8838934110F0F3
:1036F0000E941F0B86E0FE013D96DE0117960190A9
:103700000D928A95E1F7CE0107960E944E238823F9
:1037100059F016E080919B0290916A02891343C090
:103720006796E3E00C94903086E0FE013796DE0168
:10373000119601900D928A95E1F78A859B85892BD8
:1037400041F38F81988589238F3F19F320916A0275
:1037500030E0C90101968770992740919B02481774
:10376000190671F40E94DA1510926A0210929B02F7
:1037700086E0E4E6F2E0DF011D928A95E9F7C9CF21
:1037800096E0929FD001939FB00D1124A559BD4F93
:10379000FE01319601900D929A95E1F780936A02AD
:1037A0000E945E0BB6CF819FC001112485599D4FA9
:1037B0000E944E23882309F4B3CF80919B0290E0AE
:1037C00001968770992780939B02A4CF82E00E9484
:1037D000911583CFA5E0B0E0E0EFFBE10C947330EE
:1037E0008C0190937B0380937A03011580E2180784
:1037F000C0F4802F0E942F19C8010E94F20B98017B
:10380000205E31092830310518F00115110531F419
:103810000E941E192596E4E00C948F300E9409192D
:10382000F9CF80EF89838A831B820E94D71381603E
:10383000782F9D838C8349815A816B818D810E9471
:10384000411BE8CFA5E0B0E0E8E2FCE10C94733066
:103850008C0190937B0380937A03011580E2180713
:10386000C0F4C8010E94F20B9801205E3109283093
:10387000310518F00115110549F40E942519802F12
:103880000E9480192596E4E00C948F300E94141950
:10389000F6CF80EF89838A8381E08B830E94D713E0
:1038A0008160782F9D838C8349815A816B818D81C2
:1038B0000E94411BE7CFA5E0B0E0E1E6FCE10C94FB
:1038C0006B307C01FC0183819481892B31F08081F4
:1038D000918189238F3F09F0C9C52596ECE00C94AE
:1038E00087300E94C610182F682F89819A810E9404
:1038F000D70B69817A81812F0E949C108C01F7017E
:103900002281222309F4A8C5E091D202F0E0EE0F53
:10391000FF1FE952FD4F808191818F3F3FE7930761
:1039200019F0019691838083C80182519F45409789
:1039300008F064C58FEF93E00E9456318111A8C052
:103940006EEED62ED00E07E711E0D11036C01982E8
:103950001A821B821C8299249A9468015FEFC51A0F
:10396000D50AC8010E94563189831A82882309F436
:103970008FC0813009F081C0580182E0A80EB11CCF
:10398000C6010E945631C82E8A83882309F480C05C
:10399000C5010E945631D82E8FEF8C0D8330D8F49C
:1039A000580193E0A90EB11CDB82DD2021F0CE018D
:1039B00001960E94891A8501D0CF011544E01407B1
:1039C00009F466C0C8010E945631811101C0DA9421
:1039D0000F5F1F4FBACF8BEF8C0D833040F5C801BE
:1039E0000396DB825C01DD2031F35801E4E0AE0E8A
:1039F000B11C0E9456318C838823E9F20B811C8113
:103A00000130FFEF1F0710F0102F002726E0C2162D
:103A100051F037E0C31619F0C8010E94221CC801FA
:103A20000E94EA1BC8CFC8010E94221CC4CF44E0F8
:103A3000C412C1CF580154E0A50EB11CC8010396B1
:103A40000E945631DD2021F1882311F18150990B1C
:103A5000989E9001999E300D1124ED2DE150FF0BA1
:103A6000CF01820F931F019708F4A5CFEFE9FFE084
:103A70003197F1F700C00000F6CFCE0101960E9409
:103A8000891A560198CF81E00E94C9150E947815C5
:103A900080919E02877009F420CFF70182818823EC
:103AA00009F41BCF8091BB0282FF17CF82E00E94F6
:103AB000911513CF81E00E948415E8CF222309F4E9
:103AC000D3C482E0E1CF053F8CE5180709F497C025
:103AD00008F491C027E245EE66EE063FECE51E07CE
:103AE00009F4B6C4F7018281882309F4D0C4109286
:103AF000AB030330FDE51F0708F088C00A3F2CE543
:103B0000120730F4C80182509C45449708F089C0E0
:103B10000E9445119093BB028093BA0202318CE55A
:103B2000180709F48CC108F0D8C00930ECE51E076D
:103B300009F463C108F0A2C005302CE5120709F4AE
:103B400050C108F089C003304CE5140709F441C1A5
:103B500008F043C102308CE5180709F432C16091C6
:103B6000BA021091BB0284E090E00E946A31612F9A
:103B700082E290E00E946A310E94DA1589CF80913A
:103B80004002082E000C990B01966FE170E00E9434
:103B9000A8305C0180934002892B11F18FE1D82E6F
:103BA000DA1841E06D2D8CE70E94720841E06D2D1E
:103BB0008DE70E94720841E06D2D8EE70E94720829
:103BC0002EC440E06D2D8C2D0E947208D394FFE12D
:103BD000DF12F7CFC3942FE7C21601F3D12CF1CF38
:103BE0004CE7C42EFBCF27E245EE65EE31C426E25A
:103BF00041EE60EE2DC427E245EE64EE29C426E2D4
:103C000041EE62EE25C428E241E0EFCF053A3DE502
:103C1000130709F47DCFD0F401365DE5150709F4EB
:103C200077CF06318CE5180709F03DC48091A802D2
:103C30008A7A91E009F490E090934102811129C1C0
:103C400089E20E94450B0E94181522CFC8018D5AA7
:103C50009D45039730F75CCF8091BA0280620730B0
:103C60009CE51907B9F18091BA0280610830ECE552
:103C70001E0780F18091BA0280642CC00D30FCE5F3
:103C80001F0709F4C4C090F48091BA028E7F0B30F4
:103C90003CE51307F9F08091BA028C600C304CE5DA
:103CA0001407C0F08091BA028D7F14C00F305CE51C
:103CB000150709F4BCC008F4AEC000319CE5190733
:103CC00009F4B9C08091BA028F7B0131ECE51E077F
:103CD00009F045CF8093BA0242CF0F3FFCE51F07A2
:103CE00009F4B7C0A8F50A3F3CE5130709F47DC005
:103CF000C0F404315CE5150709F4B9C008F4A5C0A7
:103D000005319CE5190709F02ACF8091BA0282FBA0
:103D1000992790F921E0922790FB82F990FB83F993
:103D2000D9CF0C3FECE51E0709F479C008F461C057
:103D30000D3F2CE5120709F476C08091BB02836029
:103D40000E3F3CE5130709F00ACF8093BB0207CF73
:103D500001364DE5140709F495C090F401308DE566
:103D6000180709F48DC008F478C060E00230EDE572
:103D70001E0709F0F4CE8EE090E00E946A31EFCE8B
:103D80000D3AFDE51F0709F160F49091BA02892F01
:103D90008E7F90FF8160053A3DE5130709F49ACFC5
:103DA000DECE0E3A4DE5140771F10F3A5DE51507C9
:103DB00009F0D5CE9091BB02892F877F93FF886051
:103DC000C4CF8091BA02816085CF8091BB028860A8
:103DD000BCCF8091BA0282607DCF8091BA028460AC
:103DE00079CF8091BA02886075CF8091BB028160E3
:103DF000ACCF8091BB028260A8CF0E94DA1580917F
:103E0000BA02806867CF8091BB02877F9ECF809186
:103E1000BA028B7F5FCF8091BA02877F5BCF8091A0
:103E2000BB028E7F92CF8091BB028D7F8ECF80911F
:103E3000BA028F7E4FCF8091BA028F7D4BCF0E9406
:103E4000DA158091BA028F7745CF8091BA02837FCD
:103E500041CF8091BB028C7F78CF8091BB02982F9D
:103E6000909591708E7F892B90FB81F96ECF0E9487
:103E7000DA159091BA02892F97FB87F980582ACFDB
:103E800061E079CF9091BA02892F8F7E94FF806193
:103E900021CF85E3D6CE85E303C38160809373038E
:103EA00061E086950E94F913F3CD44E354E16EE39B
:103EB00074E10E94AE08ECCD4EE354E164E374E19A
:103EC000F8CF46E152E16CE072E1F3CF42EF51E10D
:103ED0006FEF71E1EECF4FEF51E162EF71E1E9CFAA
:103EE00048ED51E165EE71E1E4CF40E252E162E379
:103EF00072E1DFCF42E352E160E272E1DACF61E0EA
:103F000081E0D0CF6EE085E00E944914C1CD0E94CF
:103F1000DA152FEF34E34CE0215030404040E1F718
:103F200000C000000E941C088091BB0282FB882711
:103F300080F991E089270E94AD15F7018281008107
:103F40001181882309F445C0C8010E94C610D82EEB
:103F5000682FC8010E94D70BB8018D2D0E949C10BC
:103F60000E949E098C01882EF701C280B580B29410
:103F70003FE0B32280919E028770C1F0AC2CCC2030
:103F8000B1F0812F807F803421F080E2800F883073
:103F900068F08091BB0282FF09C082E00E94911507
:103FA00080919E028770AA24A3948111A12C912E46
:103FB00092942FE09222FBE0F91508F476C0E92DE7
:103FC000F0E0E655FE4C0C94FD3081E0B4CF80E08B
:103FD000B2CFC8010E948F0BD82EBECF212F2F70D9
:103FE000D22E107F19F0D29490EFD922CC20B9F0C4
:103FF000DD2069F080E2800F883010F0811009C068
:104000008091A802D82AD092A8020E941815802F69
:104010004AC08091A702D82AD092A702F6CF802F5B
:104020000E942F19DD2009F440C0005E083010F016
:10403000811004C08D2D0E942A0B06C0D09480915F
:10404000A702D822D092A7020E9418152EC0312FA5
:104050003F70D32E107F103219F0D29480EFD82207
:10406000882089F041E0841609F491C0CC2009F43D
:104070009AC0BB2009F467C0F701858180FFC7CFD4
:104080008F70858360C08091BB0282FD35C0CC20DB
:1040900069F1DD2039F08091A802D82AD092A802D7
:1040A0000E94181580E00E948019292D2850330B9A
:1040B0002430310510F40E946508AA2009F40DCCC3
:1040C00080919E0280FD09CCF7011282859585952D
:1040D00085950E94C915C7010E945B1C80919E02B4
:1040E0008595859585950E948415F7CB80E00E9483
:1040F0002F19DD20D1F29ECFCC2049F1B11004C0A0
:104100008091AB028D2920C051E0B51210C082FF12
:10411000CCCF8091AB02D82AD81639F20E94D7139F
:104120009093AA028093A902D092AB02BECF85E001
:10413000B812E6CF0E941F0B909142028D2D892B61
:104140008913809342028D2D0E942519AECFB110A4
:1041500003C00E941F0B12C091E0B91213C08091DE
:10416000A8028D2109F4A1CF0E941F0B9091420259
:104170008D2D809589238913809342028D2D0E9475
:104180001E1993CFE5E0BE1609F48FCFE2CFCC2005
:1041900029F0F5E0FB1508F488CFD5CF24E02B15E6
:1041A00008F483CFEBCFBB2049F3F9E38F1209C0AA
:1041B0002FEF37EE43E0215030404040E1F700C0A0
:1041C0000000802F0E942F1970CF812F8695869531
:1041D000837061F0813009F068CFC8019370C1101D
:1041E00002C090E080E00E9439085FCFC801937060
:1041F000C11002C090E080E00E944F0856CF812F8E
:10420000837089F5C11051CF402F42954695477074
:10421000440F440F802F8F70042E01C0880F0A9422
:10422000EAF7202F207104FF07C02FE030E001C023
:10423000220F4A95EAF720951695169513701230BD
:1042400069F050F43091AC02113029F0822B8323B5
:104250000E94D5152ACF832B822BFACF282B809151
:10426000AC028227F5CF8695CC2011F0812F81708A
:10427000882309F41ACF402F429546954770440F82
:10428000440F802F8F70042E01C0880F0A94EAF724
:10429000202F207104FF07C02FE030E001C0220F63
:1042A0004A95EAF72095169516951370123069F025
:1042B00050F43091AC03113029F0822B83230E94FB
:1042C0007315F3CE832B822BFACF282B8091AC036E
:1042D0008227F5CF1F70CC2029F0812F0E94C915AD
:1042E000802F32CF802F0E941E19812F0E948415AB
:1042F000DCCE802F52EF8516B1F1581570F090EF9B
:104300008916D1F0E1EF8E1691F0CC2009F466C049
:10431000B1107DCE812F8F712AC0F3EF8F1651F12E
:1043200024EF8212F2CF8091BB0282FD2FC0812F39
:104330008F71CC20D9F21BC0CC2081F034E03B152A
:1043400008F4B3CE1F7181E090E0012E01C0880F08
:104350000A94EAF79091AC038927B1CF45E04B1559
:1043600008F4A3CEEFCF812F8F71C110BFCF0E9471
:10437000C9159BCE80E0CC2009F4A1CF1F7181E04C
:10438000012E01C0880F0A94EAF799CFCC20C9F01A
:1043900080919E028770843041F40E94310B812FFE
:1043A0008F710E948415A12C80CE54E05B15D8F348
:1043B0001F71812F0E94C91563E0812F0E942A1B63
:1043C000F2CF84E08B1530F40E94310B64E0812F32
:1043D0008F71F4CF81E00E949115E5CFBB2059F099
:1043E000893309F0EECE9FEFE7EEF3E09150E04025
:1043F000F040E1F7E4CE812F8F7178CF0031FFE5F7
:104400001F0709F440CB01313FE5130709F456CBF0
:10441000C7010E94F60CF70182818111B0CB033FE6
:10442000FCE51F0709F4E3CB08F04DCB083D3CE564
:10443000130709F4D8CB093D4CE5140709F4E3CB85
:10444000073D5CE5150709F04DCB26E241EE61EE34
:10445000C7010E942C1A1CCB80314FE5940709F448
:1044600029CB81319F45A1F682E025CB85E0DE0195
:10447000119601900D928A95E1F7F70122818981C9
:104480009A8121112ECA0E948F0B182F32CA063131
:10449000FCE51F0731F5809141028111FCCC89E2D6
:1044A0000E94380BD0CB0A352DE5120709F48DCDCB
:1044B00068F401154CE5140709F429CD0E3D1C459F
:1044C00009F03BCD0E9454120E94F3180C358DE583
:1044D000180709F429CD08F47ACD073A1D45A1F350
:1044E0002CCD8091A80282720B3CFCE51F0709F4D9
:1044F000FCCC08F055C0063C3CE5130709F4E1CCC0
:10450000C8F5033C5CE5150709F4CFCC20F5023C67
:10451000ECE51E0709F011CD8091730380FFBDCC3F
:104520008E7F809373036091730370917403809105
:104530007503909176030E945311109272039FEFBE
:10454000E0E7F2E09150E040F040E1F700C0000009
:104550000E946E0E9DCA043CFCE51F0709F4ACCC1A
:104560004CE052E166E172E1053C2CE5120709F4EA
:10457000A0CCE3CC083C3CE5130709F4ACCC08F430
:10458000A5CC093C5CE5150709F4AACC45EE51E140
:1045900068ED71E10A3C9CE5190709F48ACCCDCCA1
:1045A000043DECE51E07C8F4003DFCE51F0708F0DC
:1045B0006FCA0D3C2CE5120709F4A1CC08F49ACC83
:1045C0000E3C4CE5140709F463CA64E082E00F3C3A
:1045D0005CE5150709F498CCB0CC053D8CE51807CF
:1045E00009F456CA08F48ECC0D35100709F450CAE8
:1045F000A4CC1F93CF93DF9380916902807F09F051
:1046000049C080916602882309F444C080919B02CE
:10461000D0916A026091640270916502A091670274
:10462000B0916802C62FC72316E0D81799F190E021
:10463000109711F0CF3F19F401968770F6CF189FAD
:104640009001199F300D1124F901E559FD4F418169
:104650004713F2CF40814613EFCF42814111ECCF97
:10466000438154814A1B5B0B483C510528F78091DC
:1046700069028F70806180936902F901E059FD4FF2
:1046800080818F708061808384E692E00E945B1C51
:104690000E945E0BDF91CF911F910895A1E1B0E0E0
:1046A000E4E5F3E20C946D308C0185E0F801DE0165
:1046B0001D9601900D928A95E1F7F801E28084E65B
:1046C000A82E82E0B82E6091670270916802611591
:1046D000710509F426C19091640240916502892F09
:1046E00084238F3F09F41DC120813181C380D48090
:1046F000F0906602F601E61BF70BFF2009F4DCC020
:1047000080916902582F507FE83CF10508F09FC066
:1047100051116BC0FE2C431314C0921312C0E11050
:1047200010C08F70806180936902C5010E945B1C7C
:1047300080916902F80185838F2D6196EAE00C94DF
:104740008930C114D10429F0822F83238F3F09F0CF
:1047500003C180E0F82FF170DF2E80FF3CC0809114
:104760009B0240916A0256E0841315C02D873E8754
:104770008D859E850E94F510292F22952F7022305D
:10478000F0F0243018F59F70F1F0F8019581907FDA
:10479000D1F4D12C1EC090E0589FF001599FF00D2C
:1047A0001124E559FD4F6181361306C0608126133F
:1047B00003C06281E6120FC001968770D5CF9F704B
:1047C00011F0882331F3805E883018F3C8010E940D
:1047D0005B1CFD2CB1CFEE2009F4AECF80916902B5
:1047E000816080936902F12CA7CF431306C0921316
:1047F00004C0F801EE2009F479C0C8010E9402113A
:10480000882309F1EE20F9F080916902803270F07E
:10481000209164023091650238872F831986DB86E8
:10482000CA868C87CE0107960E945B1C86E0F80141
:10483000A4E6B2E001900D928A95E1F70E94F92278
:10484000FF24F39479CFC8010E945B1CF9CF51116A
:104850000AC084E692E00E945B1C86E0F50111929A
:104860008A95E9F7C0CF43130FC092130DC0E11032
:104870000BC0F8018583C8010E945B1C86E0F5012E
:1048800011928A95E9F758CFC8010E940211882336
:10489000D1F2EE20C1F280916902803238F220918B
:1048A0006402309165023A8329831B82DD82CC82C7
:1048B0008E83CE010196B8CFE83CF105F8F6FE2CC8
:1048C000EE2009F243131FC092131DC080916902AC
:1048D00080FD10C0982F907F69F0F8018583903F8C
:1048E00031F0982F907F905F8F70892B8583C8015E
:1048F0000E945B1C86E0F801A4E6B2E001900D92F4
:104900008A95E1F719CFC8010E94021181118ECF5B
:1049100080916902816080936902C8010E945B1CDA
:104920000BCFEE2009F48FCFC8010E940211F82EA0
:10493000882309F488CF86E0F801A4E6B2E001906C
:104940000D928A95E1F780916402909165020E9430
:10495000F5100E94F922F0CE81E08E25FBCE1F9249
:104960001FB61F9211248F939F93AF93BF93809193
:104970008A03811113C080918B0390918C03A091C5
:104980008D03B0918E034196A11DB11D80938B03C1
:1049900090938C03A0938D03B0938E03BF91AF913E
:1049A0009F918F911F901FBE1F901895CDB7DEB7B6
:1049B000C854D1090FB6F894DEBF0FBECDBF85B77E
:1049C000806885BF85B7806885BF84B7877F84BFCF
:1049D0000FB6F894A895809160008861809360007C
:1049E000109260000FBE80E890E00FB6F8948093BC
:1049F0006100909361000FBE89E599E09093A30157
:104A00008093A2010E946A060E945D078091E200E5
:104A100084608093E20078948091A8038823A1F0B9
:104A20001091E9001F709091EC00892F817090FD2A
:104A300080E8182B1092E9008091E80083FD0E9425
:104A4000E6151F701093E90082E084BD93E095BDE8
:104A50009AEF97BD80936E000E942C11811102C0C5
:104A60000E942410A3E6B1E047E651E09D0101E079
:104A700010E0F90181919F01E82FE295EF70F0E0DD
:104A800091A18F70B80101C0660F8A95EAF7892F4E
:104A9000862B81A34217530761F741E050E09D91B7
:104AA000E92FE295EF70F0E022A19F70BA0102C0F9
:104AB000660F771F9A95E2F7CB018095822382A338
:104AC00071E0A736B70759F7AEE5B1E043E651E02C
:104AD00061E070E08D91E82FE295EF70F0E011A1B8
:104AE0008F709B0101C0220F8A95EAF7922F909553
:104AF000912391A382A1822B82A34A175B0751F7CE
:104B00001092B1021092B002109241031092400331
:104B10001092B3021092B202109243031092420319
:104B20001092B5021092B402109245031092440301
:104B30001092B7021092B6021092470310924603E9
:104B40001092B9021092B8021092490310924803D1
:104B50000E94BF12811102C00E94541282E090E0B4
:104B60000E9456318093C1020E9445119093BB026E
:104B70008093BA020E9459148FE39CE90197F1F7E0
:104B800000C000000E9459148091400380FF08C0BB
:104B90006FEF7FEF90E080E00E9488310E941C0858
:104BA00083E090E00E9456310E94D51582E0809308
:104BB000390380E88093AD030E94652F6DE070E0BB
:104BC00083E591E00E94D70E892BE9F580913903A6
:104BD00063E070E081FD4FC180E591E00E94D70E57
:104BE000892B89F56DE070E080E491E00E94D70E9A
:104BF000892B49F50E942D08605A75418F4F9F4FB0
:104C000060937E0370937F0380938003909381036E
:104C1000E0EBF3E080E092E0DF019C011D92215087
:104C20003040E1F7F093B705E093B6058FEF9FEFC3
:104C30009093AF038093AE0381E0809383038093CE
:104C4000820310923A038091BC02811133C00E940A
:104C5000BF12811104C00E9454120E94441288E0C5
:104C600090E00E945E3160937303709374038093AD
:104C70007503909376036E7F71F40E94441288E06E
:104C800090E00E945E31609373037093740380938D
:104C90007503909376030E94B4081092720380917A
:104CA000730380FF04C060E086950E94F91381E0E1
:104CB0008093BC0282E080930D0349E751E067E7EF
:104CC000862E61E0962E7BE7E72E71E0F72E8401B9
:104CD0009A0161E070E0D9018D919D01E82FE29584
:104CE000EF70F0E0B1A08F706B0101C0CC0C8A9521
:104CF000EAF79C2D90959B2191A382A18C2982A3F8
:104D0000F80181918F01E82FE295EF70F0E0B1A0FA
:104D10008F706B0101C0CC0C8A95EAF79C2D9095A1
:104D20009B2191A382A18C2982A3EA16FB0699F606
:104D30008FE891E00197F1F700C0000010910D039A
:104D40006EE073E0FB018E2F861B811708F496C07E
:104D500080E091E090938703809386038091A8037D
:104D6000853001F530E4F32EEE24E39400E112E106
:104D70008091A803853009F4AAC00E94DA150E9428
:104D800065081092BE028091BD02882349F080918F
:104D9000730381608093730360E086950E94F9132A
:104DA0000E94E3130E94591492ECA92E92E0B92EAE
:104DB00020E4822E23E0922E4CEC52E0D401F50147
:104DC000219131918D919D914E175F0709F4D9C0C2
:104DD00028173907A9F3712CD4010D911D914D01AC
:104DE000F501C190D1905F01C016D106D9F1C0265E
:104DF000D126612CEE24E394F12CC6018E219F2153
:104E0000892B31F123966FAE239724967FAE24979A
:104E100021E0C8018E219F21892B09F420E02596ED
:104E20002FAF25970E94D7138160782F27969FAFC9
:104E30008EAF279723964FAD239724965FAD249787
:104E400025966FAD259727968FAD27970E94411B1A
:104E50006394EE0CFF1CF0E16F12CFCFF501329797
:104E600011830083739425E07212B6CF0E942D083F
:104E7000EE24E394ADC08DE491E0B0CEDA012D9143
:104E8000AD01822F82958F7090E0DC0190968C911D
:104E900090E02F7002C0959587952A95E2F7817072
:104EA000D4019D914D01292F22952F7030E0D90119
:104EB00090962C9130E09F7002C0359527959A9579
:104EC000E2F790E020FD92E0892B81933CCF809126
:104ED000A803843009F441C0109272038091BE028D
:104EE000811116C0E092BE0280917303982F9170D9
:104EF0009093BD028E7F80937303BFEFE0E7F2E0F3
:104F0000B150E040F040E1F700C000000E946E0E9A
:104F10000E94010F10928A0328E130E00FB6F89446
:104F2000A895209360000FBEF092600083B7817F48
:104F3000846083BF83B7816083BF7894889583B78B
:104F40008E7F83BF0FB6F894A8958091600088612A
:104F500080936000109260000FBE80919E038823B2
:104F600009F406CF0E945914E0E4F3E08191919195
:104F7000892B09F08BC76AE473E06E177F07B1F7DE
:104F8000F7CE2817390709F026CF0E94D7138C01D6
:104F90008091BF029091C00208171907C1F08FEFEE
:104FA0008DAF8EAF1FAE0E94D7138160782F2296EF
:104FB0009FAF8EAF22974DAD5EAD6FAD22968FAD98
:104FC00022970E94411B1093C0020093BF02E12C64
:104FD0008090D7029090D802092C000CAA08BB0838
:104FE00080910C0190E0E7EDF2E021E030E03296B4
:104FF000821793070CF003C18091D3029091D402E1
:10500000A091D502B091D6026FB7F89440908B036F
:1050100050908C0360908D0370908E036FBF481A80
:10502000590A6A0A7B0A10910C0139EC43165104A3
:105030006104710414F18091D20290E0019669E15B
:1050400070E00E94A8308093D202880F991FFC0163
:10505000E952FD4F11821082812F183108F087E14B
:105060008F5F80930C010E942D086093D302709390
:10507000D4028093D5029093D60262E08616910402
:10508000A104B1040CF4C8C0A0E6BAEEA5019401D5
:105090000E940A314B015C0178EC179F90011124AA
:1050A000032E000C440B550B240D351D461D571DBA
:1050B000A5E0B0E00E940A319B01AC01C501B4013A
:1050C0000E94BC3029013A0181EF48165104610465
:1050D00071042CF0F0EF4F2E512C612C712C80912B
:1050E000CE029091CF02A091D002B091D1022FB701
:1050F000F89480908B0390908C03A0908D03B090D7
:105100008E032FBF881A990AAA0ABB0A95E6891648
:105110009104A104B10484F00E942D086093CE0292
:105120007093CF028093D0029093D10280911003AC
:105130008093CD024092CC021091CD02A091CC027E
:10514000A11BBB0BA50194010E94153124E630E0A0
:1051500040E050E00E94DE30120F10931003809167
:105160007203882309F43FC080917103E0917303B7
:10517000E695E81BE0936D0300ED17E077E1C72E9D
:1051800078E0D72E823051F4F0E0E05AFE4FE491FF
:105190000E2F10E0E4EBCE2EEEE0DE2E80916E03BB
:1051A000882361F010926E030E94D71390936C03D2
:1051B00080936B031092700310926F030E94D713B9
:1051C000E0916B03F0916C038E1B9F0B8F3F9F4709
:1051D00050F40E0F1F1F10936C0300936B038BE6AC
:1051E00093E0F6010995912CF12C44E0A42EB12C0A
:1051F0005DEF852E772473946CEF662EC8C04081D6
:105200005181052E000C660B770B840E951EA61E91
:10521000B71E2F5F3F4FEBCE412C512C32015FCF99
:10522000092D10E0F801E758FE4F8081E82FE29544
:10523000EF70F0E0E0A1F0E08F7002C0F595E79527
:105240008A95E2F7E170D801A958BE4F2C91A22FA0
:10525000A295AF70B0E090968C9190E02F7002C054
:10526000959587952A95E2F780FDCAC180E08E2B3F
:10527000D801A25FBC4FEC919E2F9370891709F45F
:1052800085C0EE0FEE0FE82BEC93EF70F0E0E959DC
:10529000FE4F9801255F3C4F69018081D9019C91A7
:1052A000890F8C9320E084308CF1F801E75FFC4F8C
:1052B00080818F5F80830E94D7139BAA6CAA7DAAEE
:1052C0008160782F9FAB8EAB492D5CEF61E08FA999
:1052D0000E94411BEFE3FFE13197F1F700C00000AE
:1052E0000E94D71398AE69AE1AAE8160782F9CAF3A
:1052F0008BAF492D5CEF60E08CAD0E94411B8FE3CA
:105300009FE10197F1F700C0000021E0D6018C91E8
:105310008D3F8CF5F801E75FFC4F808181508083E1
:105320000E94D71399A68AA67BA68160782F9DA795
:105330008CA7492D5DEF61E08DA50E94411BEFE335
:10534000FFE13197F1F700C000000E94D7139EA63D
:105350008FA618AA8160782F9AAB89AB492D5DEF93
:1053600060E08AA90E94411B8FE39FE10197F1F75A
:1053700000C0000021E0D6018C91082E000C990B92
:10538000B5010E94A830F6018083F22A939480919F
:105390000D03981608F444CFF1100E942D08809157
:1053A0008303882309F4E0C080EB93E09093B70572
:1053B0008093B6050091100380911803811130C0CD
:1053C0000E948C0C0E94230C90E080E00E94F60C5E
:1053D00010E09FE1A92E2FE0922E3AE7832EBA2CFF
:1053E000B11A812F692D0E949C30B2E0CB2E911111
:1053F00007C041E06B2D85E70E94720883E0C82E4C
:10540000D12C41E06B2D882D8D190E947208D39408
:10541000DC10F7CF1D5F113211F781E08093180384
:1054200089E291E00E94F50D8091AD0390E08055F6
:105430009C4F9093B7058093B60580910D0108139A
:1054400005C080911503803309F44BC000930D0112
:1054500080E380931503802E912CB12CA12C109207
:105460001403C501B4012AE030E040E050E00E949E
:10547000BC30605D603331F081149104A104B1044B
:1054800009F460E36093130360E3FAE08F1691047C
:10549000A104B10490F0AAE04A2E512C612C712C89
:1054A000C501B401A30192010E94BC30CA01B90137
:1054B000A30192010E94BC30605D6093120324E658
:1054C00082169104A104B10408F49CC0C501B40182
:1054D00024E630E040E050E00E94BC30205D2093A4
:1054E000110381E193E00E94F50D809116039091E4
:1054F00017030E94C8138D32914058F0802F0E94EC
:105500008C0C0E94230C0E94D71390931703809356
:10551000160380918303882371F02091AE033091AC
:10552000AF032115310539F080913A0361E070E055
:10553000882309F46AC0809182038823A9F00E941D
:105540002D0800917E0310917F03209180033091FC
:105550008103601B710B820B930B6F3F7F4F8F4F4B
:105560009F4710F40E94010FE11001C0F1100E944A
:105570001C0F0E94650890913B03891721F08093CE
:105580003B030E942D088091A803843009F0E6CBEC
:1055900083E08093E9008091E80082FFDFCB809177
:1055A000E80090E085FF06C00E948906882309F480
:1055B000FFC091E08091E8008B778093E800992309
:1055C00009F4CCCB00917C0310917D0389810115F6
:1055D000110509F40AC18E3F09F09CC18A8183300C
:1055E00020F08550833008F095C1EA81EE3008F054
:1055F00091C1F0E0EA54FE4CCE0101960C94FD30CE
:1056000082E035CE20E36BCF8F5F082F10E02B01B7
:10561000082E02C0440C551C0A94E2F7A90144214B
:105620005521452B89F39091390390FD44C0829513
:10563000880F8076809310019801369527953695CE
:10564000279520931301815E80931101109214011C
:1056500024E630E047E050E06EE071E088E70E9429
:105660000530892B09F067CFA801E5E0440F551FED
:10567000EA95E1F78091390380FD2BC040555C4FDE
:1056800004E610E020E230E060E488E70E94263083
:10569000892B09F050CF0E941C0FC2018095909574
:1056A0004090AE035090AF03482259225092AF036E
:1056B0004092AE0340CF880F880F880F809310016F
:1056C00010921301895F8093110183E0809314018C
:1056D000BFCFE9E1F3E080E2DF011D928A95E9F7AF
:1056E000EFE7F1E02996FFAFEEAF29970BE711E066
:1056F00073E8672E71E0772E992493942996AEADC6
:10570000BFAD29972D912996BFAFAEAF2997F8016C
:1057100021908F01240E352E311CB10160557C4F34
:105720001B01E22FF0E0E75EFC4F30E020E067E095
:10573000A62EA21AB92C022E01C0BB0C0A94EAF7BD
:10574000610190E0D6018D916D018B216A2D691B5D
:105750006770862E062E000C770BB82F01C0BB0F8A
:105760008A94EAF78B2E7195619571096770772796
:1057700001C086956A95EAF7882A8081882A808206
:105780009F5F9830F9F62F5F3F4F319628303105F3
:1057900071F62996EEADFFAD29976E167F0609F0DA
:1057A000ADCF04E610E020E230E049E153E06CCFF9
:1057B00000E210E09E012F5F3F4F79018091E800E9
:1057C00085FD0AC08091E8008B778093E8000E94F5
:1057D0008906882399F3EDCE8091F100D7018D934E
:1057E0007D010150110951F7E4CE8B3009F42EC22E
:1057F00098F5853009F4D6C0D0F4823009F479C028
:1058000030F4813009F471C08FEF898383C0833015
:1058100009F4B9C08430C1F74C816B818A810E9440
:105820006D109827892798279E838D8373C08730B2
:1058300009F4C6C008F4C1C0883009F402C1893037
:1058400019F76091730370917403809175039091BF
:1058500076030E9453115EC0803109F446C1C8F539
:105860008D3009F412C108F40DC18E3009F411C154
:105870008F3051F68091780390917903892B09F448
:1058800049C08C81C82ED12C2DE1C216D10408F05C
:1058900041C0EA80FB80FE24EF24FE248E010F5FCE
:1058A0001F4FC00ED11EC70189589E4FC016D1068A
:1058B00089F139E8E31632E0F30628F4D8011496AA
:1058C0006C910E946A310F5F1F4FBFEFEB1AFB0A0A
:1058D000EACF823109F40EC108F40AC1833109F418
:1058E00034C18E3F09F090CF80CE1A8289E08B833D
:1058F00011C08A81823009F4E0C2833081F08130A6
:1059000009F082CF0E942D080E9403316B837C83B3
:105910008D839E83CE0101960E94E4061FCA80916A
:10592000780390917903892BA9F38091400390919A
:1059300041039827892798279C838B838091420372
:10594000909143039827892798279E838D83809180
:1059500044039091450398278927982798878F8338
:1059600080914603909147039827892798279A8723
:105970008987809148039091490398278927982720
:105980009C878B87C7CF8A81823009F03DCF6B819E
:105990007C818D819E810E94033186E290E00E948D
:1059A0006A31B8CF2D813E813227232732274C819F
:1059B0006B818A810E94850FADCF0E94AB0FAACF69
:1059C0008A818138C1F060F4803809F0A3CF20E0EB
:1059D0004B8160917503809174030E9466119ACF88
:1059E000823859F1833809F095CF20E04091760351
:1059F0006C818B81F2CF60E08B810E94F9139B81D7
:105A000080917303911111C08E7F80937303109264
:105A10007203BFEFE0E7F2E0B150E040F040E1F7A1
:105A200000C000000E946E0E75CF816080937303EA
:105A300060E086950E94F9136DCF8B818093770388
:105A400069CF8A81813899F030F4803809F062CFCB
:105A5000809176034CCF823891F0833809F05ACF89
:105A6000809174038B83809175038C8353CF8091D5
:105A7000730380FF02C086953ACF80E038CF8091D3
:105A8000770335CF80E18A8345CF82E08A8389E836
:105A90002ECF8C81C82ED12C2DE1C216D10408F056
:105AA00039CFEA80FB80FE24EF24FE248E010F5FB5
:105AB0001F4FC00ED11EC70189589E4F0C151D05E2
:105AC00009F428CF39E8E31632E0F30658F40E94CF
:105AD0005631D80114968C93FFEFEF1AFF0A0F5F2F
